:100000000C9442020C94F2300C942C310C94663116
:100010000C94A0310C94DA310C9414320C944E32BE
:100020000C9488320C9475020C9475020C94750231
:100030000C9475020C9475020C9475020C94750264
:100040000C9475020C94BC080C9475020C94750207
:100050000C9475020C9475020C9475020C94C932C0
:100060000C9475020C94E5240C9429260C947502CA
:100070000C9475020C9475020C9475020C94750224
:100080000C94F2080C9475020C9475020C94750291
:100090000C9436250C9481260C9475020C94B9109E
:1000A0000C9475020C9475020C9428090C9475023A
:1000B0000C9475020C9475020C9475020C945E09F4
:1000C0000C9475020C9475020C9475020C9487259F
:1000D0000C94D9260C9475020C94D8250C943127D5
:1000E0000C947502FE110312031203120312031281
:1000F00003120312F010031203120312031203126D
:1001000003120312F010031203120312031203125C
:1001100003120312FA100312031203120312031242
:100120000312031226110312031203120312031205
:1001300003120312FA100312031203120312031222
:10014000031203122C1103120312031203120312DF
:1001500003120312321103120312031203120312C9
:1001600003120312481103120312031203120312A3
:100170000312031278110312031203120312031263
:100180000312031238110312031203120312031293
:100190000312031256110312031203120312031265
:1001A000031203127B110312031203120312031230
:1001B000031203127B110312031203120312031220
:1001C000031203127B110312031203120312031210
:1001D000031203127B110312031203120312031200
:1001E00003120312841103120312031203120312E7
:1001F00003120312C011031203120312031203129B
:1002000003120312841103120312031203120312C6
:1002100003120312C011031203120312031203127A
:1002200003120312A011031203120312031203128A
:1002300003120312C4110312031203120312031256
:1002400003120312C4110312031203120312031246
:1002500003120312DA110312031203120312031220
:1002600003120312F81103120312031203120312F2
:1002700003120312F81103120312031203120312E2
:1002800003120312031203120312031203120312C6
:1002900003120312031203120312031203120312B6
:1002A00003120312031203120312031203120312A6
:1002B0000312031203120312031203120312031296
:1002C0000312031203120312031203120312031286
:1002D000031203120312036EDB363D9A9999993D7E
:1002E000ABAAAA2A3E000000803F084AD73B3BCE7B
:1002F000016E84BCBFFDC12F3D6C74319ABD568325
:100300003DDA3D00C77F11BED9E4BB4C3E916BAADC
:10031000AABE000000803F072C7AA5BA6CC590DA0F
:100320003B9365FC8BBC53F810FD3C5692834DBD4E
:10033000879D3AB63DCBC9BF5BBE73DA0FC93F0597
:10034000A84CCDB2D44EB93836A9020C50B991861A
:1003500088083CA6AAAA2ABE000000803F0000210F
:1003600000240027002A002D003000330001010086
:1003700000040107010A0100002200250028002BCB
:10038000002E003100340002010000050108010BBD
:1003900001000020002300260029002C002F00323D
:1003A000000001000003010601090105050505071C
:1003B0000508080808020202020A0A0808040404E0
:1003C000040101010101010101030303030303030C
:1003D00003040707070C0C0C0C0C0C0C0C0202029B
:1003E0000206060606060606060B0B0B0B0B0B0B8E
:1003F0000B0102102020080810204010204080022D
:10040000010201080402010102040810204080805A
:1004100040201008040201800402018040201008DE
:1004200004020108040201010204081020408001B6
:10043000020408102040800000090A02080B0C0D7D
:100440000706030401000000000000000000000097
:10045000000000000000000000000000000000009C
:1004600000000011100F000000000000000000005C
:100470000000000000000000000000000000BE0EB0
:100480009324D72B11241FBECFEFD1E2DEBFCDBF07
:1004900000E00CBF12E0A0E0B2E0E6E7F3EA00E023
:1004A0000BBF02C007900D92A23FB107D9F71BBE48
:1004B0001BE0A2EFB2E001C01D92A739B107E1F73E
:1004C00014E0C4E8D4E000E006C022970109FE0170
:1004D0000BBF0E94B551CE37D10780E00807A9F7BE
:1004E0001BBE0E948D1B0C94B9510C9400000F93FD
:1004F0001F93CF93DF9300D000D0CDB7DEB78983B1
:100500006A835C834B833E832D832B813C81ED8109
:10051000FE8189816A8141E08F010E949A022696BC
:100520000FB6F894DEBF0FBECDBFDF91CF911F9104
:100530000F9108950F931F93CF93DF93CDB7DEB73D
:100540002D970FB6F894DEBF0FBECDBF8F8368879F
:1005500049873B872A871D870C8719820E9437337A
:10056000DC01CB018B839C83AD83BE831A826CC07C
:1005700081ED93E06F810E94CD0C81ED93E0688561
:100580000E94340D81ED93E00E94220D81ED93E0F5
:100590006F810E94CD0C8985282F30E08A81882FB9
:1005A00090E0A901481B590BCA018132910514F052
:1005B00080E290E0282F81ED93E06F81422F0E942E
:1005C000B50C12C08981992787FD90952A853B85B6
:1005D0008901080F191F81ED93E00E94D40DF801E5
:1005E000808389818F5F898381ED93E00E94BB0DB9
:1005F0000097E1F08C859D850097B1F00E9437331C
:100600009B01AC018B819C81AD81BE81281B390B84
:100610004A0B5B0B8C859D85CC01A0E0B0E02817D0
:1006200039074A075B0710F481E001C080E08823A6
:1006300049F681ED93E00E94220D8985813208F010
:1006400080E29A81890F8A8381E02A81998529171E
:1006500008F080E0882309F08BCF8C859D8500977A
:1006600019F10E9437339B01AC018B819C81AD81D4
:10067000BE81281B390B4A0B5B0B8C859D85CC01F9
:10068000A0E0B0E0281739074A075B0768F08981C6
:10069000282F332727FD30958985882F90E028174C
:1006A000390714F481E001C080E0882311F08FEF56
:1006B000898389812D960FB6F894DEBF0FBECDBF1A
:1006C000DF91CF911F910F910895CF93DF9300D0C9
:1006D0000F920F92CDB7DEB78A836B834C832D8345
:1006E00020911502309116028A816B81AE014F5F15
:1006F0005F4F0E9477028D81882379F08C81282FAB
:1007000030E081E090E0022E02C0880F991F0A9429
:10071000E2F7982F8981892B0EC08C81282F30E039
:1007200081E090E002C0880F991F2A95E2F7982F88
:10073000909589818923898399818A816B81492F49
:100740000E941F040F900F900F900F900F90DF9159
:10075000CF9108950F93CF93DF93CDB7DEB727974F
:100760000FB6F894DEBF0FBECDBF8B836C834D8375
:100770002E830F832091150230911602AE014E5F39
:100780005F4F8B816C810E947702982F81E09923C3
:1007900009F480E0882309F447C08E81282F30E0D7
:1007A00081E090E002C0880F991F2A95E2F7019737
:1007B0002D81422F50E02E81222F30E0BA01621BA2
:1007C000730B9B012F5F3F4F02C0880F991F2A9523
:1007D000E2F789838F81882F90E02D81422F50E0AE
:1007E0002E81222F30E0BA01621B730B9B012F5F19
:1007F0003F4F02C0880F991F2A95E2F78F839F8190
:10080000898189238F8389818095982F8A81892383
:100810008A839A818F81892B8A839A818B816C81CB
:10082000492F0E941F0401C080E027960FB6F8945C
:10083000DEBF0FBECDBFDF91CF910F910895CF9353
:10084000DF9300D0CDB7DEB789836A834B839E01E7
:100850002D5F3F4F89816A8141E00E9435040F90EE
:100860000F900F90DF91CF910895CF93DF93CDB785
:10087000DEB727970FB6F894DEBF0FBECDBF8B83D0
:100880006C834D833F832E831A8281ED93E06B81CD
:100890000E94CD0C81ED93E06C810E94340D198291
:1008A00011C08981882F90E02E813F81820F931F94
:1008B000FC01208181ED93E0622F0E94340D89813B
:1008C0008F5F898381E029819D81291708F080E06D
:1008D000882339F781ED93E00E94220D8A8381E01D
:1008E0009A81992309F080E027960FB6F894DEBF2D
:1008F0000FBECDBFDF91CF910895CF93DF930F92BD
:100900000F92CDB7DEB79A83898389819A8128E6D1
:10091000FC0120830F900F90DF91CF9108950F93EA
:10092000CF93DF9300D0CDB7DEB79A8389836B83F3
:1009300089819A81FC0180816AE142E023E00B8198
:100940000E94AA030F900F900F90DF91CF910F910B
:1009500008950F93CF93DF9300D0CDB7DEB79A837E
:1009600089836B8389819A81FC0180816BE144E0FA
:1009700022E00B810E94AA030F900F900F90DF914D
:10098000CF910F9108950F93CF93DF9300D0CDB700
:10099000DEB79A8389836B8389819A81FC01808188
:1009A0006CE144E022E00B810E94AA030F900F90BB
:1009B0000F90DF91CF910F910895CF93DF9300D0E7
:1009C0000F92CDB7DEB79A8389836B834C838B817B
:1009D000843080F489819A81FC0120819B81892F58
:1009E000880F890F982F9B5D822F692F4C810E9461
:1009F0001F0401C000000F900F900F900F90DF9127
:100A0000CF910895CF93DF9300D00F92CDB7DEB78B
:100A10009A8389836B834C838B81843080F48981B2
:100A20009A81FC0120819B81892F880F890F982F43
:100A30009A5D822F692F4C810E941F0401C0000023
:100A40000F900F900F900F90DF91CF910895CF935B
:100A5000DF9300D00F92CDB7DEB79A8389836B8383
:100A60004C838B81843090F489819A81FC013081A0
:100A70009B81892F880F890F282F295D9C81832FC7
:100A8000622F47E0292F0E94650301C000000F90EC
:100A90000F900F900F90DF91CF910895CF93DF9338
:100AA00000D00F92CDB7DEB79A8389836B834C83D6
:100AB0008B81843090F489819A81FC0130819B8103
:100AC000892F880F890F282F295D9C81832F622F02
:100AD00046E0292F0E94650301C000000F900F908F
:100AE0000F900F90DF91CF910895CF93DF9300D0B7
:100AF0000F92CDB7DEB79A8389836B834C838B814A
:100B0000843090F489819A81FC0130819B81892F06
:100B1000880F890F282F295D9C81832F622F45E044
:100B2000292F0E94650301C000000F900F900F90C5
:100B30000F90DF91CF910895CF93DF9300D00F9264
:100B4000CDB7DEB79A8389836B834C838B818430E6
:100B500090F489819A81FC0130819B81892F880FD3
:100B6000890F282F295D9C81832F622F44E0292F34
:100B70000E94650301C000000F900F900F900F902E
:100B8000DF91CF9108950F93CF93DF9300D00F9211
:100B9000CDB7DEB79A8389836B834C838B81843096
:100BA00090F489819A81FC0120819B81892F880F93
:100BB000890F982F995D822F692F43E024E00C81E3
:100BC0000E94AA0301C000000F900F900F900F9099
:100BD000DF91CF910F910895CF93DF9300D0CDB7E0
:100BE000DEB79A8389836B8389819A81FC01808136
:100BF0009B8167E341E0292F0E9465030F900F90CE
:100C00000F90DF91CF910895CF92DF92EF92FF92F4
:100C10000F931F93CF93DF93CDB7DEB72E970FB609
:100C2000F894DEBF0FBECDBF9A8389837C836B832C
:100C30005E834D8338872F831A870987FC86EB866E
:100C4000DE86CD8689819A81FC01408189819A81E5
:100C50009C012F5F3F4FE0911502F0911602842F07
:100C60006BE34EE08F010E949A0289819A81FC0118
:100C70008181882F90E0382F222789819A81FC0179
:100C80008281882F90E0282B392B8B819C81FC015D
:100C90003183208389819A81FC018381882F90E0B0
:100CA000382F222789819A81FC018481882F90E046
:100CB000282B392B8D819E81FC01318320838981F2
:100CC0009A81FC018581882F90E0382F2227898125
:100CD0009A81FC018681882F90E0282B392B8F8107
:100CE0009885FC013183208389819A81FC0181856B
:100CF000882F90E0382F222789819A81FC018285F4
:100D0000882F90E0282B392B89859A85FC01318327
:100D1000208389819A81FC018385882F90E0382F78
:100D2000222789819A81FC018485882F90E0282BD5
:100D3000392B8B859C85FC013183208389819A81A5
:100D4000FC018585882F90E0382F222789819A81A0
:100D5000FC018685882F90E0282B392B8D859E8578
:100D6000FC01318320832E960FB6F894DEBF0FBEB0
:100D7000CDBFDF91CF911F910F91FF90EF90DF904A
:100D8000CF9008950F931F93CF93DF9300D00F92CE
:100D9000CDB7DEB79A8389837C836B8389819A81FF
:100DA000FC0150818B81482F475B89819A819C018E
:100DB0002F5F3F4FE0911502F0911602852F642FAF
:100DC00042E08F010E949A0289819A81FC0181810F
:100DD000882F90E0382F222789819A81FC01828117
:100DE000882F90E0822B932B0F900F900F900F90F5
:100DF000DF91CF911F910F910895CF93DF9300D092
:100E0000CDB7DEB79A8389836B8389819A81FC0190
:100E100080819B816AE645E0292F0E9465030F903F
:100E20000F900F90DF91CF910895CF93DF9300D073
:100E3000CDB7DEB79A8389836B8389819A81FC0160
:100E400080819B816BE646E0292F0E9465030F900D
:100E50000F900F90DF91CF9108950F93CF93DF9371
:100E600000D0CDB7DEB79A8389836B8389819A815D
:100E7000FC0180816BE642E023E00B810E94AA0323
:100E80000F900F900F90DF91CF910F910895CF9316
:100E9000DF9300D000D0CDB7DEB79A8389837C83FF
:100EA0006B835E834D8389819A818E579C4FFC01B1
:100EB0008081881F8827881F882331F08B819C813F
:100EC000FC01118210826EC029813A81C901880F0C
:100ED000991F820F931F880F991F880F991F9C01DC
:100EE00089819A818E579C4FFC018081992787FDCB
:100EF0009095280F391F80918603882F90E028173E
:100F000039074CF529813A81C901880F991F820F51
:100F1000931F880F991F880F991F9C0189819A81BF
:100F20008E579C4FFC018081992787FD9095280F53
:100F3000391FC901880F991F820F931F8E509D4F33
:100F4000FC018081829586958695837081708130C1
:100F500011F481E001C080E0882321F129813A81E8
:100F6000C901880F991F820F931F880F991F880F3F
:100F7000991F9C0189819A818E579C4FFC01808129
:100F8000992787FD9095280F391FC901880F991F50
:100F9000820F931F8E509D4FFC0180818F7360E004
:100FA0000E949E3689819A819C012E573C4FF901FF
:100FB00020812F5F8E579C4FFC01208329813A812D
:100FC000C901880F991F820F931F880F991F880FDF
:100FD000991F9C0189819A818E579C4FFC018081C9
:100FE000992787FD9095280F391F80918603882FB8
:100FF00090E02817390754F489819A818E579C4FC5
:10100000FC0180818C3014F481E001C080E08823F1
:1010100009F47FC08B819C81FC0140815181298131
:101020003A81C901880F991F820F931F880F991F5A
:10103000880F991F9C0189819A818E579C4FFC01D2
:101040008081992787FD9095280F391FC901880F46
:10105000991F820F931F8D509D4FFC0180819181BC
:101060009A01280F391F8D819E81FC0131832083D5
:1010700029813A81C901880F991F820F931F880F18
:10108000991F880F991F9C0189819A818E579C4FC7
:10109000FC018081992787FD9095280F391FC90190
:1010A000880F991F820F931F8E509D4FFC018081E6
:1010B0008295869586958370817091E0813009F0E4
:1010C00090E0992309F44FC029813A81C901880F22
:1010D000991F820F931F880F991F880F991F9C01DA
:1010E00089819A818E579C4FFC018081992787FDC9
:1010F0009095280F391FC901880F991F820F931FE0
:101100008E509D4FFC0180818F7361E00E949E365E
:101110002AC08B819C81FC0180819181049621E011
:10112000FCE980349F0708F020E0222341F08D8104
:101130009E8120E43CE9FC01318320830DC08B813A
:101140009C81FC01808191819C012C5F3F4F8D81AE
:101150009E81FC013183208389819A818E579C4F27
:101160002FEFFC01208326960FB6F894DEBF0FBE4A
:10117000CDBFDF91CF9108951F920F920FB60F92BE
:1011800000905B000F9211242F933F934F935F9336
:101190006F937F938F939F93AF93BF93EF93FF933F
:1011A000CF93DF93CDB7DEB781E090E064E870E0E5
:1011B00048E850E00E944707DF91CF91FF91EF91FF
:1011C000BF91AF919F918F917F916F915F914F915F
:1011D0003F912F910F9000925B000F900FBE0F90E8
:1011E0001F9018951F920F920FB60F9200905B0000
:1011F0000F9211242F933F934F935F936F937F939D
:101200008F939F93AF93BF93EF93FF93CF93DF930E
:10121000CDB7DEB782E090E064E970E048E950E0E5
:101220000E944707DF91CF91FF91EF91BF91AF915E
:101230009F918F917F916F915F914F913F912F91EE
:101240000F9000925B000F900FBE0F901F901895AB
:101250001F920F920FB60F9200905B000F92112415
:101260002F933F934F935F936F937F938F939F93AE
:10127000AF93BF93EF93FF93CF93DF93CDB7DEB7D9
:1012800083E090E064EA70E048EA50E00E9447079B
:10129000DF91CF91FF91EF91BF91AF919F918F918E
:1012A0007F916F915F914F913F912F910F9000929D
:1012B0005B000F900FBE0F901F9018951F920F921A
:1012C0000FB60F9200905B000F9211242F933F9363
:1012D0004F935F936F937F938F939F93AF93BF933E
:1012E000EF93FF93CF93DF93CDB7DEB780E090E02D
:1012F00064E271E048E251E00E944707DF91CF913C
:10130000FF91EF91BF91AF919F918F917F916F91DD
:101310005F914F913F912F910F9000925B000F9042
:101320000FBE0F901F901895CF93DF930F920F92DF
:10133000CDB7DEB79A83898389819A8181309105FF
:1013400001F580E890E0FC01108281E890E022E065
:10135000FC01208384E890E0FC011182108286E386
:1013600090E026E330E0F90120812260FC01208337
:101370008FE690E02FE630E0F90120812260FC0149
:10138000208389819A8182309105C1F480E990E0BF
:10139000FC01108281E990E022E0FC01208384E9D5
:1013A00090E0FC011182108288E390E022E0FC01D1
:1013B000208381E790E022E0FC01208389819A81EB
:1013C00083309105C1F480EA90E0FC01108281EA4B
:1013D00090E022E0FC01208384EA90E0FC0111828D
:1013E000108289E390E022E0FC01208382E790E014
:1013F00022E0FC01208389819A810097C1F480E278
:1014000091E0FC01108281E291E022E0FC01208366
:1014100084E291E0FC01118210828AE390E022E0F4
:10142000FC01208383E790E022E0FC0120830F9001
:101430000F90DF91CF910895CF93DF9300D0CDB778
:10144000DEB79B838A83198226C02A813B81C9012A
:10145000880F991F820F931F880F991F880F991F5C
:101460009C018981882F90E0280F391FC901880FBE
:10147000991F820F931F8E509D4FFC018081829592
:101480008695869583708170813011F481E00BC060
:1014900089818F5F898381E099819C3008F080E0A9
:1014A000882399F680E00F900F900F90DF91CF91F5
:1014B0000895CF93DF930F920F92CDB7DEB79A8343
:1014C0008983809186038033E8F4209186038981A3
:1014D0009A81FC012083822F8F5F8093860389810C
:1014E0009A81FC018081282F30E0C901880F991F63
:1014F000820F931F8D509D4F28EB3BE0FC01318301
:10150000208305C089819A812FEFFC0120830F90F1
:101510000F90DF91CF910895CF93DF93CDB7DEB7D2
:101520002A970FB6F894DEBF0FBECDBF9C838B8386
:101530007E836D8358874F833A8729878B819C816F
:10154000FC018081803308F071C08D8161E00E94D0
:10155000E2348B819C81FC018081282F30E08D81D9
:10156000482F4F73C901880F991F820F931F8E5008
:101570009D4F242F2F73FC013081307C232BFC01E5
:10158000208322E330E08F819885A901481B590B05
:10159000CA0199230CF4039695958795959587959F
:1015A000282F8B819C81FC01218328E33AE48985E3
:1015B0009A85A901481B590BCA0199230CF403967B
:1015C0009595879595958795282F8B819C81FC0112
:1015D00022838B819C81FC0180819CE0692F0E9489
:1015E0006C51882F90E09A83898389819A810E9427
:1015F0001C0A982F81E0992309F080E0882321F0CC
:1016000089819A810E9494098B819C81FC0180814F
:10161000282F30E0C901880F991F820F931F8E5029
:101620009D4FFC0120812064FC0120838B819C81E3
:10163000FC0180812A960FB6F894DEBF0FBECDBFA5
:10164000DF91CF910895CF93DF9300D000D0CDB735
:10165000DEB79C838B837E836D838B819C81FC01B1
:10166000808189838981803308F097C08B819C8138
:10167000FC018181282F332727FD309580E090E001
:10168000821B930B880F991F880F991F9C012E5C5A
:101690003F4F8D819E8182179307A4F48B819C819B
:1016A000FC018181282F332727FD309580E090E0D1
:1016B000821B930B880F991F880F991FC2969E83D8
:1016C0008D832AC08B819C81FC018281992787FDB3
:1016D00090952EE832E1A901481B590BCA019C01E3
:1016E000220F331F220F331F8D819E812817390748
:1016F0009CF48B819C81FC018281992787FD9095C8
:101700002EE832E1A901481B590BCA01880F991F25
:10171000880F991F9E838D838D819E8102979E8362
:101720008D838D819E81AA2797FDA095BA2F880F62
:10173000991FAA1FBB1F880F991FAA1FBB1F880FC5
:10174000991FAA1FBB1F880F991FAA1FBB1F28E044
:1017500030E040E050E0BC01CD010E949A51DA0136
:10176000C9019E838D838FE590E0FC0180818A838F
:10177000F8948981282F30E04D815E81C901880F5E
:10178000991F820F931F8D509D4FFC015183408301
:101790008FE590E02A81FC01208326960FB6F8940D
:1017A000DEBF0FBECDBFDF91CF910895CF93DF9302
:1017B00000D00F92CDB7DEB79A8389837C836B8389
:1017C00089819A812B813C81FC01338322830F9094
:1017D0000F900F900F90DF91CF910895CF93DF93EB
:1017E0000F920F92CDB7DEB79A83898389819A8150
:1017F00023EB32E0FC013183208389819A81FC0153
:10180000138212820F900F90DF91CF910895CF93A2
:10181000DF930F920F92CDB7DEB79A8389838981C8
:101820009A810E94EE0B89819A8121E932E0FC01C4
:101830003183208329813A8188EE93E0A0E0B0E0F3
:10184000F90184839583A683B7830F900F90DF916E
:10185000CF910895CF93DF930F920F92CDB7DEB75C
:101860009A83898389819A810E94070C89819A8150
:1018700021E832E0FC01318320830F900F90DF914B
:10188000CF910895CF93DF930F920F92CDB7DEB72C
:101890009A8389831092A7031092A8031092CA0317
:1018A0001092CB030E94CB0E0F900F90DF91CF913F
:1018B0000895CF93DF9300D0CDB7DEB79A838983A5
:1018C0006B838B810E94FF0E85E89EE00E9465106D
:1018D00084E39EE00E94521089819A810E94420C0A
:1018E0000F900F900F90DF91CF910895CF93DF93DA
:1018F00000D00F92CDB7DEB79A8389837C836B8348
:101900002B8189819A81622F0E94590C0F900F9030
:101910000F900F90DF91CF910895CF93DF9300D078
:1019200000D0CDB7DEB79B838A836C834D832E8333
:101930008D81813210F080E28D8327E833E08C8145
:10194000B9014D812E810E940F0F89831092A70348
:1019500089818093A803898126960FB6F894DEBF0B
:101960000FBECDBFDF91CF910895CF93DF9300D00D
:101970000F92CDB7DEB79A8389836B834C838981BD
:101980009A816B814C8121E00E948D0C0F900F9009
:101990000F900F90DF91CF910895CF93DF9300D0F8
:1019A000CDB7DEB79A8389836B8381E08093CC03C4
:1019B0008B818093A9031092CA031092CB030F90DE
:1019C0000F900F90DF91CF910895CF93DF9300D0C8
:1019D0000F92CDB7DEB79A8389837C836B832B818B
:1019E00089819A81622F0E94CD0C0F900F900F90E9
:1019F0000F90DF91CF9108950F93CF93DF9300D095
:101A00000F92CDB7DEB79B838A836C838091A90345
:101A10009091CB032AEA33E0B901492F21E00C81F0
:101A20000E948C0F89831092CA031092CB031092EC
:101A3000CC0389810F900F900F900F90DF91CF9181
:101A40000F910895CF93DF930F920F92CDB7DEB72A
:101A50009A83898389819A8161E00E94FC0C0F90AE
:101A60000F90DF91CF910895CF93DF9300D0CDB742
:101A7000DEB79A8389836B838091CC03882301F13D
:101A80008091CB03803248F089819A8161E070E0D7
:101A90000E94D60B80E090E01AC08091CA03882F84
:101AA00090E02B8186559C4FFC0120838091CA03D6
:101AB0008F5F8093CA038091CA038093CB0305C0D4
:101AC000CE01039661E00E941A1081E090E00F9031
:101AD0000F900F90DF91CF910895CF93DF93CDB703
:101AE000DEB728970FB6F894DEBF0FBECDBF9C833C
:101AF0008B837E836D8358874F838091CC038823AB
:101B000049F11A8219821AC08B819C81FC01808163
:101B10009181FC01208131814D815E8189819A8191
:101B2000840F951FFC0140818B819C81642FF901FA
:101B3000199589819A8101969A83898341E0298147
:101B40003A818F8198852817390708F040E04423AF
:101B5000D9F606C02F818D819E81622F0E941A10B6
:101B60008F81988528960FB6F894DEBF0FBECDBF43
:101B7000DF91CF910895CF93DF930F920F92CDB75E
:101B8000DEB79A8389838091A803282F30E0809163
:101B9000A703882F90E0A901481B590BCA010F9099
:101BA0000F90DF91CF910895CF93DF9300D00F92E4
:101BB000CDB7DEB79C838B838FEF9FEF9A838983AA
:101BC0009091A7038091A803981788F48091A703A8
:101BD000882F90E089579C4FFC018081882F90E0EE
:101BE0009A8389838091A7038F5F8093A70389815C
:101BF0009A810F900F900F900F90DF91CF910895E1
:101C0000CF93DF9300D00F92CDB7DEB79C838B8349
:101C10008FEF9FEF9A8389839091A7038091A80308
:101C2000981760F48091A703882F90E089579C4F04
:101C3000FC018081882F90E09A83898389819A8131
:101C40000F900F900F900F90DF91CF910895CF9349
:101C5000DF930F920F92CDB7DEB79A8389830F90EF
:101C60000F90DF91CF910895CF93DF9300D00F9223
:101C70000F92CDB7DEB79B838A837D836C8380917F
:101C8000CF039091D0030097A9F19091A703809181
:101C9000A803981788F1198213C08981882F90E0D2
:101CA0002981222F30E04A815B81240F351FF90101
:101CB000208189579C4FFC01208389818F5F898314
:101CC0008981282F30E041E08C819D8128173907D8
:101CD0000CF040E0442309F71092A7038C81809315
:101CE000A8032091CF033091D0038C819D81F9010D
:101CF000199503C0000001C000000F900F900F90D5
:101D00000F900F90DF91CF910895CF93DF93CDB7D0
:101D1000DEB78091CD039091CE03009759F01092D9
:101D2000CA031092CB038091CD039091CE03FC01A6
:101D3000199501C00000DF91CF910895CF93DF93F3
:101D400000D00F92CDB7DEB79A8389837C836B83F3
:101D500089819A818130910551F48B819C812FEF8B
:101D60008F3F920721F481ED93E00E942A0C0F909F
:101D70000F900F900F90DF91CF910895CF93DF9345
:101D8000CDB7DEB781E090E06FEF7FEF0E949E0E4F
:101D9000DF91CF910895CF93DF93CDB7DEB7109247
:101DA000DD0381E08093DF031092E00380919D02C8
:101DB00061E00E949E3680919E0261E00E949E3604
:101DC00089EB90E029EB30E0F90120812E7FFC01C6
:101DD000208389EB90E029EB30E0F90120812D7F11
:101DE000FC01208388EB90E02CE0FC0120838CEB4D
:101DF00090E025E4FC012083DF91CF910895CF93FB
:101E0000DF930F92CDB7DEB789838AEB90E029810B
:101E1000220FFC0120830F90DF91CF910895CF9383
:101E2000DF9300D000D0CDB7DEB78A837C836B838D
:101E30004D832E838D81813210F080E064C00000DC
:101E400001C000008091DD038823D9F781E08093F1
:101E5000DD038E818093DF038FEF80934A0410921D
:101E600005048D8181508093060481E08093DE0318
:101E70008A81882F90E0880F991F982F8091DE0328
:101E8000892B8093DE038091E003813071F41092FE
:101E9000E0038BEB90E02091DE03FC0120838CEBD0
:101EA00090E025ECFC01208305C08CEB90E025EE52
:101EB000FC012083000001C000008091DD0381301F
:101EC000D9F3909105048D81981718F48091050439
:101ED0008D83198213C08981882F90E02B813C81EA
:101EE000820F931F2981222F30E02B513C4FF901A3
:101EF0002081FC01208389818F5F898399818D8175
:101F0000981748F38D8126960FB6F894DEBF0FBE62
:101F1000CDBFDF91CF9108950F93CF93DF93CDB7CE
:101F2000DEB727970FB6F894DEBF0FBECDBF8A830A
:101F30007C836B834D832E830F838D81813210F0E0
:101F400081E06EC0000001C000008091DD038823A5
:101F5000D9F782E08093DD038F818093DF038FEFD9
:101F600080934A04109205048D818093060419829F
:101F700013C08981882F90E02981222F30E04B8186
:101F80005C81240F351FF90120818B519C4FFC018E
:101F9000208389818F5F898399818D81981748F388
:101FA0001092DE038A81882F90E0880F991F982F66
:101FB0008091DE03892B8093DE038091E0038130E2
:101FC00071F41092E0038BEB90E02091DE03FC01B2
:101FD00020838CEB90E025ECFC01208307C08CEB88
:101FE00090E025EEFC01208301C000008E81882353
:101FF00021F08091DD038230C1F380914A048F3F4C
:1020000011F480E00DC080914A04803211F482E026
:1020100007C080914A04803311F483E001C084E05A
:1020200027960FB6F894DEBF0FBECDBFDF91CF91DC
:102030000F910895CF93DF9300D00F92CDB7DEB705
:102040009B838A836C838C81813210F081E023C072
:102050008091DD03843011F082E01DC08C8180937B
:102060002804198213C08981882F90E02981222FAA
:1020700030E04A815B81240F351FF9012081895F9F
:102080009B4FFC01208389818F5F898399818C819B
:10209000981748F380E00F900F900F900F90DF910A
:1020A000CF910895CF93DF930F920F92CDB7DEB704
:1020B0009A83898389819A819093E4038093E303CF
:1020C0000F900F90DF91CF910895CF93DF930F92F0
:1020D0000F92CDB7DEB79A83898389819A819093D5
:1020E000E2038093E1030F900F90DF91CF91089569
:1020F000CF93DF930F92CDB7DEB789838981882391
:1021000031F08CEB90E025ECFC01208305C08CEBDA
:1021100090E025E8FC0120830F90DF91CF91089596
:10212000CF93DF93CDB7DEB78CEB90E025EDFC01CC
:102130002083000001C000008CEB90E0FC01808156
:10214000882F90E0807190700097A9F71092DD03BE
:10215000DF91CF910895CF93DF93CDB7DEB78CEBAE
:1021600090E025ECFC0120831092DD03DF91CF91FC
:1021700008951F920F920FB60F9200905B000F927E
:1021800011242F933F934F935F936F937F938F937C
:102190009F93AF93BF93EF93FF93CF93DF93CDB70D
:1021A000DEB789EB90E0FC018081882F90E0887F8A
:1021B0009070AA2797FDA095BA2F40E050E028EF35
:1021C00030E0841B950B2817390708F41CC18E5882
:1021D0009F4FFC01EE0FFF1F0590F491E02D199425
:1021E0008BEB90E02091DE03FC01208381E00E94D4
:1021F000781009C190910504809106049817A0F405
:102200008BEB90E040910504242F30E02B513C4FA4
:10221000F9012081FC012083842F8F5F80930504C6
:1022200081E00E947810EFC08091DF03882319F0CD
:102230000E949010E8C081E08093E0038CEB90E076
:1022400024EAFC0120831092DD03DDC080E280934C
:102250004A040E949010D7C080E380934A040E94F1
:102260009010D1C088E380934A040E94AB10CBC089
:1022700040910504842F90E02BEB30E0F9012081A0
:102280008B519C4FFC012083842F8F5F809305042A
:102290009091050480910604981720F481E00E9433
:1022A0007810B1C080E00E947810ADC04091050464
:1022B000842F90E02BEB30E0F90120818B519C4F73
:1022C000FC012083842F8F5F809305048091DF03BE
:1022D000882319F00E94901096C081E08093E0035B
:1022E0008CEB90E024EAFC0120831092DD038BC08C
:1022F0000E94901088C083E08093DD03109249040F
:1023000081E00E9478107FC0809149048032A0F45F
:1023100040914904842F90E02BEB30E0F9012081BB
:10232000875D9B4FFC012083842F8F5F809349043E
:1023300081E00E94781067C080E00E94781063C03E
:1023400080914904803240F480914904882F90E0C4
:10235000875D9B4FFC0110820E9490102091E30347
:102360003091E40380914904482F50E089E294E0E1
:10237000BA01F9011995109249040E94AB1043C0AB
:1023800080E00E9478103FC084E08093DD031092CB
:102390002704109228048091E1039091E203FC014C
:1023A000199580912804882329F481E080932804DA
:1023B000109207048BEB90E040912704242F30E02B
:1023C000295F3B4FF9012081FC012083842F8F5F1F
:1023D000809327049091270480912804981720F473
:1023E00081E00E9478100FC080E00E9478100BC03E
:1023F00081E00E9478101092DD0305C010924A041B
:102400000E9490100000DF91CF91FF91EF91BF915A
:10241000AF919F918F917F916F915F914F913F917C
:102420002F910F9000925B000F900FBE0F901F90A6
:102430001895CF93DF9300D00F92CDB7DEB79A8374
:1024400089837C836B8389819A81FC01808191815E
:10245000FC01208131814B8189819A81642FF901AE
:1024600019950F900F900F900F90DF91CF910895D5
:10247000CF93DF93CDB7DEB7AC970FB6F894DEBF3E
:102480000FBECDBF80E090E0DC0189839A83AB83EF
:10249000BC8380E090E0DC018D839E83AF83B887AE
:1024A00087E192E023E232E0B9010E942F18DC01BB
:1024B000CB01B058BC01CD0120E030E040E05FE34B
:1024C0000E94A550DC01CB0189839A83AB83BC8336
:1024D000CE01099663E272E029813A814B815C81E9
:1024E0000E947B19CE0109960C9667E172E0298162
:1024F0003A814B815C810E947B19CE010996AE0125
:10250000475F5F4F27E132E0BA01A9010E94D41969
:10251000CE0109960C969E01275F3F4FA901445FAB
:102520005F4F23E232E0BA01A9010E94D419CE0123
:1025300009964896AE01475F5F4F9E01275F3F4F68
:10254000245F3F4FBA01A9010E949718CE01099656
:102550009E01275F3F4FB9010E942F189B01AC01DC
:1025600060E070E080E490E40E94E04DDC01CB018B
:10257000BC01CD0120E030E040E05FE30E94A550C7
:10258000DC01CB018D839E83AF83B88787E192E026
:10259000BE01675F7F4F2D813E814F8158850E942C
:1025A0007B19CE0109960C969E01275F3F4F245F51
:1025B0003F4FB9010E942F189B01AC0160E070E011
:1025C00080E490E40E94E04DDC01CB01BC01CD0130
:1025D00020E030E040E05FE30E94A550DC01CB0149
:1025E0008D839E83AF83B88783E292E09E01275F4D
:1025F0003F4FB901645F7F4F2D813E814F815885E8
:102600000E947B19CE01099648969E01275F3F4F95
:10261000285E3F4FB9010E942F189B01AC0160E07A
:1026200070E080E490E40E94E04DDC01CB01BC014D
:10263000CD0120E030E040E05FE30E94A550DC01E6
:10264000CB018D839E83AF83B8878FE292E09E019A
:10265000275F3F4FB901685E7F4F2D813E814F81DB
:1026600058850E947B19AC960FB6F894DEBF0FBE5A
:10267000CDBFDF91CF910895EF92FF920F931F93FB
:10268000CF93DF93CDB7DEB72C970FB6F894DEBFAC
:102690000FBECDBF8091870490918804A0918904DA
:1026A000B0918A0420918704309188044091890474
:1026B00050918A04BC01CD010E94A550DC01CB01E0
:1026C0007C018D0180918B0490918C04A0918D04EC
:1026D000B0918E0420918B0430918C0440918D0434
:1026E00050918E04BC01CD010E94A550DC01CB01AC
:1026F0009C01AD01C801B7010E94E14DDC01CB0195
:102700007C018D0180918F0490919004A09191049F
:10271000B091920420918F043091900440919104E3
:1027200050919204BC01CD010E94A550DC01CB0167
:102730009C01AD01C801B7010E94E14DDC01CB0154
:10274000BC01CD010E941251DC01CB0189839A8327
:10275000AB83BC8369817A818B819C8120E030E0EE
:1027600040E056E40E94C54EDC01CB0189839A8388
:10277000AB83BC8360E070E080E89FE329813A810D
:102780004B815C810E94E04DDC01CB0111E0BC017A
:10279000CD0120E030E0A9010E949A5018160CF0FB
:1027A00010E0112361F160E070E080E89FE329818F
:1027B0003A814B815C810E94E04DDC01CB01BC0180
:1027C000CD0120E030E040E850E40E94A550DC015B
:1027D000CB019C01AD0160E070E080E89FE30E94C6
:1027E000E04DDC01CB0111E0BC01CD0120E030E087
:1027F000A9010E94BE4E88236CF110E02BC060E05E
:1028000070E080E89FE329813A814B815C810E94DE
:10281000E04DDC01CB01BC01CD0120E030E040E81F
:1028200050E40E94A550DC01CB01BC01CD0120E0A9
:1028300030E040E85FE30E94E14DDC01CB0111E0B4
:10284000BC01CD0120E030E0A9010E94BE4E8823EA
:102850000CF010E0112321F080E090E0DC01D3C007
:1028600060E070E080E89FE329813A814B815C81E0
:102870000E94E04DDC01CB0111E0BC01CD0120E064
:1028800030E0A9010E949A5018160CF010E01123B4
:1028900069F160E070E080E89FE329813A814B8133
:1028A0005C810E94E04DDC01CB01BC01CD0120E048
:1028B00030E040E850E40E94A550DC01CB019C01CF
:1028C000AD0160E070E080E89FE30E94E04DDC0134
:1028D000CB0111E0BC01CD0120E030E040E85FE336
:1028E0000E949A50181674F110E02CC060E070E05D
:1028F00080E89FE329813A814B815C810E94E04D11
:10290000DC01CB01BC01CD0120E030E040E850E427
:102910000E94A550DC01CB01BC01CD0120E030E0DC
:1029200040E85FE30E94E14DDC01CB0111E0BC0116
:10293000CD0120E030E040E85FE30E949A50181695
:102940000CF010E0112329F080E090E0A0E8BFE354
:102950005AC060E070E080E89FE329813A814B81B2
:102960005C810E94E04DDC01CB0111E0BC01CD0196
:1029700020E030E0A9010E949A5018160CF010E0F7
:10298000112309F160E070E080E89FE329813A813A
:102990004B815C810E94E04DDC01CB01BC01CD018B
:1029A00020E030E040E850E40E94A550DC01CB017B
:1029B0009C01AD0160E070E080E89FE30E94E04D83
:1029C000DC01CB0120C060E070E080E89FE329815A
:1029D0003A814B815C810E94E04DDC01CB01BC015E
:1029E000CD0120E030E040E850E40E94A550DC0139
:1029F000CB01BC01CD0120E030E040E85FE30E9464
:102A0000E14DDC01CB018D839E83AF83B8878FECD2
:102A100094E047E854E02FE232E0BA01A9010E94B5
:102A200097186D817E818F81988525E83BEE41E482
:102A300059E30E94A550DC01CB019C01AD018BEA5A
:102A400094E06FEC74E00E947B196D817E818F8130
:102A500098852AEF31E644E054E30E94A550DC015A
:102A6000CB019C01AD0182E795E06FEC74E00E9420
:102A70007B1987EB94E047EB54E022E735E0BA019D
:102A8000A9010E94D41980914B0490914C04A0910B
:102A90004D04B0914E04BC01CD010E94C24EDC0138
:102AA000CB0180934F0490935004A0935104B093B2
:102AB000520480914B0490914C04A0914D04B0912C
:102AC0004E04BC01CD010E940851DC01CB01809372
:102AD000530490935404A0935504B09356048091EA
:102AE000170290911802A0911902B0911A02209138
:102AF0005304309154044091550450915604BC0144
:102B0000CD010E94A550DC01CB017C018D0180919B
:102B1000230290912402A0912502B09126022091D7
:102B20004F04309150044091510450915204BC0123
:102B3000CD010E94A550DC01CB019C01AD01C80173
:102B4000B7010E94E04DDC01CB0189879A87AB87F2
:102B5000BC8787E594E06FE272E029853A854B8572
:102B60005C850E947B198EE795E027E534E0B9018A
:102B700020E030E040E85FE30E947B198BEA94E0BC
:102B80004BEA54E02EE735E0BA01A9010E94D419BE
:102B900082E795E027E534E0B90127E137EB41E52D
:102BA00058E30E947B1987EB94E047EB54E022E75F
:102BB00035E0BA01A9010E94D4192C960FB6F894F9
:102BC000DEBF0FBECDBFDF91CF911F910F91FF9060
:102BD000EF900895EF92FF920F931F93CF93DF939F
:102BE00000D00F92CDB7DEB780E090E00E94321B9C
:102BF000DC01CB01BC01CD0121E331E54BE85AE317
:102C00000E94A550DC01CB0180939304909394041F
:102C1000A0939504B093960481E090E00E94321B4B
:102C2000DC01CB01BC01CD0121E331E54BE85AE3E6
:102C30000E94A550DC01CB018093970490939804E7
:102C4000A0939904B0939A0482E090E00E94321B12
:102C5000DC01CB01BC01CD0121E331E54BE85AE3B6
:102C60000E94A550DC01CB0180939B0490939C04AF
:102C7000A0939D04B0939E0483E090E00E94321BD9
:102C8000DC01CB018093870490938804A09389048E
:102C9000B0938A0484E090E00E94321BDC01CB01F7
:102CA00080938B0490938C04A0938D04B0938E0436
:102CB00085E090E00E94321BDC01CB0180938F0401
:102CC00090939004A0939104B093920483EC94E0C9
:102CD00043E954E027EB34E0BA01A9010E94D4197A
:102CE0008FE994E043EC54E02BEA34E0BA01A90107
:102CF0000E94D41980E090E0DC0180933B02909325
:102D00003C02A0933D02B0933E0280915F029091FD
:102D10006002A0916102B0916202B0582091A704B4
:102D20003091A8044091A9045091AA04BC01CD019E
:102D30000E94A550DC01CB0180933F02909340029A
:102D4000A0934102B09342028091A3049091A40405
:102D5000A091A504B091A60420915F023091600279
:102D60004091610250916202BC01CD010E94A550C8
:102D7000DC01CB018093430290934402A09345026F
:102D8000B09346028091A7049091A804A091A90451
:102D9000B091AA0420915F023091600240916102DB
:102DA00050916202BC01CD010E94A550DC01CB0113
:102DB0008093470290934802A0934902B0934A023D
:102DC00080E090E0DC0180934B0290934C02A09352
:102DD0004D02B0934E0280915F0290916002A091EB
:102DE0006102B0916202B05820919F043091A0041A
:102DF0004091A1045091A204BC01CD010E94A550B4
:102E0000DC01CB0180934F0290935002A0935102BA
:102E1000B093520280915F0290916002A091610292
:102E2000B0916202B0582091A3043091A404409163
:102E3000A5045091A604BC01CD010E94A550DC015F
:102E4000CB018093530290935402A0935502B09308
:102E5000560280919F049091A004A091A104B0918A
:102E6000A20420915F023091600240916102509172
:102E70006202BC01CD010E94A550DC01CB01809310
:102E8000570290935802A0935902B0935A0280E0DF
:102E900090E0DC0180935B0290935C02A0935D0262
:102EA000B0935E0287E192E04BE352E023E634E028
:102EB000BA01A9010E94371A1A82198261C01C82C4
:102EC0001B824FC029813A81C901880F991F820F47
:102ED000931F2B813C81820F931F880F991F880FAE
:102EE000991F895E9D4FFC01E080F1800281138172
:102EF00029813A81C901880F991F820F931F2B8165
:102F00003C81820F931F880F991F880F991F8D593D
:102F10009B4FFC012081318142815381C801B7015F
:102F20000E94E14DDC01CB019C01AD0169817A81F8
:102F3000CB01880F991F860F971F6B817C81860FAD
:102F4000971F880F991F880F991F895E9D4FFC015D
:102F500020833183428353838B819C8101969C83A0
:102F60008B8321E08B819C81833091050CF020E0E4
:102F7000222309F0A7CF89819A8101969A838983B8
:102F800021E089819A81833091050CF020E0222391
:102F900009F095CF0F900F900F900F90DF91CF9188
:102FA0001F910F91FF90EF900895CF93DF93CDB7CE
:102FB000DEB780912F0290913002A0913102B09142
:102FC0003202B058BC01CD010E94454EDC01CB015C
:102FD0008093DB049093DC04A093DD04B093DE04C3
:102FE0008091330290913402A0913502B091360263
:102FF00020913702309138024091390250913A02C3
:10300000BC01CD010E946B4EDC01CB018093DF043B
:103010009093E004A093E104B093E2048091230232
:1030200090912402A0912502B091260220911702CE
:10303000309118024091190250911A02BC01CD0141
:103040000E946B4EDC01CB018093E3049093E40477
:10305000A093E504B093E604DF91CF910895CF9358
:10306000DF93CDB7DEB72A970FB6F894DEBF0FBE59
:10307000CDBF98878F837A87698780E090E0DC01F5
:1030800089839A83AB83BC831E821D8237C08D8166
:103090009E81880F991F880F991F2F813885820F75
:1030A000931FFC0180819181A281B3812D813E819A
:1030B000220F331F220F331F49855A85240F351FD6
:1030C000F9012081318142815381BC01CD010E94EF
:1030D000A550DC01CB019C01AD0169817A818B8116
:1030E0009C810E94E14DDC01CB0189839A83AB83F3
:1030F000BC838D819E8101969E838D8321E08D818D
:103100009E81833091050CF020E0222309F0BFCF8F
:1031100089819A81AB81BC81BC01CD012A960FB611
:10312000F894DEBF0FBECDBFDF91CF910895CF924F
:10313000DF92EF92FF920F931F93CF93DF9300D014
:1031400000D0CDB7DEB79A8389837C836B835E839F
:103150004D838B819C810496FC0180819181A281A9
:10316000B3812D813E81285F3F4FF901208131815C
:1031700042815381BC01CD010E94A550DC01CB01ED
:103180007C018D018B819C810896FC01808191815D
:10319000A281B3812D813E812C5F3F4FF9012081B7
:1031A000318142815381BC01CD010E94A550DC01D7
:1031B000CB019C01AD01C801B7010E94E04DDC01CB
:1031C000CB0129813A81F90180839183A283B38362
:1031D00089819A81CC24DD246894C2F8C80ED91E56
:1031E0008B819C810896FC0180819181A281B381B1
:1031F0002D813E81F9012081318142815381BC01C1
:10320000CD010E94A550DC01CB017C018D018B8199
:103210009C81FC0180819181A281B3812D813E81BD
:10322000285F3F4FF9012081318142815381BC01E8
:10323000CD010E94A550DC01CB019C01AD01C8016C
:10324000B7010E94E04DDC01CB01F6018083918340
:10325000A283B38389819A81CC24DD246894C3F846
:10326000C80ED91E8B819C81FC0180819181A28135
:10327000B3812D813E812C5F3F4FF9012081318147
:1032800042815381BC01CD010E94A550DC01CB01DC
:103290007C018D018B819C810496FC018081918150
:1032A000A281B3812D813E81F9012081318142814A
:1032B0005381BC01CD010E94A550DC01CB019C01D2
:1032C000AD01C801B7010E94E04DDC01CB01F60160
:1032D00080839183A283B38326960FB6F894DEBFD2
:1032E0000FBECDBFDF91CF911F910F91FF90EF9057
:1032F000DF90CF9008950F931F93CF93DF93CDB7B7
:10330000DEB72A970FB6F894DEBF0FBECDBF9C8301
:103310008B837E836D832F83388749875A871A82F0
:1033200019822EC089819A81880F991F880F991F51
:103330002B813C818901080F191F89819A81880F8F
:10334000991F880F991F2D813E81820F931FFC01C9
:1033500080819181A281B381BC01CD012F8138850B
:1033600049855A850E94A550DC01CB01F801808374
:103370009183A283B38389819A8101969A838983F9
:1033800021E089819A81833091050CF020E022238D
:1033900049F62A960FB6F894DEBF0FBECDBFDF9177
:1033A000CF911F910F9108950F931F93CF93DF93A8
:1033B000CDB7DEB728970FB6F894DEBF0FBECDBFEE
:1033C0009C838B837E836D8358874F831A821982F7
:1033D00039C089819A81880F991F880F991F2B8185
:1033E0003C818901080F191F89819A81880F991FD3
:1033F000880F991F2D813E81820F931FFC018081D0
:103400009181A281B38129813A81220F331F220F3A
:10341000331F4F815885240F351FF90120813181D9
:1034200042815381BC01CD010E94E14DDC01CB0101
:10343000F80180839183A283B38389819A81019665
:103440009A83898321E089819A81833091050CF0E8
:1034500020E0222309F0BDCF28960FB6F894DEBFF6
:103460000FBECDBFDF91CF911F910F910895EF92C5
:10347000FF920F931F93CF93DF93CDB7DEB768977B
:103480000FB6F894DEBF0FBECDBF9C8B8B8B7E8BAF
:103490006D8B588F4F8B1A821982CDC01C821B8274
:1034A000BBC01E821D8255C029813A81C901880F87
:1034B000991F820F931F880F991F880F991F2B89BF
:1034C0003C89280F391F8D819E81880F991F880F95
:1034D000991F820F931FFC01E080F180028113810C
:1034E0002D813E81C901880F991F820F931F880F7C
:1034F000991F880F991F2D893E89280F391F8B81AD
:103500009C81880F991F880F991F820F931FFC01C0
:103510002081318142815381C801B7010E94A550A9
:10352000DC01CB012D813E81220F331F220F331F7F
:10353000AE014F5F5F4F240F351F2A5F3F4FF901E8
:1035400080839183A283B3838D819E8101969E8324
:103550008D8321E08D819E81833091050CF020E0E8
:10356000222309F0A1CF29813A81C901880F991F2F
:10357000820F931F880F991F880F991F2F89388DED
:10358000280F391F8B819C81880F991F880F991FE5
:10359000280F391F80E090E0DC01F90180839183DE
:1035A000A283B38329813A81C901880F991F820FB1
:1035B000931F880F991F880F991F2F89388D8901B4
:1035C000080F191F8F819885A985BA852B853C85A1
:1035D0004D855E85BC01CD010E94E14DDC01CB0132
:1035E0002F85388949895A89BC01CD010E94E14D56
:1035F000DC01CB012B813C81220F331F220F331FB3
:10360000200F311FF90180839183A283B3838B81C3
:103610009C8101969C838B8321E08B819C818330EC
:1036200091050CF020E0222309F03BCF89819A819B
:1036300001969A83898321E089819A81833091055B
:103640000CF020E0222309F029CF68960FB6F894F9
:10365000DEBF0FBECDBFDF91CF911F910F91FF90C5
:10366000EF900895CF93DF930F920F92CDB7DEB70F
:103670009A83898389819A81880F991F8D599D4FDB
:10368000FC018081918199230CF589819A81880FB1
:10369000991F880F991F895F9A4FFC018081918142
:1036A000A281B38129813A81220F331F220F331F58
:1036B00029513B4FF9012081318142815381BC0165
:1036C000CD010E94E04DDC01CB0120C089819A81AF
:1036D000880F991F880F991F89519B4FFC0180818A
:1036E0009181A281B38129813A81220F331F220F58
:1036F000331F295F3A4FF901208131814281538183
:10370000BC01CD010E94E04DDC01CB01BC01CD012B
:103710000F900F90DF91CF910895CF93DF93CDB7A6
:10372000DEB70E9403340E94981B0E94231DFDCF28
:10373000CF93DF93CDB7DEB783E061E00E94E23440
:1037400085E061E00E94E23486E061E00E94E234BC
:1037500087E061E00E94E23482E695E063E070E099
:1037600048EE53E02CE637E00E948C0A85E695E0AF
:1037700065E070E048EE53E02CE637E00E948C0AEA
:1037800088E695E066E070E048EE53E02CE637E02E
:103790000E948C0A8BE695E067E070E048EE53E00B
:1037A0002CE637E00E948C0A82E695E068EE73E032
:1037B0000E94230B85E695E068EE73E00E94230BE0
:1037C00088E695E068EE73E00E94230B8BE695E0B7
:1037D00068EE73E00E94230B2BE131E280E0B90137
:1037E00042E050E00E94CE2F8AEA97E040E052EC9F
:1037F00061E070E00E941E288CEC97E040E052EC03
:1038000061E070E00E941E2881ED93E060E070E0CE
:103810000E94760C80917B0290917C0261E00E9474
:10382000E23487E295E060E00E94150787E295E0C8
:1038300063E00E94A90461E070E080E090E00E94F3
:10384000C13387E295E061E00E94C30461E070E06B
:1038500080E090E00E94C13387E295E063E00E943F
:103860002D0761E070E080E090E00E94C13387E2C4
:1038700095E064E00E948F0461E070E080E090E0F9
:103880000E94C1330E94752387E295E060E00E94A8
:10389000FD0687E295E061E00E94EC0581ED93E092
:1038A0006EE170E00E94E50C81ED93E062E070E073
:1038B0000E94191281ED93E060E070E00E941912FD
:1038C00081ED93E00E94220D65E070E080E090E0E1
:1038D0000E94C13381ED93E06EE170E00E94E50C3F
:1038E00081ED93E060E070E00E94191281ED93E0B9
:1038F00068E170E00E94191281ED93E00E94220DB0
:1039000065E070E080E090E00E94C13387E295E0DE
:1039100060E00E94EC0587E295E060E04EE90E94DD
:10392000DD0487E295E060E043E00E94020587E263
:1039300095E060E041E00E94270587E295E060E0C5
:1039400040E00E944E0587E295E060E040E00E9482
:10395000750587E295E060E040E00E949C0587E203
:1039600095E060E042E00E94C30587E295E061E0F7
:103970004EE90E94DD0487E295E061E047E00E94A5
:10398000020587E295E061E041E00E94270587E2B9
:1039900095E061E040E00E944E0587E295E061E03D
:1039A00040E00E94750587E295E061E040E00E94FA
:1039B0009C0587E295E061E042E00E94C30587E252
:1039C00095E062E04EE90E94DD0487E295E062E066
:1039D00045E00E94020587E295E062E041E00E9436
:1039E000270587E295E062E040E00E944E0587E20D
:1039F00095E062E040E00E94750587E295E062E0B4
:103A000040E00E949C0587E295E062E042E00E946F
:103A1000C30587E295E061E00E94FD060E946333E2
:103A2000DC01CB0180935A0590935B05A0935C0564
:103A3000B0935D0564E170E080E090E00E94C133E6
:103A4000DF91CF910895EF92FF920F931F93CF9341
:103A5000DF93CDB7DEB70E9463339B01AC01809149
:103A60005A0590915B05A0915C05B0915D057901C7
:103A70008A01E81AF90A0A0B1B0BD801C70121E0D9
:103A8000803107E2900700E0A00700E0B00708F4EB
:103A900020E0222309F44EC080915A0590915B05E5
:103AA000A0915C05B0915D0580935E0590935F05E4
:103AB000A0936005B09361050E946333DC01CB01E4
:103AC00080935A0590935B05A0935C05B0935D05C8
:103AD00020915A0530915B0540915C0550915D0540
:103AE00080915E0590915F05A0916005B0916105A0
:103AF00079018A01E81AF90A0A0B1B0BD801C701E0
:103B0000BC01CD010E94604FDC01CB01BC01CD01A5
:103B100020E034E244E759E40E94C54EDC01CB01C9
:103B200080935F0290936002A0936102B09362025F
:103B30000E94A11DDF91CF911F910F91FF90EF90F7
:103B400008951F93CF93DF93CDB7DEB70E9468210E
:103B50000E94EA150E9438120E943C130E94D51759
:103B60008091500590915105880F991F9C01220F5B
:103B7000331F220F331F820F931FAA2797FDA09593
:103B8000BA2FBC01CD010E94604FDC01CB018093B4
:103B9000970990939809A0939909B0939A098091F5
:103BA0004C0590914D05880F991F9C01220F331FE2
:103BB000220F331F820F931FAA2797FDA095BA2FBC
:103BC000BC01CD010E94604FDC01CB0180939F09B5
:103BD0009093A009A093A109B093A20980914E05EA
:103BE00090914F05880F991F9C01220F331F220FC0
:103BF000331F820F931FAA2797FDA095BA2FBC01F0
:103C0000CD010E94604FDC01CB018093A30990930A
:103C1000A409A093A509B093A6098091520590919B
:103C20005305880F991F9C01220F331F220F331F4A
:103C3000820F931FAA2797FDA095BA2FBC01CD0133
:103C40000E94604FDC01CB018093A7099093A809E3
:103C5000A093A909B093AA098091C7049091C804C0
:103C6000A091C904B091CA04809367099093680930
:103C7000A0936909B0936A098091C3049091C40428
:103C8000A091C504B091C60480936B0990936C0910
:103C9000A0936D09B0936E098091CB049091CC04F0
:103CA000A091CD04B091CE04B05880936F09909349
:103CB0007009A0937109B09372098091DB0490910F
:103CC000DC04A091DD04B091DE048093DB099093C5
:103CD000DC09A093DD09B093DE098091DF049091A7
:103CE000E004A091E104B091E2048093DF09909395
:103CF000E009A093E109B093E2098091E304909177
:103D0000E404A091E504B091E6048093E309909364
:103D1000E409A093E509B093E60988E691E9ADE6E8
:103D2000BDE38093F7099093F809A093F909B09344
:103D3000FA098AE999E9A9E9BDE380931F0A9093FA
:103D4000200AA093210AB093220A8FE692E1A3E809
:103D5000BBE38093230A9093240AA093250AB0938F
:103D6000260A8CEE91E5A8EBBDE38093330A90938D
:103D7000340AA093350AB093360A8DEC9CECACEC77
:103D8000BDE38093370A9093380AA093390AB09321
:103D90003A0A86EA9BE9A4ECBBE380933B0A909342
:103DA0003C0AA0933D0AB0933E0A8AE999E9A9E941
:103DB000BFE38093FB099093FC09A093FD09B093A6
:103DC000FE0980E090E0A0E8BFE380932F0A909383
:103DD000300AA093310AB093320A80E090E0A0E26A
:103DE000B2E480930F0A9093100AA093110AB09343
:103DF000120A80E090E0A4E3B3E48093FF0990937B
:103E0000000AA093010AB093020A80E090E0A0EAC1
:103E1000B2E48093030A9093040AA093050AB09336
:103E2000060A8DEC9CECACEBB0E48093070A90930F
:103E3000080AA093090AB0930A0A80E090E0DC0126
:103E400080930B0A90930C0AA0930D0AB0930E0A6C
:103E500080E090E0A0E8BFEB8093270A9093280AC7
:103E6000A093290AB0932A0A8DEC9CECACE4BEE343
:103E700080932B0A90932C0AA0932D0AB0932E0ABC
:103E80000E944E378091B0089091B108A091B2087D
:103E9000B091B308BC01CD0120E030E040E251E434
:103EA0000E94C54EDC01CB0111E0BC01CD0120E038
:103EB00030E04AE754E40E94BE4E88230CF010E044
:103EC000112319F028EE33E03CC08091B0089091A6
:103ED000B108A091B208B091B308BC01CD0120E0B7
:103EE00030E040E251E40E94C54EDC01CB0111E01C
:103EF000BC01CD0120E030E84DEE54E40E949A5020
:103F000018160CF010E0112319F08CE697E018C099
:103F10008091B0089091B108A091B208B091B30817
:103F2000BC01CD0120E030E040E251E40E94C54EEA
:103F3000DC01CB01BC01CD010E942D4FDC01CB0186
:103F40009C0185E695E0B9010E94230B8091A808A9
:103F50009091A908A091AA08B091AB08BC01CD012D
:103F600020E030E040E251E40E94C54EDC01CB018C
:103F700011E0BC01CD0120E030E04AE754E40E94AA
:103F8000BE4E88230CF010E0112319F028EE33E028
:103F90003CC08091A8089091A908A091AA08B0916E
:103FA000AB08BC01CD0120E030E040E251E40E94CA
:103FB000C54EDC01CB0111E0BC01CD0120E030E8B1
:103FC0004DEE54E40E949A5018160CF010E01123A4
:103FD00019F08CE697E018C08091A8089091A90884
:103FE000A091AA08B091AB08BC01CD0120E030E05F
:103FF00040E251E40E94C54EDC01CB01BC01CD0181
:104000000E942D4FDC01CB019C0182E695E0B901B5
:104010000E94230B8091B4089091B508A091B60836
:10402000B091B708BC01CD0120E030E040E251E49E
:104030000E94C54EDC01CB0111E0BC01CD0120E0A6
:1040400030E04AE754E40E94BE4E88230CF010E0B2
:10405000112319F028EE33E03CC08091B408909110
:10406000B508A091B608B091B708BC01CD0120E019
:1040700030E040E251E40E94C54EDC01CB0111E08A
:10408000BC01CD0120E030E84DEE54E40E949A508E
:1040900018160CF010E0112319F08CE697E018C008
:1040A0008091B4089091B508A091B608B091B70876
:1040B000BC01CD0120E030E040E251E40E94C54E59
:1040C000DC01CB01BC01CD010E942D4FDC01CB01F5
:1040D0009C0188E695E0B9010E94230B8091AC0811
:1040E0009091AD08A091AE08B091AF08BC01CD0190
:1040F00020E030E040E251E40E94C54EDC01CB01FB
:1041000011E0BC01CD0120E030E04AE754E40E9418
:10411000BE4E88230CF010E0112319F028EE33E096
:104120003CC08091AC089091AD08A091AE08B091D0
:10413000AF08BC01CD0120E030E040E251E40E9434
:10414000C54EDC01CB0111E0BC01CD0120E030E81F
:104150004DEE54E40E949A5018160CF010E0112312
:1041600019F08CE697E018C08091AC089091AD08EA
:10417000A091AE08B091AF08BC01CD0120E030E0C5
:1041800040E251E40E94C54EDC01CB01BC01CD01EF
:104190000E942D4FDC01CB019C018BE695E0B9011B
:1041A0000E94230B20914B0430914C0440914D040C
:1041B00050914E048AEA97E0BA01A90122E030E06A
:1041C0000E946B2D8AEA97E020E032E0B9010E945C
:1041D000602C2091E3043091E4044091E504509177
:1041E000E6048AEA97E0BA01A90122E030E00E94E1
:1041F0006B2D8AEA97E020E032E0B9010E94B52DEC
:1042000020915F0230916002409161025091620200
:104210008CEC97E0BA01A90123E030E00E946B2DFD
:104220008CEC97E020E032E0B9010E94B52DDF91DF
:10423000CF911F910895CF93DF93CDB7DEB70E9442
:104240006333DC01CB019C018091480590914905C5
:10425000A0914A05B0914B05A901481B590BCA0111
:1042600090936F0580936E050E946333DC01CB0150
:104270008093480590934905A0934A05B0934B0558
:1042800080916E0590916F0557E0813D950728F06C
:10429000109271051092700518C080917005909170
:1042A000710520916E0530916F05880F991F845B11
:1042B0009A4FFC01318320838091700590917105A4
:1042C00001969093710580937005DF91CF910895C9
:1042D000CF92DF92EF92FF920F931F93CF93DF93D2
:1042E000CDB7DEB768970FB6F894DEBF0FBECDBF6F
:1042F00087E295E066E375E048E355E02AE335E0C0
:104300000CE315E0AEE3B5E0E0E4F5E07D016F011C
:104310000E94040680913C0590913D05AA2797FDD7
:10432000A095BA2FBC01CD010E94604FDC01CB01EA
:104330008093E7049093E804A093E904B093EA041F
:1043400080913E0590913F05AA2797FDA095BA2F31
:10435000BC01CD010E94604FDC01CB018093EB04D6
:104360009093EC04A093ED04B093EE04809140058B
:1043700090914105AA2797FDA095BA2FBC01CD01C8
:104380000E94604FDC01CB018093EF049093F00416
:10439000A093F104B093F204809136059091370513
:1043A000AA2797FDA095BA2FBC01CD010E94604FAE
:1043B000DC01CB018093F3049093F404A093F50403
:1043C000B093F6048091380590913905AA2797FD9E
:1043D000A095BA2FBC01CD010E94604FDC01CB013A
:1043E0008093F7049093F804A093F904B093FA042F
:1043F00080913A0590913B05AA2797FDA095BA2F89
:10440000BC01CD010E94604FDC01CB018093FB0415
:104410009093FC04A093FD04B093FE0487E295E022
:1044200060E070E00E94C2069093430580934205CD
:1044300087E295E062E070E00E94C2069093450535
:104440008093440587E295E064E070E00E94C20634
:1044500090934705809346058091DF049091E00496
:10446000A091E104B091E204BC01CD010E94C24ED2
:10447000DC01CB0189839A83AB83BC838091DF0409
:104480009091E004A091E104B091E204BC01CD015F
:104490000E940851DC01CB018D839E83AF83B887D6
:1044A0008091DB049091DC04A091DD04B091DE04E6
:1044B000B058BC01CD010E94C24EDC01CB018987FE
:1044C0009A87AB87BC878091DB049091DC04A09134
:1044D000DD04B091DE04B058BC01CD010E9408514A
:1044E000DC01CB018D879E87AF87B88B2091420579
:1044F000309143058091750290917602A901481B85
:10450000590BCA01AA2797FDA095BA2FBC01CD016E
:104510000E94604FDC01CB01BC01CD0129853A85A9
:104520004B855C850E94A550DC01CB017C018D018F
:104530002091440530914505809177029091780251
:10454000A901481B590BCA01AA2797FDA095BA2FAC
:10455000BC01CD010E94604FDC01CB01BC01CD014B
:104560002D813E814F8158850E94A550DC01CB01F1
:10457000BC01CD012D853E854F8558890E94A550EF
:10458000DC01CB019C01AD01C801B7010E94E14DE6
:10459000DC01CB017C018D0120914605309147055E
:1045A0008091790290917A02A901481B590BCA01A6
:1045B000AA2797FDA095BA2FBC01CD010E94604F9C
:1045C000DC01CB01BC01CD0129813A814B815C81A9
:1045D0000E94A550DC01CB01BC01CD012D853E859B
:1045E0004F8558890E94A550DC01CB019C01AD018B
:1045F000C801B7010E94E14DDC01CB01898B9A8B88
:10460000AB8BBC8B2091440530914505809177029E
:1046100090917802A901481B590BCA01AA2797FD5E
:10462000A095BA2FBC01CD010E94604FDC01CB01E7
:10463000BC01CD0129813A814B815C810E94A5504A
:10464000DC01CB017C018D012091460530914705AD
:104650008091790290917A02A901481B590BCA01F5
:10466000AA2797FDA095BA2FBC01CD010E94604FEB
:10467000DC01CB01BC01CD012D813E814F815885EC
:104680000E94A550DC01CB019C01AD01C801B7011E
:104690000E94E04DDC01CB018D8B9E8BAF8BB88FE0
:1046A0008D899E89AF89B88D29893A894B895C8922
:1046B000BC01CD010E946B4EDC01CB0180934B0409
:1046C00090934C04A0934D04B0934E0468960FB69B
:1046D000F894DEBF0FBECDBFDF91CF911F910F9138
:1046E000FF90EF90DF90CF900895EF92FF920F939D
:1046F0001F93CF93DF93CDB7DEB728970FB6F8940B
:10470000DEBF0FBECDBF1A82198221C080917B020D
:1047100090917C0261E00E949E3668EC70E080E03F
:1047200090E00E94C1330E94682180917B029091A9
:104730007C0260E00E949E3668EC70E080E090E0D1
:104740000E94C13389819A8101969A83898321E0ED
:1047500089819A818A3091050CF020E02223B1F6FC
:104760000E94682164E170E080E090E00E94C13323
:104770000E9468211C821B821FC08B819C81880F34
:10478000991F880F991F89519B4FFC01808191814E
:10479000A281B3812B813C81220F331F220F331F53
:1047A000295F3A4FF90180839183A283B3838B8180
:1047B0009C8101969C838B8321E08B819C8183303B
:1047C00091050CF020E02223C1F61E821D8264C0F8
:1047D0000E94682118861F824AC08F819885880FA1
:1047E000991F880F991F895F9A4FFC0180819181E1
:1047F000A281B381BC01CD012DEC3CEC4CE45FE324
:104800000E94A550DC01CB017C018D018F81988530
:10481000880F991F880F991F89519B4FFC01808138
:104820009181A281B381BC01CD012DEC3CEC4CE423
:104830005EE30E94A550DC01CB019C01AD01C801E3
:10484000B7010E94E14DDC01CB012F813885220F99
:10485000331F220F331F295F3A4FF9018083918361
:10486000A283B3838F819885019698878F8321E0F7
:104870008F819885833091050CF020E0222309F088
:10488000ACCF64E170E080E090E00E94C1338D81A4
:104890009E8101969E838D8321E08D819E81843649
:1048A00091050CF020E0222309F092CF28960FB654
:1048B000F894DEBF0FBECDBFDF91CF911F910F9156
:1048C000FF90EF900895CF93DF9300D00F92CDB774
:1048D000DEB79A8389837C836B8389819A81813057
:1048E0009105D1F48B819C812FEF8F3F9207A1F42A
:1048F00087E295E00E947D0482E695E00E94590AD5
:1049000085E695E00E94590A88E695E00E94590ADA
:104910008BE695E00E94590A0F900F900F900F9030
:10492000DF91CF910895CF93DF93CDB7DEB781E0CC
:1049300090E06FEF7FEF0E946324DF91CF910895A5
:10494000CF93DF9300D00F920F92CDB7DEB78B835A
:104950007D836C838C819D81805C9F4FFC01808175
:10496000918101968F7390709A83898329813A810E
:104970008C819D818E5B9F4FFC018081918141E004
:104980002817390709F440E04423B9F08C819D8150
:10499000805C9F4FFC01808191812C813D81820F41
:1049A000931F2B81FC01208329813A818C819D8179
:1049B000805C9F4FFC01318320830F900F900F90FC
:1049C0000F900F90DF91CF9108951F920F920FB625
:1049D0000F9200905B000F9211242F933F934F93FF
:1049E0005F936F937F938F939F93AF93BF93EF9357
:1049F000FF93CF93DF930F920F92CDB7DEB780EC8A
:104A000090E0FC018081882F90E08470907021E01C
:104A1000009709F020E0222361F086EC90E0FC0191
:104A2000808189832AE835E08981B9010E94A02428
:104A300005C086EC90E0FC0180818A830F900F9086
:104A4000DF91CF91FF91EF91BF91AF919F918F91A6
:104A50007F916F915F914F913F912F910F900092B5
:104A60005B000F900FBE0F901F9018951F920F9232
:104A70000FB60F9200905B000F9211242F933F937B
:104A80004F935F936F937F938F939F93AF93BF9356
:104A9000EF93FF93CF93DF930F920F92CDB7DEB7D3
:104AA00088EC90E0FC018081882F90E08470907009
:104AB00021E0009709F020E0222361F08EEC90E0E5
:104AC000FC018081898322E136E08981B9010E945D
:104AD000A02405C08EEC90E0FC0180818A830F90B9
:104AE0000F90DF91CF91FF91EF91BF91AF919F9187
:104AF0008F917F916F915F914F913F912F910F9087
:104B000000925B000F900FBE0F901F9018951F92A0
:104B10000F920FB60F9200905B000F9211242F930B
:104B20003F934F935F936F937F938F939F93AF9335
:104B3000BF93EF93FF93CF93DF930F920F92CDB775
:104B4000DEB780ED90E0FC018081882F90E08470DA
:104B5000907021E0009709F020E0222361F086EDBB
:104B600090E0FC01808189832AE936E08981B901DE
:104B70000E94A02405C086ED90E0FC0180818A831C
:104B80000F900F90DF91CF91FF91EF91BF91AF9177
:104B90009F918F917F916F915F914F913F912F9155
:104BA0000F9000925B000F900FBE0F901F90189512
:104BB0001F920F920FB60F9200905B000F9211247C
:104BC0002F933F934F935F936F937F938F939F9315
:104BD000AF93BF93EF93FF93CF93DF930F920F9217
:104BE000CDB7DEB780E391E0FC018081882F90E0B3
:104BF0008470907021E0009709F020E0222361F09A
:104C000086E391E0FC018081898322E237E089819B
:104C1000B9010E94A02405C086E391E0FC018081D7
:104C20008A830F900F90DF91CF91FF91EF91BF9109
:104C3000AF919F918F917F916F915F914F913F9134
:104C40002F910F9000925B000F900FBE0F901F905E
:104C500018951F920F920FB60F9200905B000F9263
:104C600011242F933F934F938F939F93EF93FF9331
:104C7000CF93DF930F92CDB7DEB720910E06309120
:104C80000F06809110069091110641E02817390710
:104C900009F040E0442351F081EC90E021EC30E059
:104CA000F90120812F7DFC01208319C0809110061D
:104CB0009091110682539A4FFC01808189838091E3
:104CC00010069091110601968F73907090931106C3
:104CD0008093100686EC90E02981FC0120830F90E0
:104CE000DF91CF91FF91EF919F918F914F913F91E4
:104CF0002F910F9000925B000F900FBE0F901F90AE
:104D000018951F920F920FB60F9200905B000F92B2
:104D100011242F933F934F938F939F93EF93FF9380
:104D2000CF93DF930F92CDB7DEB7209196063091E7
:104D30009706809198069091990641E028173907C7
:104D400009F040E0442351F089EC90E029EC30E098
:104D5000F90120812F7DFC01208319C080919806E4
:104D6000909199068A5A994FFC018081898380919C
:104D700098069091990601968F739070909399067A
:104D8000809398068EEC90E02981FC0120830F909F
:104D9000DF91CF91FF91EF919F918F914F913F9133
:104DA0002F910F9000925B000F900FBE0F901F90FD
:104DB00018951F920F920FB60F9200905B000F9202
:104DC00011242F933F934F938F939F93EF93FF93D0
:104DD000CF93DF930F92CDB7DEB720911E073091AE
:104DE0001F07809120079091210741E0281739077C
:104DF00009F040E0442351F081ED90E021ED30E0F6
:104E0000F90120812F7DFC01208319C080912007AA
:104E1000909121078252994FFC0180818983809172
:104E200020079091210701968F739070909321072E
:104E30008093200786ED90E02981FC0120830F906C
:104E4000DF91CF91FF91EF919F918F914F913F9182
:104E50002F910F9000925B000F900FBE0F901F904C
:104E600018951F920F920FB60F9200905B000F9251
:104E700011242F933F934F938F939F93EF93FF931F
:104E8000CF93DF930F92CDB7DEB72091A607309175
:104E9000A7078091A8079091A90741E02817390733
:104EA00009F040E0442351F081E391E021E331E057
:104EB000F90120812F7DFC01208319C08091A80772
:104EC0009091A9078A59984FFC018081898380912C
:104ED000A8079091A90701968F7390709093A907E6
:104EE0008093A80786E391E02981FC0120830F903D
:104EF000DF91CF91FF91EF919F918F914F913F91D2
:104F00002F910F9000925B000F900FBE0F901F909B
:104F100018958F929F92AF92BF92CF92DF92EF92AD
:104F2000FF920F931F93CF93DF93CDB7DEB76297B6
:104F30000FB6F894DEBF0FBECDBF9A8389837C8302
:104F40006B835E834D8338872F831A870987FC869E
:104F5000EB86DE86CD86B88AAF869A8A898A898171
:104F60009A810E94070C89819A8123EA32E0FC0130
:104F70003183208389819A812B813C81FC01358793
:104F8000248789819A812D813E81FC01378726877C
:104F900089819A812F813885FC01318B208B898111
:104FA0009A8129853A85FC01338B228B89819A81EC
:104FB0002B853C85FC01358B248B89819A812D853D
:104FC0003E85FC01378B268B89819A812F85388914
:104FD000FC01318F208F89819A8129893A89FC01CE
:104FE000338F228F89819A812AA1FC01248F8981A4
:104FF0009A812BA1FC01258F89819A812CA1FC012A
:10500000268F89819A812DA1FC01278F89819A8120
:105010002EA1FC0120A362960FB6F894DEBF0FBE4E
:10502000CDBFDF91CF911F910F91FF90EF90DF9057
:10503000CF90BF90AF909F908F900895CF93DF93C4
:10504000CDB7DEB729970FB6F894DEBF0FBECDBF40
:105050009D838C834E835F836887798781E08B8310
:105060008E819F81A885B985803021EE920720E04E
:10507000A20720E0B20709F41B828B81882361F12B
:105080008C819D81FC01848995892C813D81F90168
:1050900020A1422F50E021E030E002C0220F331F58
:1050A0004A95E2F7FC01208380E099E0ADE3B0E0AF
:1050B0002E813F8148855985BC01CD010E947851E0
:1050C000DA01C9010197A109B109B695A79597958C
:1050D00087959A8389831EC08C819D81FC01848978
:1050E0009589FC01108280E894E8AEE1B0E02E8161
:1050F0003F8148855985BC01CD010E947851DA0174
:10510000C9010197A109B109B695A795979587950A
:105110009A83898389819A81F0E180309F0728F002
:105120008B81882311F01B82A8CF8C819D81FC018B
:105130008089918929813A81232F3327FC0120839B
:105140008C819D81FC01828993892981FC012083C6
:105150008C819D81FC0111A28C819D81FC0186893D
:1051600097892C813D81F90126893789F9012081B0
:10517000622F2C813D81F901248D422F50E021E0E6
:1051800030E002C0220F331F4A95E2F7262BFC01C4
:1051900020838C819D81FC01868997892C813D81AA
:1051A000F90126893789F9012081622F2C813D81FF
:1051B000F901258D422F50E021E030E002C0220F9E
:1051C000331F4A95E2F7262BFC0120838C819D81B9
:1051D000FC01868997892C813D81F90126893789CF
:1051E000F9012081622F2C813D81F901268D422F0A
:1051F00050E021E030E002C0220F331F4A95E2F771
:10520000262BFC0120838C819D81FC018689978956
:105210002C813D81F90126893789F9012081622F8E
:105220002C813D81F901278D422F50E021E030E0B3
:10523000042E02C0220F331F0A94E2F72095262382
:10524000FC01208329960FB6F894DEBF0FBECDBFB8
:10525000DF91CF910895CF93DF930F920F92CDB747
:10526000DEB79A83898389819A81FC01848595853B
:10527000805C9F4FFC012081318189819A81FC01F2
:10528000848595858E5B9F4FFC0180819181A9016A
:10529000481B590BCA018F7390700F900F90DF91CC
:1052A000CF910895CF93DF930F920F92CDB7DEB7D2
:1052B0009A83898389819A81FC0184859585805CA4
:1052C0009F4FFC012081318189819A81FC01848575
:1052D00095858E5B9F4FFC018081918141E028176D
:1052E000390709F040E0442319F08FEF9FEF15C014
:1052F00089819A81FC012485358589819A81FC0107
:10530000848595858E5B9F4FFC0180819181820F02
:10531000931FFC018081882F90E00F900F90DF9108
:10532000CF910895CF93DF9300D0CDB7DEB79B83A5
:105330008A838A819B81FC0184859585805C9F4F4F
:10534000FC01208131818A819B81FC0184859585C6
:105350008E5B9F4FFC018081918141E028173907C6
:1053600009F040E0442319F08FEF9FEF2FC08A81AE
:105370009B81FC01248535858A819B81FC01848584
:1053800095858E5B9F4FFC0180819181820F931FD9
:10539000FC01808189838A819B81FC0184859585BC
:1053A0002A813B81F901248535852E5B3F4FF90128
:1053B000208131812F5F3F4F2F7330708E5B9F4F65
:1053C000FC01318320838981882F90E00F900F901A
:1053D0000F90DF91CF910895CF93DF930F920F92AB
:1053E000CDB7DEB79A83898389819A81FC0181A137
:1053F000882379F089819A81FC0184899589FC014F
:105400008081882F90E080749070009711F481E083
:1054100001C080E0882341F789819A81FC0111A2B3
:105420000F900F90DF91CF910895CF93DF9300D02D
:105430000F920F92CDB7DEB79C838B836D838B81E8
:105440009C81FC0186859785805C9F4FFC01808153
:10545000918101968F7390709A83898329813A8113
:105460008B819C81FC01868597858E5B9F4FFC011B
:105470008081918141E02817390709F040E04423F9
:1054800069F78B819C81FC01268537858B819C8106
:10549000FC0186859785805C9F4FFC01808191810E
:1054A000820F931F2D81FC0120838B819C81FC0145
:1054B0008685978529813A81805C9F4FFC013183E5
:1054C00020838B819C81FC01868997892B813C817B
:1054D000F90126893789F9012081622F2B813C81CE
:1054E000F901278D422F50E021E030E0042E02C068
:1054F000220F331F0A94E2F7262BFC0120838B81B5
:105500009C8121E0FC0121A38B819C81FC01848989
:1055100095892B813C81F90124893589F901208104
:105520002064FC01208381E090E00F900F900F90A9
:105530000F900F90DF91CF9108958F929F92AF922D
:10554000BF92CF92DF92EF92FF920F931F93CF9370
:10555000DF9300D00F92CDB7DEB79A8389837C8327
:105560006B8389819A818130910509F00FC18B810C
:105570009C812FEF8F3F920709F008C100D00F9256
:105580000F928DB79EB701966AEA77E04AE855E038
:105590002EEC35E0E4E0DC01EC93E3E0DC01119675
:1055A000EC93E7E0DC011296EC93E5E0DC01139666
:1055B000EC93E1E0DC011496EC93CB01BA01A90174
:1055C00025EC30E004EC10E00F2EF0ECEF2EFF2481
:1055D000F02D0F2EF1ECCF2EDD24F02D0F2EF2EC5E
:1055E000AF2EBB24F02D0F2EF6EC8F2E9924F02D2C
:1055F0000E9489270F900F900F900F900F9000D06E
:105600000F920F928DB79EB701966CEC77E042E156
:1056100056E026E536E0E4E0DC01EC93E3E0DC0173
:105620001196EC93E7E0DC011296EC93E5E0DC01E7
:105630001396EC93E1E0DC011496EC93CB01BA01F4
:10564000A9012DEC30E00CEC10E00F2EF8ECEF2E61
:10565000FF24F02D0F2EF9ECCF2EDD24F02D0F2E90
:10566000FAECAF2EBB24F02D0F2EFEEC8F2E9924DA
:10567000F02D0E9489270F900F900F900F900F90A0
:1056800000D00F920F928DB79EB701966EEE77E025
:105690004AE956E02EED36E0E4E0DC01EC93E3E08D
:1056A000DC011196EC93E7E0DC011296EC93E5E067
:1056B000DC011396EC93E1E0DC011496EC93CB0152
:1056C000BA01A90125ED30E004ED10E00F2EF0ED58
:1056D000EF2EFF24F02D0F2EF1EDCF2EDD24F02D37
:1056E0000F2EF2EDAF2EBB24F02D0F2EF6ED8F2EE8
:1056F0009924F02D0E9489270F900F900F900F9002
:105700000F9000D00F920F928DB79EB7019660E177
:1057100078E042E257E026E637E0E4E0DC01EC9393
:10572000E3E0DC011196EC93E7E0DC011296EC93E8
:10573000E5E0DC011396EC93E1E0DC011496EC93D8
:10574000CB01BA01A90125E331E004E311E00F2EFA
:10575000F0E3EF2EF1E0FF2EF02D0F2EF1E3CF2E30
:10576000F1E0DF2EF02D0F2EF2E3AF2EF1E0BF2E91
:10577000F02D0F2EF6E38F2EF1E09F2EF02D0E94DC
:1057800089270F900F900F900F900F900F900F9010
:105790000F900F90DF91CF911F910F91FF90EF909D
:1057A000DF90CF90BF90AF909F908F900895CF9350
:1057B000DF93CDB7DEB781E090E06FEF7FEF0E941F
:1057C0009D2ADF91CF910895CF93DF9300D00F9260
:1057D000CDB7DEB79A8389837C836B838B819C8171
:1057E000009719F480E090E01DC089819A81DC0166
:1057F0008D919C910296DC01ED91FC918B819C81B5
:105800009C01D9010D900020E9F7CD010197AC0171
:10581000421B530B9A0189819A814B815C81BA01A9
:10582000A90119950F900F900F900F90DF91CF91D4
:105830000895CF93DF93CDB7DEB728970FB6F894CE
:10584000DEBF0FBECDBF9C838B837E836D83588765
:105850004F831A8219821CC08B819C81FC0180813C
:105860009181FC01208131818D819E81FC014081EB
:105870008D819E8101969E838D838B819C81642F77
:10588000F901199529813A81820F931F9A8389839F
:1058900021E08F819885009709F420E08F81988519
:1058A000019798878F832223B9F689819A81289658
:1058B0000FB6F894DEBF0FBECDBFDF91CF91089534
:1058C000CF93DF9300D00F92CDB7DEB79A83898351
:1058D0007C836B8389819A812B813C81B9010E94F1
:1058E000E42B0F900F900F900F90DF91CF910895C0
:1058F000CF93DF9300D0CDB7DEB79A8389836B83D4
:1059000089819A81FC0180819181FC012081318112
:105910004B8189819A81642FF90119950F900F901D
:105920000F90DF91CF910895CF93DF9300D000D0F7
:10593000CDB7DEB79A8389837C836B835E834D8387
:105940008B819C819C01442737FD4095542F898190
:105950009A81ED81FE81BA01A9019F010E94B92CB3
:1059600026960FB6F894DEBF0FBECDBFDF91CF9164
:105970000895CF93DF93CDB7DEB72A970FB6F8948B
:10598000DEBF0FBECDBF9C838B834D835E836F8351
:1059900078873A87298789859A85009779F48B815A
:1059A0009C81FC0180819181FC01208131814D81AC
:1059B0008B819C81642FF90119954AC089859A854C
:1059C0008A309105C9F58D819E81AF81B885BB2351
:1059D0003CF58B819C816DE20E94782C9A838983AF
:1059E0008D819E81AF81B885B095A0959095819568
:1059F0009F4FAF4FBF4F8D839E83AF83B8872D815D
:105A00003E814F8158858B819C81BA01A9012AE092
:105A10000E94DD2D9C0189819A81820F931F18C0FD
:105A20002D813E814F8158858B819C81BA01A901CE
:105A30002AE00E94DD2D0CC02D813E814F815885CA
:105A4000E9858B819C81BA01A9012E2F0E94DD2D51
:105A50002A960FB6F894DEBF0FBECDBFDF91CF916F
:105A60000895CF93DF93CDB7DEB728970FB6F8949C
:105A7000DEBF0FBECDBF9A8389834B835C836D836A
:105A80007E8338872F838F819885009779F4898169
:105A90009A81FC0180819181FC01208131814B81BF
:105AA00089819A81642FF90119950CC0EF81898150
:105AB0009A812B813C814D815E81BA01A9012E2FF3
:105AC0000E94DD2D28960FB6F894DEBF0FBECDBF25
:105AD000DF91CF910895CF93DF93CDB7DEB72897AD
