:100000000C9484020C94473C0C94813C0C94BB3CB3
:100010000C94F53C0C942F3D0C94693D0C94A33D3D
:100020000C94DD3D0C94B7020C94B7020C94B7020B
:100030000C94B7020C94B7020C94B7020C94B7025C
:100040000C94B7020C94C8110C94B7020C94B7022C
:100050000C94B7020C94B7020C94B7020C941E3E99
:100060000C94B7020C9404300C9448310C94B702F1
:100070000C94B7020C94B7020C94B7020C94B7021C
:100080000C94FE110C94B7020C94B7020C94B702B6
:100090000C9455300C94A0310C94B7020C94C419F4
:1000A0000C94B7020C94B7020C9434120C94B7025F
:1000B0000C94B7020C94B7020C94B7020C946A1219
:1000C0000C94B7020C94B7020C94B7020C94A630AF
:1000D0000C94F8310C94B7020C94F7300C94503215
:1000E0000C94B702091B0E1B0E1B0E1B0E1B0E1BC6
:1000F0000E1B0E1BFB190E1B0E1B0E1B0E1B0E1BCD
:100100000E1B0E1BFB190E1B0E1B0E1B0E1B0E1BBC
:100110000E1B0E1B051A0E1B0E1B0E1B0E1B0E1BA1
:100120000E1B0E1B311A0E1B0E1B0E1B0E1B0E1B65
:100130000E1B0E1B051A0E1B0E1B0E1B0E1B0E1B81
:100140000E1B0E1B371A0E1B0E1B0E1B0E1B0E1B3F
:100150000E1B0E1B3D1A0E1B0E1B0E1B0E1B0E1B29
:100160000E1B0E1B531A0E1B0E1B0E1B0E1B0E1B03
:100170000E1B0E1B831A0E1B0E1B0E1B0E1B0E1BC3
:100180000E1B0E1B431A0E1B0E1B0E1B0E1B0E1BF3
:100190000E1B0E1B611A0E1B0E1B0E1B0E1B0E1BC5
:1001A0000E1B0E1B861A0E1B0E1B0E1B0E1B0E1B90
:1001B0000E1B0E1B861A0E1B0E1B0E1B0E1B0E1B80
:1001C0000E1B0E1B861A0E1B0E1B0E1B0E1B0E1B70
:1001D0000E1B0E1B861A0E1B0E1B0E1B0E1B0E1B60
:1001E0000E1B0E1B8F1A0E1B0E1B0E1B0E1B0E1B47
:1001F0000E1B0E1BCB1A0E1B0E1B0E1B0E1B0E1BFB
:100200000E1B0E1B8F1A0E1B0E1B0E1B0E1B0E1B26
:100210000E1B0E1BCB1A0E1B0E1B0E1B0E1B0E1BDA
:100220000E1B0E1BAB1A0E1B0E1B0E1B0E1B0E1BEA
:100230000E1B0E1BCF1A0E1B0E1B0E1B0E1B0E1BB6
:100240000E1B0E1BCF1A0E1B0E1B0E1B0E1B0E1BA6
:100250000E1B0E1BE51A0E1B0E1B0E1B0E1B0E1B80
:100260000E1B0E1B031B0E1B0E1B0E1B0E1B0E1B51
:100270000E1B0E1B031B0E1B0E1B0E1B0E1B0E1B41
:100280000E1B0E1B0E1B0E1B0E1B0E1B0E1B0E1B26
:100290000E1B0E1B0E1B0E1B0E1B0E1B0E1B0E1B16
:1002A0000E1B0E1B0E1B0E1B0E1B0E1B0E1B0E1B06
:1002B0000E1B0E1B0E1B0E1B0E1B0E1B0E1B0E1BF6
:1002C0000E1B0E1B0E1B0E1B0E1B0E1B0E1B0E1BE6
:1002D0000E1B0E1B0E1B036EDB363D9A9999993D42
:1002E000ABAAAA2A3E000000803F084AD73B3BCE7B
:1002F000016E84BCBFFDC12F3D6C74319ABD568325
:100300003DDA3D00C77F11BED9E4BB4C3E916BAADC
:10031000AABE000000803F072C7AA5BA6CC590DA0F
:100320003B9365FC8BBC53F810FD3C5692834DBD4E
:10033000879D3AB63DCBC9BF5BBE73DA0FC93F0597
:10034000A84CCDB2D44EB93836A9020C50B991861A
:1003500088083CA6AAAA2ABE000000803F07634284
:1003600036B79BD8A71A39685618AEBAAB558C1D4C
:100370003CB7CC5763BD6DEDFD753EF6177231BFCE
:10038000000000803F08000000BE922449123EABEE
:10039000AAAA2ABECDCCCC4C3E00000080BEABAA9F
:1003A000AAAA3E00000000BF000000803F0000003D
:1003B0000000084178D3BB4387D1133D190E3CC3DD
:1003C000BD4282AD2B3E68EC8276BED98FE1A93E5C
:1003D0004C80EFFFBE01C4FF7F3F00000000000023
:1003E000002100240027002A002D003000330001E6
:1003F000010000040107010A010000220025002875
:10040000002B002E0031003400020100000501081D
:10041000010B01000020002300260029002C002FE2
:100420000032000001000003010601090105050575
:1004300005070508080808020202020A0A0808045B
:100440000404040101010101010101030303030389
:10045000030303040707070C0C0C0C0C0C0C0C0218
:1004600002020206060606060606060B0B0B0B0B1F
:100470000B0B0B0102102020080810204010204018
:100480008002010201080402010102040810204058
:100490008080402010080402018004020180402076
:1004A000100804020108040201010204081020409F
:1004B0008001020408102040800000090A02080B95
:1004C0000C0D0706030401000000000000000000FE
:1004D000000000000000000000000000000000001C
:1004E000000000000011100F0000000000000000DC
:1004F00000000000000000000000000000000000FC
:100500003304C917B22FF63611241FBECFEFD1E244
:10051000DEBFCDBF00E00CBF13E0A0E0B2E0E8E139
:10052000F1EC00E00BBF02C007900D92A439B107B7
:10053000D9F71BBE1CE0A4E9B3E001C01D92A635AB
:10054000B107E1F715E0C8E0D5E000E006C022976A
:100550000109FE010BBF0E948660C030D10780E018
:100560000807A9F71BBE0E9479240C948A600C949A
:100570000000A0E3B0E0EFEBF2E00C945160298FB3
:100580003A8F4B8F5C8F6D8F7E8F8F8F98A3A98A48
:10059000BA8ACB8ADC8AED8AFE8A0F8B188F098D86
:1005A0001A8D2B8D3C8D09A31AA32BA33CA36801A4
:1005B00079018FEF9FEFA0E0B0E0C822D922EA22B4
:1005C000FB2289012227332709A71AA72BA73CA7BB
:1005D00009891A892B893C890DA31EA32FA338A74B
:1005E0004801590188229922AA22BB2229016624A6
:1005F0007724C501B401A70196010E94C05F6DA7D1
:100600007EA78FA798ABC301B2010E94C05F6B01A8
:100610007C01C501B40129A53AA54BA55CA50E94A2
:10062000C05F4B015C01C301B2010E94C05FAB011E
:10063000BC01C80CD91CEA1CFB1C0DA51EA52FA5CE
:1006400038A9C901AA27BB27C80ED91EEA1EFB1E5E
:10065000C814D904EA04FB0420F4405050406F4F02
:100660007F4FC701AA27BB27840F951FA61FB71F5F
:100670008D839E83AF83B8877601DD24CC244DA57E
:100680005EA56FA578A960707070C40ED51EE61EB9
:10069000F71EC982DA82EB82FC821C2D0A818B80D4
:1006A0004C808D878E818E878F818F878885888B00
:1006B0002D893E894F89588D69A17AA18BA19CA172
:1006C0000E94C05F6B017C012D8D3E8D4F8D58A126
:1006D0006DA17EA18FA198A50E94C05FDC01CB0116
:1006E000C80ED91EEA1EFB1E8D859E85AF85B88972
:1006F0008C0D9D1DAE1DBF1D8D879E87AF87B88B4E
:10070000682F7E85212F302F482D542D8F85988975
:10071000E096E0E10C946D600F93CF93DF93CDB73B
:10072000DEB760970FB6F894DEBF0FBECDBF0023D3
:1007300009F456C029873A874B875C876D877E8787
:100740008F87988B20E2201B8D859E85AF85B88989
:10075000AC01BD011216B4F0770F440B542FBA014F
:100760004D835E836F837887332727FD30953095DF
:1007700021953F4F04C0B595A795979587952A95E4
:10078000D2F722C0002E04C07595679557954795FE
:100790000A94D2F74D835E836F83788704C0880FF5
:1007A000991FAA1FBB1F2A95D2F749855A856B85C9
:1007B0007C8504C076956795579547950A95D2F73D
:1007C000842B952BA62BB72B89839A83AB83BC8371
:1007D00029813A814B815C816D817E818F819885F1
:1007E00060960FB6F894DEBF0FBECDBFDF91CF91FC
:1007F0000F910895CF93DF930F920F92CDB7DEB78D
:100800009A8389838AEF98E040E855E260E070E0DF
:100810000E943D3389819A81FC0110820F900F90D4
:10082000DF91CF910895CF93DF9300D00F92CDB792
:10083000DEB79A8389837C836B8389819A81813037
:10084000910551F48B819C812FEF8F3F920721F40A
:1008500084E993E00E94FA030F900F900F900F909D
:10086000DF91CF910895CF93DF93CDB7DEB781E0CD
:1008700090E06FEF7FEF0E941304DF91CF91089516
:100880000F931F93CF93DF9300D000D0CDB7DEB787
:1008900089836A835C834B833E832D832B813C81D8
:1008A000ED81FE8189816A8141E08F010E946304AC
:1008B00026960FB6F894DEBF0FBECDBFDF91CF9165
:1008C0001F910F9108950F931F93CF93DF93CDB78F
:1008D000DEB72D970FB6F894DEBF0FBECDBF8F8366
:1008E000688749873B872A871D870C8719820E9462
:1008F0008C3EDC01CB018B839C83AD83BE831A824B
:100900006CC084E794E06F810E94D81584E794E07E
:1009100068850E943F1684E794E00E942D1684E7C4
:1009200094E06F810E94D8158985282F30E08A8154
:10093000882F90E0A901481B590BCA01813291050B
:1009400014F080E290E0282F84E794E06F81422F3A
:100950000E94C01512C08981992787FD90952A852C
:100960003B858901080F191F84E794E00E94DF1678
:10097000F801808389818F5F898384E794E00E94F6
:10098000C6160097E1F08C859D850097B1F00E9416
:100990008C3E9B01AC018B819C81AD81BE81281B6B
:1009A000390B4A0B5B0B8C859D85CC01A0E0B0E038
:1009B000281739074A075B0710F481E001C080E07F
:1009C000882349F684E794E00E942D1689858132B8
:1009D00008F080E29A81890F8A8381E02A819985D3
:1009E000291708F080E0882309F08BCF8C859D853E
:1009F000009719F10E948C3E9B01AC018B819C8178
:100A0000AD81BE81281B390B4A0B5B0B8C859D8504
:100A1000CC01A0E0B0E0281739074A075B0768F06F
:100A20008981282F332727FD30958985882F90E0ED
:100A30002817390714F481E001C080E0882311F001
:100A40008FEF898389812D960FB6F894DEBF0FBE94
:100A5000CDBFDF91CF911F910F910895CF93DF9379
:100A600000D00F920F92CDB7DEB78A836B834C8391
:100A70002D832091B8023091B9028A816B81AE0139
:100A80004F5F5F4F0E9440048D81882379F08C81F5
:100A9000282F30E081E090E0022E02C0880F991FDD
:100AA0000A94E2F7982F8981892B0EC08C81282F18
:100AB00030E081E090E002C0880F991F2A95E2F7AC
:100AC000982F909589818923898399818A816B8167
:100AD000492F0E94E8050F900F900F900F900F90F4
:100AE000DF91CF9108950F93CF93DF93CDB7DEB70A
:100AF00027970FB6F894DEBF0FBECDBF8B836C83F4
:100B00004D832E830F832091B8023091B902AE013C
:100B10004E5F5F4F8B816C810E944004982F81E073
:100B2000992309F480E0882309F447C08E81282F97
:100B300030E081E090E002C0880F991F2A95E2F72B
:100B400001972D81422F50E02E81222F30E0BA01F3
:100B5000621B730B9B012F5F3F4F02C0880F991FD1
:100B60002A95E2F789838F81882F90E02D81422F8B
:100B700050E02E81222F30E0BA01621B730B9B01E3
:100B80002F5F3F4F02C0880F991F2A95E2F78F838E
:100B90009F81898189238F8389818095982F8A817C
:100BA00089238A839A818F81892B8A839A818B8179
:100BB0006C81492F0E94E80501C080E027960FB69E
:100BC000F894DEBF0FBECDBFDF91CF910F91089596
:100BD000CF93DF9300D0CDB7DEB789836A834B8391
:100BE0009E012D5F3F4F89816A8141E00E94FE0591
:100BF0000F900F900F90DF91CF910895CF93DF93D7
:100C0000CDB7DEB727970FB6F894DEBF0FBECDBFC6
:100C10008B836C834D833F832E831A8284E794E019
:100C20006B810E94D81584E794E06C810E943F1686
:100C3000198211C08981882F90E02E813F81820F17
:100C4000931FFC01208184E794E0622F0E943F16ED
:100C500089818F5F898381E029819D81291708F02F
:100C600080E0882339F784E794E00E942D168A8378
:100C700081E09A81992309F080E027960FB6F894D5
:100C8000DEBF0FBECDBFDF91CF910895CF93DF932D
:100C90000F920F92CDB7DEB79A83898389819A81AB
:100CA00028E6FC0120830F900F90DF91CF910895EB
:100CB0000F93CF93DF9300D0CDB7DEB79A838983AC
:100CC0006B8389819A81FC0180816AE142E023E0A3
:100CD0000B810E9473050F900F900F90DF91CF91C1
:100CE0000F9108950F93CF93DF9300D0CDB7DEB768
:100CF0009A8389836B8389819A81FC0180816BE16E
:100D000044E022E00B810E9473050F900F900F903A
:100D1000DF91CF910F9108950F93CF93DF9300D080
:100D2000CDB7DEB79A8389836B8389819A81FC0171
:100D300080816CE144E022E00B810E9473050F90FA
:100D40000F900F90DF91CF910F910895CF93DF9384
:100D500000D00F92CDB7DEB79A8389836B834C8323
:100D60008B81843080F489819A81FC0120819B8170
:100D7000892F880F890F982F9B5D822F692F4C81B7
:100D80000E94E80501C000000F900F900F900F9097
:100D9000DF91CF910895CF93DF9300D00F92CDB71D
:100DA000DEB79A8389836B834C838B81843080F494
:100DB00089819A81FC0120819B81892F880F890F6D
:100DC000982F9A5D822F692F4C810E94E80501C0FF
:100DD00000000F900F900F900F90DF91CF9108952A
:100DE000CF93DF9300D00F92CDB7DEB79A8389837C
:100DF0006B834C838B81843090F489819A81FC01D0
:100E000030819B81892F880F890F282F295D9C8134
:100E1000832F622F47E0292F0E942E0501C000007A
:100E20000F900F900F900F90DF91CF910895CF9377
:100E3000DF9300D00F92CDB7DEB79A8389836B839F
:100E40004C838B81843090F489819A81FC013081BC
:100E50009B81892F880F890F282F295D9C81832FE3
:100E6000622F46E0292F0E942E0501C000000F903E
:100E70000F900F900F90DF91CF910895CF93DF9354
:100E800000D00F92CDB7DEB79A8389836B834C83F2
:100E90008B81843090F489819A81FC0130819B811F
:100EA000892F880F890F282F295D9C81832F622F1E
:100EB00045E0292F0E942E0501C000000F900F90E1
:100EC0000F900F90DF91CF910895CF93DF9300D0D3
:100ED0000F92CDB7DEB79A8389836B834C838B8166
:100EE000843090F489819A81FC0130819B81892F23
:100EF000880F890F282F295D9C81832F622F44E062
:100F0000292F0E942E0501C000000F900F900F9016
:100F10000F90DF91CF9108950F93CF93DF9300D07F
:100F20000F92CDB7DEB79A8389836B834C838B8115
:100F3000843090F489819A81FC0120819B81892FE2
:100F4000880F890F982F995D822F692F43E024E045
:100F50000C810E94730501C000000F900F900F904C
:100F60000F90DF91CF910F910895CF93DF9300D031
:100F7000CDB7DEB79A8389836B8389819A81FC011F
:100F800080819B8167E341E0292F0E942E050F900D
:100F90000F900F90DF91CF910895CF92DF92EF9253
:100FA000FF920F931F93CF93DF93CDB7DEB72E97AA
:100FB0000FB6F894DEBF0FBECDBF9A8389837C83C2
:100FC0006B835E834D8338872F831A870987FC865E
:100FD000EB86DE86CD8689819A81FC0140818981FC
:100FE0009A819C012F5F3F4FE091B802F091B902C6
:100FF000842F6BE34EE08F010E94630489819A8104
:10100000FC018181882F90E0382F222789819A81E5
:10101000FC018281882F90E0282B392B8B819C81C9
:10102000FC013183208389819A81FC018381882F8F
:1010300090E0382F222789819A81FC018481882FB2
:1010400090E0282B392B8D819E81FC0131832083F8
:1010500089819A81FC018581882F90E0382F222791
:1010600089819A81FC018681882F90E0282B392B79
:101070008F819885FC013183208389819A81FC01CD
:101080008185882F90E0382F222789819A81FC0161
:101090008285882F90E0282B392B89859A85FC0141
:1010A0003183208389819A81FC018385882F90E098
:1010B000382F222789819A81FC018485882F90E02E
:1010C000282B392B8B859C85FC01318320838981DA
:1010D0009A81FC018585882F90E0382F222789810D
:1010E0009A81FC018685882F90E0282B392B8D85ED
:1010F0009E85FC01318320832E960FB6F894DEBFC7
:101100000FBECDBFDF91CF911F910F91FF90EF9058
:10111000DF90CF9008950F931F93CF93DF9300D06C
:101120000F92CDB7DEB79A8389837C836B838981E5
:101130009A81FC0150818B81482F475B89819A817C
:101140009C012F5F3F4FE091B802F091B902852FCB
:10115000642F42E08F010E94630489819A81FC011F
:101160008181882F90E0382F222789819A81FC0184
:101170008281882F90E0822B932B0F900F900F90FD
:101180000F90DF91CF911F910F910895CF93DF932F
:1011900000D0CDB7DEB79A8389836B8389819A812A
:1011A000FC0180819B816AE645E0292F0E942E0583
:1011B0000F900F900F90DF91CF910895CF93DF9311
:1011C00000D0CDB7DEB79A8389836B8389819A81FA
:1011D000FC0180819B816BE646E0292F0E942E0551
:1011E0000F900F900F90DF91CF9108950F93CF93B1
:1011F000DF9300D0CDB7DEB79A8389836B83898173
:101200009A81FC0180816BE642E023E00B810E9421
:1012100073050F900F900F90DF91CF910F9108956C
:10122000CF93DF9300D00F92CDB7DEB79A83898337
:101230007C836B8389819A81FC0180819181FC018F
:10124000208131814B8189819A81642FF90119951F
:101250000F900F900F900F90DF91CF910895CF9343
:10126000DF930F920F92CDB7DEB79A8389830F90E9
:101270000F90DF91CF910895CF93DF9300D0CDB73A
:10128000DEB79A8389836B8389819A812B81FC01E4
:1012900020878BE290E02BE230E0F90120812E7F65
:1012A000FC0120838BE290E02BE230E0F901208109
:1012B0002D7FFC01208389819A810E94331068EE82
:1012C00073E080E090E00E94163F89819A810E943D
:1012D000B90F0F900F900F90DF91CF9108952F923B
:1012E0003F924F925F926F927F928F929F92AF92B6
:1012F000BF92CF92DF92EF92FF920F931F93CF9303
:10130000DF93CDB7DEB7E3970FB6F894DEBF0FBE1D
:10131000CDBF9A8F898F6B8F898D9A8D6B8D0E942F
:10132000040EDC01CB0189839A83AB83BC83898162
:101330009A81AB81BC810097A105B10521F480E0C1
:1013400090E0DC01CAC2898D9A8D6B8D0E94B50D2B
:10135000DC01CB018D839E83AF83B8878D819E8115
:10136000AF81B8850097A105B10521F480E090E038
:10137000DC01B3C2898D9A8DDC011B968D919C9105
:101380001C97CC01A0E0B0E0DC01992788278C01F4
:101390009D0140E050E0BA010C8F1D8F2E8F3F8FD2
:1013A00048A359A36AA37BA3AD80BE80CF80D88415
:1013B0008D819E81AF81B885BB0F880B982FDC0192
:1013C000E82EF82E082F182F898D9A8DDC011F9694
:1013D0008D919C9150971C014424552466247724B8
:1013E00043012A2D3B2D4C2D5D2D6E2D7F2D802F01
:1013F000912FA22CB32CC42CD52CE62CF72C082D25
:10140000192D0E94B902222E332E442E552E662EFF
:10141000772E882E992EA22CB32CC42CD52CE62CFA
:10142000F72C082D192D2A2D3B2D4C2D5D2D6E2DC1
:101430007F2D802F912F07E00E948C03A22EB32EC8
:10144000C42ED52EE62EF72E082F192F2A2C3B2C32
:101450004C2C5D2C6E2C7F2C802E912E2C8D220DF1
:10146000E1E0BC8D2B1708F0E0E03D8D330DA1E0ED
:10147000FD8D3F1708F0A0E0FE2FF30FE1E0F3171A
:1014800008F0E0E0AE2B3F2F4E8D440DB1E00E8D05
:10149000401708F0B0E0FA2FF40FE1E0F41708F07D
:1014A000E0E0BE2B4F2F5F8D550DA1E01F8D511732
:1014B00008F0A0E0FB2FF50FE1E0F51708F0E0E001
:1014C000AE2B5F2F68A1660DB1E0E8A16E1708F0A2
:1014D000B0E0FA2FF60FE1E0F61708F0E0E0BE2BDF
:1014E0006F2F79A1770DA1E0F9A17F1708F0A0E097
:1014F000FB2FF70FE1E0F71708F0E0E0AE2B7F2FAE
:101500008AA1880DF1E00AA1801708F0F0E0A80F89
:10151000E1E0A81708F0E0E0FE2B8A2F9BA1990DCF
:10152000EF2FE90F9E2F29873A874B875C876D87BE
:101530007E878F87988B898D9A8DDC0119968D9186
:101540009C911A97CC01A0E0B0E0072E7FE0880FB5
:10155000991FAA1FBB1F7A95D1F7702D8C019D0191
:1015600040E050E0BA010CA31DA32EA33FA348A75F
:1015700059A76AA77BA72D813E814F8158852CA74B
:101580003DA74EA75FA78D819E81AF81B885BB0F18
:10159000880B982FDC0188AB89AB8AAB8BAB898D2C
:1015A0009A8DDC011D968D919C911E971C014424FF
:1015B00055246624772443012CA53DA54EA55FA59F
:1015C00068A979A98AA99BA9A22CB32CC42CD52CD3
:1015D000E62CF72C082D192D0E94B902222E332E4D
:1015E000442E552E662E772E882E992EA22CB32CA3
:1015F000C42CD52CE62CF72C082D192D2A2D3B2D8B
:101600004C2D5D2D6E2D7F2D802F912F08E00E9497
:101610008C03222E332E442E552E662E772E882EA6
:10162000992EA22CB32CC42CD52CE62CF72C082DEB
:10163000192D2CA12A0DE1E0BCA12B1708F0E0E048
:101640003DA13B0DF1E0ADA13A1708F0F0E0E30F4A
:10165000A1E0E31708F0A0E0FA2B3E2F4EA14C0DBD
:10166000E1E0BEA14B1708F0E0E0F40FA1E0F417B1
:1016700008F0A0E0EA2B4F2F5FA15D0DF1E0AFA1D4
:101680005A1708F0F0E0E50FA1E0E51708F0A0E038
:10169000FA2B5E2F68A56E0DE1E0B8A56B1708F078
:1016A000E0E0F60FA1E0F61708F0A0E0EA2B6F2FBC
:1016B00079A57F0DF1E0A9A57A1708F0F0E0E70F12
:1016C000A1E0E71708F0A0E0FA2B7E2F8AA5800F93
:1016D000E1E0BAA58B1708F0E0E0F80FA1E0F817F9
:1016E00008F0A0E0EA2B8F2F9BA5910FE90F9E2F0A
:1016F000298B3A8B4B8B5C8B6D8B7E8B8F8B988F72
:1017000089819A81AB81BC815C016D01EE24FF244B
:1017100087012A2D3B2D4C2D5D2D6E2D7F2D802F89
:10172000912FA988BA88CB88DC88ED88FE880F893C
:10173000188D0E94B902222E332E442E552E662E6D
:10174000772E882E992EA22CB32CC42CD52CE62CC7
:10175000F72C082D192D2A2D3B2D4C2D5D2D6E2D8E
:101760007F2D802F912F05E10E948C03222E332E96
:10177000442E552E662E772E882E992EA22CB32C11
:10178000C42CD52CE62CF72C082D192D29843A844D
:101790004B845C846D847E848F8498882A2D2219E2
:1017A000E1E0A21608F0E0E03B2D3319F1E0B316BA
:1017B00008F0F0E0A32FAE1BEA2FA1E03E1708F0DF
:1017C000A0E0FA2B3E2F4C2D4419E1E0C41608F09E
:1017D000E0E0B42FBF1BFB2FA1E04F1708F0A0E003
:1017E000EA2B4F2F5D2D5519F1E0D51608F0F0E0EA
:1017F000A52FAE1BEA2FA1E05E1708F0A0E0FA2BA0
:101800005E2F6E2D6619E1E0E61608F0E0E0B62FD7
:10181000BF1BFB2FA1E06F1708F0A0E0EA2B6F2F92
:101820007F2D7719F1E0F71608F0F0E0A72FAE1B37
:10183000EA2FA1E07E1708F0A0E0FA2B7E2F802F80
:101840008819E1E0081708F0E0E0B82FBF1BFB2F74
:10185000A1E08F1708F0A0E0EA2B8F2F912F9919A4
:10186000F92FFE1BEF2F9E2FA22EB32EC42ED52EA6
:10187000E62EF72E082F192F2A2D3B2D4C2D5D2DEE
:101880006E2D7F2D802F912F0FE00E948C03222E32
:10189000332E442E552E662E772E882E992EA22C6E
:1018A000B32CC42CD52CE62CF72C082D192D2A2D61
:1018B0003B2D4C2D5D2D6E2D7F2D802F912F0E9465
:1018C000355CDC01CB01BC01CD0120E030E048EC0F
:1018D00052E40E949C5BDC01CB01BC01CD01E3968C
:1018E0000FB6F894DEBF0FBECDBFDF91CF911F9131
:1018F0000F91FF90EF90DF90CF90BF90AF909F90AF
:101900008F907F906F905F904F903F902F900895B1
:101910002F923F924F925F926F927F928F929F92FF
:10192000AF92BF92CF92DF92EF92FF920F931F93ED
:10193000CF93DF93CDB7DEB72B970FB6F894DEBF0A
:101940000FBECDBF9A8789876B8789859A856B85FE
:101950000E94B50DDC01CB0189839A83AB83BC83E4
:10196000BB0F880B982FDC018D838E838F83888734
:1019700089819A81892B9B81892B9C81892B9D81CF
:10198000892B9E81892B9F81892B9885892B882380
:1019900009F4CDC089859A85FC01838994895C010D
:1019A000CC24DD24EE24FF2487012A2D3B2D4C2D51
:1019B0005D2D6E2D7F2D802F912FA980BA80CB8039
:1019C000DC80ED80FE800F8118850E94B902222EF6
:1019D000332E442E552E662E772E882E992EA22C2D
:1019E000B32CC42CD52CE62CF72C082D192D2A2D20
:1019F0003B2D4C2D5D2D6E2D7F2D802F912F07E1DE
:101A00000E948C03222E332E442E552E662E772EC6
:101A1000882E992EA22CB32CC42CD52CE62CF72C76
:101A2000082D192D0F2EF0ED2F2EF02D0F2EF7E093
:101A30003F2EF02D442455246624772488249924AD
:101A40002A2D220DE1E02A1508F0E0E03B2D330DB0
:101A5000F1E03B1508F0F0E0E30FA1E0E31708F038
:101A6000A0E0FA2B3E2F4C2D440DE1E04C1508F080
:101A7000E0E0F40FA1E0F41708F0A0E0EA2B4F2F0C
:101A80005D2D550DF1E05D1508F0F0E0E50FA1E0EA
:101A9000E51708F0A0E0FA2B5E2F6E2D660DE1E051
:101AA0006E1508F0E0E0F60FA1E0F61708F0A0E0F0
:101AB000EA2B6F2F7F2D770DF1E07F1508F0F0E016
:101AC000E70FA1E0E71708F0A0E0FA2B7E2F802FA8
:101AD000880DE1E0801708F0E0E0F80FA1E0F817CA
:101AE00008F0A0E0EA2B8F2F912F990DE90F9E2F80
:101AF000A22EB32EC42ED52EE62EF72E082F192F88
:101B00002A2D3B2D4C2D5D2D6E2D7F2D802F912F5D
:101B10000E94355CDC01CB01BC01CD0120E030E04E
:101B200048EC52E40E949C5BDC01CB0103C080E0E6
:101B300090E0DC01BC01CD012B960FB6F894DEBF1E
:101B40000FBECDBFDF91CF911F910F91FF90EF900E
:101B5000DF90CF90BF90AF909F908F907F906F90CD
:101B60005F904F903F902F900895EF92FF920F93C8
:101B70001F93CF93DF93CDB7DEB727970FB6F894B7
:101B8000DEBF0FBECDBF9E838D836F838D819E810F
:101B90006F810E949B0EDC01CB0189839A83AB830A
:101BA000BC8389819A81AB81BC810097A105B10575
:101BB000C9F08D819E81FC0181899289CC01A0E0D0
:101BC000B0E0BA2FA92F982F882729813A814B811D
:101BD0005C8179018A01E81AF90A0A0B1B0BD8010A
:101BE000C70103C080E090E0DC01BC01CD01279675
:101BF0000FB6F894DEBF0FBECDBFDF91CF911F911E
:101C00000F91FF90EF900895EF92FF920F931F9323
:101C1000CF93DF93CDB7DEB727970FB6F894DEBF2B
:101C20000FBECDBF9E838D836F830E94B83EDC01C3
:101C3000CB0189839A83AB83BC838D819E81FC0118
:101C400080819181A281B3810097A105B105A1F1A5
:101C50008D819E81FC0180819181A281B381298146
:101C60003A814B815C8179018A01E81AF90A0A0BF1
:101C70001B0BD801C701803107E2900700E0A007E5
:101C800000E0B007C8F08D819E81FC0110821182B6
:101C9000128213828F81282F205C8D819E81622F7A
:101CA0000E94520FDC01CB012D813E81F901858B11
:101CB000968BA78BB08F30C08D819E81FC01808177
:101CC0009181A281B3810097A105B105F1F48D81C5
:101CD0009E81FC0184819581A681B7810097A10531
:101CE000B10599F48F81282F205C8D819E81622F10
:101CF0000E94320F2D813E8189819A81AB81BC8106
:101D0000F90180839183A283B3838D819E81FC013D
:101D100085899689A789B08DBC01CD0127960FB61C
:101D2000F894DEBF0FBECDBFDF91CF911F910F9111
:101D3000FF90EF900895EF92FF920F931F93CF9330
:101D4000DF93CDB7DEB727970FB6F894DEBF0FBE8F
:101D5000CDBF9E838D836F830E94B83EDC01CB0193
:101D600089839A83AB83BC838D819E81FC018481AE
:101D70009581A681B7810097A105B105A1F18D815B
:101D80009E81FC0184819581A681B78129813A8158
:101D90004B815C8179018A01E81AF90A0A0B1B0B55
:101DA000D801C701803107E2900700E0A00700E0FA
:101DB000B007C8F08D819E81FC01148215821682C5
:101DC00017828F81282F205B8D819E81622F0E9438
:101DD000520FDC01CB012D813E81F901818F928F61
:101DE000A38FB48F29C08D819E81FC018481958150
:101DF000A681B7810097A105B105F1F48D819E817F
:101E0000FC0180819181A281B3810097A105B10578
:101E100099F48F81282F205B8D819E81622F0E94F3
:101E2000320F2D813E8189819A81AB81BC81F9017C
:101E300084839583A683B7838D819E81FC01818DE8
:101E4000928DA38DB48DBC01CD0127960FB6F89469
:101E5000DEBF0FBECDBFDF91CF911F910F91FF90DD
:101E6000EF900895CF93DF9300D0CDB7DEB79A837C
:101E700089836B8389819A81FC01208584E794E0C2
:101E8000622F0E94D81584E794E06B810E943F1670
:101E900084E794E00E942D160F900F900F90DF9131
:101EA000CF910895CF93DF93CDB7DEB727970FB6C5
:101EB000F894DEBF0FBECDBF9E838D836F831982E2
:101EC0001A821B821C828D819E81FC01208584E701
:101ED00094E0622F0E94D81584E794E060E070E0FF
:101EE0000E94100984E794E00E942D168D819E8146
:101EF000FC01208584E794E0622F0E94D8158D8133
:101F00009E81FC01208584E794E0622F43E00E94DB
:101F1000C01584E794E00E94C61621E0009709F4FA
:101F200020E0222381F084E794E00E94DF168B8377
:101F300084E794E00E94DF168A8384E794E00E949D
:101F4000DF16898307C08FEF9FEFDC0189839A83B7
:101F5000AB83BC8389819A81AB81BC81BC01CD01FB
:101F600027960FB6F894DEBF0FBECDBFDF91CF919D
:101F700008950F931F93CF93DF9300D00F92CDB7A7
:101F8000DEB79C838B831A82198258C08B819C8117
:101F9000FC01208584E794E0622F0E94D815898196
:101FA0009A818F5A9F4F9C01220F331F84E794E040
:101FB000B9010E94100984E794E00E942D168B81DC
:101FC0009C81FC01208584E794E0622F0E94D81553
:101FD0008B819C81FC01208584E794E0622F42E0A4
:101FE0000E94C01584E794E00E94C61621E0009785
:101FF00009F420E02223F9F084E794E00E94DF1640
:10200000182F002784E794E00E94DF16802B912B85
:102010009C014B815C8189819A81880F991F840F73
:10202000951F0996FC013183208389819A8101964D
:102030009A83898303C08FEF9FEF0CC021E08981D1
:102040009A81863091050CF020E0222309F09ECF82
:1020500080E090E00F900F900F900F90DF91CF9164
:102060001F910F910895CF93DF930F920F92CDB7E9
:10207000DEB79A83898389819A81FC01208584E770
:1020800094E0622F0E94D81584E794E06EE170E03E
:102090000E94100984E794E00E942D160F900F9083
:1020A000DF91CF910895CF93DF9300D000D0CDB7CB
:1020B000DEB79A8389837C836B835E834D838981BA
:1020C0009A818B5D9B4FFC018081881F8827881F28
:1020D000882331F08B819C81FC01118210826EC0BB
:1020E00029813A81C901880F991F820F931F880F98
:1020F000991F880F991F9C0189819A818B5D9B4F45
:10210000FC018081992787FD9095280F391F8091C8
:102110002904882F90E0281739074CF529813A8146
:10212000C901880F991F820F931F880F991F880F6D
:10213000991F9C0189819A818B5D9B4FFC01808155
:10214000992787FD9095280F391FC901880F991F7E
:10215000820F931F8B569C4FFC0180818295869540
:10216000869583708170813011F481E001C080E038
:10217000882321F129813A81C901880F991F820F93
:10218000931F880F991F880F991F9C0189819A813D
:102190008B5D9B4FFC018081992787FD9095280FCF
:1021A000391FC901880F991F820F931F8B569C4FAF
:1021B000FC0180818F7360E00E94F34189819A81E4
:1021C0009C012B5D3B4FF90120812F5F8B5D9B4F65
:1021D000FC01208329813A81C901880F991F820F50
:1021E000931F880F991F880F991F9C0189819A81DD
:1021F0008B5D9B4FFC018081992787FD9095280F6F
:10220000391F80912904882F90E02817390754F44A
:1022100089819A818B5D9B4FFC0180818C3014F405
:1022200081E001C080E0882309F47FC08B819C811C
:10223000FC014081518129813A81C901880F991F90
:10224000820F931F880F991F880F991F9C01898106
:102250009A818B5D9B4FFC018081992787FD90952A
:10226000280F391FC901880F991F820F931F8A56A3
:102270009C4FFC01808191819A01280F391F8D812B
:102280009E81FC013183208329813A81C901880F15
:10229000991F820F931F880F991F880F991F9C0108
:1022A00089819A818B5D9B4FFC018081992787FDF5
:1022B0009095280F391FC901880F991F820F931F0E
:1022C0008B569C4FFC018081829586958695837004
:1022D000817091E0813009F090E0992309F44FC0BA
:1022E00029813A81C901880F991F820F931F880F96
:1022F000991F880F991F9C0189819A818B5D9B4F43
:10230000FC018081992787FD9095280F391FC9010D
:10231000880F991F820F931F8B569C4FFC01808161
:102320008F7361E00E94F3412AC08B819C81FC0184
:1023300080819181049621E0FEE480329F0708F0BD
:1023400020E0222341F08D819E8120E23EE4FC01C9
:10235000318320830DC08B819C81FC018081918120
:102360009C012C5F3F4F8D819E81FC013183208336
:1023700089819A818B5D9B4F2FEFFC0120832696EC
:102380000FB6F894DEBF0FBECDBFDF91CF91089599
:102390001F920F920FB60F9200905B000F921124C4
:1023A0002F933F934F935F936F937F938F939F935D
:1023B000AF93BF93EF93FF93CF93DF93CDB7DEB788
:1023C00081E090E064E870E048E850E00E9453103B
:1023D000DF91CF91FF91EF91BF91AF919F918F913D
:1023E0007F916F915F914F913F912F910F9000924C
:1023F0005B000F900FBE0F901F9018951F920F92C9
:102400000FB60F9200905B000F9211242F933F9311
:102410004F935F936F937F938F939F93AF93BF93EC
:10242000EF93FF93CF93DF93CDB7DEB782E090E0D9
:1024300064E970E048E950E00E945310DF91CF91C9
:10244000FF91EF91BF91AF919F918F917F916F918C
:102450005F914F913F912F910F9000925B000F90F1
:102460000FBE0F901F9018951F920F920FB60F92EC
:1024700000905B000F9211242F933F934F935F9333
:102480006F937F938F939F93AF93BF93EF93FF933C
:10249000CF93DF93CDB7DEB783E090E064EA70E0DE
:1024A00048EA50E00E945310DF91CF91FF91EF91E5
:1024B000BF91AF919F918F917F916F915F914F915C
:1024C0003F912F910F9000925B000F900FBE0F90E5
:1024D0001F9018951F920F920FB60F9200905B00FD
:1024E0000F9211242F933F934F935F936F937F939A
:1024F0008F939F93AF93BF93EF93FF93CF93DF930C
:10250000CDB7DEB780E090E064E271E048E251E0F0
:102510000E945310DF91CF91FF91EF91BF91AF9146
:102520009F918F917F916F915F914F913F912F91EB
:102530000F9000925B000F900FBE0F901F901895A8
:10254000CF93DF930F920F92CDB7DEB79A83898333
:1025500089819A818130910501F580E890E0FC0144
:10256000108281E890E022E0FC01208384E890E082
:10257000FC011182108286E390E026E330E0F9014D
:1025800020812260FC0120838FE690E02FE630E07E
:10259000F90120812260FC01208389819A818230A7
:1025A0009105C1F480E990E0FC01108281E990E09E
:1025B00022E0FC01208384E990E0FC01118210827A
:1025C00088E390E022E0FC01208381E790E022E0B4
:1025D000FC01208389819A8183309105C1F480EACE
:1025E00090E0FC01108281EA90E022E0FC0120836F
:1025F00084EA90E0FC011182108289E390E022E0FD
:10260000FC01208382E790E022E0FC0120838981A5
:102610009A810097C1F480E291E0FC01108281E28E
:1026200091E022E0FC01208384E291E0FC01118230
:1026300010828AE390E022E0FC01208383E790E0AF
:1026400022E0FC0120830F900F90DF91CF9108953D
:10265000CF93DF9300D0CDB7DEB79B838A831982F7
:1026600026C02A813B81C901880F991F820F931FC1
:10267000880F991F880F991F9C018981882F90E0EE
:10268000280F391FC901880F991F820F931F8B567E
:102690009C4FFC0180818295869586958370817020
:1026A000813011F481E00BC089818F5F898381E0E3
:1026B00099819C3008F080E0882399F680E00F90A3
:1026C0000F900F90DF91CF910895CF93DF930F92EA
:1026D0000F92CDB7DEB79A83898380912904803326
:1026E000E8F42091290489819A81FC012083822FBA
:1026F0008F5F8093290489819A81FC018081282F32
:1027000030E0C901880F991F820F931F8A569C4F92
:1027100028EB3BE0FC013183208305C089819A814D
:102720002FEFFC0120830F900F90DF91CF91089540
:10273000CF93DF93CDB7DEB72A970FB6F894DEBFFD
:102740000FBECDBF9C838B837E836D8358874F8361
:102750003A8729878B819C81FC018081803308F036
:1027600071C08D8161E00E9437408B819C81FC01AA
:102770008081282F30E08D81482F4F73C901880F49
:10278000991F820F931F8B569C4F242F2F73FC0190
:102790003081307C232BFC0120832CEB32E08F81B5
:1027A0009885A901481B590BCA0199230CF403967B
:1027B0009595879595958795282F8B819C81FC0110
:1027C00021832CEF38E089859A85A901481B590B94
:1027D000CA0199230CF4039695958795959587954D
:1027E000282F8B819C81FC0122838B819C81FC01A1
:1027F00080819CE0692F0E94DF5F882F90E09A83A0
:10280000898389819A810E942813982F81E09923D6
:1028100009F080E0882321F089819A810E94A0122A
:102820008B819C81FC018081282F30E0C901880FB9
:10283000991F820F931F8B569C4FFC0120812064AF
:10284000FC0120838B819C81FC0180812A960FB63C
:10285000F894DEBF0FBECDBFDF91CF910895CF9327
:10286000DF9300D000D0CDB7DEB79C838B837E830F
:102870006D838B819C81FC01808189838981803378
:1028800008F096C08B819C81FC018181992787FD8E
:1028900090952FEA30E0A901481B590BCA019C0111
:1028A000220F331F220F331F8D819E8182179307C2
:1028B000A4F48B819C81FC018181992787FD9095EF
:1028C0002FEA30E0A901481B590BCA01880F991F54
:1028D000880F991F9E838D832AC08B819C81FC0168
:1028E0008281992787FD90952FE332E0A901481B4B
:1028F000590BCA019C01220F331F220F331F8D81F8
:102900009E81281739079CF48B819C81FC01828170
:10291000992787FD90952FE332E0A901481B590BB9
:10292000CA01880F991F880F991F9E838D838D81FF
:102930009E8102979E838D838D819E81AA2797FD1C
:10294000A095BA2F880F991FAA1FBB1F880F991F28
:10295000AA1FBB1F880F991FAA1FBB1F880F991F93
:10296000AA1FBB1F28E030E040E050E0BC01CD01D1
:102970000E942060DA01C9019E838D838FE590E07B
:10298000FC0180818A83F8948981282F30E04D8171
:102990005E81C901880F991F820F931F8A569C4F31
:1029A000FC01518340838FE590E02A81FC01208364
:1029B00026960FB6F894DEBF0FBECDBFDF91CF9144
:1029C0000895CF93DF9300D00F92CDB7DEB79A83EF
:1029D00089837C836B8389819A812B813C81FC0173
:1029E000338322830F900F900F900F90DF91CF9140
:1029F0000895CF93DF930F920F92CDB7DEB79A83EE
:102A0000898389819A8126E533E0FC013183208323
:102A100089819A81FC01138212820F900F90DF91BD
:102A2000CF910895CF93DF930F920F92CDB7DEB77A
:102A30009A83898389819A810E94F91489819A8174
:102A400024E333E0FC013183208329813A8188EE3D
:102A500093E0A0E0B0E0F90184839583A683B78377
:102A60000F900F90DF91CF910895CF93DF930F9246
:102A70000F92CDB7DEB79A83898389819A810E94AC
:102A8000121589819A8124E233E0FC01318320838D
:102A90000F900F90DF91CF910895CF93DF930F9216
:102AA0000F92CDB7DEB79A83898310924A041092B1
:102AB0004B0410926D0410926E040E94D6170F9072
:102AC0000F90DF91CF910895CF93DF9300D0CDB7D2
:102AD000DEB79A8389836B838B810E940A1880E911
:102AE00097E10E9470198FE397E10E945D19898137
:102AF0009A810E944D150F900F900F90DF91CF910A
:102B00000895CF93DF9300D00F92CDB7DEB79A83AD
:102B100089837C836B832B8189819A81622F0E94B8
:102B200064150F900F900F900F90DF91CF91089543
:102B3000CF93DF9300D000D0CDB7DEB79B838A83DD
:102B40006C834D832E838D81813210F080E28D83E2
:102B50002AE234E08C81B9014D812E810E941A183D
:102B6000898310924A04898180934B048981269637
:102B70000FB6F894DEBF0FBECDBFDF91CF910895A1
:102B8000CF93DF9300D00F92CDB7DEB79A838983BE
:102B90006B834C8389819A816B814C8121E00E94F7
:102BA00098150F900F900F900F90DF91CF9108958F
:102BB000CF93DF9300D0CDB7DEB79A8389836B8341
:102BC00081E080936F048B8180934C0410926D049C
:102BD00010926E040F900F900F90DF91CF91089597
:102BE000CF93DF9300D00F92CDB7DEB79A8389835E
:102BF0007C836B832B8189819A81622F0E94D815F7
:102C00000F900F900F900F90DF91CF9108950F9339
:102C1000CF93DF9300D00F92CDB7DEB79B838A832B
:102C20006C8380914C0490916E042DE434E0B901E2
:102C3000492F21E00C810E949718898310926D041E
:102C400010926E0410926F0489810F900F900F9074
:102C50000F90DF91CF910F910895CF93DF930F9253
:102C60000F92CDB7DEB79A83898389819A8161E01B
:102C70000E9407160F900F90DF91CF910895CF9388
:102C8000DF9300D0CDB7DEB79A8389836B838091C1
:102C90006F04882301F180916E04803248F08981AD
:102CA0009A8161E070E00E94E11480E090E01AC037
:102CB00080916D04882F90E02B81835B9B4FFC01FA
:102CC000208380916D048F5F80936D0480916D04EB
:102CD00080936E0405C0CE01039661E00E94251921
:102CE00081E090E00F900F900F90DF91CF910895C9
:102CF000CF93DF93CDB7DEB728970FB6F894DEBF3A
:102D00000FBECDBF9C838B837E836D8358874F839B
:102D100080916F04882349F11A8219821AC08B812D
:102D20009C81FC0180819181FC01208131814D8158
:102D30005E8189819A81840F951FFC0140818B817E
:102D40009C81642FF901199589819A8101969A8352
:102D5000898341E029813A818F8198852817390735
:102D600008F040E04423D9F606C02F818D819E8172
:102D7000622F0E9425198F81988528960FB6F894A6
:102D8000DEBF0FBECDBFDF91CF910895CF93DF930C
:102D90000F920F92CDB7DEB79A83898380914B044F
:102DA000282F30E080914A04882F90E0A901481B29
:102DB000590BCA010F900F90DF91CF910895CF93D7
:102DC000DF9300D00F92CDB7DEB79C838B838FEF5C
:102DD0009FEF9A83898390914A0480914B049817BE
:102DE00088F480914A04882F90E0865D9B4FFC0117
:102DF0008081882F90E09A83898380914A048F5F35
:102E000080934A0489819A810F900F900F900F90C0
:102E1000DF91CF910895CF93DF9300D00F92CDB77C
:102E2000DEB79C838B838FEF9FEF9A83898390918A
:102E30004A0480914B04981760F480914A04882FCB
:102E400090E0865D9B4FFC018081882F90E09A8303
:102E5000898389819A810F900F900F900F90DF9155
:102E6000CF910895CF93DF930F920F92CDB7DEB736
:102E70009A8389830F900F90DF91CF910895CF931C
:102E8000DF9300D00F920F92CDB7DEB79B838A837A
:102E90007D836C8380917204909173040097A9F1F3
:102EA00090914A0480914B04981788F1198213C0BD
:102EB0008981882F90E02981222F30E04A815B812F
:102EC000240F351FF9012081865D9B4FFC01208373
:102ED00089818F5F89838981282F30E041E08C814F
:102EE0009D81281739070CF040E0442309F7109220
:102EF0004A048C8180934B042091720430917304B6
:102F00008C819D81F901199503C0000001C000006A
:102F10000F900F900F900F900F90DF91CF91089529
:102F2000CF93DF93CDB7DEB7809170049091710499
:102F3000009759F010926D0410926E048091700405
:102F400090917104FC01199501C00000DF91CF91AF
:102F50000895CF93DF9300D00F92CDB7DEB79A8359
:102F600089837C836B8389819A818130910551F4B7
:102F70008B819C812FEF8F3F920721F484E794E0AF
:102F80000E9435150F900F900F900F90DF91CF9109
:102F90000895CF93DF93CDB7DEB781E090E06FEF78
:102FA0007FEF0E94A917DF91CF910895CF93DF9310
:102FB000CDB7DEB71092800481E080938204109236
:102FC00083048091400361E00E94F34180914103BA
:102FD00061E00E94F34189EB90E029EB30E0F901D8
:102FE00020812E7FFC01208389EB90E029EB30E0EB
:102FF000F90120812D7FFC01208388EB90E02CE0FB
:10300000FC0120838CEB90E025E4FC012083DF9120
:10301000CF910895CF93DF930F92CDB7DEB7898319
:103020008AEB90E02981220FFC0120830F90DF9131
:10303000CF910895CF93DF9300D000D0CDB7DEB706
:103040008A837C836B834D832E838D81813210F044
:1030500080E064C0000001C00000809180048823EB
:10306000D9F781E0809380048E81809382048FEF72
:103070008093ED041092A8048D8181508093A9045F
:1030800081E0809381048A81882F90E0880F991FC6
:10309000982F80918104892B8093810480918304EF
:1030A000813071F4109283048BEB90E020918104C5
:1030B000FC0120838CEB90E025ECFC01208305C013
:1030C0008CEB90E025EEFC012083000001C00000A5
:1030D000809180048130D9F39091A8048D81981754
:1030E00018F48091A8048D83198213C08981882FD8
:1030F00090E02B813C81820F931F2981222F30E0A9
:1031000028573B4FF9012081FC01208389818F5F83
:10311000898399818D81981748F38D8126960FB602
:10312000F894DEBF0FBECDBFDF91CF9108950F930E
:10313000CF93DF93CDB7DEB727970FB6F894DEBFF6
:103140000FBECDBF8A837C836B834D832E830F8319
:103150008D81813210F081E06EC0000001C000005E
:10316000809180048823D9F782E0809380048F8146
:10317000809382048FEF8093ED041092A8048D81D8
:103180008093A904198213C08981882F90E0298136
:10319000222F30E04B815C81240F351FF901208103
:1031A00088579B4FFC01208389818F5F8983998198
:1031B0008D81981748F3109281048A81882F90E0BE
:1031C000880F991F982F80918104892B8093810407
:1031D00080918304813071F4109283048BEB90E032
:1031E00020918104FC0120838CEB90E025ECFC0114
:1031F000208307C08CEB90E025EEFC01208301C00A
:1032000000008E81882321F0809180048230C1F3F8
:103210008091ED048F3F11F480E00DC08091ED04AA
:10322000803211F482E007C08091ED04803311F404
:1032300083E001C084E027960FB6F894DEBF0FBE8E
:10324000CDBFDF91CF910F910895CF93DF9300D041
:103250000F92CDB7DEB79B838A836C838C818132DA
:1032600010F081E023C080918004843011F082E06E
:103270001DC08C818093CB04198213C08981882F53
:1032800090E02981222F30E04A815B81240F351F95
:10329000F901208186559B4FFC01208389818F5F36
:1032A000898399818C81981748F380E00F900F9063
:1032B0000F900F90DF91CF910895CF93DF930F92EE
:1032C0000F92CDB7DEB79A83898389819A819093D3
:1032D0008704809386040F900F90DF91CF9108951B
:1032E000CF93DF930F920F92CDB7DEB79A83898386
:1032F00089819A8190938504809384040F900F9024
:10330000DF91CF910895CF93DF930F92CDB7DEB7C2
:1033100089838981882331F08CEB90E025ECFC01D6
:10332000208305C08CEB90E025E8FC0120830F9002
:10333000DF91CF910895CF93DF93CDB7DEB78CEBBC
:1033400090E025EDFC012083000001C000008CEB23
:1033500090E0FC018081882F90E080719070009750
:10336000A9F710928004DF91CF910895CF93DF9356
:10337000CDB7DEB78CEB90E025ECFC0120831092FA
:103380008004DF91CF9108951F920F920FB60F9294
:1033900000905B000F9211242F933F934F935F9304
:1033A0006F937F938F939F93AF93BF93EF93FF930D
:1033B000CF93DF93CDB7DEB789EB90E0FC0180813E
:1033C000882F90E0887F9070AA2797FDA095BA2F4C
:1033D00040E050E028EF30E0841B950B28173907B8
:1033E00008F41CC18E589F4FFC01EE0FFF1F059083
:1033F000F491E02D19948BEB90E020918104FC0175
:10340000208381E00E94831909C19091A8048091D2
:10341000A9049817A0F48BEB90E04091A804242F06
:1034200030E028573B4FF9012081FC012083842F95
:103430008F5F8093A80481E00E948319EFC0809180
:103440008204882319F00E949B19E8C081E08093D0
:1034500083048CEB90E024EAFC012083109280042A
:10346000DDC080E28093ED040E949B19D7C080E309
:103470008093ED040E949B19D1C088E38093ED04F2
:103480000E94B619CBC04091A804842F90E02BEB8A
:1034900030E0F901208188579B4FFC012083842F65
:1034A0008F5F8093A8049091A8048091A904981735
:1034B00020F481E00E948319B1C080E00E9483194A
:1034C000ADC04091A804842F90E02BEB30E0F901CF
:1034D000208188579B4FFC012083842F8F5F80932E
:1034E000A80480918204882319F00E949B1996C039
:1034F00081E0809383048CEB90E024EAFC0120833C
:10350000109280048BC00E949B1988C083E0809336
:1035100080041092EC0481E00E9483197FC08091A6
:10352000EC048032A0F44091EC04842F90E02BEB6B
:1035300030E0F901208184539B4FFC012083842FCC
:103540008F5F8093EC0481E00E94831967C080E064
:103550000E94831963C08091EC04803240F4809112
:10356000EC04882F90E084539B4FFC0110820E9452
:103570009B1920918604309187048091EC04482F98
:1035800050E08CEC94E0BA01F90119951092EC042A
:103590000E94B61943C080E00E9483193FC084E0B6
:1035A000809380041092CA041092CB04809184040A
:1035B00090918504FC0119958091CB04882329F40E
:1035C00081E08093CB041092AA048BEB90E04091B1
:1035D000CA04242F30E026553B4FF9012081FC011D
:1035E0002083842F8F5F8093CA049091CA048091B6
:1035F000CB04981720F481E00E9483190FC080E06B
:103600000E9483190BC081E00E94831910928004EC
:1036100005C01092ED040E949B190000DF91CF912C
:10362000FF91EF91BF91AF919F918F917F916F919A
:103630005F914F913F912F910F9000925B000F90FF
:103640000FBE0F901F901895CF93DF93CDB7DEB7C5
:10365000AC970FB6F894DEBF0FBECDBF80E090E010
:10366000DC0189839A83AB83BC8380E090E0DC013A
:103670008D839E83AF83B8878AEB92E026EC32E09D
:10368000B9010E941B21DC01CB01B058BC01CD0166
:1036900020E030E040E05FE30E94CE5DDC01CB0142
:1036A00089839A83AB83BC83CE01099666EC72E072
:1036B00029813A814B815C810E946722CE01099663
:1036C0000C966AEB72E029813A814B815C810E9401
:1036D0006722CE010996AE01475F5F4F2AEB32E0C9
:1036E000BA01A9010E94C022CE0109960C969E0142
:1036F000275F3F4FA901445F5F4F26EC32E0BA01DC
:10370000A9010E94C022CE0109964896AE01475FEA
:103710005F4F9E01275F3F4F245F3F4FBA01A901D2
:103720000E948321CE0109969E01275F3F4FB90178
:103730000E941B219B01AC0160E070E080E490E4FA
:103740000E94B75ADC01CB01BC01CD0120E030E082
:1037500040E05FE30E94CE5DDC01CB018D839E8360
:10376000AF83B8878AEB92E0BE01675F7F4F2D8100
:103770003E814F8158850E946722CE0109960C96A2
:103780009E01275F3F4F245F3F4FB9010E941B21DD
:103790009B01AC0160E070E080E490E40E94B75AC5
:1037A000DC01CB01BC01CD0120E030E040E05FE373
:1037B0000E94CE5DDC01CB018D839E83AF83B887F1
:1037C00086EC92E09E01275F3F4FB901645F7F4F17
:1037D0002D813E814F8158850E946722CE01099636
:1037E00048969E01275F3F4F285E3F4FB9010E94D8
:1037F0001B219B01AC0160E070E080E490E40E943A
:10380000B75ADC01CB01BC01CD0120E030E040E043
:103810005FE30E94CE5DDC01CB018D839E83AF838D
:10382000B88782ED92E09E01275F3F4FB901685E45
:103830007F4F2D813E814F8158850E946722AC9633
:103840000FB6F894DEBF0FBECDBFDF91CF910895C4
:10385000EF92FF920F931F93CF93DF93CDB7DEB715
:103860002C970FB6F894DEBF0FBECDBF80912A050E
:1038700090912B05A0912C05B0912D0520912A0542
:1038800030912B0540912C0550912D05BC01CD01A7
:103890000E94CE5DDC01CB017C018D0180912E0563
:1038A00090912F05A0913005B091310520912E0502
:1038B00030912F054091300550913105BC01CD016B
:1038C0000E94CE5DDC01CB019C01AD01C801B701B6
:1038D0000E94B85ADC01CB017C018D018091320538
:1038E00090913305A0913405B091350520913205B2
:1038F000309133054091340550913505BC01CD011F
:103900000E94CE5DDC01CB019C01AD01C801B70175
:103910000E94B85ADC01CB01BC01CD010E94875E38
:10392000DC01CB0189839A83AB83BC8369817A8173
:103930008B819C8120E030E040E056E40E949C5B5B
:10394000DC01CB0189839A83AB83BC8360E070E0A8
:1039500080E89FE329813A814B815C810E94B75ABC
:10396000DC01CB0111E0BC01CD0120E030E0A90178
:103970000E94C35D18160CF010E0112361F160E0A5
:1039800070E080E89FE329813A814B815C810E944D
:10399000B75ADC01CB01BC01CD0120E030E040E8AA
:1039A00050E40E94CE5DDC01CB019C01AD0160E0E2
:1039B00070E080E89FE30E94B75ADC01CB0111E080
:1039C000BC01CD0120E030E0A9010E94955B882375
:1039D0006CF110E02BC060E070E080E89FE329818B
:1039E0003A814B815C810E94B75ADC01CB01BC015A
:1039F000CD0120E030E040E850E40E94CE5DDC01E3
:103A0000CB01BC01CD0120E030E040E85FE30E9443
:103A1000B85ADC01CB0111E0BC01CD0120E030E05F
:103A2000A9010E94955B88230CF010E0112321F07E
:103A300080E090E0DC01D3C060E070E080E89FE3CC
:103A400029813A814B815C810E94B75ADC01CB010C
:103A500011E0BC01CD0120E030E0A9010E94C35D6E
:103A600018160CF010E0112369F160E070E080E8B6
:103A70009FE329813A814B815C810E94B75ADC0126
:103A8000CB01BC01CD0120E030E040E850E40E94D1
:103A9000CE5DDC01CB019C01AD0160E070E080E80F
:103AA0009FE30E94B75ADC01CB0111E0BC01CD01BC
:103AB00020E030E040E85FE30E94C35D181674F137
:103AC00010E02CC060E070E080E89FE329813A813B
:103AD0004B815C810E94B75ADC01CB01BC01CD0156
:103AE00020E030E040E850E40E94CE5DDC01CB01F4
:103AF000BC01CD0120E030E040E85FE30E94B85A0D
:103B0000DC01CB0111E0BC01CD0120E030E040E858
:103B10005FE30E94C35D18160CF010E0112329F03A
:103B200080E090E0A0E8BFE35AC060E070E080E889
:103B30009FE329813A814B815C810E94B75ADC0165
:103B4000CB0111E0BC01CD0120E030E0A9010E94D1
:103B5000C35D18160CF010E0112309F160E070E06D
:103B600080E89FE329813A814B815C810E94B75AAA
:103B7000DC01CB01BC01CD0120E030E040E850E4A5
:103B80000E94CE5DDC01CB019C01AD0160E070E0E4
:103B900080E89FE30E94B75ADC01CB0120C060E0BF
:103BA00070E080E89FE329813A814B815C810E942B
:103BB000B75ADC01CB01BC01CD0120E030E040E888
:103BC00050E40E94CE5DDC01CB01BC01CD0120E0C0
:103BD00030E040E85FE30E94B85ADC01CB018D83FE
:103BE0009E83AF83B88782E795E04AE255E022EDF5
:103BF00032E0BA01A9010E9483216D817E818F810B
:103C0000988525E83BEE41E459E30E94CE5DDC0156
:103C1000CB019C01AD018EE495E062E775E00E9466
:103C200067226D817E818F8198852AEF31E644E09D
:103C300054E30E94CE5DDC01CB019C01AD0182EC1E
:103C400096E062E775E00E9467228AE595E04AE522
:103C500055E022EC36E0BA01A9010E94C022809111
:103C6000EE049091EF04A091F004B091F104BC0136
:103C7000CD010E94995BDC01CB018093F20490930B
:103C8000F304A093F404B093F5048091EE049091B2
:103C9000EF04A091F004B091F104BC01CD010E94A9
:103CA0007D5EDC01CB018093F6049093F704A09332
:103CB000F804B093F9048091BA029091BB02A091EC
:103CC000BC02B091BD022091F6043091F7044091FE
:103CD000F8045091F904BC01CD010E94CE5DDC01D5
:103CE000CB017C018D018091C6029091C702A09109
:103CF000C802B091C9022091F2043091F3044091BE
:103D0000F4045091F504BC01CD010E94CE5DDC01AC
:103D1000CB019C01AD01C801B7010E94B75ADC017B
:103D2000CB0189879A87AB87BC878AEF94E062EDE5
:103D300072E029853A854B855C850E9467228EEC6E
:103D400096E02AEF34E0B90120E030E040E85FE39C
:103D50000E9467228EE495E04EE455E02EEC36E0BA
:103D6000BA01A9010E94C02282EC96E02AEF34E059
:103D7000B90127E137EB41E558E30E9467228AE564
:103D800095E04AE555E022EC36E0BA01A9010E942F
:103D9000C0222C960FB6F894DEBF0FBECDBFDF91C8
:103DA000CF911F910F91FF90EF900895EF92FF92A6
:103DB0000F931F93CF93DF9300D00F92CDB7DEB751
:103DC00080E090E00E941E24DC01CB01BC01CD010B
:103DD00021E331E54BE85AE30E94CE5DDC01CB01E3
:103DE0008093360590933705A0933805B093390535
:103DF00081E090E00E941E24DC01CB01BC01CD01DA
:103E000021E331E54BE85AE30E94CE5DDC01CB01B2
:103E100080933A0590933B05A0933C05B0933D05F4
:103E200082E090E00E941E24DC01CB01BC01CD01A8
:103E300021E331E54BE85AE30E94CE5DDC01CB0182
:103E400080933E0590933F05A0934005B0934105B4
:103E500083E090E00E941E24DC01CB0180932A05C0
:103E600090932B05A0932C05B0932D0584E090E052
:103E70000E941E24DC01CB0180932E0590932F0518
:103E8000A0933005B093310585E090E00E941E2498
:103E9000DC01CB018093320590933305A093340568
:103EA000B093350586E695E046E355E02AE535E032
:103EB000BA01A9010E94C02282E495E046E655E0DD
:103EC0002EE435E0BA01A9010E94C02280E090E012
:103ED000DC018093DE029093DF02A093E002B093B6
:103EE000E1028091020390910303A0910403B09139
:103EF0000503B05820914A0530914B0540914C057F
:103F000050914D05BC01CD010E94CE5DDC01CB017D
:103F10008093E2029093E302A093E402B093E5025F
:103F20008091460590914705A0914805B0914905BB
:103F30002091020330910303409104035091050343
:103F4000BC01CD010E94CE5DDC01CB018093E60275
:103F50009093E702A093E802B093E90280914A05AA
:103F600090914B05A0914C05B0914D052091020315
:103F7000309103034091040350910503BC01CD012E
:103F80000E94CE5DDC01CB018093EA029093EB02AC
:103F9000A093EC02B093ED0280E090E0DC0180930E
:103FA000EE029093EF02A093F002B093F1028091A1
:103FB000020390910303A0910403B0910503B0584C
:103FC00020914205309143054091440550914505AB
:103FD000BC01CD010E94CE5DDC01CB018093F202D9
:103FE0009093F302A093F402B093F5028091020340
:103FF00090910303A0910403B0910503B058209160
:104000004605309147054091480550914905BC014E
:10401000CD010E94CE5DDC01CB018093F60290932E
:10402000F702A093F802B093F902809142059091B3
:104030004305A0914405B0914505209102033091BC
:1040400003034091040350910503BC01CD010E947C
:10405000CE5DDC01CB018093FA029093FB02A0932A
:10406000FC02B093FD0280E090E0DC018093FE0250
:104070009093FF02A0930003B09301038AEB92E0B8
:104080004EED52E026E035E0BA01A9010E9423235B
:104090001A82198261C01C821B824FC029813A8119
:1040A000C901880F991F820F931F2B813C81820FBA
:1040B000931F880F991F880F991F86549D4FFC01ED
:1040C000E080F1800281138129813A81C901880F42
:1040D000991F820F931F2B813C81820F931F880FA2
:1040E000991F880F991F8A5F9A4FFC0120813181A7
:1040F00042815381C801B7010E94B85ADC01CB014B
:104100009C01AD0169817A81CB01880F991F860FCF
:10411000971F6B817C81860F971F880F991F880FCF
:10412000991F86549D4FFC01208331834283538322
:104130008B819C8101969C838B8321E08B819C8168
:10414000833091050CF020E0222309F0A7CF89816C
:104150009A8101969A83898321E089819A818330AB
:1041600091050CF020E0222309F095CF0F900F90DD
:104170000F900F90DF91CF911F910F91FF90EF90D3
:104180000895CF93DF93CDB7DEB78091D20290919F
:10419000D302A091D402B091D502B058BC01CD0198
:1041A0000E941C5BDC01CB0180937E0590937F0510
:1041B000A0938005B09381058091D6029091D7029B
:1041C000A091D802B091D9022091DA023091DB029D
:1041D0004091DC025091DD02BC01CD010E94425BA6
:1041E000DC01CB018093820590938305A093840525
:1041F000B09385058091C6029091C702A091C80234
:10420000B091C9022091BA023091BB024091BC0228
:104210005091BD02BC01CD010E94425BDC01CB018B
:104220008093860590938705A0938805B0938905B0
:10423000DF91CF910895CF93DF93CDB7DEB72A9763
:104240000FB6F894DEBF0FBECDBF98878F837A87F5
:10425000698780E090E0DC0189839A83AB83BC832B
:104260001E821D8237C08D819E81880F991F880F05
:10427000991F2F813885820F931FFC0180819181C6
:10428000A281B3812D813E81220F331F220F331F64
:1042900049855A85240F351FF901208131814281DA
:1042A0005381BC01CD010E94CE5DDC01CB019C019C
:1042B000AD0169817A818B819C810E94B85ADC01B1
:1042C000CB0189839A83AB83BC838D819E810196C8
:1042D0009E838D8321E08D819E81833091050CF03A
:1042E00020E0222309F0BFCF89819A81AB81BC8174
:1042F000BC01CD012A960FB6F894DEBF0FBECDBF2C
:10430000DF91CF910895CF92DF92EF92FF920F93BA
:104310001F93CF93DF9300D000D0CDB7DEB79A8341
:1043200089837C836B835E834D838B819C81049620
:10433000FC0180819181A281B3812D813E81285F22
:104340003F4FF9012081318142815381BC01CD0170
:104350000E94CE5DDC01CB017C018D018B819C81B3
:104360000896FC0180819181A281B3812D813E81DB
:104370002C5F3F4FF9012081318142815381BC0183
:10438000CD010E94CE5DDC01CB019C01AD01C801D5
:10439000B7010E94B75ADC01CB0129813A81F901AA
:1043A00080839183A283B38389819A81CC24DD2485
:1043B0006894C2F8C80ED91E8B819C810896FC01B6
:1043C00080819181A281B3812D813E81F90120817B
:1043D000318142815381BC01CD010E94CE5DDC015F
:1043E000CB017C018D018B819C81FC0180819181BD
:1043F000A281B3812D813E81285F3F4FF901208149
:10440000318142815381BC01CD010E94CE5DDC012E
:10441000CB019C01AD01C801B7010E94B75ADC0174
:10442000CB01F60180839183A283B38389819A8132
:10443000CC24DD246894C3F8C80ED91E8B819C81DE
:10444000FC0180819181A281B3812D813E812C5F0D
:104450003F4FF9012081318142815381BC01CD015F
:104460000E94CE5DDC01CB017C018D018B819C81A2
:104470000496FC0180819181A281B3812D813E81CE
:10448000F9012081318142815381BC01CD010E941B
:10449000CE5DDC01CB019C01AD01C801B7010E94DA
:1044A000B75ADC01CB01F60180839183A283B383E9
:1044B00026960FB6F894DEBF0FBECDBFDF91CF9129
:1044C0001F910F91FF90EF90DF90CF9008950F9381
:1044D0001F93CF93DF93CDB7DEB72A970FB6F8942B
:1044E000DEBF0FBECDBF9C838B837E836D832F8306
:1044F000388749875A871A8219822EC089819A8102
:10450000880F991F880F991F2B813C818901080F03
:10451000191F89819A81880F991F880F991F2D81F2
:104520003E81820F931FFC0180819181A281B38122
:10453000BC01CD012F81388549855A850E94CE5D09
:10454000DC01CB01F80180839183A283B38389814D
:104550009A8101969A83898321E089819A818330A7
:1045600091050CF020E0222349F62A960FB6F89424
:10457000DEBF0FBECDBFDF91CF911F910F91089588
:104580000F931F93CF93DF93CDB7DEB728970FB666
:10459000F894DEBF0FBECDBF9C838B837E836D837B
:1045A00058874F831A82198239C089819A81880F6E
:1045B000991F880F991F2B813C818901080F191FB2
:1045C00089819A81880F991F880F991F2D813E81BB
:1045D000820F931FFC0180819181A281B381298187
:1045E0003A81220F331F220F331F4F815885240F2A
:1045F000351FF9012081318142815381BC01CD01F8
:104600000E94B85ADC01CB01F80180839183A28318
:10461000B38389819A8101969A83898321E0898174
:104620009A81833091050CF020E0222309F0BDCF60
:1046300028960FB6F894DEBF0FBECDBFDF91CF91A5
:104640001F910F910895EF92FF920F931F93CF93B5
:10465000DF93CDB7DEB768970FB6F894DEBF0FBE15
:10466000CDBF9C8B8B8B7E8B6D8B588F4F8B1A8223
:104670001982CDC01C821B82BBC01E821D8255C008
:1046800029813A81C901880F991F820F931F880FD2
:10469000991F880F991F2B893C89280F391F8D81FD
:1046A0009E81880F991F880F991F820F931FFC010D
:1046B000E080F180028113812D813E81C901880F44
:1046C000991F820F931F880F991F880F991F2D899B
:1046D0003E89280F391F8B819C81880F991F880F75
:1046E000991F820F931FFC012081318142815381E8
:1046F000C801B7010E94CE5DDC01CB012D813E8156
:10470000220F331F220F331FAE014F5F5F4F240F65
:10471000351F2A5F3F4FF90180839183A283B383C2
:104720008D819E8101969E838D8321E08D819E8166
:10473000833091050CF020E0222309F0A1CF2981DC
:104740003A81C901880F991F820F931F880F991F03
:10475000880F991F2F89388D280F391F8B819C81D5
:10476000880F991F880F991F280F391F80E090E04C
:10477000DC01F90180839183A283B38329813A818B
:10478000C901880F991F820F931F880F991F880FE7
:10479000991F2F89388D8901080F191F8F819885DE
:1047A000A985BA852B853C854D855E85BC01CD01EB
:1047B0000E94B85ADC01CB012F85388949895A8972
:1047C000BC01CD010E94B85ADC01CB012B813C8198
:1047D000220F331F220F331F200F311FF901808357
:1047E0009183A283B3838B819C8101969C838B836D
:1047F00021E08B819C81833091050CF020E0222305
:1048000009F03BCF89819A8101969A83898321E0BF
:1048100089819A81833091050CF020E0222309F0F0
:1048200029CF68960FB6F894DEBF0FBECDBFDF91DB
:10483000CF911F910F91FF90EF900895CF93DF9349
:104840000F920F92CDB7DEB79A83898389819A81BF
:10485000880F991F8A5F9C4FFC0180819181992369
:104860000CF589819A81880F991F880F991F8655A9
:104870009A4FFC0180819181A281B38129813A8183
:10488000220F331F220F331F26573A4FF901208181
:10489000318142815381BC01CD010E94B75ADC01B4
:1048A000CB0120C089819A81880F991F880F991F99
:1048B00086579A4FFC0180819181A281B381298121
:1048C0003A81220F331F220F331F26553A4FF90129
:1048D0002081318142815381BC01CD010E94B75AB0
:1048E000DC01CB01BC01CD010F900F90DF91CF9186
:1048F0000895CF93DF93CDB7DEB70E94583F0E9453
:1049000084240E941527FDCFCF93DF930F920F923F
:10491000CDB7DEB783E061E00E94374085E061E01B
:104920000E94374086E061E00E94374087E061E006
:104930000E94374082EB96E063E070E048EE53E07F
:104940002CE637E00E94981385EB96E065E070E076
:1049500048EE53E02CE637E00E94981388EB96E08F
:1049600066E070E048EE53E02CE637E00E949813D2
:104970008BEB96E067E070E048EE53E02CE637E022
:104980000E94981382EB96E068EE73E00E942F1469
:1049900085EB96E068EE73E00E942F1488EB96E0BA
:1049A00068EE73E00E942F148BEB96E068EE73E0E4
:1049B0000E942F1424E53AE280E0B90142E050E081
:1049C0000E94233B8AEF98E040E052EC61E070E007
:1049D0000E943D338CE199E040E052EC61E070E0F0
:1049E0000E943D3384E794E060E070E00E9481150E
:1049F00080911E0390911F0361E00E9437408AEC72
:104A000095E060E00E94DE088AEC95E063E00E9499
:104A1000720661E070E080E090E00E94163F8AEC50
:104A200095E061E00E948C0661E070E080E090E03B
:104A30000E94163F8AEC95E063E00E94F60861E070
:104A400070E080E090E00E94163F8AEC95E064E020
:104A50000E94580661E070E080E090E00E94163FFE
:104A60000E94962D8BEE95E067E70E943C091A8222
:104A7000198219C08BEE95E068E00E946F09DC0195
:104A8000CB0129813A81220F331F220F331F285F68
:104A9000394FF90180839183A283B38389819A81FD
:104AA00001969A83898321E089819A8180329105D8
:104AB0000CF020E02223F1F68AEC95E060E00E9401
:104AC000C6088AEC95E061E00E94B50784E794E0AF
:104AD0006EE170E00E94F01584E794E062E070E01F
:104AE0000E94100984E794E060E070E00E941009E1
:104AF00084E794E00E942D1665E070E080E090E08D
:104B00000E94163F84E794E06EE170E00E94F01589
:104B100084E794E060E070E00E94100984E794E08C
:104B200068E170E00E94100984E794E00E942D166D
:104B300065E070E080E090E00E94163F8AEC95E02E
:104B400060E00E94B5078AEC95E060E04EE90E94C3
:104B5000A6068AEC95E060E043E00E94CB068AEC72
:104B600095E060E041E00E94F0068AEC95E060E0AC
:104B700040E00E9417078AEC95E060E040E00E9468
:104B80003E078AEC95E060E040E00E9465078AEC11
:104B900095E060E042E00E948C078AEC95E061E0DD
:104BA0004EE90E94A6068AEC95E061E047E00E948B
:104BB000CB068AEC95E061E041E00E94F0068AECC9
:104BC00095E061E040E00E9417078AEC95E061E023
:104BD00040E00E943E078AEC95E061E040E00E94E0
:104BE00065078AEC95E061E042E00E948C078AEC60
:104BF00095E062E04EE90E94A6068AEC95E062E04C
:104C000045E00E94CB068AEC95E062E041E00E941C
:104C1000F0068AEC95E062E040E00E9417078AEC1B
:104C200095E062E040E00E943E078AEC95E062E099
:104C300040E00E9465078AEC95E062E042E00E9455
:104C40008C078AEC95E061E00E94C6080E946857D4
:104C500088E691E9ADE6BDE38093360B9093370B80
:104C6000A093380BB093390B8AE999E9A9E9BDE320
:104C700080935E0B90935F0BA093600BB093610BDE
:104C80008FE692E1A3E8BBE38093620B9093630B02
:104C9000A093640BB093650B8CEE91E5A8EBBDE39C
:104CA0008093720B9093730BA093740BB093750B5E
:104CB0008DEC9CECACECBDE38093760B9093770B82
:104CC000A093780BB093790B86EA9BE9A4ECBBE345
:104CD00080937A0B90937B0BA0937C0BB0937D0B0E
:104CE0008AE999E9A9E9BFE380933A0B90933B0BDA
:104CF000A0933C0BB0933D0B80E090E0A0E8BFE3B5
:104D000080936E0B90936F0BA093700BB093710B0D
:104D100080E090E0A0E2B2E480934E0B90934F0BC2
:104D2000A093500BB093510B80E090E0A4E3B3E468
:104D300080933E0B90933F0BA093400BB093410B9D
:104D400080E090E0A0EAB2E48093420B9093430BA2
:104D5000A093440BB093450B8DEC9CECACEBB0E412
:104D60008093460B9093470BA093480BB093490B4D
:104D700080E090E0DC0180934A0B90934B0BA09372
:104D80004C0BB0934D0B80E090E0A0E8BFEB80931C
:104D9000660B9093670BA093680BB093690B8DEC37
:104DA0009CECACE4BEE380936A0B90936B0BA093F6
:104DB0006C0BB0936D0B8DEC9CECACECBDE3809375
:104DC000520B9093530BA093540BB093550B80E070
:104DD00090E0DC018093560B9093570BA093580BF7
:104DE000B093590B8DEC9CECACECBDE380935A0B6B
:104DF00090935B0BA0935C0BB0935D0B0E94B83E4D
:104E0000DC01CB018093AA069093AB06A093AC067D
:104E1000B093AD0664E170E080E090E00E94163F40
:104E20000F900F90DF91CF910895EF92FF920F9323
:104E30001F93CF93DF93CDB7DEB70E94B83E9B019F
:104E4000AC018091AA069091AB06A091AC06B091FE
:104E5000AD0679018A01E81AF90A0A0B1B0BD80181
:104E6000C70121E0803107E2900700E0A00700E0E1
:104E7000B00708F420E0222309F44EC08091AA066E
:104E80009091AB06A091AC06B091AD068093AE06B2
:104E90009093AF06A093B006B093B1060E94B83EBF
:104EA000DC01CB018093AA069093AB06A093AC06DD
:104EB000B093AD062091AA063091AB064091AC06A6
:104EC0005091AD068091AE069091AF06A091B006CC
:104ED000B091B10679018A01E81AF90A0A0B1B0B95
:104EE000D801C701BC01CD010E943B5CDC01CB01B4
:104EF000BC01CD0120E034E244E759E40E949C5B10
:104F0000DC01CB018093020390930303A09304037D
:104F1000B09305030E949327DF91CF911F910F91CA
:104F2000FF90EF9008951F93CF93DF93CDB7DEB737
:104F30000E94A12A0E94D61E0E94241B0E94281CA7
:104F40000E94C1208091A0069091A106880F991F10
:104F50009C01220F331F220F331F820F931FAA279A
:104F600097FDA095BA2FBC01CD010E943B5CDC01EE
:104F7000CB018093D60A9093D70AA093D80AB09316
:104F8000D90A80919C0690919D06880F991F9C01DB
:104F9000220F331F220F331F820F931FAA2797FD63
:104FA000A095BA2FBC01CD010E943B5CDC01CB0176
:104FB0008093DE0A9093DF0AA093E00AB093E10A9F
:104FC00080919E0690919F06880F991F9C01220F49
:104FD000331F220F331F820F931FAA2797FDA0951F
:104FE000BA2FBC01CD010E943B5CDC01CB01809358
:104FF000E20A9093E30AA093E40AB093E50A809151
:10500000A2069091A306880F991F9C01220F331FBF
:10501000220F331F820F931FAA2797FDA095BA2F47
:10502000BC01CD010E943B5CDC01CB018093E60A10
:105030009093E70AA093E80AB093E90A8091A40646
:105040009091A506880F991F9C01220F331F220FF4
:10505000331F820F931FAA2797FDA095BA2FBC017B
:10506000CD010E943B5CDC01CB018093EA0A909366
:10507000EB0AA093EC0AB093ED0A80916A05909137
:105080006B05A0916C05B0916D058093A60A909375
:10509000A70AA093A80AB093A90A809166059091E7
:1050A0006705A0916805B09169058093AA0A90935D
:1050B000AB0AA093AC0AB093AD0A80916E059091B3
:1050C0006F05A0917005B0917105B0588093AE0A3C
:1050D0009093AF0AA093B00AB093B10A80917E0575
:1050E00090917F05A0918005B091810580931A0B66
:1050F00090931B0BA0931C0BB0931D0B809182050A
:1051000090918305A0918405B091850580931E0B35
:1051100090931F0BA093200BB093210B80918605D9
:1051200090918705A0918805B09189058093220B05
:105130009093230BA093240BB093250B80919206A0
:1051400090919306A0919406B09195068093B20B2E
:105150009093B30BA093B40BB093B50B0E94854210
:105160008091F4099091F509A091F609B091F709A1
:10517000BC01CD0120E030E040E251E40E949C5BA4
:10518000DC01CB0111E0BC01CD0120E030E04AE7B9
:1051900054E40E94955B88230CF010E0112319F071
:1051A00028EE33E03CC08091F4099091F509A0917C
:1051B000F609B091F709BC01CD0120E030E040E2F2
:1051C00051E40E949C5BDC01CB0111E0BC01CD01EC
:1051D00020E030E84DEE54E40E94C35D18160CF058
:1051E00010E0112319F08CE697E018C08091F409C3
:1051F0009091F509A091F609B091F709BC01CD0194
:1052000020E030E040E251E40E949C5BDC01CB01F5
:10521000BC01CD010E94045CDC01CB019C0185EB4B
:1052200096E0B9010E942F148091EC099091ED094C
:10523000A091EE09B091EF09BC01CD0120E030E072
:1052400040E251E40E949C5BDC01CB0111E0BC0117
:10525000CD0120E030E04AE754E40E94955B8823CA
:105260000CF010E0112319F028EE33E03CC08091DF
:10527000EC099091ED09A091EE09B091EF09BC0104
:10528000CD0120E030E040E251E40E949C5BDC0173
:10529000CB0111E0BC01CD0120E030E84DEE54E43B
:1052A0000E94C35D18160CF010E0112319F08CE673
:1052B00097E018C08091EC099091ED09A091EE095A
:1052C000B091EF09BC01CD0120E030E040E251E4B3
:1052D0000E949C5BDC01CB01BC01CD010E94045CFF
:1052E000DC01CB019C0182EB96E0B9010E942F14F6
:1052F0008091F8099091F909A091FA09B091FB0900
:10530000BC01CD0120E030E040E251E40E949C5B12
:10531000DC01CB0111E0BC01CD0120E030E04AE727
:1053200054E40E94955B88230CF010E0112319F0DF
:1053300028EE33E03CC08091F8099091F909A091E2
:10534000FA09B091FB09BC01CD0120E030E040E258
:1053500051E40E949C5BDC01CB0111E0BC01CD015A
:1053600020E030E84DEE54E40E94C35D18160CF0C6
:1053700010E0112319F08CE697E018C08091F8092D
:105380009091F909A091FA09B091FB09BC01CD01F6
:1053900020E030E040E251E40E949C5BDC01CB0164
:1053A000BC01CD010E94045CDC01CB019C0188EBB7
:1053B00096E0B9010E942F148091F0099091F109B3
:1053C000A091F209B091F309BC01CD0120E030E0D9
:1053D00040E251E40E949C5BDC01CB0111E0BC0186
:1053E000CD0120E030E04AE754E40E94955B882339
:1053F0000CF010E0112319F028EE33E03CC080914E
:10540000F0099091F109A091F209B091F309BC0162
:10541000CD0120E030E040E251E40E949C5BDC01E1
:10542000CB0111E0BC01CD0120E030E84DEE54E4A9
:105430000E94C35D18160CF010E0112319F08CE6E1
:1054400097E018C08091F0099091F109A091F209BC
:10545000B091F309BC01CD0120E030E040E251E41D
:105460000E949C5BDC01CB01BC01CD010E94045C6D
:10547000DC01CB019C018BEB96E0B9010E942F145B
:1054800020910203309103034091040350910503DE
:105490008CE199E0BA01A90123E030E00E94FC38D8
:1054A000DF91CF911F910895CF93DF93CDB7DEB7F2
:1054B0000E94B83EDC01CB019C018091980690913E
:1054C0009906A0919A06B0919B06A901481B590B19
:1054D000CA019093BF068093BE060E94B83EDC01CD
:1054E000CB018093980690939906A0939A06B09367
:1054F0009B068091BE069091BF0657E0813D9507BF
:1055000028F01092C1061092C00618C08091C00603
:105510009091C1062091BE063091BF06880F991F59
:105520008456994FFC01318320838091C00690916D
:10553000C10601969093C1068093C006DF91CF917A
:105540000895CF92DF92EF92FF920F931F93CF9324
:10555000DF93CDB7DEB76C970FB6F894DEBF0FBE02
:10556000CDBF80919606909197068130910509F400
:1055700066C18230910509F4E5C1009709F02CC29B
:105580008AEC95E060E070E00E948B089093E6055D
:105590008093E5058AEC95E062E070E00E948B085C
:1055A0009093E8058093E7058AEC95E064E070E06D
:1055B0000E948B089093EA058093E905809182050B
:1055C00090918305A0918405B0918505BC01CD0122
:1055D0000E94995BDC01CB0189839A83AB83BC83F6
:1055E0008091820590918305A0918405B0918505F5
:1055F000BC01CD010E947D5EDC01CB018D839E83C9
:10560000AF83B88780917E0590917F05A09180053A
:10561000B0918105B058BC01CD010E94995BDC01BD
:10562000CB0189879A87AB87BC8780917E05909153
:105630007F05A0918005B0918105B058BC01CD01D6
:105640000E947D5EDC01CB018D879E87AF87B88B82
:105650002091E5053091E60580911803909119039A
:10566000A901481B590BCA01AA2797FDA095BA2F7B
:10567000BC01CD010E943B5CDC01CB01BC01CD0132
:1056800029853A854B855C850E94CE5DDC01CB0186
:105690007C018D012091E7053091E80580911A0386
:1056A00090911B03A901481B590BCA01AA2797FD1A
:1056B000A095BA2FBC01CD010E943B5CDC01CB015F
:1056C000BC01CD012D813E814F8158850E94CE5D68
:1056D000DC01CB01BC01CD012D853E854F8558896C
:1056E0000E94CE5DDC01CB019C01AD01C801B70178
:1056F0000E94B85ADC01CB017C018D012091E905A3
:105700003091EA0580911C0390911D03A901481B6B
:10571000590BCA01AA2797FDA095BA2FBC01CD014C
:105720000E943B5CDC01CB01BC01CD0129813A81A7
:105730004B815C810E94CE5DDC01CB01BC01CD01BF
:105740002D853E854F8558890E94CE5DDC01CB01B9
:105750009C01AD01C801B7010E94B85ADC01CB0120
:10576000898B9A8BAB8BBC8B2091E7053091E80538
:1057700080911A0390911B03A901481B590BCA0180
:10578000AA2797FDA095BA2FBC01CD010E943B5CD2
:10579000DC01CB01BC01CD0129813A814B815C81C7
:1057A0000E94CE5DDC01CB017C018D012091E905D9
:1057B0003091EA0580911C0390911D03A901481BBB
:1057C000590BCA01AA2797FDA095BA2FBC01CD019C
:1057D0000E943B5CDC01CB01BC01CD012D813E81EF
:1057E0004F8158850E94CE5DDC01CB019C01AD014B
:1057F000C801B7010E94B75ADC01CB018D8B9E8B8B
:10580000AF8BB88F8D899E89AF89B88D29893A89E8
:105810004B895C89BC01CD010E94425BDC01CB015C
:105820008093EE049093EF04A093F004B093F104FE
:1058300081E090E09093970680939606D2C08BEE1D
:1058400095E068E00E94880CDC01CB01898F9A8F7B
:10585000AB8FBC8F698D7A8D8B8D9C8D20E030E075
:10586000A9010E94955B882361F0898D9A8DAB8D8B
:10587000BC8D80938E0690938F06A0939006B09374
:1058800091068BEE95E068E00E946F09DC01CB0188
:1058900080938A0690938B06A0938C06B0938D0616
:1058A00080918A0690918B06A0918C06B0918D060E
:1058B000BC01CD0120E030E0A9010E94955B882366
:1058C00061F080918A0690918B06A0918C06B09130
:1058D0008D06BC01CD010E94E92E88E096E060E2D1
:1058E00070E00E941C2FDC01CB0180938A0690930C
:1058F0008B06A0938C06B0938D0680918A069091BA
:105900008B06A0918C06B0918D0620918E06309169
:105910008F064091900650919106BC01CD010E94E6
:10592000842EDC01CB018093920690939306A09382
:105930009406B093950682E090E09093970680934A
:1059400096064FC020915C0A30915D0A40915E0A34
:1059500050915F0A8CE199E0BA01A90122E030E0A0
:105960000E948A388CE199E022EA32E0B9010E9473
:105970007F372091600A3091610A4091620A50910C
:10598000630A8CE199E0BA01A90122E030E00E94AB
:105990008A388CE199E022EA32E0B9010E947F372F
:1059A0002091580A3091590A40915A0A50915B0A45
:1059B0008CE199E0BA01A90122E030E00E948A3826
:1059C0008CE199E024EA32E0B9010E94D4381092C7
:1059D00097061092960605C01092970610929606AA
:1059E00000008AEC95E069ED75E04BED55E02DED9A
:1059F00035E00FED15E0A1EEB5E0E3EEF5E07D0159
:105A00006F010E94CD078091DF059091E005AA27E4
:105A100097FDA095BA2FBC01CD010E943B5CDC0133
:105A2000CB0180938A0590938B05A0938C05B0934E
:105A30008D058091E1059091E205AA2797FDA0953B
:105A4000BA2FBC01CD010E943B5CDC01CB018093ED
:105A50008E0590938F05A0939005B093910580914A
:105A6000E3059091E405AA2797FDA095BA2FBC0104
:105A7000CD010E943B5CDC01CB01809392059093A9
:105A80009305A0939405B09395058091D9059091C5
:105A9000DA05AA2797FDA095BA2FBC01CD010E9477
:105AA0003B5CDC01CB018093960590939705A09316
:105AB0009805B09399058091DB059091DC05AA27A4
:105AC00097FDA095BA2FBC01CD010E943B5CDC0183
:105AD000CB0180939A0590939B05A0939C05B0936E
