:100000000C9433020C947C2C0C94B62C0C94F02C95
:100010000C942A2D0C94642D0C949E2D0C94D82DA8
:100020000C94122E0C9466020C9466020C946602D8
:100030000C9466020C9466020C9466020C946602A0
:100040000C9466020C9433070C9466020C946602BE
:100050000C9466020C9466020C9466020C94532E67
:100060000C9466020C946F200C94B3210C946602DD
:100070000C9466020C9466020C9466020C94660260
:100080000C9469070C9466020C9466020C94660248
:100090000C94C0200C940B220C9466020C94190F43
:1000A0000C9466020C9466020C949F070C946602F2
:1000B0000C9466020C9466020C9466020C94D507AC
:1000C0000C9466020C9466020C9466020C94112146
:1000D0000C9463220C9466020C9462210C94BB2253
:1000E0000C9466025E10631063106310631063105B
:1000F00063106310500F631063106310631063107C
:1001000063106310500F631063106310631063106B
:10011000631063105A0F6310631063106310631051
:1001200063106310860F6310631063106310631015
:10013000631063105A0F6310631063106310631031
:10014000631063108C0F63106310631063106310EF
:1001500063106310920F63106310631063106310D9
:1001600063106310A80F63106310631063106310B3
:1001700063106310D80F6310631063106310631073
:1001800063106310980F63106310631063106310A3
:1001900063106310B60F6310631063106310631075
:1001A00063106310DB0F6310631063106310631040
:1001B00063106310DB0F6310631063106310631030
:1001C00063106310DB0F6310631063106310631020
:1001D00063106310DB0F6310631063106310631010
:1001E00063106310E40F63106310631063106310F7
:1001F00063106310201063106310631063106310AA
:1002000063106310E40F63106310631063106310D6
:100210006310631020106310631063106310631089
:100220006310631000106310631063106310631099
:100230006310631024106310631063106310631065
:100240006310631024106310631063106310631055
:10025000631063103A10631063106310631063102F
:100260006310631058106310631063106310631001
:1002700063106310581063106310631063106310F1
:1002800063106310631063106310631063106310D6
:1002900063106310631063106310631063106310C6
:1002A00063106310631063106310631063106310B6
:1002B00063106310631063106310631063106310A6
:1002C0006310631063106310631063106310631096
:1002D000631063106310036EDB363D9A9999993D64
:1002E000ABAAAA2A3E000000803F084AD73B3BCE7B
:1002F000016E84BCBFFDC12F3D6C74319ABD568325
:100300003DDA3D00C77F11BED9E4BB4C3E916BAADC
:10031000AABE000000803F072C7AA5BA6CC590DA0F
:100320003B9365FC8BBC53F810FD3C5692834DBD4E
:10033000879D3AB63DCBC9BF5BBE73DA0FC93F009C
:10034000002100240027002A002D00300033000186
:10035000010000040107010A010000220025002815
:10036000002B002E003100340002010000050108BE
:10037000010B01000020002300260029002C002F83
:100380000032000001000003010601090105050516
:1003900005070508080808020202020A0A080804FC
:1003A000040404010101010101010103030303032A
:1003B000030303040707070C0C0C0C0C0C0C0C02B9
:1003C00002020206060606060606060B0B0B0B0BC0
:1003D0000B0B0B01021020200808102040102040B9
:1003E00080020102010804020101020408102040F9
:1003F0008080402010080402018004020180402017
:10040000100804020108040201010204081020403F
:100410008001020408102040800000090A02080B35
:100420000C0D07060304010000000000000000009E
:1004300000000000000000000000000000000000BC
:10044000000000000011100F00000000000000007C
:10045000000000000000000000000000000000009C
:100460001E0D1D20612711241FBECFEFD1E2DEBF7C
:10047000CDBF00E00CBF12E0A0E0B2E0E6EDF9E98C
:1004800000E00BBF02C007900D92AC3EB107D9F758
:100490001BBE1BE0ACEEB2E001C01D92A236B1075C
:1004A000E1F714E0C6E6D4E000E006C022970109B7
:1004B000FE010BBF0E94E54CC036D10780E0080763
:1004C000A9F71BBE0E9479100C94E94C0C94000013
:1004D0000F931F93CF93DF9300D000D0CDB7DEB73B
:1004E00089836A835C834B833E832D832B813C818C
:1004F000ED81FE8189816A8141E08F010E948B023A
:1005000026960FB6F894DEBF0FBECDBFDF91CF9118
:100510001F910F9108950F931F93CF93DF93CDB742
:10052000DEB72D970FB6F894DEBF0FBECDBF8F8319
:10053000688749873B872A871D870C8719820E9415
:10054000C12EDC01CB018B839C83AD83BE831A82D9
:100550006CC08BEC93E06F810E94440B8BEC93E0BA
:1005600068850E94940B8BEC93E00E94820B8BECCD
:1005700093E06F810E94440B8985282F30E08A81A7
:10058000882F90E0A901481B590BCA0181329105BF
:1005900014F080E290E0282F8BEC93E06F81422FE3
:1005A0000E942C0B12C08981992787FD90952A857E
:1005B0003B858901080F191F8BEC93E00E94340CD6
:1005C000F801808389818F5F89838BEC93E00E949F
:1005D0001B0C0097E1F08C859D850097B1F00E947F
:1005E000C12E9B01AC018B819C81AD81BE81281BFA
:1005F000390B4A0B5B0B8C859D85CC01A0E0B0E0EC
:10060000281739074A075B0710F481E001C080E032
:10061000882349F68BEC93E00E94820B8985813216
:1006200008F080E29A81890F8A8381E02A81998586
:10063000291708F080E0882309F08BCF8C859D85F1
:10064000009719F10E94C12E9B01AC018B819C8106
:10065000AD81BE81281B390B4A0B5B0B8C859D85B8
:10066000CC01A0E0B0E0281739074A075B0768F023
:100670008981282F332727FD30958985882F90E0A1
:100680002817390714F481E001C080E0882311F0B5
:100690008FEF898389812D960FB6F894DEBF0FBE48
:1006A000CDBFDF91CF911F910F910895CF93DF932D
:1006B00000D00F920F92CDB7DEB78A836B834C8345
:1006C0002D8320911502309116028A816B81AE0133
:1006D0004F5F5F4F0E9468028D81882379F08C8183
:1006E000282F30E081E090E0022E02C0880F991F91
:1006F0000A94E2F7982F8981892B0EC08C81282FCC
:1007000030E081E090E002C0880F991F2A95E2F75F
:10071000982F909589818923898399818A816B811A
:10072000492F0E9410040F900F900F900F900F9080
:10073000DF91CF9108950F93CF93DF93CDB7DEB7BD
:1007400027970FB6F894DEBF0FBECDBF8B836C83A7
:100750004D832E830F832091150230911602AE0136
:100760004E5F5F4F8B816C810E946802982F81E001
:10077000992309F480E0882309F447C08E81282F4B
:1007800030E081E090E002C0880F991F2A95E2F7DF
:1007900001972D81422F50E02E81222F30E0BA01A7
:1007A000621B730B9B012F5F3F4F02C0880F991F85
:1007B0002A95E2F789838F81882F90E02D81422F3F
:1007C00050E02E81222F30E0BA01621B730B9B0197
:1007D0002F5F3F4F02C0880F991F2A95E2F78F8342
:1007E0009F81898189238F8389818095982F8A8130
:1007F00089238A839A818F81892B8A839A818B812D
:100800006C81492F0E94100401C080E027960FB62A
:10081000F894DEBF0FBECDBFDF91CF910F91089549
:10082000CF93DF9300D0CDB7DEB789836A834B8344
:100830009E012D5F3F4F89816A8141E00E9426041D
:100840000F900F900F90DF91CF910895CF93DF938A
:10085000CDB7DEB727970FB6F894DEBF0FBECDBF7A
:100860008B836C834D833F832E831A828BEC93E0C2
:100870006B810E94440B8BEC93E06C810E94940B83
:10088000198211C08981882F90E02E813F81820FCB
:10089000931FFC0120818BEC93E0622F0E94940B4C
:1008A00089818F5F898381E029819D81291708F0E3
:1008B00080E0882339F78BEC93E00E94820B8A83D7
:1008C00081E09A81992309F080E027960FB6F89489
:1008D000DEBF0FBECDBFDF91CF910895CF93DF93E1
:1008E0000F920F92CDB7DEB79A83898389819A815F
:1008F00028E6FC0120830F900F90DF91CF9108959F
:100900000F93CF93DF9300D0CDB7DEB79A8389835F
:100910006B8389819A81FC0180816AE142E023E056
:100920000B810E949B030F900F900F90DF91CF914E
:100930000F9108950F93CF93DF9300D0CDB7DEB71B
:100940009A8389836B8389819A81FC0180816BE121
:1009500044E022E00B810E949B030F900F900F90C8
:10096000DF91CF910F9108950F93CF93DF9300D034
:10097000CDB7DEB79A8389836B8389819A81FC0125
:1009800080816CE144E022E00B810E949B030F9088
:100990000F900F90DF91CF910F910895CF92DF923A
:1009A000EF92FF920F931F93CF93DF93CDB7DEB7F4
:1009B0002E970FB6F894DEBF0FBECDBF9A83898302
:1009C0007C836B835E834D8338872F831A870987E7
:1009D000FC86EB86DE86CD8689819A81FC0140818A
:1009E00089819A819C012F5F3F4FE0911502F09120
:1009F0001602842F6BE34EE08F010E948B028981E7
:100A00009A81FC018181882F90E0382F22278981EB
:100A10009A81FC018281882F90E0282B392B8B81D1
:100A20009C81FC013183208389819A81FC0183812F
:100A3000882F90E0382F222789819A81FC018481B8
:100A4000882F90E0282B392B8D819E81FC013183EA
:100A5000208389819A81FC018581882F90E0382F3D
:100A6000222789819A81FC018681882F90E0282B9A
:100A7000392B8F819885FC013183208389819A816C
:100A8000FC018185882F90E0382F222789819A8167
:100A9000FC018285882F90E0282B392B89859A8547
:100AA000FC013183208389819A81FC018385882F11
:100AB00090E0382F222789819A81FC018485882F34
:100AC00090E0282B392B8B859C85FC01318320837A
:100AD00089819A81FC018585882F90E0382F222713
:100AE00089819A81FC018685882F90E0282B392BFB
:100AF0008D859E85FC01318320832E960FB6F89458
:100B0000DEBF0FBECDBFDF91CF911F910F91FF9040
:100B1000EF90DF90CF900895CF93DF9300D0CDB7C3
:100B2000DEB79A8389836B8389819A81FC018081F6
:100B30009B816BE646E0292F0E9456030F900F9091
:100B40000F90DF91CF9108950F93CF93DF9300D053
:100B5000CDB7DEB79A8389836B8389819A81FC0143
:100B600080816BE642E023E00B810E949B030F90A3
:100B70000F900F90DF91CF910F910895CF93DF9356
:100B800000D000D0CDB7DEB79A8389837C836B8396
:100B90005E834D8389819A8184589C4FFC018081BA
:100BA000881F8827881F882331F08B819C81FC0156
:100BB000118210826EC029813A81C901880F991F64
:100BC000820F931F880F991F880F991F9C0189819D
:100BD0009A8184589C4FFC018081992787FD9095CC
:100BE000280F391F80918003882F90E0281739073C
:100BF0004CF529813A81C901880F991F820F931FF3
:100C0000880F991F880F991F9C0189819A818458A8
:100C10009C4FFC018081992787FD9095280F391FF3
:100C2000C901880F991F820F931F84519D4FFC01AA
:100C3000808182958695869583708170813011F4CC
:100C400081E001C080E0882321F129813A81C90136
:100C5000880F991F820F931F880F991F880F991F64
:100C60009C0189819A8184589C4FFC01808199273D
:100C700087FD9095280F391FC901880F991F820F92
:100C8000931F84519D4FFC0180818F7360E00E940F
:100C9000283289819A819C0124583C4FF901208196
:100CA0002F5F84589C4FFC01208329813A81C90120
:100CB000880F991F820F931F880F991F880F991F04
:100CC0009C0189819A8184589C4FFC0180819927DD
:100CD00087FD9095280F391F80918003882F90E021
:100CE0002817390754F489819A8184589C4FFC0154
:100CF00080818C3014F481E001C080E0882309F405
:100D00007FC08B819C81FC014081518129813A8186
:100D1000C901880F991F820F931F880F991F880F91
:100D2000991F9C0189819A8184589C4FFC01808184
:100D3000992787FD9095280F391FC901880F991FA2
:100D4000820F931F83519D4FFC01808191819A01F5
:100D5000280F391F8D819E81FC01318320832981D9
:100D60003A81C901880F991F820F931F880F991F1D
:100D7000880F991F9C0189819A8184589C4FFC019E
:100D80008081992787FD9095280F391FC901880F09
:100D9000991F820F931F84519D4FFC018081829582
:100DA000869586958370817091E0813009F090E09E
:100DB000992309F44FC029813A81C901880F991FED
:100DC000820F931F880F991F880F991F9C0189819B
:100DD0009A8184589C4FFC018081992787FD9095CA
:100DE000280F391FC901880F991F820F931F845143
:100DF0009D4FFC0180818F7361E00E9428322AC0E0
:100E00008B819C81FC0180819181049621E0FCE929
:100E100080349F0708F020E0222341F08D819E81DD
:100E200020E43CE9FC01318320830DC08B819C814F
:100E3000FC01808191819C012C5F3F4F8D819E81BF
:100E4000FC013183208389819A8184589C4F2FEF44
:100E5000FC01208326960FB6F894DEBF0FBECDBFEF
:100E6000DF91CF9108951F920F920FB60F920090CD
:100E70005B000F9211242F933F934F935F936F93D7
:100E80007F938F939F93AF93BF93EF93FF93CF93F2
:100E9000DF93CDB7DEB781E090E064E870E048E82A
:100EA00050E00E94BE05DF91CF91FF91EF91BF917D
:100EB000AF919F918F917F916F915F914F913F91F2
:100EC0002F910F9000925B000F900FBE0F901F901C
:100ED00018951F920F920FB60F9200905B000F9221
:100EE00011242F933F934F935F936F937F938F932F
:100EF0009F93AF93BF93EF93FF93CF93DF93CDB7C0
:100F0000DEB782E090E064E970E048E950E00E94DA
:100F1000BE05DF91CF91FF91EF91BF91AF919F916E
:100F20008F917F916F915F914F913F912F910F9092
:100F300000925B000F900FBE0F901F9018951F92AC
:100F40000F920FB60F9200905B000F9211242F9317
:100F50003F934F935F936F937F938F939F93AF9341
:100F6000BF93EF93FF93CF93DF93CDB7DEB783E0CB
:100F700090E064EA70E048EA50E00E94BE05DF912C
:100F8000CF91FF91EF91BF91AF919F918F917F9101
:100F90006F915F914F913F912F910F9000925B0065
:100FA0000F900FBE0F901F9018951F920F920FB6C3
:100FB0000F9200905B000F9211242F933F934F9359
:100FC0005F936F937F938F939F93AF93BF93EF93B1
:100FD000FF93CF93DF93CDB7DEB780E090E064E27C
:100FE00071E048E251E00E94BE05DF91CF91FF9190
:100FF000EF91BF91AF919F918F917F916F915F9191
:101000004F913F912F910F9000925B000F900FBE78
:101010000F901F901895CF93DF930F920F92CDB73B
:10102000DEB79A83898389819A818130910501F5A0
:1010300080E890E0FC01108281E890E022E0FC0171
:10104000208384E890E0FC011182108286E390E026
:1010500026E330E0F90120812260FC0120838FE645
:1010600090E02FE630E0F90120812260FC0120832E
:1010700089819A8182309105C1F480E990E0FC0178
:10108000108281E990E022E0FC01208384E990E075
:10109000FC011182108288E390E022E0FC012083B1
:1010A00081E790E022E0FC01208389819A818330EE
:1010B0009105C1F480EA90E0FC01108281EA90E0A1
:1010C00022E0FC01208384EA90E0FC01118210827E
:1010D00089E390E022E0FC01208382E790E022E0B7
:1010E000FC01208389819A810097C1F480E291E01C
:1010F000FC01108281E291E022E0FC01208384E285
:1011000091E0FC01118210828AE390E022E0FC0170
:10111000208383E790E022E0FC0120830F900F9072
:10112000DF91CF910895CF93DF9300D0CDB7DEB795
:101130009B838A83198226C02A813B81C901880F3B
:10114000991F820F931F880F991F880F991F9C0169
:101150008981882F90E0280F391FC901880F991FB6
:10116000820F931F84519D4FFC018081829586954B
:10117000869583708170813011F481E00BC0898184
:101180008F5F898381E099819C3008F080E088231B
:1011900099F680E00F900F900F90DF91CF91089516
:1011A000CF93DF930F920F92CDB7DEB79A838983E7
:1011B000809180038033E8F42091800389819A81B3
:1011C000FC012083822F8F5F8093800389819A8125
:1011D000FC018081282F30E0C901880F991F820F00
:1011E000931F83519D4F28EB3BE0FC01318320830B
:1011F00005C089819A812FEFFC0120830F900F9009
:10120000DF91CF910895CF93DF93CDB7DEB72A97C3
:101210000FB6F894DEBF0FBECDBF9C838B837E8359
:101220006D8358874F833A8729878B819C81FC0186
:101230008081803308F071C08D8161E00E946C3044
:101240008B819C81FC018081282F30E08D81482F8B
:101250004F73C901880F991F820F931F84519D4FAF
:10126000242F2F73FC013081307C232BFC01208341
:1012700022E330E08F819885A901481B590BCA01F0
:1012800099230CF403969595879595958795282F26
:101290008B819C81FC01218328E33AE489859A852E
:1012A000A901481B590BCA0199230CF40396959583
:1012B000879595958795282F8B819C81FC012283AA
:1012C0008B819C81FC0180819CE0692F0E949C4C59
:1012D000882F90E09A83898389819A810E9493085C
:1012E000982F81E0992309F080E0882321F08981FB
:1012F0009A810E940B088B819C81FC018081282FA0
:1013000030E0C901880F991F820F931F84519D4FB0
:10131000FC0120812064FC0120838B819C81FC01E5
:1013200080812A960FB6F894DEBF0FBECDBFDF9145
:10133000CF910895CF93DF9300D000D0CDB7DEB723
:101340009C838B837E836D838B819C81FC01808158
:1013500089838981803308F097C08B819C81FC014F
:101360008181282F332727FD309580E090E0821B74
:10137000930B880F991F880F991F9C012E5C3F4F7C
:101380008D819E8182179307A4F48B819C81FC013F
:101390008181282F332727FD309580E090E0821B44
:1013A000930B880F991F880F991FC2969E838D8378
:1013B0002AC08B819C81FC018281992787FD9095B1
:1013C0002EE832E1A901481B590BCA019C01220FEA
:1013D000331F220F331F8D819E81281739079CF4FC
:1013E0008B819C81FC018281992787FD90952EE855
:1013F00032E1A901481B590BCA01880F991F880FB8
:10140000991F9E838D838D819E8102979E838D83FC
:101410008D819E81AA2797FDA095BA2F880F991FCD
:10142000AA1FBB1F880F991FAA1FBB1F880F991FD8
:10143000AA1FBB1F880F991FAA1FBB1F28E030E0FF
:1014400040E050E0BC01CD010E94CA4CDA01C90164
:101450009E838D838FE590E0FC0180818A83F894E0
:101460008981282F30E04D815E81C901880F991F45
:10147000820F931F83519D4FFC01518340838FE561
:1014800090E02A81FC01208326960FB6F894DEBFF7
:101490000FBECDBFDF91CF910895CF93DF9300D0E2
:1014A0000F92CDB7DEB79A8389837C836B83898162
:1014B0009A812B813C81FC01338322830F900F9012
:1014C0000F900F90DF91CF910895CF93DF930F92FC
:1014D0000F92CDB7DEB79A83898389819A812DEAED
:1014E00032E0FC013183208389819A81FC011382DF
:1014F00012820F900F90DF91CF910895CF93DF93D9
:101500000F920F92CDB7DEB79A83898389819A8132
:101510000E94650A89819A812BE832E0FC013183BF
:10152000208329813A8188EE93E0A0E0B0E0F901C0
:1015300084839583A683B7830F900F90DF91CF911B
:101540000895CF93DF930F920F92CDB7DEB79A83B2
:10155000898389819A810E947E0A89819A812BE7F9
:1015600032E0FC01318320830F900F90DF91CF9107
:101570000895CF93DF930F920F92CDB7DEB79A8382
:1015800089831092A1031092A2031092C4031092B7
:10159000C5030E942B0D0F900F90DF91CF910895FE
:1015A000CF93DF9300D0CDB7DEB79A8389836B8367
:1015B0008B810E945F0D85EE9CE00E94C50E84E940
:1015C0009CE00E94B20E89819A810E94B90A0F9014
:1015D0000F900F90DF91CF910895CF93DF9300D0BC
:1015E0000F92CDB7DEB79A8389837C836B832B817F
:1015F00089819A81622F0E94D00A0F900F900F90DC
:101600000F90DF91CF910895CF93DF9300D000D05A
:10161000CDB7DEB79B838A836C834D832E838D8108
:10162000813210F080E28D8321E833E08C81B901B2
:101630004D812E810E946F0D89831092A1038981B3
:101640008093A203898126960FB6F894DEBF0FBE61
:10165000CDBFDF91CF910895CF93DF9300D00F924C
:10166000CDB7DEB79A8389836B834C8389819A8156
:101670006B814C8121E00E94040B0F900F900F9022
:101680000F90DF91CF910895CF93DF9300D0CDB726
:10169000DEB79A8389836B8381E08093C6038B8155
:1016A0008093A3031092C4031092C5030F900F9070
:1016B0000F90DF91CF9108950F93CF93DF9300D0D8
:1016C0000F92CDB7DEB79B838A836C838091A3038F
:1016D0009091C50324EA33E0B901492F21E00C8140
:1016E0000E94EC0D89831092C4031092C5031092DE
:1016F000C60389810F900F900F900F90DF91CF91CB
:101700000F910895CF93DF930F920F92CDB7DEB76D
:101710009A83898389819A8161E00E945C0B0F9092
:101720000F90DF91CF910895CF93DF9300D0CDB785
:10173000DEB79A8389836B838091C603882301F186
:101740008091C503803248F089819A8161E070E020
:101750000E944D0A80E090E01AC08091C403882F57
:1017600090E02B818C559C4FFC0120838091C40319
:101770008F5F8093C4038091C4038093C50305C029
:10178000CE01039661E00E947A0E81E090E00F9016
:101790000F900F90DF91CF910895CF93DF93CDB746
:1017A000DEB728970FB6F894DEBF0FBECDBF9C837F
:1017B0008B837E836D8358874F838091C6038823F4
:1017C00049F11A8219821AC08B819C81FC018081A7
:1017D0009181FC01208131814D815E8189819A81D5
:1017E000840F951FFC0140818B819C81642FF9013E
:1017F000199589819A8101969A83898341E029818B
:101800003A818F8198852817390708F040E04423F2
:10181000D9F606C02F818D819E81622F0E947A0E9B
:101820008F81988528960FB6F894DEBF0FBECDBF86
:10183000DF91CF910895CF93DF930F920F92CDB7A1
:10184000DEB79A8389838091A203282F30E08091AC
:10185000A103882F90E0A901481B590BCA010F90E2
:101860000F90DF91CF910895CF93DF9300D00F9227
:10187000CDB7DEB79C838B838FEF9FEF9A838983ED
:101880009091A1038091A203981788F48091A103FD
:10189000882F90E08F579C4FFC018081882F90E02B
:1018A0009A8389838091A1038F5F8093A1038981AB
:1018B0009A810F900F900F900F90DF91CF91089524
:1018C000CF93DF9300D00F92CDB7DEB79C838B838D
:1018D0008FEF9FEF9A8389839091A1038091A20358
:1018E000981760F48091A103882F90E08F579C4F48
:1018F000FC018081882F90E09A83898389819A8175
:101900000F900F900F900F90DF91CF910895CF938C
:10191000DF930F920F92CDB7DEB79A8389830F9032
:101920000F90DF91CF910895CF93DF9300D00F9266
:101930000F92CDB7DEB79B838A837D836C838091C2
:10194000C9039091CA030097A9F19091A1038091D6
:10195000A203981788F1198213C08981882F90E01B
:101960002981222F30E04A815B81240F351FF90144
:1019700020818F579C4FFC01208389818F5F898351
:101980008981282F30E041E08C819D81281739071B
:101990000CF040E0442309F71092A1038C8180935E
:1019A000A2032091C9033091CA038C819D81F90162
:1019B000199503C0000001C000000F900F900F9018
:1019C0000F900F90DF91CF910895CF93DF93CDB714
:1019D000DEB78091C7039091C803009759F0109229
:1019E000C4031092C5038091C7039091C803FC0102
:1019F000199501C00000DF91CF910895CF93DF9337
:101A000000D00F92CDB7DEB79A8389837C836B8336
:101A100089819A818130910551F48B819C812FEFCE
:101A20008F3F920721F48BEC93E00E94A10A0F9064
:101A30000F900F900F90DF91CF910895CF93DF9388
:101A4000CDB7DEB781E090E06FEF7FEF0E94FE0C34
:101A5000DF91CF910895CF93DF93CDB7DEB710928A
:101A6000D70381E08093D9031092DA038091970223
:101A700061E00E9428328091980261E00E94283241
:101A800089EB90E029EB30E0F90120812E7FFC0109
:101A9000208389EB90E029EB30E0F90120812D7F54
:101AA000FC01208388EB90E02CE0FC0120838CEB90
:101AB00090E025E4FC012083DF91CF910895CF933E
:101AC000DF930F92CDB7DEB789838AEB90E029814F
:101AD000220FFC0120830F90DF91CF910895CF93C7
:101AE000DF9300D000D0CDB7DEB78A837C836B83D1
:101AF0004D832E838D81813210F080E064C0000020
:101B000001C000008091D7038823D9F781E080933A
:101B1000D7038E818093D9038FEF80934404109272
:101B2000FF038D8181508093000481E08093D8036E
:101B30008A81882F90E0880F991F982F8091D80371
:101B4000892B8093D8038091DA03813071F410924D
:101B5000DA038BEB90E02091D803FC0120838CEB1F
:101B600090E025ECFC01208305C08CEB90E025EE95
:101B7000FC012083000001C000008091D703813068
:101B8000D9F39091FF038D81981718F48091FF038A
:101B90008D83198213C08981882F90E02B813C812D
:101BA000820F931F2981222F30E021523C4FF901EF
:101BB0002081FC01208389818F5F898399818D81B8
:101BC000981748F38D8126960FB6F894DEBF0FBEA6
:101BD000CDBFDF91CF9108950F93CF93DF93CDB712
:101BE000DEB727970FB6F894DEBF0FBECDBF8A834E
:101BF0007C836B834D832E830F838D81813210F024
:101C000081E06EC0000001C000008091D7038823EE
:101C1000D9F782E08093D7038F818093D9038FEF28
:101C2000809344041092FF038D81809300041982F5
:101C300013C08981882F90E02981222F30E04B81C9
:101C40005C81240F351FF901208181529C4FFC01DA
:101C5000208389818F5F898399818D81981748F3CB
:101C60001092D8038A81882F90E0880F991F982FAF
:101C70008091D803892B8093D8038091DA03813037
:101C800071F41092DA038BEB90E02091D803FC0101
:101C900020838CEB90E025ECFC01208307C08CEBCB
:101CA00090E025EEFC01208301C000008E81882396
:101CB00021F08091D7038230C1F3809144048F3F9B
:101CC00011F480E00DC080914404803211F482E070
:101CD00007C080914404803311F483E001C084E0A4
:101CE00027960FB6F894DEBF0FBECDBFDF91CF9120
:101CF0000F910895CF93DF9300D00F92CDB7DEB749
:101D00009B838A836C838C81813210F081E023C0B5
:101D10008091D703843011F082E01DC08C818093C4
:101D20002204198213C08981882F90E02981222FF3
:101D300030E04A815B81240F351FF90120818F5FDC
:101D40009B4FFC01208389818F5F898399818C81DE
:101D5000981748F380E00F900F900F900F90DF914D
:101D6000CF910895CF93DF930F920F92CDB7DEB747
:101D70009A83898389819A819093DE038093DD031E
:101D80000F900F90DF91CF910895CF93DF930F9233
:101D90000F92CDB7DEB79A83898389819A81909318
:101DA000DC038093DB030F900F90DF91CF910895B8
:101DB000CF93DF930F92CDB7DEB7898389818823D4
:101DC00031F08CEB90E025ECFC01208305C08CEB1E
:101DD00090E025E8FC0120830F90DF91CF910895DA
:101DE000CF93DF93CDB7DEB78CEB90E025EDFC0110
:101DF0002083000001C000008CEB90E0FC0180819A
:101E0000882F90E0807190700097A9F71092D70307
:101E1000DF91CF910895CF93DF93CDB7DEB78CEBF1
:101E200090E025ECFC0120831092D703DF91CF9145
:101E300008951F920F920FB60F9200905B000F92C1
:101E400011242F933F934F935F936F937F938F93BF
:101E50009F93AF93BF93EF93FF93CF93DF93CDB750
:101E6000DEB789EB90E0FC018081882F90E0887FCD
:101E70009070AA2797FDA095BA2F40E050E028EF78
:101E800030E0841B950B2817390708F41CC18E58C5
:101E90009F4FFC01EE0FFF1F0590F491E02D199468
:101EA0008BEB90E02091D803FC01208381E00E941D
:101EB000D80E09C19091FF03809100049817A0F4F7
:101EC0008BEB90E04091FF03242F30E021523C4FF8
:101ED000F9012081FC012083842F8F5F8093FF0311
:101EE00081E00E94D80EEFC08091D903882319F0B9
:101EF0000E94F00EE8C081E08093DA038CEB90E062
:101F000024EAFC0120831092D703DDC080E2809395
:101F100044040E94F00ED7C080E3809344040E94E2
:101F2000F00ED1C088E3809344040E940B0FCBC015
:101F30004091FF03842F90E02BEB30E0F9012081EA
:101F400081529C4FFC012083842F8F5F8093FF037D
:101F50009091FF0380910004981720F481E00E9483
:101F6000D80EB1C080E00E94D80EADC04091FF03F2
:101F7000842F90E02BEB30E0F901208181529C4FBF
:101F8000FC012083842F8F5F8093FF038091D9030E
:101F9000882319F00E94F00E96C081E08093DA0346
:101FA0008CEB90E024EAFC0120831092D7038BC0D5
:101FB0000E94F00E88C083E08093D7031092430400
:101FC00081E00E94D80E7FC0809143048032A0F44B
:101FD00040914304842F90E02BEB30E0F901208105
:101FE0008D5D9B4FFC012083842F8F5F8093430482
:101FF00081E00E94D80E67C080E00E94D80E63C0C6
:1020000080914304803240F480914304882F90E013
:102010008D5D9B4FFC0110820E94F00E2091DD032C
:102020003091DE0380914304482F50E083E294E036
:10203000BA01F9011995109243040E940B0F43C095
:1020400080E00E94D80E3FC084E08093D7031092B6
:102050002104109222048091DB039091DC03FC01A7
:10206000199580912204882329F481E08093220429
:10207000109201048BEB90E040912104242F30E07A
:102080002F5F3B4FF9012081FC012083842F8F5F5C
:10209000809321049091210480912204981720F4C8
:1020A00081E00E94D80E0FC080E00E94D80E0BC0C5
:1020B00081E00E94D80E1092D70305C0109244040C
:1020C0000E94F00E0000DF91CF91FF91EF91BF9140
:1020D000AF919F918F917F916F915F914F913F91C0
:1020E0002F910F9000925B000F900FBE0F901F90EA
:1020F0001895CF93DF93CDB7DEB70E948D2F0E9446
:1021000084100E943D11FDCFCF93DF93CDB7DEB792
:1021100083E061E00E946C3085E061E00E946C30F9
:1021200086E061E00E946C3087E061E00E946C30E4
:102130008EE395E063E070E048EE53E02CE637E094
:102140000E94030981E495E065E070E048EE53E009
:102150002CE637E00E94030984E495E066E070E035
:1021600048EE53E02CE637E00E94030987E495E04F
:1021700067E070E048EE53E02CE637E00E94030988
:102180008EE395E068EE73E00E949A0981E495E0A1
:1021900068EE73E00E949A0984E495E068EE73E0CB
:1021A0000E949A0987E495E068EE73E00E949A091C
:1021B0002EE435E180E0B90142E050E00E94582B66
:1021C0008AE797E040E052EC61E070E00E94A823CB
:1021D0008BEC93E060E070E00E94ED0A80911702C2
:1021E0009091180261E00E946C3085E494E060E018
:1021F0000E948C0585E494E063E00E949A0461E00B
:1022000070E080E090E00E944B2F85E494E061E074
:102210000E94B40461E070E080E090E00E944B2FE7
:1022200085E494E063E00E94A40561E070E080E052
:1022300090E00E944B2F85E494E064E00E948004CB
:1022400061E070E080E090E00E944B2F0E94441615
:102250000E94ED2EDC01CB0180933605909337056B
:10226000A0933805B093390564E170E080E090E018
:102270000E944B2FDF91CF910895EF92FF920F9321
:102280001F93CF93DF93CDB7DEB70E94ED2E9B0156
:10229000AC018091360590913705A0913805B09139
:1022A000390579018A01E81AF90A0A0B1B0BD801D2
:1022B000C70121E0803107E2900700E0A00700E0BD
:1022C000B00708F420E0222309F44EC080913605BF
:1022D00090913705A0913805B091390580933A0562
:1022E00090933B05A0933C05B0933D050E94ED2ED5
:1022F000DC01CB018093360590933705A093380518
:10230000B093390520913605309137054091380555
:102310005091390580913A0590913B05A0913C057B
:10232000B0913D0579018A01E81AF90A0A0B1B0BE5
:10233000D801C701BC01CD010E94CF4ADC01CB010D
:10234000BC01CD0120E034E244E759E40E94344A64
:10235000DC01CB018093610290936202A09363023F
:10236000B09364020E94BB11DF91CF911F910F9136
:10237000FF90EF9008951F93CF93DF93CDB7DEB713
:102380000E949B150E944A1A0E9432170E9436181A
:102390000E94351C8091680490916904880F991FF0
:1023A0009C01220F331F220F331F820F931FAA2776
:1023B00097FDA095BA2FBC01CD010E94CF4ADC0148
:1023C000CB018093620990936309A0936409B09351
:1023D00065098091640490916504880F991F9C01A0
:1023E000220F331F220F331F820F931FAA2797FD3F
:1023F000A095BA2FBC01CD010E94CF4ADC01CB01D0
:1024000080936A0990936B09A0936C09B0936D094E
:102410008091660490916704880F991F9C01220F98
:10242000331F220F331F820F931FAA2797FDA095FA
:10243000BA2FBC01CD010E94CF4ADC01CB018093B1
:102440006E0990936F09A0937009B0937109809100
:102450006A0490916B04880F991F9C01220F331F0F
:10246000220F331F820F931FAA2797FDA095BA2F23
:10247000BC01CD010E94CF4ADC01CB0180937209DF
:1024800090937309A0937409B09375098091D60451
:102490009091D704A091D804B091D90480933209C7
:1024A00090933309A0933409B09335098091D204F5
:1024B0009091D304A091D404B091D50480933609AF
:1024C00090933709A0933809B09339098091DA04C1
:1024D0009091DB04A091DC04B091DD04B0588093AE
:1024E0003A0990933B09A0933C09B0933D09809130
:1024F000EA049091EB04A091EC04B091ED04809378
:10250000A6099093A709A093A809B093A90980915F
:10251000EE049091EF04A091F004B091F104809347
:10252000AA099093AB09A093AC09B093AD0981E3DC
:1025300098E0ACE2BDE38093C2099093C309A093F5
:10254000C409B093C50981E398E0ACE2BDE3809390
:10255000EA099093EB09A093EC09B093ED098FE69B
:1025600092E1A3E0BBE38093EE099093EF09A0937F
:10257000F009B093F10981E398E0ACE2BDE3809308
:10258000FE099093FF09A093000AB093010A81E32A
:1025900098E0ACE2BDE38093020A9093030AA09313
:1025A000040AB093050A8FE692E1A3E0BBE38093AF
:1025B000060A9093070AA093080AB093090A8AE9C9
:1025C00099E9A9E9BFE38093C6099093C709A0934D
:1025D000C809B093C90980E090E0A0E8BFE3809308
:1025E000FA099093FB09A093FC09B093FD0980E0E0
:1025F00090E0A0E2B2E48093DA099093DB09A09323
:10260000DC09B093DD0980E090E0A4E3B3E48093BB
:10261000CA099093CB09A093CC09B093CD0980E06F
:1026200090E0A8EDB0E48093D2099093D309A093F1
:10263000D409B093D50980E090E0DC018093D609FD
:102640009093D709A093D809B093D9090E94D832A2
:102650008091800890918108A0918208B0918308B0
:10266000BC01CD0120E030E040E251E40E94344A58
:10267000DC01CB0111E0BC01CD0120E030E04AE7F4
:1026800054E40E94304A88230CF010E0112319F022
:1026900028EE33E03CC08091800890918108A091A1
:1026A0008208B0918308BC01CD0120E030E040E217
:1026B00051E40E94344ADC01CB0111E0BC01CD01A0
:1026C00020E030E84DEE54E40E94D04B18160CF098
:1026D00010E0112319F08CE697E018C08091800873
:1026E00090918108A0918208B0918308BC01CD012E
:1026F00020E030E040E251E40E94344ADC01CB01AA
:10270000BC01CD010E949C4ADC01CB019C0181E40B
:1027100095E0B9010E949A09809178089091790812
:10272000A0917A08B0917B08BC01CD0120E030E097
:1027300040E251E40E94344ADC01CB0111E0BC01CB
:10274000CD0120E030E04AE754E40E94304A88237B
:102750000CF010E0112319F028EE33E03CC080911A
:10276000780890917908A0917A08B0917B08BC0113
:10277000CD0120E030E040E251E40E94344ADC0127
:10278000CB0111E0BC01CD0120E030E84DEE54E476
:102790000E94D04B18160CF010E0112319F08CE6B3
:1027A00097E018C08091780890917908A0917A08F4
:1027B000B0917B08BC01CD0120E030E040E251E463
:1027C0000E94344ADC01CB01BC01CD010E949C4A2D
:1027D000DC01CB019C018EE395E0B9010E949A09CE
:1027E0008091840890918508A0918608B09187080F
:1027F000BC01CD0120E030E040E251E40E94344AC7
:10280000DC01CB0111E0BC01CD0120E030E04AE762
:1028100054E40E94304A88230CF010E0112319F090
:1028200028EE33E03CC08091840890918508A09107
:102830008608B0918708BC01CD0120E030E040E27D
:1028400051E40E94344ADC01CB0111E0BC01CD010E
:1028500020E030E84DEE54E40E94D04B18160CF006
:1028600010E0112319F08CE697E018C080918408DD
:1028700090918508A0918608B0918708BC01CD0190
:1028800020E030E040E251E40E94344ADC01CB0118
:10289000BC01CD010E949C4ADC01CB019C0184E477
:1028A00095E0B9010E949A0980917C0890917D0879
:1028B000A0917E08B0917F08BC01CD0120E030E0FE
:1028C00040E251E40E94344ADC01CB0111E0BC013A
:1028D000CD0120E030E04AE754E40E94304A8823EA
:1028E0000CF010E0112319F028EE33E03CC0809189
:1028F0007C0890917D08A0917E08B0917F08BC0172
:10290000CD0120E030E040E251E40E94344ADC0195
:10291000CB0111E0BC01CD0120E030E84DEE54E4E4
:102920000E94D04B18160CF010E0112319F08CE621
:1029300097E018C080917C0890917D08A0917E0856
:10294000B0917F08BC01CD0120E030E040E251E4CD
:102950000E94344ADC01CB01BC01CD010E949C4A9B
:10296000DC01CB019C0187E495E0B9010E949A0942
:10297000209178083091790840917A0850917B082D
:102980008AE797E0BA01A90122E030E00E94F52829
:102990008AE797E020E032E0B9010E94EA2720911F
:1029A0007C0830917D0840917E0850917F088AE72D
:1029B00097E0BA01A90122E030E00E94F5288AE7F9
:1029C00097E020E032E0B9010E94EA2720918008D8
:1029D0003091810840918208509183088AE797E0FE
:1029E000BA01A90122E030E00E94F5288AE797E0C9
:1029F00020E032E0B9010E94EA272091840830915A
:102A0000850840918608509187088AE797E0BA01C7
:102A1000A90122E030E00E94F5288AE797E020E053
:102A200032E0B9010E94EA272091640430916504E4
:102A30008AE797E0B9014AE050E00E941E288AE741
:102A400097E020E032E0B9010E94EA272091660475
:102A5000309167048AE797E0B9014AE050E00E94AC
:102A60001E288AE797E020E032E0B9010E94EA27B9
:102A700020916804309169048AE797E0B9014AE03F
:102A800050E00E941E288AE797E020E032E0B9017A
:102A90000E943F29DF91CF911F910895CF93DF933B
:102AA000CDB7DEB70E94ED2EDC01CB019C018091F9
:102AB000600490916104A0916204B0916304A90143
:102AC000481B590BCA0190935705809356050E94E5
:102AD000ED2EDC01CB018093600490936104A09300
:102AE0006204B0936304809156059091570557E0B6
:102AF000813D950728F0109259051092580518C08D
:102B000080915805909159052091560530915705AF
:102B1000880F991F8C599B4FFC0131832083809132
:102B20005805909159050196909359058093580541
:102B3000DF91CF910895CF92DF92EF92FF920F93A2
:102B40001F93CF93DF93CDB7DEB785E494E064E5C0
:102B500074E046E554E028E534E00AE514E0ACE52D
:102B6000B4E0EEE5F4E07D016F010E94CE048091B7
:102B70005A0490915B04AA2797FDA095BA2FBC0137
:102B8000CD010E94CF4ADC01CB018093F6049093E3
:102B9000F704A093F804B093F90480915C04909139
:102BA0005D04AA2797FDA095BA2FBC01CD010E9414
:102BB000CF4ADC01CB018093FA049093FB04A093ED
:102BC000FC04B093FD0480915E0490915F04AA27F9
:102BD00097FDA095BA2FBC01CD010E94CF4ADC0120
:102BE000CB018093FE049093FF04A0930005B09363
:102BF00001058091540490915504AA2797FDA09552
:102C0000BA2FBC01CD010E94CF4ADC01CB018093D9
:102C1000020590930305A0930405B09305058091E8
:102C2000560490915704AA2797FDA095BA2FBC018E
:102C3000CD010E94CF4ADC01CB0180930605909321
:102C40000705A0930805B093090580915804909159
:102C50005904AA2797FDA095BA2FBC01CD010E9467
:102C6000CF4ADC01CB0180930A0590930B05A0931A
:102C70000C05B0930D05DF91CF911F910F91FF903F
:102C8000EF90DF90CF900895EF92FF920F931F93F4
:102C9000CF93DF93CDB7DEB728970FB6F894DEBF9A
:102CA0000FBECDBF1A82198221C080911702909168
:102CB000180261E00E94283268EC70E080E090E049
:102CC0000E944B2F0E949B15809117029091180231
:102CD00060E00E94283268EC70E080E090E00E94A2
:102CE0004B2F89819A8101969A83898321E089817A
:102CF0009A818A3091050CF020E02223B1F60E94DF
:102D00009B1564E170E080E090E00E944B2F0E94F0
:102D10009B151C821B821FC08B819C81880F991F71
:102D2000880F991F8A509B4FFC0180819181A2815D
:102D3000B3812B813C81220F331F220F331F2A5E68
:102D40003A4FF90180839183A283B3838B819C8165
:102D500001969C838B8321E08B819C81833091053C
:102D60000CF020E02223C1F61E821D8264C00E9466
:102D70009B1518861F824AC08F819885880F991FDE
:102D8000880F991F8A5E9A4FFC0180819181A281F0
:102D9000B381BC01CD012DEC3CEC4CE45FE30E941F
:102DA000DB4BDC01CB017C018D018F819885880F85
:102DB000991F880F991F8A509B4FFC018081918138
:102DC000A281B381BC01CD012DEC3CEC4CE45EE36F
:102DD0000E94DB4BDC01CB019C01AD01C801B701B6
:102DE0000E945349DC01CB012F813885220F331F0C
:102DF000220F331F2A5E3A4FF90180839183A28309
:102E0000B3838F819885019698878F8321E08F8186
:102E10009885833091050CF020E0222309F0ACCF97
:102E200064E170E080E090E00E944B2F8D819E81F4
:102E300001969E838D8321E08D819E81843691054C
:102E40000CF020E0222309F092CF28960FB6F894D8
:102E5000DEBF0FBECDBFDF91CF911F910F91FF90CD
:102E6000EF900895CF93DF93CDB7DEB7AC970FB651
:102E7000F894DEBF0FBECDBF80E090E0DC01898317
:102E80009A83AB83BC8380E090E0DC018D839E83DA
:102E9000AF83B88789E192E025E232E0B9010E9470
:102EA0008F1CDC01CB01B058BC01CD0120E030E02B
:102EB00040E05FE30E94DB4BDC01CB0189839A8316
:102EC000AB83BC83CE01099665E272E029813A8129
:102ED0004B815C810E94DB1DCE0109960C9669E155
:102EE00072E029813A814B815C810E94DB1DCE0119
:102EF0000996AE01475F5F4F29E132E0BA01A901AF
:102F00000E94341ECE0109960C969E01275F3F4F0A
:102F1000A901445F5F4F25E232E0BA01A9010E9496
:102F2000341ECE0109964896AE01475F5F4F9E0161
:102F3000275F3F4F245F3F4FBA01A9010E94F71C52
:102F4000CE0109969E01275F3F4FB9010E948F1C59
:102F50009B01AC0160E070E080E490E40E94524983
:102F6000DC01CB01BC01CD0120E030E040E05FE3BB
:102F70000E94DB4BDC01CB018D839E83AF83B8873E
:102F800089E192E0BE01675F7F4F2D813E814F81D5
:102F900058850E94DB1DCE0109960C969E01275F85
:102FA0003F4F245F3F4FB9010E948F1C9B01AC0132
:102FB00060E070E080E490E40E945249DC01CB01C3
:102FC000BC01CD0120E030E040E05FE30E94DB4B3C
:102FD000DC01CB018D839E83AF83B88785E292E0CD
:102FE0009E01275F3F4FB901645F7F4F2D813E8176
:102FF0004F8158850E94DB1DCE01099648969E019F
:10300000275F3F4F285E3F4FB9010E948F1C9B01F5
:10301000AC0160E070E080E490E40E945249DC0181
:10302000CB01BC01CD0120E030E040E05FE30E9435
:10303000DB4BDC01CB018D839E83AF83B88781E3BB
:1030400092E09E01275F3F4FB901685E7F4F2D815F
:103050003E814F8158850E94DB1DAC960FB6F894D7
:10306000DEBF0FBECDBFDF91CF910895EF92FF92EB
:103070000F931F93CF93DF93CDB7DEB728970FB68B
:10308000F894DEBF0FBECDBF809196049091970457
:10309000A0919804B09199042091960430919704DE
:1030A0004091980450919904BC01CD010E94DB4BE2
:1030B000DC01CB017C018D0180919A0490919B04ED
:1030C000A0919C04B0919D0420919A0430919B049E
:1030D00040919C0450919D04BC01CD010E94DB4BAA
:1030E000DC01CB019C01AD01C801B7010E9453492D
:1030F000DC01CB017C018D0180919E0490919F04A5
:10310000A091A004B091A10420919E0430919F044D
:103110004091A0045091A104BC01CD010E94DB4B61
:10312000DC01CB019C01AD01C801B7010E945349EC
:10313000DC01CB01BC01CD010E94424CDC01CB0182
:1031400089839A83AB83BC8369817A818B819C81DB
:1031500020E030E040E056E40E94344ADC01CB013C
:1031600089839A83AB83BC8360E070E080E89FE34F
:1031700029813A814B815C810E945249DC01CB015B
:1031800011E0BC01CD0120E030E0A9010E94D04B4C
:1031900018160CF010E0112361F160E070E080E897
:1031A0009FE329813A814B815C810E945249DC0175
:1031B000CB01BC01CD0120E030E040E850E40E94AA
:1031C000DB4BDC01CB019C01AD0160E070E080E8ED
:1031D0009FE30E945249DC01CB0111E0BC01CD010B
:1031E00020E030E0A9010E94304A88236CF110E011
:1031F0002BC060E070E080E89FE329813A814B8139
:103200005C810E945249DC01CB01BC01CD0120E070
:1032100030E040E850E40E94DB4BDC01CB01BC0114
:10322000CD0120E030E040E85FE30E945349DC013B
:10323000CB0111E0BC01CD0120E030E0A9010E94EA
:10324000304A88230CF010E0112321F080E090E058
:10325000DC01D3C060E070E080E89FE329813A811F
:103260004B815C810E945249DC01CB0111E0BC0121
:10327000CD0120E030E0A9010E94D04B18160CF0DF
:1032800010E0112369F160E070E080E89FE329819C
:103290003A814B815C810E945249DC01CB01BC0127
:1032A000CD0120E030E040E850E40E94DB4BDC013F
:1032B000CB019C01AD0160E070E080E89FE30E94DB
:1032C0005249DC01CB0111E0BC01CD0120E030E02E
:1032D00040E85FE30E94D04B181674F110E02CC058
:1032E00060E070E080E89FE329813A814B815C8156
:1032F0000E945249DC01CB01BC01CD0120E030E04D
:1033000040E850E40E94DB4BDC01CB01BC01CD0165
:1033100020E030E040E85FE30E945349DC01CB014C
:1033200011E0BC01CD0120E030E040E85FE30E9405
:10333000D04B18160CF010E0112329F080E090E03B
:10334000A0E8BFE35AC060E070E080E89FE3298115
:103350003A814B815C810E945249DC01CB0111E032
:10336000BC01CD0120E030E0A9010E94D04B18162D
:103370000CF010E0112309F160E070E080E89FE3B9
:1033800029813A814B815C810E945249DC01CB0149
:10339000BC01CD0120E030E040E850E40E94DB4B6E
:1033A000DC01CB019C01AD0160E070E080E89FE3AF
:1033B0000E945249DC01CB0120C060E070E080E84F
:1033C0009FE329813A814B815C810E945249DC0153
:1033D000CB01BC01CD0120E030E040E850E40E9488
:1033E000DB4BDC01CB01BC01CD0120E030E040E84B
:1033F0005FE30E945349DC01CB018D839E83AF8341
:10340000B8878EED94E046E954E021E332E0BA015A
:10341000A9010E94F71C6D817E818F81988525E826
:103420003BEE41E459E30E94DB4BDC01CB019C0104
:10343000AD018AEB94E06EED74E00E94DB1D6D81BE
:103440007E818F8198852AEF31E644E054E30E9423
:10345000DB4BDC01CB019C01AD018AE495E06EED14
:1034600074E00E94DB1D86EC94E046EC54E02AE414
:1034700035E0BA01A9010E94341E28960FB6F894CF
:10348000DEBF0FBECDBFDF91CF911F910F91FF9097
:10349000EF900895EF92FF920F931F93CF93DF93D6
:1034A00000D00F92CDB7DEB780E090E00E94921F6F
:1034B000DC01CB01BC01CD0121E331E54BE85AE34E
:1034C0000E94DB4BDC01CB018093A2049093A30408
:1034D000A093A404B093A50481E090E00E94921F01
:1034E000DC01CB01BC01CD0121E331E54BE85AE31E
:1034F0000E94DB4BDC01CB018093A6049093A704D0
:10350000A093A804B093A90482E090E00E94921FC7
:10351000DC01CB01BC01CD0121E331E54BE85AE3ED
:103520000E94DB4BDC01CB018093AA049093AB0497
:10353000A093AC04B093AD0483E090E00E94921F8E
:10354000DC01CB018093960490939704A093980498
:10355000B093990484E090E00E94921FDC01CB01BB
:1035600080939A0490939B04A0939C04B0939D0431
:1035700085E090E00E94921FDC01CB0180939E04C5
:1035800090939F04A093A004B093A10482ED94E0D3
:1035900042EA54E026EC34E0BA01A9010E94341E4C
:1035A0008EEA94E042ED54E02AEB34E0BA01A9013E
:1035B0000E94341E80E090E0DC0180933D029093F5
:1035C0003E02A0933F02B09340028091610290912D
:1035D0006202A0916302B0916402B0582091B604D7
:1035E0003091B7044091B8045091B904BC01CD01A9
:1035F0000E94DB4BDC01CB0180934102909342029D
:10360000A0934302B09344028091B2049091B3041A
:10361000A091B404B091B50420916102309162028E
:103620004091630250916402BC01CD010E94DB4BCA
:10363000DC01CB018093450290934602A0934702A0
:10364000B09348028091B6049091B704A091B80459
:10365000B091B904209161023091620240916302FD
:1036600050916402BC01CD010E94DB4BDC01CB0117
:103670008093490290934A02A0934B02B0934C026C
:1036800080E090E0DC0180934D0290934E02A09385
:103690004F02B09350028091610290916202A0911A
:1036A0006302B0916402B0582091AE043091AF042F
:1036B0004091B0045091B104BC01CD010E94DB4B9C
:1036C000DC01CB018093510290935202A0935302EC
:1036D000B09354028091610290916202A0916302C2
:1036E000B0916402B0582091B2043091B30440917B
:1036F000B4045091B504BC01CD010E94DB4BDC0148
:10370000CB018093550290935602A0935702B09339
:1037100058028091AE049091AF04A091B004B09192
:10372000B104209161023091620240916302509194
:103730006402BC01CD010E94DB4BDC01CB01809314
:10374000590290935A02A0935B02B0935C0280E00E
:1037500090E0DC0180935D0290935E02A0935F0293
:10376000B093600289E192E04DE352E022E734E059
:10377000BA01A9010E94971E1A82198261C01C8297
:103780001B824FC029813A81C901880F991F820F7E
:10379000931F2B813C81820F931F880F991F880FE5
:1037A000991F875E9D4FFC01E080F18002811381AB
:1037B00029813A81C901880F991F820F931F2B819C
:1037C0003C81820F931F880F991F880F991F8E5875
:1037D0009B4FFC012081318142815381C801B70197
:1037E0000E945349DC01CB019C01AD0169817A81C2
:1037F000CB01880F991F860F971F6B817C81860FE5
:10380000971F880F991F880F991F875E9D4FFC0196
:1038100020833183428353838B819C8101969C83D7
:103820008B8321E08B819C81833091050CF020E01B
:10383000222309F0A7CF89819A8101969A838983EF
:1038400021E089819A81833091050CF020E02223C8
:1038500009F095CF0F900F900F900F90DF91CF91BF
:103860001F910F91FF90EF900895CF93DF93CDB705
:10387000DEB78091310290913202A0913302B09173
:103880003402B058BC01CD010E94B749DC01CB0124
:103890008093EA049093EB04A093EC04B093ED04BE
:1038A0008091350290913602A0913702B091380292
:1038B0002091390230913A0240913B0250913C02F2
:1038C000BC01CD010E94DD49DC01CB018093EE04F7
:1038D0009093EF04A093F004B093F104809125023B
:1038E00090912602A0912702B091280220911902FE
:1038F00030911A0240911B0250911C02BC01CD0173
:103900000E94DD49DC01CB018093F2049093F30423
:10391000A093F404B093F504DF91CF910895CF9371
:10392000DF93CDB7DEB72A970FB6F894DEBF0FBE90
:10393000CDBF98878F837A87698780E090E0DC012C
:1039400089839A83AB83BC831E821D8237C08D819D
:103950009E81880F991F880F991F2F813885820FAC
:10396000931FFC0180819181A281B3812D813E81D1
:10397000220F331F220F331F49855A85240F351F0D
:10398000F9012081318142815381BC01CD010E9426
:10399000DB4BDC01CB019C01AD0169817A818B811C
:1039A0009C810E945349DC01CB0189839A83AB83BC
:1039B000BC838D819E8101969E838D8321E08D81C4
:1039C0009E81833091050CF020E0222309F0BFCFC7
:1039D00089819A81AB81BC81BC01CD012A960FB649
:1039E000F894DEBF0FBECDBFDF91CF910895CF9287
:1039F000DF92EF92FF920F931F93CF93DF9300D04C
:103A000000D0CDB7DEB79A8389837C836B835E83D6
:103A10004D838B819C810496FC0180819181A281E0
:103A2000B3812D813E81285F3F4FF9012081318193
:103A300042815381BC01CD010E94DB4BDC01CB01F3
:103A40007C018D018B819C810896FC018081918194
:103A5000A281B3812D813E812C5F3F4FF9012081EE
:103A6000318142815381BC01CD010E94DB4BDC01DD
:103A7000CB019C01AD01C801B7010E945249DC0194
:103A8000CB0129813A81F90180839183A283B38399
:103A900089819A81CC24DD246894C2F8C80ED91E8D
:103AA0008B819C810896FC0180819181A281B381E8
:103AB0002D813E81F9012081318142815381BC01F8
:103AC000CD010E94DB4BDC01CB017C018D018B81A0
:103AD0009C81FC0180819181A281B3812D813E81F5
:103AE000285F3F4FF9012081318142815381BC0120
:103AF000CD010E94DB4BDC01CB019C01AD01C80173
:103B0000B7010E945249DC01CB01F6018083918309
:103B1000A283B38389819A81CC24DD246894C3F87D
:103B2000C80ED91E8B819C81FC0180819181A2816C
:103B3000B3812D813E812C5F3F4FF901208131817E
:103B400042815381BC01CD010E94DB4BDC01CB01E2
:103B50007C018D018B819C810496FC018081918187
:103B6000A281B3812D813E81F90120813181428181
:103B70005381BC01CD010E94DB4BDC01CB019C01D8
:103B8000AD01C801B7010E945249DC01CB01F60129
:103B900080839183A283B38326960FB6F894DEBF09
:103BA0000FBECDBFDF91CF911F910F91FF90EF908E
:103BB000DF90CF9008950F931F93CF93DF93CDB7EE
:103BC000DEB72A970FB6F894DEBF0FBECDBF9C8339
:103BD0008B837E836D832F83388749875A871A8228
:103BE00019822EC089819A81880F991F880F991F89
:103BF0002B813C818901080F191F89819A81880FC7
:103C0000991F880F991F2D813E81820F931FFC0100
:103C100080819181A281B381BC01CD012F81388542
:103C200049855A850E94DB4BDC01CB01F80180837A
:103C30009183A283B38389819A8101969A83898330
:103C400021E089819A81833091050CF020E02223C4
:103C500049F62A960FB6F894DEBF0FBECDBFDF91AE
:103C6000CF911F910F9108950F931F93CF93DF93DF
:103C7000CDB7DEB728970FB6F894DEBF0FBECDBF25
:103C80009C838B837E836D8358874F831A8219822E
:103C900039C089819A81880F991F880F991F2B81BC
:103CA0003C818901080F191F89819A81880F991F0A
:103CB000880F991F2D813E81820F931FFC01808107
:103CC0009181A281B38129813A81220F331F220F72
:103CD000331F4F815885240F351FF9012081318111
:103CE00042815381BC01CD010E945349DC01CB01CB
:103CF000F80180839183A283B38389819A8101969D
:103D00009A83898321E089819A81833091050CF01F
:103D100020E0222309F0BDCF28960FB6F894DEBF2D
:103D20000FBECDBFDF91CF911F910F910895EF92FC
:103D3000FF920F931F93CF93DF93CDB7DEB76897B2
:103D40000FB6F894DEBF0FBECDBF9C8B8B8B7E8BE6
:103D50006D8B588F4F8B1A821982CDC01C821B82AB
:103D6000BBC01E821D8255C029813A81C901880FBE
:103D7000991F820F931F880F991F880F991F2B89F6
:103D80003C89280F391F8D819E81880F991F880FCC
:103D9000991F820F931FFC01E080F1800281138143
:103DA0002D813E81C901880F991F820F931F880FB3
:103DB000991F880F991F2D893E89280F391F8B81E4
:103DC0009C81880F991F880F991F820F931FFC01F8
:103DD0002081318142815381C801B7010E94DB4BB0
:103DE000DC01CB012D813E81220F331F220F331FB7
:103DF000AE014F5F5F4F240F351F2A5F3F4FF90120
:103E000080839183A283B3838D819E8101969E835B
:103E10008D8321E08D819E81833091050CF020E01F
:103E2000222309F0A1CF29813A81C901880F991F66
:103E3000820F931F880F991F880F991F2F89388D24
:103E4000280F391F8B819C81880F991F880F991F1C
:103E5000280F391F80E090E0DC01F9018083918315
:103E6000A283B38329813A81C901880F991F820FE8
:103E7000931F880F991F880F991F2F89388D8901EB
:103E8000080F191F8F819885A985BA852B853C85D8
:103E90004D855E85BC01CD010E945349DC01CB01FB
:103EA0002F85388949895A89BC01CD010E9453491F
:103EB000DC01CB012B813C81220F331F220F331FEA
:103EC000200F311FF90180839183A283B3838B81FB
:103ED0009C8101969C838B8321E08B819C81833024
:103EE00091050CF020E0222309F03BCF89819A81D3
:103EF00001969A83898321E089819A818330910593
:103F00000CF020E0222309F029CF68960FB6F89430
:103F1000DEBF0FBECDBFDF91CF911F910F91FF90FC
:103F2000EF900895CF93DF930F920F92CDB7DEB746
:103F30009A83898389819A81880F991F8B599D4F14
:103F4000FC018081918199230CF589819A81880FE8
:103F5000991F880F991F8A5E9A4FFC018081918179
:103F6000A281B38129813A81220F331F220F331F8F
:103F70002A503B4FF9012081318142815381BC019C
:103F8000CD010E945249DC01CB0120C089819A8178
:103F9000880F991F880F991F8A509B4FFC018081C1
:103FA0009181A281B38129813A81220F331F220F8F
:103FB000331F2A5E3A4FF9012081318142815381BA
:103FC000BC01CD010E945249DC01CB01BC01CD01F5
:103FD0000F900F90DF91CF910895CF93DF9300D092
:103FE0000F92CDB7DEB79A8389837C836B838981F7
:103FF0009A8181309105D1F48B819C812FEF8F3F85
:104000009207A1F485E494E00E946E048EE395E0AB
:104010000E94D00881E495E00E94D00884E495E0F5
:104020000E94D00887E495E00E94D0080F900F907E
:104030000F900F90DF91CF910895CF93DF93CDB77D
:10404000DEB781E090E06FEF7FEF0E94ED1FDF9120
:10405000CF910895CF93DF9300D00F920F92CDB7F9
:10406000DEB78B837D836C838C819D81805C9F4FC9
:10407000FC018081918101968F7390709A8389836E
:1040800029813A818C819D818E5B9F4FFC018081CB
:10409000918141E02817390709F440E04423B9F041
:1040A0008C819D81805C9F4FFC01808191812C815E
:1040B0003D81820F931F2B81FC01208329813A814E
:1040C0008C819D81805C9F4FFC01318320830F9008
:1040D0000F900F900F900F90DF91CF9108951F9246
:1040E0000F920FB60F9200905B000F9211242F9346
:1040F0003F934F935F936F937F938F939F93AF9370
:10410000BF93EF93FF93CF93DF930F920F92CDB7AF
:10411000DEB780EC90E0FC018081882F90E0847015
:10412000907021E0009709F020E0222361F086ECF6
:1041300090E0FC01808189832AE535E08981B9011D
:104140000E942A2005C086EC90E0FC0180818A83D1
:104150000F900F90DF91CF91FF91EF91BF91AF91B1
:104160009F918F917F916F915F914F913F912F918F
:104170000F9000925B000F900FBE0F901F9018954C
:104180001F920F920FB60F9200905B000F921124B6
:104190002F933F934F935F936F937F938F939F934F
:1041A000AF93BF93EF93FF93CF93DF930F920F9251
:1041B000CDB7DEB788EC90E0FC018081882F90E0DD
:1041C0008470907021E0009709F020E0222361F0D4
:1041D0008EEC90E0FC018081898322EE35E08981BC
:1041E000B9010E942A2005C08EEC90E0FC0180817C
:1041F0008A830F900F90DF91CF91FF91EF91BF9144
:10420000AF919F918F917F916F915F914F913F916E
:104210002F910F9000925B000F900FBE0F901F9098
:1042200018951F920F920FB60F9200905B000F929D
:1042300011242F933F934F935F936F937F938F93AB
:104240009F93AF93BF93EF93FF93CF93DF930F921F
:104250000F92CDB7DEB780ED90E0FC018081882F12
:1042600090E08470907021E0009709F020E0222314
:1042700061F086ED90E0FC01808189832AE636E0DA
:104280008981B9010E942A2005C086ED90E0FC01D9
:1042900080818A830F900F90DF91CF91FF91EF91F2
:1042A000BF91AF919F918F917F916F915F914F914E
:1042B0003F912F910F9000925B000F900FBE0F90D7
:1042C0001F9018951F920F920FB60F9200905B00EF
:1042D0000F9211242F933F934F935F936F937F938C
:1042E0008F939F93AF93BF93EF93FF93CF93DF93FE
:1042F0000F920F92CDB7DEB780E391E0FC01808191
:10430000882F90E08470907021E0009709F020E001
:10431000222361F086E391E0FC018081898322EF12
:1043200036E08981B9010E942A2005C086E391E028
:10433000FC0180818A830F900F90DF91CF91FF91D4
:10434000EF91BF91AF919F918F917F916F915F910D
:104350004F913F912F910F9000925B000F900FBEF5
:104360000F901F9018951F920F920FB60F9200900A
:104370005B000F9211242F933F934F938F939F9342
:10438000EF93FF93CF93DF930F92CDB7DEB72091DA
:10439000DE053091DF058091E0059091E10541E077
:1043A0002817390709F040E0442351F081EC90E0F0
:1043B00021EC30E0F90120812F7DFC01208319C020
:1043C0008091E0059091E10582569A4FFC01808131
:1043D00089838091E0059091E10501968F7390703B
:1043E0009093E1058093E00586EC90E02981FC0143
:1043F00020830F90DF91CF91FF91EF919F918F914B
:104400004F913F912F910F9000925B000F900FBE44
:104410000F901F9018951F920F920FB60F92009059
:104420005B000F9211242F933F934F938F939F9391
:10443000EF93FF93CF93DF930F92CDB7DEB7209129
:10444000660630916706809168069091690641E0A2
:104450002817390709F040E0442351F089EC90E037
:1044600029EC30E0F90120812F7DFC01208319C067
:1044700080916806909169068A5D994FFC01808160
:104480008983809168069091690601968F73907078
:1044900090936906809368068EEC90E02981FC0178
:1044A00020830F90DF91CF91FF91EF919F918F919A
:1044B0004F913F912F910F9000925B000F900FBE94
:1044C0000F901F9018951F920F920FB60F920090A9
:1044D0005B000F9211242F933F934F938F939F93E1
:1044E000EF93FF93CF93DF930F92CDB7DEB7209179
:1044F000EE063091EF068091F0069091F10641E0D2
:104500002817390709F040E0442351F081ED90E08D
:1045100021ED30E0F90120812F7DFC01208319C0BD
:104520008091F0069091F1068255994FFC018081AF
:1045300089838091F0069091F10601968F739070B7
:104540009093F1068093F00686ED90E02981FC01BE
:1045500020830F90DF91CF91FF91EF919F918F91E9
:104560004F913F912F910F9000925B000F900FBEE3
:104570000F901F9018951F920F920FB60F920090F8
:104580005B000F9211242F933F934F938F939F9330
:10459000EF93FF93CF93DF930F92CDB7DEB72091C8
:1045A000760730917707809178079091790741E0FD
:1045B0002817390709F040E0442351F081E391E0E6
:1045C00021E331E0F90120812F7DFC01208319C016
:1045D00080917807909179078A5C984FFC018081DF
:1045E0008983809178079091790701968F739070F5
:1045F000909379078093780786E391E02981FC0105
:1046000020830F90DF91CF91FF91EF919F918F9138
:104610004F913F912F910F9000925B000F900FBE32
:104620000F901F9018958F929F92AF92BF92CF924A
:10463000DF92EF92FF920F931F93CF93DF93CDB74B
:10464000DEB762970FB6F894DEBF0FBECDBF9A8378
:1046500089837C836B835E834D8338872F831A879E
:104660000987FC86EB86DE86CD86B88AAF869A8A75
:10467000898A89819A810E947E0A89819A812DE99D
:1046800032E0FC013183208389819A812B813C8136
:10469000FC013587248789819A812D813E81FC0127
:1046A0003787268789819A812F813885FC01318B54
:1046B000208B89819A8129853A85FC01338B228B55
:1046C00089819A812B853C85FC01358B248B8981DE
:1046D0009A812D853E85FC01378B268B89819A81B5
:1046E0002F853889FC01318F208F89819A81298912
:1046F0003A89FC01338F228F89819A812AA1FC019A
:10470000248F89819A812BA1FC01258F89819A812F
:104710002CA1FC01268F89819A812DA1FC01278F74
:1047200089819A812EA1FC0120A362960FB6F8948C
:10473000DEBF0FBECDBFDF91CF911F910F91FF90D4
:10474000EF90DF90CF90BF90AF909F908F900895A3
:10475000CF93DF93CDB7DEB729970FB6F894DEBFBE
:104760000FBECDBF9D838C834E835F83688779871F
:1047700081E08B838E819F81A885B985803021EE71
:10478000920720E0A20720E0B20709F41B828B8188
:10479000882361F18C819D81FC01848995892C811C
:1047A0003D81F90120A1422F50E021E030E002C01C
:1047B000220F331F4A95E2F7FC01208380E099E045
:1047C000ADE3B0E02E813F8148855985BC01CD0124
:1047D0000E94A84CDA01C9010197A109B109B69557
:1047E000A795979587959A8389831EC08C819D8113
:1047F000FC0184899589FC01108280E894E8AEE18F
:10480000B0E02E813F8148855985BC01CD010E94D1
:10481000A84CDA01C9010197A109B109B695A7957C
:10482000979587959A83898389819A81F0E1803071
:104830009F0728F08B81882311F01B82A8CF8C81E1
:104840009D81FC018089918929813A81232F332719
:10485000FC0120838C819D81FC01828993892981BF
:10486000FC0120838C819D81FC0111A28C819D81A2
:10487000FC01868997892C813D81F9012689378938
:10488000F9012081622F2C813D81F901248D422F75
:1048900050E021E030E002C0220F331F4A95E2F7DA
:1048A000262BFC0120838C819D81FC0186899789C0
:1048B0002C813D81F90126893789F9012081622FF8
:1048C0002C813D81F901258D422F50E021E030E01F
:1048D00002C0220F331F4A95E2F7262BFC012083EA
:1048E0008C819D81FC01868997892C813D81F9010C
:1048F00026893789F9012081622F2C813D81F901B8
:10490000268D422F50E021E030E002C0220F331FFD
:104910004A95E2F7262BFC0120838C819D81FC01C6
:10492000868997892C813D81F90126893789F9018A
:104930002081622F2C813D81F901278D422F50E08B
:1049400021E030E0042E02C0220F331F0A94E2F768
:1049500020952623FC01208329960FB6F894DEBF0C
:104960000FBECDBFDF91CF910895CF93DF930F920C
:104970000F92CDB7DEB79A83898389819A81FC0132
:1049800084859585805C9F4FFC01208131818981E0
:104990009A81FC01848595858E5B9F4FFC01808107
:1049A0009181A901481B590BCA018F7390700F9018
:1049B0000F90DF91CF910895CF93DF930F920F92D5
:1049C000CDB7DEB79A83898389819A81FC0184857A
:1049D0009585805C9F4FFC012081318189819A817E
:1049E000FC01848595858E5B9F4FFC0180819181C0
:1049F00041E02817390709F040E0442319F08FEF10
:104A00009FEF15C089819A81FC01248535858981B4
:104A10009A81FC01848595858E5B9F4FFC01808186
:104A20009181820F931FFC018081882F90E00F906D
:104A30000F90DF91CF910895CF93DF9300D0CDB742
:104A4000DEB79B838A838A819B81FC01848595855F
:104A5000805C9F4FFC01208131818A819B81FC0118
:104A6000848595858E5B9F4FFC018081918141E01B
:104A70002817390709F040E0442319F08FEF9FEF22
:104A80002FC08A819B81FC01248535858A819B8189
:104A9000FC01848595858E5B9F4FFC01808191810F
:104AA000820F931FFC01808189838A819B81FC0195
:104AB000848595852A813B81F901248535852E5B86
:104AC0003F4FF901208131812F5F3F4F2F733070AD
:104AD0008E5B9F4FFC01318320838981882F90E07A
:104AE0000F900F900F90DF91CF910895CF93DF93A8
:104AF0000F920F92CDB7DEB79A83898389819A810D
:104B0000FC0181A1882379F089819A81FC01848943
:104B10009589FC018081882F90E0807490700097C7
:104B200011F481E001C080E0882341F789819A81F6
:104B3000FC0111A20F900F90DF91CF910895CF93B8
:104B4000DF9300D00F920F92CDB7DEB79C838B839B
:104B50006D838B819C81FC0186859785805C9F4F4E
:104B6000FC018081918101968F7390709A83898373
:104B700029813A818B819C81FC01868597858E5B9A
:104B80009F4FFC018081918141E02817390709F08E
:104B900040E0442369F78B819C81FC0126853785A1
:104BA0008B819C81FC0186859785805C9F4FFC01F1
:104BB00080819181820F931F2D81FC0120838B8145
:104BC0009C81FC018685978529813A81805C9F4F75
:104BD000FC01318320838B819C81FC01868997892C
:104BE0002B813C81F90126893789F9012081622FC7
:104BF0002B813C81F901278D422F50E021E030E0EC
:104C0000042E02C0220F331F0A94E2F7262BFC0168
:104C100020838B819C8121E0FC0121A38B819C81DD
:104C2000FC01848995892B813C81F901248935898E
:104C3000F90120812064FC01208381E090E00F9045
:104C40000F900F900F900F90DF91CF9108958F925A
:104C50009F92AF92BF92CF92DF92EF92FF920F930B
:104C60001F93CF93DF9300D00F92CDB7DEB79A8317
:104C700089837C836B8389819A818130910509F0D6
:104C80000FC18B819C812FEF8F3F920709F008C1E4
:104C900000D00F920F928DB79EB701966AE777E02A
:104CA0004AE555E02EE935E0E4E0DC01EC93E3E091
:104CB000DC011196EC93E7E0DC011296EC93E5E061
:104CC000DC011396EC93E1E0DC011496EC93CB014C
:104CD000BA01A90125EC30E004EC10E00F2EF0EC55
:104CE000EF2EFF24F02D0F2EF1ECCF2EDD24F02D32
:104CF0000F2EF2ECAF2EBB24F02D0F2EF6EC8F2EE4
:104D00009924F02D0E9413230F900F900F900F9075
:104D10000F9000D00F920F928DB79EB701966CE95D
:104D200077E042EE55E026E236E0E4E0DC01EC9389
:104D3000E3E0DC011196EC93E7E0DC011296EC93E2
:104D4000E5E0DC011396EC93E1E0DC011496EC93D2
:104D5000CB01BA01A9012DEC30E00CEC10E00F2ED4
:104D6000F8ECEF2EFF24F02D0F2EF9ECCF2EDD24E2
:104D7000F02D0F2EFAECAF2EBB24F02D0F2EFEECF3
:104D80008F2E9924F02D0E9413230F900F900F90D7
:104D90000F900F9000D00F920F928DB79EB7019693
:104DA0006EEB77E04AE656E02EEA36E0E4E0DC011E
:104DB000EC93E3E0DC011196EC93E7E0DC01129662
:104DC000EC93E5E0DC011396EC93E1E0DC01149652
:104DD000EC93CB01BA01A90125ED30E004ED10E020
:104DE0000F2EF0EDEF2EFF24F02D0F2EF1EDCF2E34
:104DF000DD24F02D0F2EF2EDAF2EBB24F02D0F2E63
:104E0000F6ED8F2E9924F02D0E9413230F900F9012
:104E10000F900F900F9000D00F920F928DB79EB70A
:104E2000019660EE77E042EF56E026E337E0E4E0FB
:104E3000DC01EC93E3E0DC011196EC93E7E0DC01AC
:104E40001296EC93E5E0DC011396EC93E1E0DC01D3
:104E50001496EC93CB01BA01A90125E331E004E3F8
:104E600011E00F2EF0E3EF2EF1E0FF2EF02D0F2ECC
:104E7000F1E3CF2EF1E0DF2EF02D0F2EF2E3AF2E77
:104E8000F1E0BF2EF02D0F2EF6E38F2EF1E09F2ED6
:104E9000F02D0E9413230F900F900F900F900F9002
:104EA0000F900F900F900F90DF91CF911F910F9166
:104EB000FF90EF90DF90CF90BF90AF909F908F903A
:104EC0000895CF93DF93CDB7DEB781E090E06FEF29
:104ED0007FEF0E942726DF91CF910895CF93DF9334
:104EE00000D00F92CDB7DEB79A8389837C836B8322
:104EF0008B819C81009719F480E090E01DC089812E
:104F00009A81DC018D919C910296DC01ED91FC91DE
:104F10008B819C819C01D9010D900020E9F7CD0186
:104F20000197AC01421B530B9A0189819A814B81F5
:104F30005C81BA01A90119950F900F900F900F9005
:104F4000DF91CF910895CF93DF93CDB7DEB7289748
:104F50000FB6F894DEBF0FBECDBF9C838B837E83DC
:104F60006D8358874F831A8219821CC08B819C8164
:104F7000FC0180819181FC01208131818D819E81A4
:104F8000FC0140818D819E8101969E838D838B8162
:104F90009C81642FF901199529813A81820F931F11
:104FA0009A83898321E08F819885009709F420E016
:104FB0008F819885019798878F832223B9F68981FD
:104FC0009A8128960FB6F894DEBF0FBECDBFDF9151
:104FD000CF910895CF93DF9300D00F92CDB7DEB776
:104FE0009A8389837C836B8389819A812B813C811D
:104FF000B9010E946E270F900F900F900F90DF91D4
:10500000CF910895CF93DF9300D0CDB7DEB79A83C9
:1050100089836B8389819A81FC0180819181FC0164
:10502000208131814B8189819A81642FF901199501
:105030000F900F900F90DF91CF910895CF93DF9352
:1050400000D000D0CDB7DEB79A8389837C836B8391
:105050005E834D838B819C819C01442737FD409565
:10506000542F89819A81ED81FE81BA01A9019F01A6
:105070000E94432826960FB6F894DEBF0FBECDBF20
:10508000DF91CF910895CF93DF93CDB7DEB72A9705
:105090000FB6F894DEBF0FBECDBF9C838B834D83CC
:1050A0005E836F8378873A87298789859A850097F9
:1050B00079F48B819C81FC0180819181FC012081AC
:1050C00031814D818B819C81642FF90119954AC0F2
:1050D00089859A858A309105C9F58D819E81AF8138
:1050E000B885BB233CF58B819C816DE20E94022830
:1050F0009A8389838D819E81AF81B885B095A09573
:10510000909581959F4FAF4FBF4F8D839E83AF8307
:10511000B8872D813E814F8158858B819C81BA0152
:10512000A9012AE00E9467299C0189819A81820F46
:10513000931F18C02D813E814F8158858B819C81A2
:10514000BA01A9012AE00E9467290CC02D813E8185
:105150004F815885E9858B819C81BA01A9012E2F49
:105160000E9467292A960FB6F894DEBF0FBECDBF06
:10517000DF91CF910895CF93DF93CDB7DEB7289716
:105180000FB6F894DEBF0FBECDBF9A8389834B83E1
:105190005C836D837E8338872F838F81988500970A
:1051A00079F489819A81FC0180819181FC012081BF
:1051B00031814B8189819A81642FF90119950CC045
:1051C000EF8189819A812B813C814D815E81BA0179
:1051D000A9012E2F0E94672928960FB6F894DEBFEA
:1051E0000FBECDBFDF91CF910895CF93DF93CDB7A1
:1051F000DEB728970FB6F894DEBF0FBECDBF9A83F7
:1052000089834B835C836D837E8338872F83EF8113
:1052100089819A812B813C814D815E81BA01A901EE
:105220002E2F0E94D92928960FB6F894DEBF0FBE04
:10523000CDBFDF91CF910895CF93DF9300D00F9230
:10524000CDB7DEB79C838B838B819C816DE00E9400
:1052500002289A8389838B819C816AE00E940228BC
:1052600029813A81820F931F9A83898389819A8148
:105270000F900F900F900F90DF91CF910895CF93E3
:10528000DF9300D000D0CDB7DEB79C838B837E83C5
:105290006D838B819C812D813E81B9010E94EA271B
:1052A0009A8389838B819C810E941C2929813A8160
:1052B000820F931F9A83898389819A8126960FB6DC
:1052C000F894DEBF0FBECDBFDF91CF910895CF938D
:1052D000DF93CDB7DEB7AF970FB6F894DEBF0FBE42
:1052E000CDBF9AA789A74BA75CA76DA77EA72FA7BD
:1052F000CE01089680969A83898389819A81FC01E0
:1053000010828FA5823010F48AE08FA78BA59CA510
:10531000ADA5BEA58B839C83AD83BE838FA5282FAF
:1053200030E040E050E08BA59CA5ADA5BEA5BC013A
:10533000CD010E94A84C2BA73CA74DA75EA79B813F
:105340002BA58FA5289F802D1124F92FF81B8F2FB7
:105350008F8389819A8101979A8389838F818A308B
:1053600024F48F81805D282F03C08F81895C282FD2
:1053700089819A81FC01208321E08BA59CA5ADA5A4
:10538000BEA50097A105B10509F420E0222309F08C
:10539000BDCF89A59AA529813A81B9010E946E27BE
:1053A000AF960FB6F894DEBF0FBECDBFDF91CF91A1
:1053B0000895DF92EF92FF920F931F93CF93DF93A5
:1053C000CDB7DEB768970FB6F894DEBF0FBECDBF7E
:1053D0009B8B8A8B4C8B5D8B6E8B7F8B288F1A827D
:1053E00019826C897D898E899F892C893D894E8996
:1053F0005F890E94834C882341F08A899B8922E03F
:1054000032E0B9010E94EA2745C18C899D89AE89A5
:10541000BF897C018D01E89417F9DD24D394C8017C
:10542000B7012FEF3FEF4FE75FE70E94834C8823E0
:1054300059F4C801B7012FEF3FEF4FE75FE70E9434
:10544000304A18160CF4DD2481E08D25882341F0C4
:105450008A899B8926E032E0B9010E94EA271AC1B5
:1054600011E06C897D898E899F892FEF3FEF4FE78F
:105470005FE40E94D04B18160CF010E0112341F0AD
:105480008A899B892AE032E0B9010E94EA2702C199
:1054900011E06C897D898E899F892FEF3FEF4FE75F
:1054A0005FEC0E94304A88230CF010E0112341F099
:1054B0008A899B892AE032E0B9010E94EA27EAC082
:1054C00011E06C897D898E899F8920E030E0A901F7
:1054D0000E94304A88230CF010E01123A1F08A8941
:1054E0009B896DE20E94022829813A81820F931FD5
:1054F0009A8389838C899D89AE89BF89B0588C8BAA
:105500009D8BAE8BBF8B80E090E0A0E0BFE38B83F0
:105510009C83AD83BE831F8213C06B817C818D8190
:105520009E8120E030E040E251E40E94344ADC01F8
:10553000CB018B839C83AD83BE838F818F5F8F83F1
:1055400081E02F81988D291708F080E0882329F7C2
:105550006C897D898E899F892B813C814D815E81FB
:105560000E945349DC01CB018C8B9D8BAE8BBF8B92
:105570006C897D898E899F890E94A14ADC01CB01BB
:105580008C879D87AE87BF876C857D858E859F853F
:105590000E94CD4A9B01AC016C897D898E899F89CF
:1055A0000E945249DC01CB0188879987AA87BB8773
:1055B0008A899B892C853D854E855F85BA01A90125
:1055C0002AE030E00E94BB2829813A81820F931F94
:1055D0009A838983888D882309F44FC08A899B899F
:1055E0002EE032E0B9010E94EA2729813A81820F38
:1055F000931F9A83898341C0688579858A859B85B5
:1056000020E030E040E251E40E94DB4BDC01CB01C2
:1056100088879987AA87BB87688579858A859B85CE
:105620000E949C4ADC01CB01998B888B8A899B89DB
:1056300028893989B9014AE050E00E941E28298151
:105640003A81820F931F9A83898388899989AA272F
:1056500097FDA095BA2FBC01CD010E94CF4A9B01B6
:10566000AC01688579858A859B850E945249DC0159
:10567000CB0188879987AA87BB8781E0988D99237A
:1056800009F480E0988D9150988F882309F0B4CF69
:1056900089819A8168960FB6F894DEBF0FBECDBFA0
:1056A000DF91CF911F910F91FF90EF90DF900895C0
:1056B000CF93DF9300D00F920F92CDB7DEB78983DF
:1056C0007B836A835D834C838981883008F00CC1B9
:1056D0008981882F90E0880F991F8E5F974F2A81CC
:1056E0003B81FC01318320838981882F90E08330C6
:1056F0009105A1F1843091055CF48130910509F4A4
:105700009BC082309105A4F4009709F47FC0ECC0DF
:105710008530910509F45AC085309105D4F1863061
:10572000910509F4A4C08730910509F4BDC0DCC01F
:1057300089E690E029E630E0F9012081322F3C7FB4
:105740002C81232BFC0120838DE390E02DE330E0BE
:10575000F90120812160FC012083C6C089E690E028
:1057600029E630E0F9012081422F437F2C813D81E1
:10577000220F331F220F331F242BFC0120838DE3C4
:1057800090E02DE330E0F90120812260FC012083CC
:10579000ABC089E690E029E630E0F9012081422F94
:1057A0004F7C2C813D8122953295307F3227207F9E
:1057B0003227242BFC0120838DE390E02DE330E0A1
:1057C000F90120812460FC0120838EC089E690E0ED
:1057D00029E630E0F9012081422F4F732C813D8171
:1057E0000024369527950794369527950794322FF0
:1057F000202D242BFC0120838DE390E02DE330E06D
:10580000F90120812860FC0120836EC08AE690E0C7
:105810002AE630E0F9012081322F3C7F2C81232BB6
:10582000FC0120838DE390E02DE330E0F90120813D
:105830002061FC01208358C08AE690E02AE630E02F
:10584000F9012081422F437F2C813D81220F331F9C
:10585000220F331F242BFC0120838DE390E02DE3E6
:1058600030E0F90120812062FC0120833DC08AE6FE
:1058700090E02AE630E0F9012081422F4F7C2C8114
:105880003D8122953295307F3227207F3227242B8D
:10589000FC0120838DE390E02DE330E0F9012081CD
:1058A0002064FC01208320C08AE690E02AE630E0F4
:1058B000F9012081422F4F732C813D8100243695C0
:1058C00027950794369527950794322F202D242B62
:1058D000FC0120838DE390E02DE330E0F90120818D
:1058E0002068FC01208300000F900F900F900F9014
:1058F0000F90DF91CF9108951F920F920FB60F92E4
:1059000000905B000F9211242F933F934F935F936E
:105910006F937F938F939F93AF93BF93EF93FF9377
:10592000CF93DF93CDB7DEB780910608909107083B
:10593000009731F08091060890910708FC011995B5
:10594000DF91CF91FF91EF91BF91AF919F918F9197
:105950007F916F915F914F913F912F910F900092A6
:105960005B000F900FBE0F901F9018951F920F9223
:105970000FB60F9200905B000F9211242F933F936C
:105980004F935F936F937F938F939F93AF93BF9347
:10599000EF93FF93CF93DF93CDB7DEB780910808E5
:1059A00090910908009731F08091080890910908BA
:1059B000FC011995DF91CF91FF91EF91BF91AF91CC
:1059C0009F918F917F916F915F914F913F912F9117
:1059D0000F9000925B000F900FBE0F901F901895D4
:1059E0001F920F920FB60F9200905B000F9211243E
:1059F0002F933F934F935F936F937F938F939F93D7
:105A0000AF93BF93EF93FF93CF93DF93CDB7DEB701
:105A100080910A0890910B08009731F080910A0854
:105A200090910B08FC011995DF91CF91FF91EF91B7
:105A3000BF91AF919F918F917F916F915F914F91A6
:105A40003F912F910F9000925B000F900FBE0F902F
:105A50001F9018951F920F920FB60F9200905B0047
:105A60000F9211242F933F934F935F936F937F93E4
:105A70008F939F93AF93BF93EF93FF93CF93DF9356
:105A8000CDB7DEB780910C0890910D08009731F0EA
:105A900080910C0890910D08FC011995DF91CF9130
:105AA000FF91EF91BF91AF919F918F917F916F91F6
:105AB0005F914F913F912F910F9000925B000F905B
:105AC0000FBE0F901F9018951F920F920FB60F9256
:105AD00000905B000F9211242F933F934F935F939D
