:100000000C9499000C9472140C949F140C94C100DD
:100010000C94C1000C94C1000C94C1000C94C1005C
:100020000C94C1000C94C1000C94C1000C94C1004C
:100030000C94C1000C94C1000C94C1000C94C1003C
:100040000C94CC140C94C1000C94E2100C941C1170
:100050000C94C1000C94C1000C94C1000C94C1001C
:100060000C941D050C94C100036EDB363D9A9999E2
:10007000993DABAAAA2A3E000000803F084AD73B20
:100080003BCE016E84BCBFFDC12F3D6C74319ABD67
:1000900056833DDA3D00C77F11BED9E4BB4C3E918B
:1000A0006BAAAABE000000803F072C7AA5BA6CC5D7
:1000B00090DA3B9365FC8BBC53F810FD3C56928361
:1000C0004DBD879D3AB63DCBC9BF5BBE73DA0FC944
:1000D0003F000000070002010000030406000000CA
:1000E000000000000001020408102040800102040A
:1000F000081020010204081020040404040404046D
:1001000004020202020202030303030303000000CD
:100110000023002600290000000000250028002BF5
:100120000000000000240027002A000015043D10F4
:10013000DC1111241FBECFEFD8E0DEBFCDBF11E030
:10014000A0E0B1E0E8EBF1E602C005900D92AE3C14
:10015000B107D9F717E0AEECB1E001C01D92A939A3
:10016000B107E1F711E0C2E3D1E004C02297FE013C
:100170000E94D630CC32D107C9F70E9436100C94B9
:10018000DA300C9400002F923F924F925F926F9260
:100190007F928F929F92AF92BF92CF92DF92EF9217
:1001A000FF920F931F93CF93DF93CDB7DEB72897BE
:1001B0000FB6F894DEBF0FBECDBFE82E862EF42E0C
:1001C0003A83298368010E9416152B013C01188689
:1001D0001F822F2C3324980140E050E02B833C8376
:1001E0004D835E8355C08EEC91E06E2D0E94F4032A
:1001F0008EEC91E0682D0E9468038EEC91E00E94E5
:1002000011048EEC91E06E2D0E94F403A10138855B
:10021000431B51094132510514F040E250E08EEC8D
:1002200091E06E2D0E94F00300E010E05F81A52EAA
:10023000BB24A7FCB09429813A81A20EB31E9F80F3
:10024000900E8EEC91E00E940103009709F45DC0CE
:10025000C114D10491F00E941615DC01CB01841960
:100260009509A609B7092B813C814D815E818217D2
:100270009307A407B50708F048C08EEC91E00E94F0
:100280000903F501E00FF11F80830F5F1F4FD7CFE8
:1002900038853F1508F4A7CFC114D104E1F00E94BE
:1002A0001615DC01CB0184199509A609B709A60129
:1002B00060E070E084179507A607B70760F05F81DC
:1002C000252F332727FD30958F2D90E028173907EC
:1002D00014F42FEF2F838F8128960FB6F894DEBF8A
:1002E0000FBECDBFDF91CF911F910F91FF90EF9087
:1002F000DF90CF90BF90AF909F908F907F906F9046
:100300005F904F903F902F9008958EEC91E00E9467
:1003100011048F2D30E23F1508F480E25885580F04
:1003200058879F82B5CF0F931F93FA01890141E04F
:100330009F010E94C3001F910F910895EF92FF92B9
:100340000F931F93CF93DF930F92CDB7DEB7582F44
:10035000E62E142F022F8EEC91E0652F39830E9438
:10036000F4038EEC91E06E2D0E946803E02E39813B
:10037000F32E07C0F70161917F018EEC91E00E949E
:1003800068038E2D801B8117A8F38EEC91E00E94EC
:10039000110491E0811190E0892F0F90DF91CF91AE
:1003A0001F910F91FF90EF900895CF93DF930F92DD
:1003B000CDB7DEB7498341E09E012F5F3F4F0E94DA
:1003C0009E010F90DF91CF910895DF92EF92FF92FF
:1003D0000F931F93CF93DF930F92CDB7DEB7182FF4
:1003E000E62EF42ED22E2091110130911201AE0191
:1003F0004F5F5F4F0E949301882339F18F2D90E06A
:100400008D199109019621E030E002C0220F331FBF
:10041000DA94E2F721503040082E02C0220F331F39
:100420000A94E2F7602F70E002C0660F771F8A958A
:10043000E2F7422F4095898148232623422B4983A6
:10044000812F6E2D0E94D50101C080E00F90DF91B9
:10045000CF911F910F91FF90EF90DF900895EF9251
:10046000FF920F931F93CF93DF930F92CDB7DEB719
:10047000082F162FF42EE22EE0911101F0911201B7
:10048000AE014F5F5F4F9F010E949301898141E060
:1004900050E002C0440F551FFA94E2F7EE2011F02D
:1004A000482B02C0409548234983802F612F0E942A
:1004B000D5010F90DF91CF911F910F91FF90EF9099
:1004C000089528E6FC01208308950F93062FFC0170
:1004D00080816AE142E023E00E94E5010F910895E6
:1004E0000F93062FFC0180816BE144E022E00E9423
:1004F000E5010F9108950F93062FFC0180816CE1B7
:1005000044E022E00E94E5010F9108954F925F922E
:100510006F927F928F929F92AF92BF92CF92DF9213
:10052000EF92FF920F931F93CF93DF93EC015B0148
:100530004A01390128019C012F5F3F4F00911101B1
:100540001091120188816BE34EE00E94C300398153
:1005500020E08A8190E0822B932BF50191838083A8
:100560003B8120E08C8190E0822B932BF4019183DE
:1005700080833D8120E08E8190E0822B932BF301DC
:1005800091838083398520E08A8590E0822B932BAC
:10059000F201918380833B8520E08C8590E0822B63
:1005A000932BF701918380839D8580E02E8530E039
:1005B000282B392BF60131832083DF91CF911F91B6
:1005C0000F91FF90EF90DF90CF90BF90AF909F90F2
:1005D0008F907F906F905F904F900895262FFC0131
:1005E00080816BE646E00E942F0208950F93062F4C
:1005F000FC0180816BE642E023E00E94E5010F915F
:1006000008958091020290E020910302821B9109DB
:1006100008952091030280910202281750F4E22FDE
:10062000F0E0EC5FFD4F808190E02F5F20930302AC
:1006300008958FEF9FEF0895E091030280910202E9
:10064000E81730F4F0E0EC5FFD4F808190E0089512
:100650008FEF9FEF08950895E091DC01F091DD01A7
:10066000309729F01092E0011092DF01099508956A
:10067000CF92DF92EF92FF920F931F93CF93DF936E
:100680006C01CB018A012091DE012223A1F07B01C4
:10069000C0E0D0E00CC0D7016D917D01D601ED9195
:1006A000FC910190F081E02DC60109952196C017BB
:1006B000D10789F703C0642F0E94E304C801DF91CA
:1006C000CF911F910F91FF90EF90DF90CF90089501
:1006D000CF93DF930F92CDB7DEB769832091DE0110
:1006E0002223D1F02091DF01203240F021E030E0E0
:1006F000FC013383228380E090E015C08091E0010B
:10070000E82FF0E0EF51FE4F998190838F5F809347
:10071000E0018093DF0105C0CE01019661E00E94F7
:10072000E30481E090E00F90DF91CF910895CF93A3
:10073000DF93AC012091DA013091DB012115310505
:10074000E9F090910302809102029817B8F0A0E0BE
:1007500009C0FA01E80FF91FE0818C5F9D4FEC01A1
:10076000E883AF5F8A2F90E08617970794F3109283
:10077000030260930202CB01F9010995DF91CF9149
:10078000089510920302109202021092E00110925A
:10079000DF010E942C040895CF93DF93EC01862F94
:1007A0000E944A048CE293E00E94000587E993E0EE
:1007B0000E94FB04CE010E94C103DF91CF910895F6
:1007C0000E94CC030895862F413208F040E264E095
:1007D00072E00E944E041092030280930202089578
:1007E00021E00E94E303089581E08093DE0160939D
:1007F00001021092E0011092DF0108950F93062F7D
:100800008091010261EE71E04091DF0121E00E94E0
:1008100091041092E0011092DF011092DE010F911D
:10082000089561E00E94FE0308951092D101109294
:10083000D00188EE93E0A0E0B0E08093D2019093E5
:10084000D301A093D401B093D50187E791E09093B1
:10085000CF018093CE01089510922D0281E0809304
:100860002B0210922A0282E161E00E94171683E1B6
:1008700061E00E941716E9EBF0E080818E7F8083B3
:1008800080818D7F80838CE08093B80085E48093A5
:10089000BC000895880F8093BA0008954132F0F5A6
:1008A00090912D029923E1F791E090932D022093EE
:1008B0002B022FEF2093240210922902242F215083
:1008C0002093280290932C0290912C02880F892B60
:1008D00080932C0280912A02813041F410922A02E6
:1008E00080912C028093BB0085EC01C085EE809343
:1008F000BC0080912D028130E1F3809129028417A0
:1009000010F440912902AEE2B2E0FB0102C08D91E9
:1009100081938E2F861B8417D0F301C040E0842F73
:1009200008950F93413208F045C090912D0299230C
:10093000E1F792E090932D0200932B029FEF9093AA
:1009400024021092290240932802AEE2B2E0FB0199
:1009500002C091919D939E2F961B9417D0F31092F5
:100960002C0290912C02880F892B80932C0280916D
:100970002A02813041F410922A0280912C02809345
:10098000BB0085EC01C085EE8093BC00222321F0E2
:1009900080912D028230E1F3809124028F3F61F03B
:1009A00080912402803251F080912402803341F4FE
:1009B00083E007C081E005C080E003C082E001C0A1
:1009C00084E00F910895613290F420912D0224303B
:1009D00081F460932602AEE4B2E0FC0102C0919182
:1009E0009D939E2F981B9617D0F380E0089581E089
:1009F000089582E0089590936F0280936E020895A7
:100A000090937102809370020895882311F085EC11
:100A100001C085E88093BC00089585ED8093BC00FB
:100A20008091BC0084FDFCCF10922D02089585ECCE
:100A30008093BC0010922D0208951F920F920FB662
:100A40000F9211242F933F934F935F936F937F9354
:100A50008F939F93AF93BF93EF93FF938091B900D0
:100A600090E0887F90708036910509F4CCC0813683
:100A70009105E4F58832910509F47EC0893291052B
:100A8000C4F48031910509F472C08131910544F4B8
:100A9000009709F41DC18830910509F01DC167C098
:100AA0008831910509F468C08032910509F014C1BC
:100AB00077C08034910509F489C0813491054CF4E4
:100AC0008033910509F46EC08833910509F004C1A3
:100AD0006DC08035910509F46DC08835910509F424
:100AE0007AC08834910509F0F7C0F4C088399105BF
:100AF00009F4E4C089399105ECF48837910509F4CB
:100B000082C0893791054CF48836910509F47BC081
:100B10008037910509F0E0C076C08838910509F466
:100B2000CDC08039910509F474C08038910509F071
:100B3000D3C06FC0803B910509F498C0813B9105FB
:100B40004CF4803A910509F476C0883A910509F091
:100B5000C3C08CC0803C910509F4B4C0883C9105A9
:100B600009F4B0C0883B910509F0B6C094C08091EB
:100B70002C028093BB0012C0909129028091280220
:100B80009817A8F580912902E82FF0E0E25DFD4F6B
:100B900090819093BB008F5F8093290281E08FC08A
:100BA00080E201C080E38093240294C088E38093B4
:100BB000240259C0809129029091BB00E82FF0E0F7
:100BC000E25DFD4F90838F5F80932902909129020F
:100BD0008091280270C0809129029091BB00E82F7B
:100BE000F0E0E25DFD4F90838F5F8093290280915A
:100BF0002B02882309F06EC081E080932A0284EAE8
:100C00008093BC0062C083E080932D021092250285
:100C1000C5CF80912502803208F050C08091250216
:100C20009091BB00E82FF0E0EE58FD4F90838F5F6E
:100C300080932502B3CF80912502803230F4E09179
:100C40002502F0E0EE58FD4F10820E940D056091E4
:100C50002502E0916E02F0916F0282E792E070E06F
:100C60000995109225020E94170536C084E08093F2
:100C70002D021092270210922602E0917002F0914C
:100C80007102099580912602882329F481E08093DE
:100C9000260210924E0280912702E82FF0E0E25BDC
:100CA000FD4F90819093BB008F5F809327029091BE
:100CB000270280912602981708F470CF80E00E94E6
:100CC00005050AC081E00E94050510922D0204C0AE
:100CD000109224020E940D05FF91EF91BF91AF91F8
:100CE0009F918F917F916F915F914F913F912F9144
:100CF0000F900FBE0F901F9018950E942815AB0102
:100D0000BC018091AF029091B002A091B102B0916C
:100D1000B202481B590B50938C0340938B030E94E3
:100D20002815DC01CB018093AF029093B002A09311
:100D3000B102B093B20220918B0330918C0387E013
:100D4000213D380728F010928E0310928D030895EC
:100D500080918D0390918E03FC01EE0FFF1FEF55E4
:100D6000FD4F31832083019690938E0380938D03F2
:100D70000895CF92DF92EF92FF920F931F9382E933
:100D800092E06DEB72E04BEB52E029EB32E007EBC7
:100D900012E0E5EBEE2EE2E0FE2EF3EBCF2EF2E0DA
:100DA000DF2E0E9486026091B7027091B8028827F8
:100DB00077FD8095982F0E94E52EDC01CB01809372
:100DC000DF029093E002A093E102B093E20260910F
:100DD000B5027091B602882777FD8095982F0E9402
:100DE000E52EDC01CB018093E3029093E402A09313
:100DF000E502B093E6026091B3027091B4028827D5
:100E000077FD8095982F0E94E52EDC01CB01809321
:100E1000E7029093E802A093E902B093EA0260919E
:100E2000BD027091BE02882777FD8095982F0E94A1
:100E3000E52EDC01CB018093EB029093EC02A093B2
:100E4000ED02B093EE026091BB027091BC02882764
:100E500077FD8095982F0E94E52EDC01CB018093D1
:100E6000EF029093F002A093F102B093F20260912E
:100E7000B9027091BA02882777FD8095982F0E9459
:100E8000E52EDC01CB018093F3029093F402A09352
:100E9000F502B093F6021F910F91FF90EF90DF9053
:100EA000CF9008954F925F926F927F92AF92BF92D0
:100EB000CF92DF92EF92FF920F931F93CF93DF9326
:100EC000CAE0D0E08091130161E00E94171668EC3F
:100ED00070E080E090E00E9452150E94B906809177
:100EE000130160E00E94171668EC70E080E090E06B
:100EF0000E945215219731F70E94B90664E170E013
:100F000080E090E00E9452150E94B9068091DF02B5
:100F10009091E002A091E102B091E2028093BF02C1
:100F20009093C002A093C102B093C2028091E302E9
:100F30009091E402A091E502B091E6028093C30291
:100F40009093C402A093C502B093C6028091E702B9
:100F50009091E802A091E902B091EA028093C70261
:100F60009093C802A093C902B093CA02C4E6AC2E03
:100F7000B12C0E94B906CFEDD2E00FEB12E0C99080
:100F8000D990E990F990F801608171818281938113
:100F90002DEC3CEC4CE45FE30E94F12F2B013C0173
:100FA000C701B6012DEC3CEC4CE45EE30E94F12F4E
:100FB0009B01AC01C301B2010E94692DDC01CB0190
:100FC000F80181939193A193B1938F01F2E0CB3E0D
:100FD000DF07A9F664E170E080E090E00E9452151E
:100FE0000894A108B108A114B10419F6DF91CF91BA
:100FF0001F910F91FF90EF90DF90CF90BF90AF9037
:101000007F906F905F904F900895CF93DF9383E030
:1010100061E00E94E31589E061E00E94E3158AE047
:1010200061E00E94E3158BE061E00E94E31580E03F
:101030006DE776E042E050E00E9452148BE993E0C5
:1010400040E052EC61E070E00E9457118EEC91E0BC
:1010500060E070E00E94E0038091130161E00E9473
:10106000E315C2E9D2E0CE0160E00E94EE02CE01BB
:1010700063E00E94700261E070E080E090E00E9416
:101080005215CE0161E00E947B0261E070E080E0D9
:1010900090E00E945215CE0163E00E94F60261E0EA
:1010A00070E080E090E00E945215CE0164E00E9462
:1010B000650261E070E080E090E00E9452150E94BD
:1010C000520764E170E080E090E00E945215DF91E9
:1010D000CF9108958091670190916801A091690175
:1010E000B0916A01BC01CD0190580E94CD2DDC0168
:1010F000CB018093070390930803A0930903B09357
:101100000A0360916B0170916C0180916D01909167
:101110006E0120916F0130917001409171015091E9
:1011200072010E94F32DDC01CB01809303039093A5
:101130000403A0930503B093060360915B017091D3
:101140005C0180915D0190915E0120914F01309191
:10115000500140915101509152010E94F32DDC0148
:10116000CB018093FF0290930003A0930103B093FF
:1011700002030895AF92BF92CF92DF92EF92FF9257
:101180000F931F93CF93DF936C015B01D3E0ED2EA0
:10119000F12CC0E0D0E010E000E0F6016191719127
:1011A000819191916F01F50121913191419151917D
:1011B0005F010E94F12F9B01AC01B8018C2F9D2F84
:1011C000A72FB02FBC01CD010E94692DEB01182F74
:1011D000092F0894E108F108E114F104F1F69801EF
:1011E000862F9D2FA32FB22FBC01CD01DF91CF9170
:1011F0001F910F91FF90EF90DF90CF90BF90AF9035
:101200000895AF92BF92CF92DF92EF92FF920F9329
:101210001F93CF93DF935C01EB018A016C817D8189
:101220008E819F81FA0120853185428553850E94F8
:10123000F12F6B017C01688579858A859B85F80192
:1012400024813581468157810E94F12F9B01AC0199
:10125000C701B6010E94682DDC01CB01F501808336
:101260009183A283B383688579858A859B85F801FC
:1012700020813181428153810E94F12F6B017C01D9
:10128000688179818A819B81F80120853185428539
:1012900053850E94F12F9B01AC01C701B6010E944A
:1012A000682DDC01CB01F50184839583A683B78388
:1012B000688179818A819B81F80124813581468109
:1012C00057810E94F12F6B017C016C817D818E81A1
:1012D0009F81F80120813181428153810E94F12F49
:1012E0009B01AC01C701B6010E94682DDC01CB0156
:1012F000F50180879187A287B387DF91CF911F91F6
:101300000F91FF90EF90DF90CF90BF90AF90089536
:10131000CF92DF92EF92FF920F931F93CF93DF93C1
:101320008C01EB0169017A01688179818A819B8155
:101330000E94F12FDC01CB01F80180839183A2830D
:10134000B3836C817D818E819F81A70196010E946C
:10135000F12FDC01CB01F80184839583A683B78349
:10136000688579858A859B85A70196010E94F12F62
:10137000DC01CB01F80180879187A287B387DF91D9
:10138000CF911F910F91FF90EF90DF90CF90089534
:10139000CF92DF92EF92FF920F931F93CF93DF9341
:1013A0008B017A016C01C0E0D0E0F801619171918C
:1013B000819191918F01F701219131914191519149
:1013C0007F010E94692DDC01CB01F601819391938D
:1013D000A193B1936F012196C330D10531F7DF910D
:1013E000CF911F910F91FF90EF90DF90CF900895D4
:1013F0004F925F926F927F928F929F92AF92BF9225
:10140000CF92DF92EF92FF920F931F93CF93DF93D0
:10141000209153033091540340915503509156034A
:10142000C0905703D0905803E0905903F0905A03AE
:1014300080905B0390905C03A0905D03B0905E038E
:10144000CA01B9010E94F12F2B013C01C701B6016D
:10145000A70196010E94F12F9B01AC01C301B201CB
:101460000E94692D6B017C01C501B401A5019401A5
:101470000E94F12F9B01AC01C701B6010E94692DAA
:101480000E94583020E030E040E059E30E94F12F04
:101490009B01AC0160E070E080E89FE30E94682D52
:1014A0008B01D82FC92F9E01862F912FA32FB22FEA
:1014B000BC01CD0120E030E0A9010E94E62F9E0191
:1014C0001816D4F0802F912FA32FB22FBC01CD017D
:1014D00020E030E040E850E40E94F12F20E030E0CE
:1014E00040E85FE30E94692D20E030E0A9010E94FE
:1014F000462E87FF3BC083C0802F912FA32FB22F92
:10150000BC01CD0120E030E040E850E40E94F12F22
:101510009B01AC0160E070E080E89FE30E94682DD1
:1015200020E030E0A9010E94462E87FD68C09E01A0
:10153000802F912FA32FB22FBC01CD0120E030E0EE
:1015400040E850E40E94F12F9B01AC0160E070E0A4
:1015500080E89FE30E94682D20E030E040E85FE3F0
:101560000E94E62F18160CF44FC01CC09E01802F5D
:10157000912FA32FB22FBC01CD0120E030E040E835
:1015800050E40E94F12F20E030E040E85FE30E9449
:10159000692D20E030E040E85FE30E94E62F181656
:1015A0009CF116C09E01802F912FA32FB22FBC015A
:1015B000CD0120E030E040E850E40E94F12F9B0193
:1015C000AC0160E070E080E89FE30E94682D13C0EA
:1015D0009E01802F912FA32FB22FBC01CD0120E0BF
:1015E00030E040E850E40E94F12F20E030E040E895
:1015F0005FE30E94692D8B01D82FC92F09C000E03D
:1016000010E0D0E0C0E004C000E010E0D0E8CFE39C
:101610008BE093E063E573E047E651E00E94010947
:101620009E01802F912FA32FBC2FBC01CD0125E857
:101630003BEE41E459E30E94F12F9B01AC018FE2A4
:1016400093E06BE073E00E9488099E01802F912F48
:10165000A32FBC2FBC01CD012AEF31E644E054E3B7
:101660000E94F12F9B01AC018FE893E06BE073E0E7
:101670000E94880983E293E0BC014FE853E00E9496
:10168000C809DF91CF911F910F91FF90EF90DF90EC
:10169000CF90BF90AF909F908F907F906F905F9012
:1016A0004F9008958F929F92AF92BF92CF92DF9208
:1016B000EF92FF920F931F93CF93DF93CDB7DEB7D7
:1016C000A4970FB6F894DEBF0FBECDBF1FE4A12EC6
:1016D00011E0B12E0CE0802E912C8A0C9B1CC501D0
:1016E000B4010E94BA08905820E030E040E05FE387
:1016F0000E94F12FF62EE72ED82EC92ECE0101968C
:10170000B401F701A6010F2F1E2F252F342FA90199
:1017100098010E948809CE010D96B501A601252FDA
:10172000342FA90198010E948809CE010196BC01BD
:10173000A5010E94C809CE010D96BC01A4010E941A
:10174000C809CE014996BE016F5F7F4FAE01435F6E
:101750005F4F0E940109CE010196BC010E94BA08A8
:101760009B01AC0160E070E080E490E40E94682D91
:1017700020E030E040E05FE30E94F12F9B01AC01EC
:10178000C501BE016F5F7F4F0E948809CE010D9693
:10179000BC010E94BA089B01AC0160E070E080E4EB
:1017A00090E40E94682D20E030E040E05FE30E947A
:1017B000F12F9B01AC01C401BE01635F7F4F0E940A
:1017C0008809CE014996BC010E94BA089B01AC0170
:1017D00060E070E080E490E40E94682D20E030E05A
:1017E00040E05FE30E94F12F9B01AC0187E691E0AE
:1017F000BE01675E7F4F0E948809A4960FB6F894D9
:10180000DEBF0FBECDBFDF91CF911F910F91FF9033
:10181000EF90DF90CF90BF90AF909F908F90089502
:101820002F923F924F925F926F927F928F929F92F0
:10183000AF92BF92CF92DF92EF92FF920F931F93DE
:10184000CF93DF93CDB7DEB72E970FB6F894DEBFF8
:101850000FBECDBF562E472E4A015C0183E0682E95
:10186000712C57C0F80121913191419151918F0113
:10187000F50160817181828193810E94F12F6B015A
:101880007C0169837A838B839C83F50164817581F4
:1018900086819781F80120853185428553850E9494
:1018A000F12F9B01AC016D837E838F839887C701E5
:1018B000B6010E94692D6B017C01F501608571857F
:1018C00082859385F80124893589468957890E9444
:1018D000F12F9B01AC01C701B6010E94692DDC010B
:1018E000CB01F10181939193A193B1931F018D8558
:1018F0009E850817190709F0B5CF0894610871088B
:10190000ECE0F0E08E0E9F1EAE0EBF1E611471045F
:1019100041F0052D142DC8010C969E878D8714016A
:10192000A1CF2E960FB6F894DEBF0FBECDBFDF91CC
:10193000CF911F910F91FF90EF90DF90CF90BF90CC
:10194000AF909F908F907F906F905F904F903F905F
:101950002F900895DC01AA0FBB1FAB5EBE4F2D91E7
:101960003C91FC01EE0FFF1FEE0FFF1FDF0137FF61
:1019700005C0A154BD4FE152FD4F04C0A152BD4F5F
:10198000E154FD4F6D917D918D919C91208131812C
:10199000428153810E94682D472F382F292F862F8F
:1019A000942FA32FB22FBC01CD0108954F925F92C7
:1019B0006F927F928F929F92AF92BF92CF92DF925F
:1019C000EF92FF920F931F93CF93DF9300D000D03D
:1019D000CDB7DEB780E090E00E94AA0C21E331E5AC
:1019E0004BE85AE30E94F12FDC01CB0180934703BF
:1019F00090934803A0934903B0934A0381E090E099
:101A00000E94AA0C21E331E54BE85AE30E94F12F32
:101A1000DC01CB0180934B0390934C03A0934D03C7
:101A2000B0934E0382E090E00E94AA0C21E331E5DE
:101A30004BE85AE30E94F12FDC01CB0180934F0366
:101A400090935003A0935103B093520383E090E02E
:101A50000E94AA0CDC01CB018093530390935403A2
:101A6000A0935503B093560384E090E00E94AA0C23
:101A7000DC01CB018093570390935803A093590343
:101A8000B0935A0385E090E00E94AA0CDC01CB01E0
:101A900080935B0390935C03A0935D03B0935E031C
:101AA00087E193E067E473E043E253E00E94C809F2
:101AB0008BE393E067E173E04FE253E00E94C809D3
:101AC00080E090E0DC0180932B0190932C01A093A7
:101AD0002D01B0932E01C0902701D0902801E090F5
:101AE0002901F0902A0146015701B7FAB094B7F8DE
:101AF000B09440904303509044036090450370902D
:101B00004603C501B401A30192010E94F12FDC013B
:101B1000CB0180932F0190933001A0933101B093BA
:101B2000320180913F0390914003A0914103B09115
:101B3000420389839A83AB83BC83C701B6012981A1
:101B40003A814B815C810E94F12FDC01CB018093B3
:101B5000330190933401A0933501B0933601C7014E
:101B6000B601A30192010E94F12FDC01CB01809309
:101B7000370190933801A0933901B0933A0180E086
:101B800090E0DC0180933B0190933C01A0933D01E8
:101B9000B0933E0140903B0350903C0360903D0366
:101BA00070903E03C501B401A30192010E94F12F80
:101BB000DC01CB0180933F0190934001A093410150
:101BC000B0934201C501B40129813A814B815C8106
:101BD0000E94F12FDC01CB018093430190934401DB
:101BE000A0934501B0934601C701B601A30192013C
:101BF0000E94F12FDC01CB018093470190934801B3
:101C0000A0934901B0934A0180E090E0DC01809309
:101C10004B0190934C01A0934D01B0934E018FE482
:101C200091E06BE271E04FE553E00E94100CEFE4AD
:101C3000CE2EE1E0DE2E0FE513E0D6016D917D9111
:101C40008D919C91F80120813181428153810E94C4
:101C5000692DDC01CB01F60180839183A283B383DC
:101C60006481758186819781D80114962D913D916B
:101C70004D915C9117970E94692DDC01CB01F60113
:101C800084839583A683B7836085718582859385D8
:101C9000D80118962D913D914D915C911B970E9412
:101CA000692DDC01CB01F60180879187A287B3877C
:101CB0008CE090E0C80ED91E045F1F4F93E7C91651
:101CC00091E0D90609F0B9CF0F900F900F900F90C7
:101CD000DF91CF911F910F91FF90EF90DF90CF9008
:101CE000BF90AF909F908F907F906F905F904F903C
:101CF00008950F931F93CF93DF930E94B9060E941C
:101D0000D60C0E94520B0E94F8090E946A0880912A
:101D1000A1029091A202BC01660F771FA3E0880F79
:101D2000991FAA95E1F7680F791F882777FD80959D
:101D3000982F0E94E52EDC01CB01809399059093AA
:101D40009A05A0939B05B0939C058091A302909166
:101D5000A402BC01660F771FD3E0880F991FDA95A4
:101D6000E1F7680F791F882777FD8095982F0E94EB
:101D7000E52EDC01CB018093A1059093A205A093F1
:101D8000A305B093A4058091A5029091A602BC0181
:101D9000660F771F03E0880F991F0A95E1F7680F18
:101DA000791F882777FD8095982F0E94E52EDC010A
:101DB000CB018093A5059093A605A093A705B093AA
:101DC000A8058091A7029091A802BC01660F771F19
:101DD00033E0880F991F3A95E1F7680F791F88273C
:101DE00077FD8095982F0E94E52EDC01CB01809332
:101DF000A9059093AA05A093AB05B093AC05E9E6BD
:101E0000F5E080911B0390911C03A0911D03B091FC
:101E10001E0380839183A283B383ABE1B3E07E9101
:101E20006E915E914E9144835583668377831896B5
:101E30008D919D910D90BC91A02D80879187A28757
:101E4000B38789E29CE5AFE8BDE38093F905909301
:101E5000FA05A093FB05B093FC0580E090E0DC015F
:101E60008093210690932206A0932306B093240624
:101E700046EA5BE964EC7BE3409325065093260633
:101E800060932706709328064EEA57E461EE7DE3DF
:101E900040933506509336066093370670933806A4
:101EA0008093390690933A06A0933B06B0933C0684
:101EB0004AE057ED63E27CE340933D0650933E06D3
:101EC00060933F06709340068093310690933206EC
:101ED000A0933306B093340680E090E0A0E2B2E431
:101EE0008093010690930206A0930306B093040624
:101EF0000E944E16CBE9D3E06091AF047091B0041C
:101F00008091B1049091B20420E030E040E251E4CD
:101F10000E944A2EAB01BC01CE0122E030E00E94BB
:101F20004F1400E011E0CE01B8010E945C126091F4
:101F3000B3047091B4048091B5049091B60420E08C
:101F400030E040E251E40E944A2EAB01BC01CE01D8
:101F500022E030E00E944F14CE01B8010E945C12D2
:101F60006091B7047091B8048091B9049091BA045B
:101F700020E030E040E251E40E944A2EAB01BC0177
:101F8000CE0122E030E00E944F14CE01B8010E9441
:101F90005C126091BB047091BC048091BD0490916F
:101FA000BE0420E030E040E251E40E944A2EAB0142
:101FB000BC01CE0122E030E00E944F14CE01B801F6
:101FC0000E947B12DF91CF911F910F9108950E9483
:101FD0002815DC01CB014091870350918803609163
:101FE000890370918A03841B950BA60BB70B803174
:101FF00027E2920720E0A20720E0B207B0F1409369
:1020000083035093840360938503709386030E9437
:102010002815AB01BC01409387035093880360935C
:10202000890370938A038091830390918403A09124
:102030008503B0918603481B590B6A0B7B0BCB01C0
:10204000BA010E94E52E20E034E244E759E40E9400
:102050004A2EDC01CB018093270190932801A093A5
:102060002901B0932A010E94790E08950E947B15E0
:102070000E9405080E94E70FFDCF82E992E00E94CE
:1020800061020895FC0124853585F901E05CFF4F6C
:10209000808191812E5B3F4FF90120813181821B2C
:1020A000930B8F7390700895FC0144855585FA0158
:1020B000E05CFF4F80819181FA01EE5BFF4F208150
:1020C00031818217930741F00190F081E02DE40FF8
:1020D000F51F808190E008958FEF9FEF0895FC0138
:1020E00044855585FA01E05CFF4F20813181FA017A
:1020F000EE5BFF4F808191812817390779F0A0812D
:10210000B181A40FB51F8C91208131812F5F3F4F8A
:102110002F7330703183208390E008958FEF9FEF0D
:102120000895FC0181A1882329F0A489B5898C91A7
:1021300086FFFBCF11A20895CF93DF93DC011E969B
:102140004D915C911F97EA01C05CDF4F2881398176
:102150002F5F3F4F2F733070FA01EE5BFF4F80818E
:10216000918128173907D9F3E881F981E40FF51F28
:1021700060831E96ED91FC911F97E05CFF4F3183C9
:1021800020835696ED91FC915797208181E090E055
:102190005F960C905F9702C0880F991F0A94E2F730
:1021A000282B208381E091968C9391975496ED9102
:1021B000FC91559780818064808381E090E0DF917D
:1021C000CF9108951F920F920FB60F9211242F9363
:1021D0003F934F938F939F93EF93FF938091C00012
:1021E00082FD1CC04091C600809141049091420440
:1021F00001968F73907020914304309144048217AC
:10220000930771F0E0914104F0914204EF5FFB4FBE
:102210004083909342048093410402C08091C600A1
:10222000FF91EF919F918F914F913F912F910F903F
:102230000FBE0F901F9018951F920F920FB60F921E
:1022400011242F933F938F939F93EF93FF932091AC
:10225000FD033091FE038091FF0390910004281745
:10226000390731F48091C1008F7D8093C10014C083
:10227000E091FF03F0910004E354FC4F2081809132
:10228000FF039091000401968F7390709093000467
:102290008093FF032093C600FF91EF919F918F9150
:1022A0003F912F910F900FBE0F901F901895BF92E6
:1022B000CF92DF92EF92FF920F931F93CF93DF9312
:1022C000EC016A017B01BB24B394403081EE5807D6
:1022D00080E0680780E0780749F4BB24EC89FD8939
:1022E000108260E874E88EE190E00FC0EC89FD890F
:1022F00081E090E008A002C0880F991F0A94E2F7DD
:10230000808360E079E08DE390E0A70196010E9470
:10231000B23089019A01015010402040304036957A
:1023200027951795079580E10030180710F0BB201E
:10233000A1F6E889F9891083EA89FB89008319A24B
:10234000EE89FF89408121E030E0C9010C8C02C098
:10235000880F991F0A94E2F7482B4083EE89FF8982
:102360004081C9010D8C02C0880F991F0A94E2F7C1
:10237000482B4083EE89FF894081C9010E8C02C041
:10238000880F991F0A94E2F7482B4083EE89FF8952
:1023900080810F8C02C0220F331F0A94E2F7209530
:1023A00028232083DF91CF911F910F91FF90EF9011
:1023B000DF90CF90BF90089510929E0310929D03DE
:1023C00088EE93E0A0E0B0E080939F039093A00399
:1023D000A093A103B093A203EDE9F3E087E891E0B5
:1023E0009293829381E094E0958784878DEB93E0CC
:1023F0009787868785EC90E0918B808B84EC90E0CA
:10240000938B828B80EC90E0958B848B81EC90E0B9
:10241000978B868B82EC90E0918F808F86EC90E09A
:10242000938F828F84E0848F83E0858F87E0868F0F
:1024300085E0878F81E080A30895CF92DF92EF92AD
:10244000FF920F931F93CF93DF936C017B01EA01FF
:1024500000E010E00EC0D7016D917D01D601ED9135
:10246000FC910190F081E02DC6010995080F191F1C
:102470002197209781F7C801DF91CF911F910F918C
:10248000FF90EF90DF90CF9008956115710589F06E
:10249000DB010D900020E9F7AD0141505040461B93
:1024A000570BDC01ED91FC910280F381E02D099541
:1024B000089580E090E008950E9445120895DC019F
:1024C000ED91FC910190F081E02D099508950F9315
:1024D0001F93CF93DF938C016DE00E945F12EC019C
:1024E000C8016AE00E945F128C0F9D1FDF91CF919F
:1024F0001F910F9108950F931F93CF93DF938C013A
:102500000E944512EC01C8010E9467128C0F9D1FAA
:10251000DF91CF911F910F9108954F925F926F922B
:102520007F92AF92BF92CF92DF92EF92FF920F9382
:102530001F93CF93DF93CDB7DEB7A1970FB6F89473
:10254000DEBF0FBECDBF5C01E42ECB01F22E19A27F
:1025500021E02F1510F03AE0F32E21E2C22ED12C0B
:10256000CC0EDD1E4F2C55246624772403C0E02EAC
:10257000512FC9016E2D752FA30192010E94B23017
:1025800089019A01F09E802D1124E81A8E2D08945D
:10259000C108D1088A3014F4805D01C0895CF6015D
:1025A0008083011511052105310509F7C501B60123
:1025B0000E944512A1960FB6F894DEBF0FBECDBFA4
:1025C000DF91CF911F910F91FF90EF90DF90CF900F
:1025D000BF90AF907F906F905F904F9008952115BE
:1025E000310549F4DC01ED91FC910190F081E02D81
:1025F000642F099508950E948D120895CF92DF925D
:10260000EF92FF920F931F93CF93DF93EC016A0138
:102610007B012115310541F4E881F9810190F081B8
:10262000E02D642F09951AC02A303105A9F477FFEF
:1026300012C06DE20E945F128C0144275527BA0137
:102640004C195D096E097F09CE012AE00E948D12A6
:10265000800F911F03C02AE00E948D12DF91CF915D
:102660001F910F91FF90EF90DF90CF9008952F92E0
:102670003F924F925F927F928F929F92AF92BF92C2
:10268000CF92DF92EF92FF920F931F93CF93DF933E
:102690002C014A015B01722ECB01BA01A501940104
:1026A0000E949930882321F0C20162E071E01BC0D2
:1026B00075016401E894F7F8C701B6012FEF3FEF09
:1026C0004FE75FE70E949930882389F4C701B6017C
:1026D0002FEF3FEF4FE75FE70E94462E18163CF4BE
:1026E000C20166E071E00E9445124C01C5C0C501FF
:1026F000B4012FEF3FEF4FE75FE40E94E62F18167B
:1027000054F0C501B4012FEF3FEF4FE75FEC0E949B
:10271000462E87FF04C0C2016AE071E0E4CFC50124
:10272000B40120E030E0A9010E94462E87FF0AC0D4
:10273000C2016DE20E945F121C01B7FAB094B7F8B3
:10274000B09402C022243324C0E050E040E030E0E6
:102750002FE313C0FA01B9018F2F942FA72FB22FA7
:10276000BC01CD0120E030E040E251E40E944A2E5D
:10277000562F472F382F292FCF5FC71559F7C5017F
:10278000B401DA01F9010B2F142F2F2F3E2FA901CD
:1027900098010E94692D7B01182FD92F862F9F2D1C
:1027A000A12FBD2FBC01CD010E94B72EC62E072F31
:1027B000882EC92F0E94E32E9B01AC018E2D9F2DE8
:1027C000A12FBD2FBC01CD010E94682D7B01182FC8
:1027D000D92FC2014C2D502F682D7C2F2AE030E0DC
:1027E0000E94EF124C01820C931C772009F442C026
:1027F000C2016EE071E00E944512880E991E3AC037
:102800008E2D9F2DA12FBD2FBC01CD0120E030E0EA
:1028100040E251E40E94F12FEB01182F092F98019B
:10282000862F9D2FA32FB22FBC01CD010E94B22E67
:102830006B017C01EE24D7FCE094FE2CC201B701B1
:10284000A6012AE030E00E94FE12880E991EC70100
:10285000B6010E94E52E9B01AC01B8018C2F9D2F83
:10286000A72FB62FBC01CD010E94682D7B01182F28
:10287000D92F7A94772021F6C401DF91CF911F914F
:102880000F91FF90EF90DF90CF90BF90AF909F900F
:102890008F907F905F904F903F902F9008950E946F
:1028A000371308958230E8F4E82FF0E0EE0FFF1FB1
:1028B000EB5BFB4F71836083813041F08091690055
:1028C0008C7F842B80936900E89A08958091690039
:1028D000440F551F440F551F837F842B809369003D
:1028E000E99A08951F920F920FB60F9211242F9319
:1028F0003F934F935F936F937F938F939F93AF9388
:10290000BF93EF93FF938091450490914604009705
:1029100029F0E0914504F09146040995FF91EF916B
:10292000BF91AF919F918F917F916F915F914F91E7
:102930003F912F910F900FBE0F901F9018951F92EF
:102940000F920FB60F9211242F933F934F935F93E3
:102950006F937F938F939F93AF93BF93EF93FF9367
:102960008091470490914804009729F0E091470432
:10297000F09148040995FF91EF91BF91AF919F911C
:102980008F917F916F915F914F913F912F910F9018
:102990000FBE0F901F9018951F920F920FB60F92B7
:1029A00011242F933F938F939F93AF93BF93809165
:1029B000490490914A04A0914B04B0914C04309189
:1029C0005104232F2D5F2D3720F40196A11DB11D39
:1029D00005C0232F2A570296A11DB11D2093510433
:1029E0008093490490934A04A0934B04B0934C0401
:1029F00080914D0490914E04A0914F04B0915004E9
:102A00000196A11DB11D80934D0490934E04A09397
:102A10004F04B0935004BF91AF919F918F913F911C
:102A20002F910F900FBE0F901F9018950F931F932B
:102A30008FB7F8940091490410914A0420914B04F7
:102A400030914C048FBFB801C9011F910F910895B7
:102A50000F931F939FB7F89400914D0410914E046B
:102A600020914F043091500486B5A89B06C08F3F3B
:102A700021F00F5F1F4F2F4F3F4F9FBF322F212F4E
:102A8000102F0027080F111D211D311D42E0000FDE
:102A9000111F221F331F4A95D1F7B801C9011F9199
:102AA0000F910895CF92DF92EF92FF92CF93DF9331
:102AB0006B017C010E942815DC01CB01EC010FC0E9
:102AC0000E9428156C1B7D0B83E0683E780738F068
:102AD0000894C108D108E108F108C851DC4FC114BD
:102AE000D104E104F10461F7DF91CF91FF90EF9001
:102AF000DF90CF900895789484B5826084BD84B5CA
:102B0000816084BD85B5826085BD85B5816085BDE8
:102B1000EEE6F0E0808181608083E1E8F0E0108201
:102B2000808182608083808181608083E0E8F0E042
:102B3000808181608083E1EBF0E08081846080832C
:102B4000E0EBF0E0808181608083EAE7F0E0808163
:102B500084608083808182608083808181608083C3
:102B60008081806880831092C1000895833071F065
:102B7000843028F48130A1F0823021F514C08630F1
:102B8000B1F08730D1F08430E9F404C08091800046
:102B90008F7703C0809180008F7D8093800008959F
:102BA00084B58F7702C084B58F7D84BD08958091F0
:102BB000B0008F778093B00008958091B0008F7D32
:102BC0008093B000089590E0FC01EB51FF4F2491F9
:102BD00087509F4FFC018491882341F190E0880F3A
:102BE000991FFC01EF5DFE4F45915491DA01895E1A
:102BF0009E4FFC0185919491FC019FB7F8948C91B4
:102C0000662331F4209582238C938081822308C02F
:102C1000623049F4322F309583238C938081822B4C
:102C200080839FBF0895822B8C939FBF08950F933D
:102C30001F93CF93DF930F92CDB7DEB7282F30E0ED
:102C4000F901EF52FF4F8491F901EB51FF4F1491BD
:102C5000F901E750FF4F04910023D1F0882321F0C0
:102C600069830E94B6156981E02FF0E0EE0FFF1F27
:102C7000E95EFE4F85919491DC019FB7F8948C91A9
:102C8000662319F41095812301C0812B8C939FBF7B
:102C90000F90DF91CF911F910F9108952F923F9246
:102CA0004F925F926F927F928F929F92AF92BF925C
:102CB000CF92DF92EF92FF920F931F93CF93DF9308
:102CC000CDB7DEB7C25BD0400FB6F894DEBF0FBE03
:102CD000CDBF6091490670914A0680914B06909154
:102CE0004C0620911D0730911E0740911F075091FF
:102CF00020070E94692D7B018C01862F9F2DA02F1C
:102D0000B12FBC01CD0120E030E040EA50E40E9448
:102D1000E62F181674F08E2D9F2DA02FB12FBC0119
:102D2000CD0120E030E0A9010E94462E87FD06C0BB
:102D300009C0EE24FF2400EA10E404C0EE24FF24BE
:102D400000E010E08E2D9F2DA02FB12FBC01CD01F2
:102D5000209175063091760640917706509178065D
:102D60000E94682D28966FAF289729967FAF2997E4
:102D70002A968FAF2A972B969FAF2B97C357DF4F7B
:102D80006883CD58D040C257DF4F7883CE58D040AB
:102D9000C157DF4F8883CF58D040C057DF4F98834B
:102DA000C059D04009E915E07E010894E11CF11CEE
:102DB000D8016D917D918D919D918D0120E030E63E
:102DC0004AE656E40E94682D27E137EB41E559E3D6
:102DD0000E94F12FDC01CB01F70181939193A19324
:102DE000B1937F01F5E0093B1F0711F76D897E89DB
:102DF0008F89988D20E030E0A9010E94E62F87FDA1
:102E00000BC020E030E040E85FE3A0962CAF3DAF80
:102E10004EAF5FAFA09709C080E090E0DC01A096C4
:102E20008CAF9DAFAEAFBFAFA09791E0C857DF4F5B
:102E30009883C858D040A0966CAD7DAD8EAD9FAD47
:102E4000A09720E030E0A9010E94E62F181634F088
:102E5000C857DF4F1882C858D0400FC08091AA04CD
:102E600018165CF080E090E0DC01809352049093AF
:102E70005304A0935404B0935504809168058823AB
:102E800009F08AC060917506709176068091770688
:102E90009091780660935105709352058093530585
:102EA0009093540520E030E040E251E40E94F12F7D
:102EB000CF56DF4F6883C159D040CE56DF4F78835D
:102EC000C259D040CD56DF4F8883C359D040CC562D
:102ED000DF4F9883C459D040472F382F292F862F92
:102EE000942FA32FB22FBC01CD0120915604309115
:102EF000570440915804509159040E94682D9B0139
:102F0000F82FE92F462F532F682F792F409355051F
:102F1000509356056093570570935805822F932F51
:102F2000AF2FBE2FBC01CD012DEC3CEC4CEC5DE392
:102F30000E94F12FC62ED72EE82EF92E0AE514E0B6
:102F4000E7E9AE2EE1E0BE2ED8016D917D918D9125
:102F50009D918D01F50121913191419151915F0137
:102F60000E94F12F9B01AC01C701B6010E94692D9F
:102F7000C62ED72EE82EF92EF4E00E371F0721F7C4
:102F8000F7FAF094F7F8F094C0925905D0925A05E8
:102F9000E0925B05F0925C0528965FAD2897299634
:102FA0004FAD29972A963FAD2A972B962FAD2B9799
:102FB000852F942FA32FB22FBC01CD012091150690
:102FC0003091160640911706509118060E94F12F75
:102FD0006B017C016091190670911A0680911B06A5
:102FE00090911C0620915204309153044091540456
:102FF000509155040E94F12F9B01AC01C701B6010D
:103000000E94692D6B017C016091590570915A05F0
:1030100080915B0590915C0520911D0630911E0604
:1030200040911F06509120060E94F12F9B01AC0198
:10303000C701B6010E94692D68AB79AB8AAB9BAB27
:1030400021E023962FAF2397A0966CAD7DAD8EAD7A
:103050009FADA09720E030E040E05FE30E94E62FC4
:1030600087FF08C023961FAE239770E060E090E0D2
:1030700080E032C058A949A93AA92BA9852F942FDD
:10308000A32FB22FBC01CD012DEC3CEC4CEC5EE348
:103090000E94E62F1816BCF058A949A93AA92BA9F5
:1030A000852F942FA32FB22FBC01CD0120E030E05B
:1030B00040E85EEB0E94462E87FF0AC070E060E0A9
:1030C00090E88EEB09C07DEC6CEC9CEC8EE304C0C8
:1030D00078A969A99AA98BA929813A814B815C8138
:1030E000AC962CAF3DAF4EAF5FAFAC97AB019C0140
:1030F000852F962FA32FB22FBC01CD01AC962CADFE
:103100003DAD4EAD5FADAC970E94692DCC57DF4F02
:103110006883C458D040CB57DF4F7883C558D04020
:10312000CA57DF4F8883C658D040C957DF4F9883AE
:10313000C758D04089859A85AB85BC85E8968CAF09
:103140009DAFAEAFBFAFE89740901106509012060A
:103150006090130670901406BC01CD01A30192018A
:103160000E94F12F25E33AEF4EE85CE30E94F12F35
:10317000F62EE72E8C0123969FAD2397992391F18C
:1031800060917E0470917F0480918004909181040D
:103190002EE230E940E25BE30E94F12F4B015C013B
:1031A00060918204709183048091840490918504DD
:1031B00028E13AE54DE15BE30E94F12F9B01AC0170
:1031C000C501B4010E94692D9B01AC01F7018F2F4D
:1031D0009E2FA02FB12FBC01CD010E94692DF62E8C
:1031E000E72E8C01A701852F9E2DA02FB12FBC01AA
:1031F000CD012091DD053091DE054091DF05509134
:10320000E0050E94682D2C966FAF2C972D967FAF0E
:103210002D972E968FAF2E972F969FAF2F97CB5629
:10322000DF4F6883C559D040CA56DF4F7883C659EF
:10323000D040C956DF4F8883C759D040C856DF4FAA
:103240009883C859D04011E0AC966CAD7DAD8EAD81
:103250009FADAC9720E030E0A9010E94E62F87FDEA
:1032600010E061E0612770E080E090E00E94E52ED0
:10327000362E272E89A39AA3A101382F292F852F17
:10328000942FA32FB22FBC01CD0120E030E0A90183
:103290000E94462E882321F48091AB04882359F0A4
:1032A00080E090E0DC018093860490938704A093F3
:1032B0008804B09389042091090630910A06409150
:1032C0000B0650910C062BA33CA34DA35EA380914B
:1032D0000D0690910E06A0910F06B09110068FA3D7
:1032E00098A7A9A7BAA72C965FAD2C972D964FAD9E
:1032F0002D972E963FAD2E972F962FAD2F97852F7A
:10330000942FA32FB22FBC01CD012BA13CA14DA125
:103310005EA10E94F12F6B017C016FA178A589A5A8
:103320009AA5209186043091870440918804509199
:1033300089040E94F12F9B01AC01C701B6010E94D4
:10334000692D6CAB7DAB8EAB9FAB91E09BA7609181
:10335000310670913206809133069091340620E058
:1033600030E040E05FE30E94E62F87FF24C01BA609
:10337000E8966CAD7DAD8EAD9FADE89720910106CE
:103380003091020640910306509104060E94F12FED
:1033900025E33AEF4EE85CE30E94F12FA1966FAF70
:1033A000A197A2967FAFA297A3968FAFA397A4965B
:1033B0009FAFA49756C05CA94DA93EA92FA9852F00
:1033C000942FA32FB22FBC01CD012BED3FE049E498
:1033D00050E40E94E62F18161CF15CA94DA93EA9E5
:1033E0002FA9852F942FA32FB22FBC01CD012BED38
:1033F0003FE049E450EC0E94462E87FF22C0ABED2F
:10340000A196AFAFA197BFE0A296BFAFA297E9E4A4
:10341000A396EFAFA397F0ECA496FFAFA49721C0BB
:103420002BEDA1962FAFA1973FE0A2963FAFA297B9
:1034300049E4A3964FAFA39750E4A4965FAFA49737
:1034400010C08CA9A1968FAFA1979DA9A2969FAFFE
:10345000A297AEA9A396AFAFA397BFA9A496BFAFFB
:10346000A4972091690530916A0540916B055091B0
:103470006C05EC962CAF3DAF4EAF5FAFEC97A196CD
:103480005FADA197A2964FADA297A3963FADA3972C
:10349000A4962FADA497852F942FA32FB22FBC01F4
:1034A000CD01EC962CAD3DAD4EAD5FADEC970E94DD
:1034B000682D60966FAF609761967FAF6197629657
:1034C0008FAF629763969FAF6397C756DF4F68834E
:1034D000C959D040C656DF4F7883CA59D040C55627
:1034E000DF4F8883CB59D040C456DF4F9883CC59E7
:1034F000D040A10139A12AA1852F922DA32FB22F4F
:10350000BC01CD0120E030E0A9010E94462E8823B5
:1035100021F48091AC04882359F080E090E0DC0134
:1035200080938A0490938B04A0938C04B0938D04B1
:1035300060912106709122068091230690912406C5
:1035400020918A0430918B0440918C0450918D0419
:103550000E94F12F7B018C01EC966CAD7DAD8EADA0
:103560009FADEC97905820E030E048EC52E40E9488
:10357000F12FCB55DF4F6883C55AD040CA55DF4F76
:103580007883C65AD040C955DF4F8883C75AD04088
:10359000C855DF4F9883C85AD040472F382F292F5E
:1035A000862F942FA32FB22FBC01CD0120918E0422
:1035B00030918F0440919004509191040E94682DA5
:1035C0002091250630912606409127065091280625
:1035D0000E94F12F9B01F82FE92F462F532F682FC0
:1035E000792F40935D0550935E0560935F0570935E
:1035F0006005822F932FAF2FBE2FBC01CD0120E09D
:1036000030E040E05FE30E94F12FB62EA72E982E07
:10361000892E60965FAD609761964FAD6197629617
:103620003FAD629763962FAD6397852F942FA32F9D
:10363000B22FBC01CD012091F9053091FA054091DE
:10364000FB055091FC050E94F12F502F412F0E2DAC
:103650001F2D252F342FA90198010E94692D6B0180
:103660007C016091920470919304809194049091F4
:10367000950420E030E040E05FE30E94F12F9B01E1
:10368000AC01F501B4018F2F9E2FA72FB62FBC01DF
:10369000CD010E94692D9B01AC01C701B6010E94BA
:1036A000692D68AF79AF8AAF9BAFE1966FAFE197B5
:1036B000E2967FAFE297E3968FAFE397E4969FAFF2
:1036C000E49731E06C963FAF6C97AC966CAD7DADF6
:1036D0008EAD9FADAC972DEC3CEC4CE45FEB0E94C3
:1036E000E62F87FF10C06C961FAE6C9724961FAE16
:1036F000249725961FAE259726961FAE26972796C8
:103700001FAE279756C058AD49AD3AAD2BAD852FAA
:10371000942FA32FB22FBC01CD012DEC3CEC4CE437
:103720005EE30E94E62F18161CF158AD49AD3AAD84
:103730002BAD852F942FA32FB22FBC01CD012DECE3
:103740003CEC4CE45EEB0E94462E87FF22C04DEC21
:1037500024964FAF24975CEC25965FAF25978CE4B9
:1037600026968FAF26979EEB27969FAF279721C06F
:10377000ADEC2496AFAF2497BCEC2596BFAF259750
:10378000ECE42696EFAF2697FEE32796FFAF279748
:1037900010C028AD24962FAF249739AD25963FAFA2
:1037A00025974AAD26964FAF26975BAD27965FAF1C
:1037B0002797C0909604D0909704E0909804F090DA
:1037C000990460914D0670914E0680914F0690913C
:1037D000500620912D0730912E0740912F075091D0
:1037E00030070E94F12F4B015C01C701B6012EEC9E
:1037F00039E141E75FE30E94F12F9B01AC01C50174
:10380000B4010E94682D2BE33FED4FE65FEB0E9471
:103810004A2EC755DF4F6883C95AD040C655DF4F7F
:103820007883CA5AD040C555DF4F8883CB5AD040E1
:10383000C455DF4F9883CC5AD0408D859E85AF8587
:10384000B889C757DF4F88839983AA83BB83C95838
:10385000D040B0588CA79DA7AEA7BFA7BC01CD0193
:10386000A30192010E94F12F25E33AEF4EE85CE3B9
:103870000E94F12FB62EA72E8C0123969FAD239781
:103880009923F1F1C755DF4F5881C95AD040C65529
:10389000DF4F4881CA5AD040C555DF4F3881CB5AD7
:1038A000D040C455DF4F2881CC5AD040852F942F6B
:1038B000A32FB22FBC01CD012EE230E940E25BE341
:1038C0000E94F12F2B013C01C701B60128E13AE526
:1038D0004DE15BE30E94F12F9B01AC01C301B201FA
:1038E0000E94692D9B01AC01F5018F2F9E2FA02F07
:1038F000B12FBC01CD010E94692DB62EA72E8C01DF
:10390000A501852F9A2DA02FB12FBC01CD012091AB
:10391000E1053091E2054091E3055091E4050E94F4
:10392000682D64966FAF649765967FAF65976696CE
:103930008FAF669767969FAF6797C356DF4F6883D1
:10394000CD59D040C256DF4F7883CE59D040C156B2
:10395000DF4F8883CF59D040C056DF4F9883C05A7D
:10396000D040A10139A12AA1852F922DA32FB22FDA
:10397000BC01CD0120E030E0A9010E94462E882341
:1039800021F48091AD04882359F080E090E0DC01BF
:1039900080939A0490939B04A0939C04B0939D04FD
:1039A00064965FAD649765964FAD659766963FAD3B
:1039B000669767962FAD6797852F942FA32FB22F09
:1039C000BC01CD012BA13CA14DA15EA10E94F12F14
:1039D0006B017C016FA178A589A59AA520919A0415
:1039E00030919B0440919C0450919D040E94F12FC2
:1039F0009B01AC01C701B6010E94692D6BA37FA397
:103A00008CAF9DAFABA5AA23A9F1472F382F292F43
:103A1000862F942FA32FB22FBC01CD012BED3FE0B9
:103A200049E450E40E94E62F18160CF444C05BA150
:103A30004FA13CAD2DAD852F942FA32FB22FBC01EC
:103A4000CD012BED3FE049E450EC0E94462E87FF6C
:103A500043C0BBEDA596BFAFA597EFE0A696EFAF2D
:103A6000A697F9E4A796FFAFA79720ECA8962FAFEB
:103A7000A89742C06CA57DA58EA59FA520910106A3
:103A80003091020640910306509104060E94F12FE6
:103A900025E33AEF4EE85CE30E94F12FA5966FAF65
:103AA000A597A6967FAFA697A7968FAFA797A8963C
:103AB0009FAFA89721C03BEDA5963FAFA5974FE0DC
:103AC000A6964FAFA69759E4A7965FAFA79780E455
:103AD000A8968FAFA89710C09BA1A5969FAFA5975A
:103AE000AFA1A696AFAFA697BCADA796BFAFA7975D
:103AF000EDADA896EFAFA89720916D0530916E05BA
:103B000040916F0550917005C458DF4F2883398369
:103B10004A835B83CC57D040A5965FADA597A69608
:103B20004FADA697A7963FADA797A8962FADA8979C
:103B3000852F942FA32FB22FBC01CD01C458DF4F86
:103B4000288139814A815B81CC57D0400E94682D01
:103B500068966FAF689769967FAF69976A968FAFDF
:103B60006A976B969FAF6B97CF55DF4F6883C15AAB
:103B7000D040CE55DF4F7883C25AD040CD55DF4F6D
:103B80008883C35AD040CC55DF4F9883C45AD04065
:103B9000A10139A12AA1852F922DA32FB22FBC01FB
:103BA000CD0120E030E0A9010E94462E882321F4B7
:103BB0008091AE04882359F080E090E0DC0180938E
:103BC0009E0490939F04A093A004B093A1046091DD
:103BD000390670913A0680913B0690913C062091FF
:103BE0009E0430919F044091A0045091A1040E9432
:103BF000F12F7B018C01C458DF4F688179818A8164
:103C00009B81CC57D040905820E030E048EC52E403
:103C10000E94F12FC355DF4F6883CD5AD040C25563
:103C2000DF4F7883CE5AD040C155DF4F8883CF5ABB
:103C3000D040C055DF4F9883C05BD040472F382F0E
:103C4000292F862F942FA32FB22FBC01CD012091B5
:103C5000A2043091A3044091A4045091A5040E94B1
:103C6000682D20913D0630913E0640913F065091CF
:103C700040060E94F12F9B01F82FE92F462F532F6A
:103C8000682F792F40936105509362056093630517
:103C900070936405822F932FAF2FBE2FBC01CD01EF
:103CA00020E030E040E05FE30E94F12FB62EA72E27
:103CB000982E892E68965FAD689769964FAD699783
:103CC0006A963FAD6A976B962FAD6B97852F942FB1
:103CD000A32FB22FBC01CD012091350630913606BD
:103CE00040913706509138060E94F12F502F412FF6
:103CF0000E2D1F2D252F342FA90198010E94692D0B
:103D00006B017C016091A6047091A7048091A804C6
:103D10009091A90420E030E040E05FE30E94F12FA1
:103D20009B01AC01F501B4018F2F9E2FA72FB62F59
:103D3000BC01CD010E94692D9B01AC01C701B601F8
:103D40000E94692D6BA77CA78EAF9FAFAD966FAF1A
:103D5000AD97AE967FAFAE97AF968FAFAF97E09629
:103D60009FAFE0976C963FAD6C97332381F1472F5F
:103D7000382F292F862F942FA32FB22FBC01CD01CE
:103D80002DEC3CEC4CE45EE30E94E62F181644F167
:103D90005BA54CA53EAD2FAD852F942FA32FB22F41
:103DA000BC01CD012DEC3CEC4CE45EEB0E94462EB8
:103DB00087FF23C06DEC662E7CEC572E4CE42196D9
:103DC0004FAF21975EEB22965FAF229720C066240B
:103DD000552421961FAE219722961FAE229717C019
:103DE0004DEC642E5CEC552E8CE421968FAF219720
:103DF0009EE322969FAF22970AC06BA45CA4AEAD4F
:103E00002196AFAF2197BFAD2296BFAF22976989A8
:103E10007A898B899C89209105063091060640910C
:103E20000706509108060E94F12F25E33AEF4EE86D
:103E30005CE30E94F12FD62EC72EB82EA92EC058B3
:103E4000DF4F6883C058D040CF57DF4F7883C158C9
:103E5000D040CE57DF4F8883C258D040CD57DF4F78
:103E60009883C358D0402396EFAD2397EE2309F4EF
:103E700060C06091290770912A0780912B0790916B
:103E80002C072091510630915206409153065091D3
:103E900054060E94F12F7B018C01862F9F2DA02FAD
:103EA000B12FBC01CD0120E030E040E05FE30E9493
:103EB000E62F18167CF08E2D9F2DA02FB12FBC0160
:103EC000CD0120E030E040E05FEB0E94462E87FD10
:103ED00006C009C0EE24FF2400E01FE304C0EE2466
:103EE000FF2400E01FEBA6019501852F9C2DA32F39
:103EF000BA2DBC01CD01502F412F0E2D1F2D252F86
:103F0000342FA90198010E94692DC058DF4F6883A2
:103F1000C058D040CF57DF4F7883C158D040CE57DC
:103F2000DF4F8883C258D040CD57DF4F9883C358A6
:103F3000D0406C96FFAD6C97FF2309F450C0C05879
:103F4000DF4F5881C058D040CF57DF4F4881C1580C
:103F5000D040CE57DF4F3881C258D040CD57DF4FC9
:103F60002881C358D040852F942FA32FB22FBC0196
:103F7000CD012091710530917205409173055091EA
:103F800074050E94682D2091FD053091FE05409139
:103F9000FF05509100060E94F12F8B01B82EA92E2B
:103FA0009501862F912FA32FB22FBC01CD012DECAF
:103FB0003CEC4CE45EE30E94E62F1816ACF0950151
:103FC000802F912FA32FB22FBC01CD012DEC3CEC03
:103FD0004CE45EEB0E94462E87FD0DC012C000E04F
:103FE00010E0BB24AA240DC00DEC1CEC2CE4B22E76
:103FF0003EE3A32E06C00DEC1CEC8CE4B82E9EEB29
:10400000A92ECC57DF4F5881C458D040CB57DF4F33
:104010004881C558D040CA57DF4F3881C658D04074
:10402000C957DF4F2881C758D040852F942FA32F21
:10403000B22FBC01CD0124965FAD249725964FADDC
:10404000259726963FAD269727962FAD2797C52E05
:10405000D42EE32EF22EA70196010E94682D2396FE
:104060006FAF23976C967FAF6C97CF54DF4F8883E9
:10407000C15BD040CE54DF4F9883C25BD040472F06
:10408000382F292F862F942FA32FB22FBC01CD01BB
:1040900021963FAD219722962FAD2297C62CD52C85
:1040A000E32EF22EA70196010E94692D9501C02EE4
:1040B000D12EE32EFA2CA70196010E94692D20E053
:1040C00030E040E85FE30E94692D20E030E44CE9F5
:1040D00055E40E94F12F20E030E44CE156E40E94C8
:1040E000692D7B01D82EC92E9601862F9F2DA32FD7
:1040F000B22FBC01CD0120E030E44CE956E40E942F
:10410000E62F18162CF480E090E4ACE9B6E419C070
:1041100096018E2D9F2DA32FB22FBC01CD0120E043
:1041200030EA4CE056E40E94462E87FF05C080E04E
:1041300090EAACE0B6E405C096018E2D9F2DA32F2A
:10414000B22F8093AF049093B004A093B104B093C6
:10415000B204CC57DF4F5881C458D040CB57DF4F03
:104160004881C558D040CA57DF4F3881C658D04023
:10417000C957DF4F2881C758D040852F942FA32FD0
:10418000B22FBC01CD0124965FAD249725964FAD8B
:10419000259726963FAD269727962FAD2797C52EB4
:1041A000D42EE32EF22EA70196010E94692D962EA1
:1041B000872E482E792EA401852F942FA42DB72D5C
:1041C000BC01CD0121963FAD219722962FAD2297BC
:1041D000C62CD52CE32EF22EA70196010E94692D44
:1041E0009501C02ED12EE32EFA2CA70196010E9434
:1041F000682D20E030E040E85FE30E94692D20E078
:1042000030E44CE955E40E94F12F20E030E44CE129
:1042100056E40E94692D7B01D82EC92E9601862F67
:104220009F2DA32FB22FBC01CD0120E030E44CE93B
:1042300056E40E94E62F18162CF480E090E4ACE9D6
:10424000B6E419C096018E2D9F2DA32FB22FBC016D
:10425000CD0120E030EA4CE056E40E94462E87FF74
:1042600005C080E090EAACE0B6E405C096018E2D72
:104270009F2DA32FB22F8093B3049093B404A093E7
:10428000B504B093B604A401852F982DA42DB72DA5
:10429000BC01CD0121963FAD219722962FAD2297EB
:1042A000C62CD52CE32EF22EA70196010E94682D74
:1042B0009501C02ED12EE32EFA2CA70196010E9463
:1042C000692D20E030E040E85FE30E94692D20E0A6
:1042D00030E44CE955E40E94F12F20E030E44CE159
:1042E00056E40E94692D7B01D82EC92E9601862F97
:1042F0009F2DA32FB22FBC01CD0120E030E44CE96B
:1043000056E40E94E62F18162CF480E090E4ACE905
:10431000B6E419C096018E2D9F2DA32FB22FBC019C
:10432000CD0120E030EA4CE056E40E94462E87FFA3
:1043300005C080E090EAACE0B6E405C096018E2DA1
:104340009F2DA32FB22F8093B7049093B804A0930E
:10435000B904B093BA0423965FAD23976C964FAD22
:104360006C97CF54DF4F3881C15BD040CE54DF4FC4
:104370002881C25BD040852F942FA32FB22FBC0180
:10438000CD0121963FAD219722962FAD2297C62CC5
:10439000D52CE32EF22EA70196010E94682D9501DF
:1043A000C02ED12EE32EFA2CA70196010E94682D73
:1043B00020E030E040E85FE30E94692D20E030E437
:1043C0004CE955E40E94F12F20E030E44CE156E442
:1043D0000E94692D7B01D82EC92E9601862F9F2D14
:1043E000A32FB22FBC01CD0120E030E44CE956E40C
:1043F0000E94E62F18162CF480E090E4ACE9B6E4B5
:1044000019C096018E2D9F2DA32FB22FBC01CD0177
:1044100020E030EA4CE056E40E94462E87FF05C0BB
:1044200080E090EAACE0B6E405C096018E2D9F2DA9
:10443000A32FB22F8093BB049093BC04A093BD0420
:10444000B093BE0480E090E6AAE6B6E48093BF0491
:104450009093C004A093C104B093C2048093C3049A
:104460009093C404A093C504B093C6048093C7047A
:104470009093C804A093C904B093CA048093CB045A
:104480009093CC04A093CD04B093CE048091F90511
:104490009091FA05A091FB05B091FC058093CF04A3
:1044A0009093D004A093D104B093D20480912106BC
:1044B00090912206A0912306B09124068093D30404
:1044C0009093D404A093D504B093D604809125068C
:1044D00090912606A0912706B09128068093D704D4
:1044E0009093D804A093D904B093DA048091350650
:1044F00090913606A0913706B09138068093DB0480
:104500009093DC04A093DD04B093DE04809139061F
:1045100090913A06A0913B06B0913C068093DF044F
:104520009093E004A093E104B093E20480913D06EF
:1045300090913E06A0913F06B09140068093E3041F
:104540009093E404A093E504B093E6048091FD0504
:104550009091FE05A091FF05B09100068093E704BD
:104560009093E804A093E904B093EA04AC962CADD0
:104570003DAD4EAD5FADAC972093EB043093EC04B2
:104580004093ED045093EE04E8968CAD9DADAEAD36
:10459000BFADE8978093EF049093F004A093F104EB
:1045A000B093F204C757DF4F88819981AA81BB81FC
:1045B000C958D040B0588093F3049093F404A0936A
:1045C000F504B093F60489899A89AB89BC898093F4
:1045D000F7049093F804A093F904B093FA04A101AE
:1045E00039A12AA1852F922DA32FB22F8093FB04EE
:1045F0009093FC04A093FD04B093FE048091010607
:1046000090910206A0910306B09104068093FF04E6
:1046100090930005A0930105B093020580930305D4
:1046200090930405A0930505B093060580910506B7
:1046300090910606A0910706B091080680930705A1
:1046400090930805A0930905B0930A05809131065F
:1046500090913206A0913306B091340680930B05F9
:1046600090930C05A0930D05B0930E05EC962CAD20
:104670003DAD4EAD5FADEC9720930F053093100527
:104680004093110550931205C458DF4F88819981DA
:10469000AA81BB81CC57D040809313059093140519
:1046A000A0931505B0931605809171059091720540
:1046B000A0917305B0917405809317059093180528
:1046C000A0931905B0931A05A1965FADA197A29684
:1046D0004FADA297A3963FADA397A4962FADA497F5
:1046E000852F942FA32FB22F80931B0590931C0529
:1046F000A0931D05B0931E05A5965FADA597A69640
:104700004FADA697A7963FADA797A8962FADA897B0
:10471000852F942FA32FB22F80931F0590932005F0
:10472000A0932105B0932205C058DF4F5881C0588F
:10473000D040CF57DF4F4881C158D040CE57DF4FD0
:104740003881C258D040CD57DF4F2881C358D04060
:10475000852F942FA32FB22F8093230590932405A8
:10476000A0932505B0932605CC57DF4F5881C45838
:10477000D040CB57DF4F4881C558D040CA57DF4F94
:104780003881C658D040C957DF4F2881C758D0401C
:10479000852F942FA32FB22F809327059093280560
:1047A000A0932905B0932A0524965FAD24972596FA
:1047B0004FAD259726963FAD269727962FAD279785
:1047C000852F942FA32FB22F80932B0590932C0528
:1047D000A0932D05B0932E0521963FAD21972296EB
:1047E0002FAD2297862D952DA32FB22F80932F05C5
:1047F00090933005A0933105B09332059501802F39
:10480000912FA32FBA2D8093330590933405A09355
:104810003505B093360580E090E0DC0180933705E4
:1048200090933805A0933905B0933A0580933B05E2
:1048300090933C05A0933D05B0933E0580933F05C2
:1048400090934005A0934105B093420580934305A2
:1048500090934405A0934505B09346058093470582
:1048600090934805A0934905B0934A0580934B0562
:1048700090934C05A0934D05B0934E058FEF9FEF9D
:104880006FE475E0F10159A14AA10F2F122D252FD8
:10489000342FA90198010E94F62C5BA54CA53EADD2
:1048A0002FAD852F942FA32FB22FBC01CD012DEC5E
:1048B0003CEC4CE45EE30E94E62F01E010E087FF51
:1048C00014C05BA54CA53EAD2FAD852F942FA32F13
:1048D000B22FBC01CD012DEC3CEC4CE45EEB0E9410
:1048E000462E181614F400E010E0602E58AD49ADC5
:1048F0003AAD2BAD852F942FA32FB22FBC01CD0144
:104900002DEC3CEC4CE45EE30E94E62F01E010E06D
:1049100087FF14C058AD49AD3AAD2BAD852F942F0C
:10492000A32FB22FBC01CD012DEC3CEC4CE45EEB8F
:104930000E94462E181614F400E010E0702E2896FF
:104940005FAD289729964FAD29972A963FAD2A97B4
:104950002B962FAD2B97852F942FA32FB22FBC0111
:10496000CD0120E030E0A9010E94462E87FD37C02E
:1049700028965FAD289729964FAD29972A963FAD87
:104980002A972B962FAD2B97852F942FA32FB22FDD
:10499000BC01CD0120E030E0A9010E94E62F1816ED
:1049A0001CF128965FAD289729964FAD29972A9636
:1049B0003FAD2A972B962FAD2B97852F942FA32FA2
:1049C000B22FBC01CD0120E030E0A9010E94462EAB
:1049D000882379F4EE24FF2400E010E016C0EE24D2
:1049E000FF2400E81FEB11C0EE24FF2400E81FE3C2
:1049F0000CC02896EFAC28972996FFAC29972A96E9
:104A00000FAD2A972B961FAD2B9758A949A93AA904
:104A10002BA9852F942FA32FB22FBC01CD0120E00D
:104A200030E0A9010E94462E87FD27C058A949A958
:104A30003AA92BA9852F942FA32FB22FBC01CD010A
:104A400020E030E0A9010E94E62F1816ECF058A9EA
:104A500049A93AA92BA9852F942FA32FB22FBC01C6
:104A6000CD0120E030E0A9010E94462E882399F470
:104A7000DD24CC24BB24AA2412C0DD24CC24A0E84D
:104A8000BA2EBFEBAB2E0BC0DD24CC24E0E8BE2E4B
:104A9000FFE3AF2E04C0D8A8C9A8BAA8ABA858A9EC
:104AA00049A93AA92BA9852F942FA32FB22FBC0176
:104AB000CD012DEC3CEC4CEC5EE30E94E62F87FF31
:104AC00012C058A949A93AA92BA9852F942FA32F21
:104AD000B22FBC01CD0120E030E040E85EEB0E9447
:104AE000462E181634F18E2D9F2DA02FB12FBC010C
:104AF000CD01F601A5010F2F1C2D252F3A2DA9015F
:104B000098010E94462E8823A1F4C357DF4F1882D4
:104B1000CD58D040C257DF4F1882CE58D040C15731
:104B2000DF4F1882CF58D040C057DF4F1882C0598E
:104B3000D040C357DF4F5881CD58D040C257DF4FC8
:104B40004881CE58D040C157DF4F3881CF58D04030
:104B5000C057DF4F2881C059D040852F942FA32FF5
:104B6000B22FBC01CD012AE037ED43E25CE30E94A5
:104B7000F12F9B01AC01609152047091530480911C
:104B80005404909155040E94692DDC01CB0180935F
:104B9000520490935304A0935404B0935504C857FF
:104BA000DF4F9881C858D040992311F081E020C090
:104BB000A0966CAD7DAD8EAD9FADA09720E030E0AE
:104BC000A9010E94462E87FF02C08FEF11C0A09658
:104BD0006CAD7DAD8EAD9FADA09720E030E0A9011A
:104BE0000E94462E882319F41092AA0403C082E082
:104BF0008093AA04809168058823F1F5CF56DF4F92
:104C00005881C159D040CE56DF4F4881C259D0405B
:104C1000CD56DF4F3881C359D040CC56DF4F288165
:104C2000C459D040852F942FA32FB22F80935604C0
:104C300090935704A0935804B0935904EAE7F4E022
:104C4000B291A2919291829184839583A683B78336
:104C5000A4E0EA35FA07A1F7809155059091560531
:104C6000A0915705B091580580935A0490935B0426
:104C7000A0935C04B0935D04C0907E04D0907F0448
:104C8000E0908004F09081046091250770912607E0
:104C9000809127079091280720914D0630914E066C
:104CA00040914F06509150060E94F12F4B015C013C
:104CB000C701B6012EE93FEE47EF5FE30E94F12FF7
:104CC0009B01AC01C501B4010E94692D4B015C013F
:104CD0006091820470918304809184049091850492
:104CE0002EEC39E141E75FE30E94F12F9B01AC011B
:104CF000C501B4010E94682DC0928204D092830441
:104D0000E0928404F0928504462F572F682F792F64
:104D100040937E0450937F046093800470938104D9
:104D2000A10139A12AA1852F922DA32FB22FBC0159
:104D3000CD0120E030E0A9010E94462E882309F031
:104D400032C12C965FAD2C972D964FAD2D972E9698
:104D50003FAD2E972F962FAD2F97852F942FA32FF2
:104D6000B22FBC01CD0120E030E0A9010E94462E07
:104D700087FD37C02C965FAD2C972D964FAD2D97A4
:104D80002E963FAD2E972F962FAD2F97852F942FD0
:104D9000A32FB22FBC01CD0120E030E0A9010E9479
:104DA000E62F18161CF12C965FAD2C972D964FAD63
:104DB0002D972E963FAD2E972F962FAD2F97852F9F
:104DC000942FA32FB22FBC01CD0120E030E0A90128
:104DD0000E94462E882379F4EE24FF2400E010E0A0
:104DE00016C0EE24FF2400E81FEB11C0EE24FF24C0
:104DF00000E81FE30CC02C96EFAC2C972D96FFAC6F
:104E00002D972E960FAD2E972F961FAD2F975CA93D
:104E10004DA93EA92FA9852F942FA32FB22FBC01F6
:104E2000CD0120E030E0A9010E94462E87FD27C079
:104E30005CA94DA93EA92FA9852F942FA32FB22F8E
:104E4000BC01CD0120E030E0A9010E94E62F181638
:104E5000ECF05CA94DA93EA92FA9852F942FA32F73
:104E6000B22FBC01CD0120E030E0A9010E94462E06
:104E7000882399F4DD24CC24BB24AA2412C0DD2489
:104E8000CC2460E8B62E7FEBA72E0BC0DD24CC240B
:104E900040E8B42E5FE3A52E04C0DCA8CDA8BEA8D0
:104EA000AFA85CA94DA93EA92FA9852F942FA32FA8
:104EB000B22FBC01CD012BED3FE049E450E40E944C
:104EC000E62F87FF14C05CA94DA93EA92FA9852F05
:104ED000942FA32FB22FBC01CD012BED3FE049E46D
:104EE00050EC0E94462E181614F4772031F18E2DC6
:104EF0009F2DA02FB12FBC01CD01F601A5010F2FD1
:104F00001C2D252F3A2DA90198010E94462E882399
:104F1000A1F4CB56DF4F1882C559D040CA56DF4F97
:104F20001882C659D040C956DF4F1882C759D040A1
:104F3000C856DF4F1882C859D040CB56DF4F588132
:104F4000C559D040CA56DF4F4881C659D040C956CE
:104F5000DF4F3881C759D040C856DF4F2881C85924
:104F6000D040852F942FA32FB22FBC01CD012AE072
:104F700037ED43E25CE30E94F12F9B01AC016091AD
:104F800086047091870480918804909189040E941E
:104F9000692DDC01CB018093860490938704A09354
:104FA0008804B093890499249394A10139A12AA17A
:104FB000852F922DA32FB22FBC01CD0120E030E030
:104FC000A9010E94E62F181694F09924A10139A195
:104FD0002AA1852F922DA32FB22FBC01CD0120E055
:104FE00030E0A9010E94462E87FD04C005C09092C2
:104FF000AB0418C08FEF14C0A10139A12AA1852FDD
:10500000922DA32FB22FBC01CD0120E030E0A901E9
:105010000E94462E882319F41092AB0414C082E03B
:105020008093AB04A10139A12AA1852F922DA32F32
:10503000B22FBC01CD0120E030E0A9010E94462E34
:10504000882309F02CC160965FAD609761964FADE3
:10505000619762963FAD629763962FAD6397852FF8
:10506000942FA32FB22FBC01CD0120E030E0A90185
:105070000E94462E87FD37C060965FAD60976196AF
:105080004FAD619762963FAD629763962FAD639780
:10509000852F942FA32FB22FBC01CD0120E030E04B
:1050A000A9010E94E62F18161CF160965FAD60976B
:1050B00061964FAD619762963FAD629763962FAD53
:1050C0006397852F942FA32FB22FBC01CD0120E031
:1050D00030E0A9010E94462E882379F4EE24FF24B3
:1050E00000E010E016C0EE24FF2400E81FEB11C022
:1050F000EE24FF2400E81FE30CC06096EFAC60973D
:105100006196FFAC619762960FAD629763961FAD93
:10511000639758AD49AD3AAD2BAD852F942FA32F92
:10512000B22FBC01CD0120E030E0A9010E94462E43
:1051300087FD23C058AD49AD3AAD2BAD852F942FD7
:10514000A32FB22FBC01CD0120E030E0A9010E94C5
:10515000E62F18160CF158AD49AD3AAD2BAD852FA1
:10516000942FA32FB22FBC01CD0120E030E0A90184
:105170000E94462E8823F9F02AC0E1961FAEE197DF
:10518000E2961FAEE297B0E8E396BFAFE397EFEB8E
:10519000E496EFAFE4971BC0E1961FAEE197E2966D
:1051A0001FAEE297F0E8E396FFAFE3972FE3E496B4
:1051B0002FAFE4970CC0E1961FAEE197E2961FAEC9
:1051C000E297E3961FAEE397E4961FAEE49777204D
:1051D00081F18E2D9F2DA02FB12FBC01CD01E19625
:1051E000FFADE197E296EFADE297E3965FADE3970F
:1051F000E4964FADE4970F2F1E2F252F342FA901D2
:1052000098010E94462E8823A1F4C756DF4F1882CA
:10521000C959D040C656DF4F1882CA59D040C5562A
:10522000DF4F1882CB59D040C456DF4F1882CC597B
:10523000D040C756DF4F5881C959D040C656DF4FBE
:105240004881CA59D040C556DF4F3881CB59D0402C
:10525000C456DF4F2881CC59D040852F942FA32FDF
:10526000B22FBC01CD012AE037ED43E25CE30E949E
:10527000F12F9B01AC0160918A0470918B048091A5
:105280008C0490918D040E94692DDC01CB018093E8
:105290008A0490938B04A0938C04B0938D0499207E
:1052A00011F081E026C0A10139A12AA1852F922DFC
:1052B000A32FB22FBC01CD0120E030E0A9010E9454
:1052C000462E87FF02C08FEF14C0A10139A12AA189
:1052D000852F922DA32FB22FBC01CD0120E030E00D
:1052E000A9010E94462E882319F41092AC0403C031
:1052F00082E08093AC04CB55DF4F5881C55AD04033
:10530000CA55DF4F4881C65AD040C955DF4F388152
:10531000C75AD040C855DF4F2881C85AD040852F82
:10532000942FA32FB22F80938E0490938F04A09379
:105330009004B093910480915D0590915E05A091D9
:105340005F05B09160058093920490939304A093BD
:105350009404B0939504C755DF4F5881C95AD04083
:10536000C655DF4F4881CA5AD040C555DF4F3881F6
:10537000CB5AD040C455DF4F2881CC5AD040852F1E
:10538000942FA32FB22F8093960490939704A09309
:105390009804B0939904A10139A12AA1852F922DD7
:1053A000A32FB22FBC01CD0120E030E0A9010E9463
:1053B000462E882309F032C164965FAD64976596E6
:1053C0004FAD659766963FAD669767962FAD679729
:1053D000852F942FA32FB22FBC01CD0120E030E008
:1053E000A9010E94462E87FD37C064965FAD649781
:1053F00065964FAD659766963FAD669767962FADFC
:105400006797852F942FA32FB22FBC01CD0120E0E9
:1054100030E0A9010E94E62F18161CF164965FADDA
:10542000649765964FAD659766963FAD66976796AC
:105430002FAD6797852F942FA32FB22FBC01CD01DD
:1054400020E030E0A9010E94462E882379F4EE2462
:10545000FF2400E010E016C0EE24FF2400E81FEB5C
:1054600011C0EE24FF2400E81FE30CC06496EFACEB
:1054700064976596FFAC659766960FAD66976796DD
:105480001FAD67975BA14FA13CAD2DAD852F942F2C
:10549000A32FB22FBC01CD0120E030E0A9010E9472
:1054A000462E87FD27C05BA14FA13CAD2DAD852FBA
:1054B000942FA32FB22FBC01CD0120E030E0A90131
:1054C0000E94E62F1816ECF05BA14FA13CAD2DAD6C
:1054D000852F942FA32FB22FBC01CD0120E030E007
:1054E000A9010E94462E882399F4DD24CC24BB24F4
:1054F000AA2412C0DD24CC2420E8B22E3FEBA32E38
:105500000BC0DD24CC2480E8B82E9FE3A92E04C074
:10551000DBA0CFA0BCACADAC5BA14FA13CAD2DAD31
:10552000852F942FA32FB22FBC01CD012BED3FE08F
:1055300049E450E40E94E62F87FF14C05BA14FA10D
:105540003CAD2DAD852F942FA32FB22FBC01CD01E3
:105550002BED3FE049E450EC0E94462E181614F45F
:10556000662031F18E2D9F2DA02FB12FBC01CD01D2
:10557000F601A5010F2F1C2D252F3A2DA901980109
:105580000E94462E8823A1F4C356DF4F1882CD59BE
:10559000D040C256DF4F1882CE59D040C156DF4F9F
:1055A0001882CF59D040C056DF4F1882C05AD04021
:1055B000C356DF4F5881CD59D040C256DF4F488186
:1055C000CE59D040C156DF4F3881CF59D040C05658
:1055D000DF4F2881C05AD040852F942FA32FB22FA0
:1055E000BC01CD012AE037ED43E25CE30E94F12FDC
:1055F0009B01AC0160919A0470919B0480919C0482
:1056000090919D040E94692DDC01CB0180939A0446
:1056100090939B04A0939C04B0939D04992011F057
:1056200081E026C0A10139A12AA1852F922DA32FA7
:10563000B22FBC01CD0120E030E0A9010E94462E2E
:1056400087FF02C08FEF14C0A10139A12AA1852FC5
:10565000922DA32FB22FBC01CD0120E030E0A90193
:105660000E94462E882319F41092AD0414C082E0E3
:105670008093AD04A10139A12AA1852F922DA32FDA
:10568000B22FBC01CD0120E030E0A9010E94462EDE
:10569000882309F02CC168965FAD689769964FAD75
:1056A00069976A963FAD6A976B962FAD6B97852F7A
:1056B000942FA32FB22FBC01CD0120E030E0A9012F
:1056C0000E94462E87FD37C068965FAD6897699641
:1056D0004FAD69976A963FAD6A976B962FAD6B9702
:1056E000852F942FA32FB22FBC01CD0120E030E0F5
:1056F000A9010E94E62F18161CF168965FAD689705
:1057000069964FAD69976A963FAD6A976B962FADD4
:105710006B97852F942FA32FB22FBC01CD0120E0D2
:1057200030E0A9010E94462E882379F4EE24FF245C
:1057300000E010E016C0EE24FF2400E81FEB11C0CB
:10574000EE24FF2400E81FE30CC06896EFAC6897D6
:105750006996FFAC69976A960FAD6A976B961FAD15
:105760006B975BA54CA53EAD2FAD852F942FA32F36
:10577000B22FBC01CD0120E030E0A9010E94462EED
:1057800087FD23C05BA54CA53EAD2FAD852F942F83
:10579000A32FB22FBC01CD0120E030E0A9010E946F
:1057A000E62F18160CF15BA54CA53EAD2FAD852F4D
:1057B000942FA32FB22FBC01CD0120E030E0A9012E
:1057C0000E94462E8823F9F02AC0AD961FAEAD97F1
:1057D000AE961FAEAE9730E8AF963FAFAF974FEBA8
:1057E000E0964FAFE0971BC0AD961FAEAD97AE965B
:1057F0001FAEAE9750E8AF965FAFAF978FE3E096DE
:105800008FAFE0970CC0AD961FAEAD97AE961FAEB2
:10581000AE97AF961FAEAF97E0961FAEE0976620AB
:1058200081F18E2D9F2DA02FB12FBC01CD01AD9602
:10583000FFADAD97AE96EFADAE97AF965FADAF97BC
:10584000E0964FADE0970F2F1E2F252F342FA90183
:1058500098010E94462E8823A1F4CF55DF4F18826D
:10586000C15AD040CE55DF4F1882C25AD040CD55D4
:10587000DF4F1882C35AD040CC55DF4F1882C45A2C
:10588000D040CF55DF4F5881C15AD040CE55DF4F61
:105890004881C25AD040CD55DF4F3881C35AD040DD
:1058A000CC55DF4F2881C45AD040852F942FA32F89
:1058B000B22FBC01CD012AE037ED43E25CE30E9448
:1058C000F12F9B01AC0160919E0470919F04809127
:1058D000A0049091A1040E94692DDC01CB0180936A
:1058E0009E0490939F04A093A004B093A1049920D8
:1058F00011F081E026C0A10139A12AA1852F922DA6
:10590000A32FB22FBC01CD0120E030E0A9010E94FD
:10591000462E87FF02C08FEF14C0A10139A12AA132
:10592000852F922DA32FB22FBC01CD0120E030E0B6
:10593000A9010E94462E882319F41092AE0403C0D8
:1059400082E08093AE04C355DF4F5881CD5AD040DA
:10595000C255DF4F4881CE5AD040C155DF4F388104
:10596000CF5AD040C055DF4F2881C05BD040852F33
:10597000942FA32FB22F8093A2049093A304A093FB
:10598000A404B093A5048091610590916205A09153
:105990006305B09164058093A6049093A704A09337
:1059A000A804B093A904809168058F5F809368056F
:1059B0008A3010F010926805CE54DF4F0FB6F8947D
:1059C000DEBF0FBECDBFDF91CF911F910F91FF9032
:1059D000EF90DF90CF90BF90AF909F908F907F908F
:1059E0006F905F904F903F902F900895AF92BF922D
:1059F000CF92DF92EF92FF920F931F93CF93DF939B
:105A00005C018B0169017A01FB01C081DC2FD3703D
:105A1000CA01B90120E030E0A9010E94E62F181662
:105A200064F0C701B60120E030E0A9010E94462ED3
:105A3000881F8827881F880F01C081E0ED2FF0E0C4
:105A4000EE0FFF1FEE0FFF1FE80FF11DE554FE4F95
:105A500090810894A11CB11CF3E0AF16B10428F4A6
:105A6000F501E553FE4F208101C020E0292349F0D4
:105A7000C695C695C1FF02C092FD03C0C4FF02C017
:105A800095FD90E0292F220F220F282BF80120836B
:105A9000892F90E09C01287330702115310559F44D
:105AA0009C012770307081E090E02115310529F4C8
:105AB00080E090E002C08FEF9FEFDF91CF911F91C8
:105AC0000F91FF90EF90DF90CF90BF90AF9008952F
:105AD0005058BB27AA270ED03FC230D230F035D263
