:100000000C9433020C94462A0C94802A0C94BA2A3D
:100010000C94F42A0C942E2B0C94682B0C94A22B89
:100020000C94DC2B0C9466020C9466020C94660211
:100030000C9466020C9466020C9466020C946602A0
:100040000C9466020C9449070C9466020C946602A8
:100050000C9466020C9466020C9466020C941D2C9F
:100060000C9466020C94DC210C9420230C94660200
:100070000C9466020C9466020C9466020C94660260
:100080000C947F070C9466020C9466020C94660232
:100090000C942D220C9478230C9466020C942E0F51
:1000A0000C9466020C9466020C94B5070C946602DC
:1000B0000C9466020C9466020C9466020C94EB0796
:1000C0000C9466020C9466020C9466020C947E22D8
:1000D0000C94D0230C9466020C94CF220C94282408
:1000E0000C946602731078107810781078107810DD
:1000F00078107810650F78107810781078107810D4
:1001000078107810650F78107810781078107810C3
:10011000781078106F0F78107810781078107810A9
:10012000781078109B0F781078107810781078106D
:10013000781078106F0F7810781078107810781089
:1001400078107810A10F7810781078107810781047
:1001500078107810A70F7810781078107810781031
:1001600078107810BD0F781078107810781078100B
:1001700078107810ED0F78107810781078107810CB
:1001800078107810AD0F78107810781078107810FB
:1001900078107810CB0F78107810781078107810CD
:1001A00078107810F00F7810781078107810781098
:1001B00078107810F00F7810781078107810781088
:1001C00078107810F00F7810781078107810781078
:1001D00078107810F00F7810781078107810781068
:1001E00078107810F90F781078107810781078104F
:1001F0007810781035107810781078107810781002
:1002000078107810F90F781078107810781078102E
:1002100078107810351078107810781078107810E1
:1002200078107810151078107810781078107810F1
:1002300078107810391078107810781078107810BD
:1002400078107810391078107810781078107810AD
:10025000781078104F107810781078107810781087
:10026000781078106D107810781078107810781059
:10027000781078106D107810781078107810781049
:10028000781078107810781078107810781078102E
:10029000781078107810781078107810781078101E
:1002A000781078107810781078107810781078100E
:1002B00078107810781078107810781078107810FE
:1002C00078107810781078107810781078107810EE
:1002D000781078107810036EDB363D9A9999993D25
:1002E000ABAAAA2A3E000000803F084AD73B3BCE7B
:1002F000016E84BCBFFDC12F3D6C74319ABD568325
:100300003DDA3D00C77F11BED9E4BB4C3E916BAADC
:10031000AABE000000803F072C7AA5BA6CC590DA0F
:100320003B9365FC8BBC53F810FD3C5692834DBD4E
:10033000879D3AB63DCBC9BF5BBE73DA0FC93F009C
:10034000002100240027002A002D00300033000186
:10035000010000040107010A010000220025002815
:10036000002B002E003100340002010000050108BE
:10037000010B01000020002300260029002C002F83
:100380000032000001000003010601090105050516
:1003900005070508080808020202020A0A080804FC
:1003A000040404010101010101010103030303032A
:1003B000030303040707070C0C0C0C0C0C0C0C02B9
:1003C00002020206060606060606060B0B0B0B0BC0
:1003D0000B0B0B01021020200808102040102040B9
:1003E00080020102010804020101020408102040F9
:1003F0008080402010080402018004020180402017
:10040000100804020108040201010204081020403F
:100410008001020408102040800000090A02080B35
:100420000C0D07060304010000000000000000009E
:1004300000000000000000000000000000000000BC
:10044000000000000011100F00000000000000007C
:10045000000000000000000000000000000000009C
:10046000330D8A21CE2811241FBECFEFD1E2DEBF8B
:10047000CDBF00E00CBF12E0A0E0B2E0E4E0FDE898
:1004800000E00BBF02C007900D92A835B107D9F765
:100490001BBE19E0A8E5B2E001C01D92A631B1076C
:1004A000E1F714E0C6E6D4E000E006C022970109B7
:1004B000FE010BBF0E947C46C036D10780E00807D2
:1004C000A9F71BBE0E948E100C9480460C9400006D
:1004D0000F931F93CF93DF9300D000D0CDB7DEB73B
:1004E00089836A835C834B833E832D832B813C818C
:1004F000ED81FE8189816A8141E08F010E948B023A
:1005000026960FB6F894DEBF0FBECDBFDF91CF9118
:100510001F910F9108950F931F93CF93DF93CDB742
:10052000DEB72D970FB6F894DEBF0FBECDBF8F8319
:10053000688749873B872A871D870C8719820E9415
:100540008B2CDC01CB018B839C83AD83BE831A8211
:100550006CC087E393E06F810E94590B87E393E0BF
:1005600068850E94A90B87E393E00E94970B87E3BD
:1005700093E06F810E94590B8985282F30E08A8192
:10058000882F90E0A901481B590BCA0181329105BF
:1005900014F080E290E0282F87E393E06F81422FF0
:1005A0000E94410B12C08981992787FD90952A8569
:1005B0003B858901080F191F87E393E00E94490CCE
:1005C000F801808389818F5F898387E393E00E94AC
:1005D000300C0097E1F08C859D850097B1F00E946A
:1005E0008B2C9B01AC018B819C81AD81BE81281B32
:1005F000390B4A0B5B0B8C859D85CC01A0E0B0E0EC
:10060000281739074A075B0710F481E001C080E032
:10061000882349F687E393E00E94970B898581320E
:1006200008F080E29A81890F8A8381E02A81998586
:10063000291708F080E0882309F08BCF8C859D85F1
:10064000009719F10E948B2C9B01AC018B819C813E
:10065000AD81BE81281B390B4A0B5B0B8C859D85B8
:10066000CC01A0E0B0E0281739074A075B0768F023
:100670008981282F332727FD30958985882F90E0A1
:100680002817390714F481E001C080E0882311F0B5
:100690008FEF898389812D960FB6F894DEBF0FBE48
:1006A000CDBFDF91CF911F910F910895CF93DF932D
:1006B00000D00F920F92CDB7DEB78A836B834C8345
:1006C0002D8320911302309114028A816B81AE0137
:1006D0004F5F5F4F0E9468028D81882379F08C8183
:1006E000282F30E081E090E0022E02C0880F991F91
:1006F0000A94E2F7982F8981892B0EC08C81282FCC
:1007000030E081E090E002C0880F991F2A95E2F75F
:10071000982F909589818923898399818A816B811A
:10072000492F0E9410040F900F900F900F900F9080
:10073000DF91CF9108950F93CF93DF93CDB7DEB7BD
:1007400027970FB6F894DEBF0FBECDBF8B836C83A7
:100750004D832E830F832091130230911402AE013A
:100760004E5F5F4F8B816C810E946802982F81E001
:10077000992309F480E0882309F447C08E81282F4B
:1007800030E081E090E002C0880F991F2A95E2F7DF
:1007900001972D81422F50E02E81222F30E0BA01A7
:1007A000621B730B9B012F5F3F4F02C0880F991F85
:1007B0002A95E2F789838F81882F90E02D81422F3F
:1007C00050E02E81222F30E0BA01621B730B9B0197
:1007D0002F5F3F4F02C0880F991F2A95E2F78F8342
:1007E0009F81898189238F8389818095982F8A8130
:1007F00089238A839A818F81892B8A839A818B812D
:100800006C81492F0E94100401C080E027960FB62A
:10081000F894DEBF0FBECDBFDF91CF910F91089549
:10082000CF93DF9300D0CDB7DEB789836A834B8344
:100830009E012D5F3F4F89816A8141E00E9426041D
:100840000F900F900F90DF91CF910895CF93DF938A
:10085000CDB7DEB727970FB6F894DEBF0FBECDBF7A
:100860008B836C834D833F832E831A8287E393E0CF
:100870006B810E94590B87E393E06C810E94A90B66
:10088000198211C08981882F90E02E813F81820FCB
:10089000931FFC01208187E393E0622F0E94A90B44
:1008A00089818F5F898381E029819D81291708F0E3
:1008B00080E0882339F787E393E00E94970B8A83CF
:1008C00081E09A81992309F080E027960FB6F89489
:1008D000DEBF0FBECDBFDF91CF910895CF93DF93E1
:1008E0000F920F92CDB7DEB79A83898389819A815F
:1008F00028E6FC0120830F900F90DF91CF9108959F
:10090000CF93DF9300D0CDB7DEB79A8389836B8313
:1009100089819A81FC01808169E14B810E941004E8
:100920000F900F900F90DF91CF9108950F93CF9379
:10093000DF9300D0CDB7DEB79A8389836B8389813B
:100940009A81FC0180816AE142E023E00B810E94F0
:100950009B030F900F900F90DF91CF910F9108950F
:100960000F93CF93DF9300D0CDB7DEB79A838983FF
:100970006B8389819A81FC0180816BE144E022E0F4
:100980000B810E949B030F900F900F90DF91CF91EE
:100990000F9108950F93CF93DF9300D0CDB7DEB7BB
:1009A0009A8389836B8389819A81FC0180816CE1C0
:1009B00044E022E00B810E949B030F900F900F9068
:1009C000DF91CF910F910895CF92DF92EF92FF9236
:1009D0000F931F93CF93DF93CDB7DEB72E970FB64C
:1009E000F894DEBF0FBECDBF9A8389837C836B836F
:1009F0005E834D8338872F831A870987FC86EB86B1
:100A0000DE86CD8689819A81FC01408189819A8127
:100A10009C012F5F3F4FE0911302F0911402842F4D
:100A20006BE34EE08F010E948B0289819A81FC0169
:100A30008181882F90E0382F222789819A81FC01BB
:100A40008281882F90E0282B392B8B819C81FC019F
:100A50003183208389819A81FC018381882F90E0F2
:100A6000382F222789819A81FC018481882F90E088
:100A7000282B392B8D819E81FC0131832083898134
:100A80009A81FC018581882F90E0382F2227898167
:100A90009A81FC018681882F90E0282B392B8F8149
:100AA0009885FC013183208389819A81FC018185AD
:100AB000882F90E0382F222789819A81FC01828536
:100AC000882F90E0282B392B89859A85FC0131836A
:100AD000208389819A81FC018385882F90E0382FBB
:100AE000222789819A81FC018485882F90E0282B18
:100AF000392B8B859C85FC013183208389819A81E8
:100B0000FC018585882F90E0382F222789819A81E2
:100B1000FC018685882F90E0282B392B8D859E85BA
:100B2000FC01318320832E960FB6F894DEBF0FBEF2
:100B3000CDBFDF91CF911F910F91FF90EF90DF908C
:100B4000CF900895CF93DF9300D0CDB7DEB79A83CF
:100B500089836B8389819A81FC0180819B816BE60B
:100B600046E0292F0E9456030F900F900F90DF91BF
:100B7000CF9108950F93CF93DF9300D0CDB7DEB719
:100B80009A8389836B8389819A81FC0180816BE6DA
:100B900042E023E00B810E949B030F900F900F9087
:100BA000DF91CF910F910895CF93DF9300D000D0C4
:100BB000CDB7DEB79A8389837C836B835E834D8355
:100BC00089819A8188519D4FFC018081881F8827E7
:100BD000881F882331F08B819C81FC011182108257
:100BE0006EC029813A81C901880F991F820F931F16
:100BF000880F991F880F991F9C0189819A818851BC
:100C00009D4FFC018081992787FD9095280F391F02
:100C10008091EC02882F90E0281739074CF5298144
:100C20003A81C901880F991F820F931F880F991F5E
:100C3000880F991F9C0189819A8188519D4FFC01E1
:100C40008081992787FD9095280F391FC901880F4A
:100C5000991F820F931F885A9D4FFC0180818295B6
:100C60008695869583708170813011F481E001C092
:100C700080E0882321F129813A81C901880F991FD9
:100C8000820F931F880F991F880F991F9C018981DC
:100C90009A8188519D4FFC018081992787FD90950D
:100CA000280F391FC901880F991F820F931F885A77
:100CB0009D4FFC0180818F7360E00E94F22F89813B
:100CC0009A819C0128513D4FF90120812F5F885165
:100CD0009D4FFC01208329813A81C901880F991F0A
:100CE000820F931F880F991F880F991F9C0189817C
:100CF0009A8188519D4FFC018081992787FD9095AD
:100D0000280F391F8091EC02882F90E028173907AF
:100D100054F489819A8188519D4FFC0180818C30E7
:100D200014F481E001C080E0882309F47FC08B8146
:100D30009C81FC014081518129813A81C901880F40
:100D4000991F820F931F880F991F880F991F9C016D
:100D500089819A8188519D4FFC018081992787FD67
:100D60009095280F391FC901880F991F820F931F73
:100D7000875A9D4FFC01808191819A01280F391F6C
:100D80008D819E81FC013183208329813A81C901B3
:100D9000880F991F820F931F880F991F880F991F23
:100DA0009C0189819A8188519D4FFC0180819927FE
:100DB00087FD9095280F391FC901880F991F820F51
:100DC000931F885A9D4FFC01808182958695869558
:100DD0008370817091E0813009F090E0992309F4EB
:100DE0004FC029813A81C901880F991F820F931F33
:100DF000880F991F880F991F9C0189819A818851BA
:100E00009D4FFC018081992787FD9095280F391F00
:100E1000C901880F991F820F931F885A9D4FFC01AB
:100E200080818F7361E00E94F22F2AC08B819C81A8
:100E3000FC0180819181049621E0F3E188389F07CD
:100E400008F020E0222341F08D819E8128E833E1E3
:100E5000FC01318320830DC08B819C81FC0180814A
:100E600091819C012C5F3F4F8D819E81FC013183DC
:100E7000208389819A8188519D4F2FEFFC01208327
:100E800026960FB6F894DEBF0FBECDBFDF91CF918F
:100E900008951F920F920FB60F9200905B000F9271
:100EA00011242F933F934F935F936F937F938F936F
:100EB0009F93AF93BF93EF93FF93CF93DF93CDB700
:100EC000DEB781E090E064E870E048E850E00E941E
:100ED000D405DF91CF91FF91EF91BF91AF919F9199
:100EE0008F917F916F915F914F913F912F910F90D3
:100EF00000925B000F900FBE0F901F9018951F92ED
:100F00000F920FB60F9200905B000F9211242F9357
:100F10003F934F935F936F937F938F939F93AF9381
:100F2000BF93EF93FF93CF93DF93CDB7DEB782E00C
:100F300090E064E970E048E950E00E94D405DF9158
:100F4000CF91FF91EF91BF91AF919F918F917F9141
:100F50006F915F914F913F912F910F9000925B00A5
:100F60000F900FBE0F901F9018951F920F920FB603
:100F70000F9200905B000F9211242F933F934F9399
:100F80005F936F937F938F939F93AF93BF93EF93F1
:100F9000FF93CF93DF93CDB7DEB783E090E064EAB1
:100FA00070E048EA50E00E94D405DF91CF91FF91B4
:100FB000EF91BF91AF919F918F917F916F915F91D1
:100FC0004F913F912F910F9000925B000F900FBEB9
:100FD0000F901F9018951F920F920FB60F920090CE
:100FE0005B000F9211242F933F934F935F936F9366
:100FF0007F938F939F93AF93BF93EF93FF93CF9381
:10100000DF93CDB7DEB780E090E064E271E048E2C4
:1010100051E00E94D405DF91CF91FF91EF91BF91F4
:10102000AF919F918F917F916F915F914F913F9180
:101030002F910F9000925B000F900FBE0F901F90AA
:101040001895CF93DF930F920F92CDB7DEB79A83A7
:10105000898389819A818130910501F580E890E04A
:10106000FC01108281E890E022E0FC01208384E80A
:1010700090E0FC011182108286E390E026E330E0EC
:10108000F90120812260FC0120838FE690E02FE6A9
:1010900030E0F90120812260FC01208389819A815E
:1010A00082309105C1F480E990E0FC01108281E971
:1010B00090E022E0FC01208384E990E0FC011182B1
:1010C000108288E390E022E0FC01208381E790E039
:1010D00022E0FC01208389819A8183309105C1F44B
:1010E00080EA90E0FC01108281EA90E022E0FC01BD
:1010F000208384EA90E0FC011182108289E390E071
:1011000022E0FC01208382E790E022E0FC012083C2
:1011100089819A810097C1F480E291E0FC011082FC
:1011200081E291E022E0FC01208384E291E0FC0175
:10113000118210828AE390E022E0FC01208383E7A1
:1011400090E022E0FC0120830F900F90DF91CF917F
:101150000895CF93DF9300D0CDB7DEB79B838A830A
:10116000198226C02A813B81C901880F991F820FED
:10117000931F880F991F880F991F9C018981882FC1
:1011800090E0280F391FC901880F991F820F931F04
:10119000885A9D4FFC018081829586958695837043
:1011A0008170813011F481E00BC089818F5F898368
:1011B00081E099819C3008F080E0882399F680E0F6
:1011C0000F900F900F90DF91CF910895CF93DF9301
:1011D0000F920F92CDB7DEB79A8389838091EC028C
:1011E0008033E8F42091EC0289819A81FC0120830C
:1011F000822F8F5F8093EC0289819A81FC0180812C
:10120000282F30E0C901880F991F820F931F875A3A
:101210009D4F28EB3BE0FC013183208305C0898191
:101220009A812FEFFC0120830F900F90DF91CF91D7
:101230000895CF93DF93CDB7DEB72A970FB6F89412
:10124000DEBF0FBECDBF9C838B837E836D835887AB
:101250004F833A8729878B819C81FC018081803371
:1012600008F071C08D8161E00E94362E8B819C81D7
:10127000FC018081282F30E08D81482F4F73C901F8
:10128000880F991F820F931F885A9D4F242F2F7309
:10129000FC013081307C232BFC0120832CEB32E0DD
:1012A0008F819885A901481B590BCA0199230CF419
:1012B00003969595879595958795282F8B819C8189
:1012C000FC0121832CEF38E089859A85A901481B10
:1012D000590BCA0199230CF403969595879595951A
:1012E0008795282F8B819C81FC0122838B819C8197
:1012F000FC0180819CE0692F0E943346882F90E09A
:101300009A83898389819A810E94A908982F81E014
:10131000992309F080E0882321F089819A810E9435
:1013200021088B819C81FC018081282F30E0C9013C
:10133000880F991F820F931F885A9D4FFC012081AF
:101340002064FC0120838B819C81FC0180812A9692
:101350000FB6F894DEBF0FBECDBFDF91CF910895D9
:10136000CF93DF9300D000D0CDB7DEB79C838B83C3
:101370007E836D838B819C81FC018081898389813F
:10138000803308F096C08B819C81FC018181992774
:1013900087FD90952FEA30E0A901481B590BCA013F
:1013A0009C01220F331F220F331F8D819E818217D4
:1013B0009307A4F48B819C81FC018181992787FD8F
:1013C00090952FEA30E0A901481B590BCA01880FFC
:1013D000991F880F991F9E838D832AC08B819C81C2
:1013E000FC018281992787FD90952FE332E0A901C6
:1013F000481B590BCA019C01220F331F220F331FB8
:101400008D819E81281739079CF48B819C81FC017A
:101410008281992787FD90952FE332E0A901481B2F
:10142000590BCA01880F991F880F991F9E838D83BE
:101430008D819E8102979E838D838D819E81AA27B7
:1014400097FDA095BA2F880F991FAA1FBB1F880F61
:10145000991FAA1FBB1F880F991FAA1FBB1F880FA8
:10146000991FAA1FBB1F28E030E040E050E0BC01FC
:10147000CD010E946146DA01C9019E838D838FE50B
:1014800090E0FC0180818A83F8948981282F30E0E4
:101490004D815E81C901880F991F820F931F875A62
:1014A0009D4FFC01518340838FE590E02A81FC0130
:1014B000208326960FB6F894DEBF0FBECDBFDF9116
:1014C000CF910895CF93DF9300D00F92CDB7DEB7C1
:1014D0009A8389837C836B8389819A812B813C8168
:1014E000FC01338322830F900F900F900F90DF91B8
:1014F000CF910895CF93DF930F920F92CDB7DEB7C0
:101500009A83898389819A8121E532E0FC013183C4
:10151000208389819A81FC01138212820F900F909F
:10152000DF91CF910895CF93DF930F920F92CDB7B4
:10153000DEB79A83898389819A810E947A0A898198
:101540009A812FE232E0FC013183208329813A81A4
:1015500088EE93E0A0E0B0E0F90184839583A68350
:10156000B7830F900F90DF91CF910895CF93DF93C2
:101570000F920F92CDB7DEB79A83898389819A81C2
:101580000E94930A89819A812FE132E0FC01318324
:1015900020830F900F90DF91CF910895CF93DF9329
:1015A0000F920F92CDB7DEB79A83898310920D0305
:1015B00010920E0310923003109231030E94400DDE
:1015C0000F900F90DF91CF910895CF93DF9300D0CC
:1015D000CDB7DEB79A8389836B838B810E94740DAC
:1015E0008AEF9CE00E94DA0E89EA9CE00E94C70E16
:1015F00089819A810E94CE0A0F900F900F90DF91FF
:10160000CF910895CF93DF9300D00F92CDB7DEB77F
:101610009A8389837C836B832B8189819A81622F52
:101620000E94E50A0F900F900F900F90DF91CF91DD
:101630000895CF93DF9300D000D0CDB7DEB79B8362
:101640008A836C834D832E838D81813210F080E2FA
:101650008D832DEE32E08C81B9014D812E810E9467
:10166000840D898310920D03898180930E038981F3
:1016700026960FB6F894DEBF0FBECDBFDF91CF9197
:101680000895CF93DF9300D00F92CDB7DEB79A8342
:1016900089836B834C8389819A816B814C8121E0A2
:1016A0000E94190B0F900F900F900F90DF91CF9128
:1016B0000895CF93DF9300D0CDB7DEB79A838983A7
:1016C0006B8381E0809332038B8180930F031092B0
:1016D0003003109231030F900F900F90DF91CF9154
:1016E00008950F93CF93DF9300D00F92CDB7DEB75D
:1016F0009B838A836C8380910F039091310320E157
:1017000033E0B901492F21E00C810E94010E898349
:1017100010923003109231031092320389810F909E
:101720000F900F900F90DF91CF910F910895CF936D
:10173000DF930F920F92CDB7DEB79A8389838981A9
:101740009A8161E00E94710B0F900F90DF91CF9111
:101750000895CF93DF9300D0CDB7DEB79A83898306
:101760006B8380913203882301F1809131038032B1
:1017700048F089819A8161E070E00E94620A80E00D
:1017800090E01AC080913003882F90E02B81805F19
:101790009C4FFC012083809130038F5F8093300346
:1017A000809130038093310305C0CE01039661E040
:1017B0000E948F0E81E090E00F900F900F90DF91CC
:1017C000CF910895CF93DF93CDB7DEB728970FB6AB
:1017D000F894DEBF0FBECDBF9C838B837E836D8369
:1017E00058874F8380913203882349F11A821982E6
:1017F0001AC08B819C81FC0180819181FC01208138
:1018000031814D815E8189819A81840F951FFC0110
:1018100040818B819C81642FF901199589819A817E
:1018200001969A83898341E029813A818F81988545
:101830002817390708F040E04423D9F606C02F8165
:101840008D819E81622F0E948F0E8F8198852896B0
:101850000FB6F894DEBF0FBECDBFDF91CF910895D4
:10186000CF93DF930F920F92CDB7DEB79A83898320
:1018700080910E03282F30E080910D03882F90E097
:10188000A901481B590BCA010F900F90DF91CF910E
:101890000895CF93DF9300D00F92CDB7DEB79C832E
:1018A0008B838FEF9FEF9A83898390910D038091B3
:1018B0000E03981788F480910D03882F90E08351D0
:1018C0009D4FFC018081882F90E09A8389838091CD
:1018D0000D038F5F80930D0389819A810F900F9084
:1018E0000F900F90DF91CF910895CF93DF9300D0A9
:1018F0000F92CDB7DEB79C838B838FEF9FEF9A83D8
:10190000898390910D0380910E03981760F4809164
:101910000D03882F90E083519D4FFC018081882F1B
:1019200090E09A83898389819A810F900F900F901C
:101930000F90DF91CF910895CF93DF930F920F9285
:10194000CDB7DEB79A8389830F900F90DF91CF9147
:101950000895CF93DF9300D00F920F92CDB7DEB7EB
:101960009B838A837D836C838091350390913603BA
:101970000097A9F190910D0380910E03981788F1BB
:10198000198213C08981882F90E02981222F30E0AD
:101990004A815B81240F351FF901208183519D4FBE
:1019A000FC01208389818F5F89838981282F30E022
:1019B00041E08C819D81281739070CF040E04423D9
:1019C00009F710920D038C8180930E03209135034B
:1019D000309136038C819D81F901199503C0000077
:1019E00001C000000F900F900F900F900F90DF91AB
:1019F000CF910895CF93DF93CDB7DEB780913303B6
:101A000090913403009759F01092300310923103F3
:101A10008091330390913403FC01199501C00000BB
:101A2000DF91CF910895CF93DF9300D00F92CDB780
:101A3000DEB79A8389837C836B8389819A81813025
:101A4000910551F48B819C812FEF8F3F920721F4F8
:101A500087E393E00E94B60A0F900F900F900F90CB
:101A6000DF91CF910895CF93DF93CDB7DEB781E0BB
:101A700090E06FEF7FEF0E94130DDF91CF910895FB
:101A8000CF93DF93CDB7DEB71092430381E080930D
:101A900045031092460380913B0261E00E94F22FC1
:101AA00080913C0261E00E94F22F89EB90E029EBEB
:101AB00030E0F90120812E7FFC01208389EB90E04A
:101AC00029EB30E0F90120812D7FFC01208388EB98
:101AD00090E02CE0FC0120838CEB90E025E4FC01FD
:101AE0002083DF91CF910895CF93DF930F92CDB7ED
:101AF000DEB789838AEB90E02981220FFC012083E5
:101B00000F90DF91CF910895CF93DF9300D000D055
:101B1000CDB7DEB78A837C836B834D832E838D8123
:101B2000813210F080E064C0000001C000008091AC
:101B300043038823D9F781E0809343038E81809308
:101B400045038FEF8093B00310926B038D8181501A
:101B500080936C0381E0809344038A81882F90E016
:101B6000880F991F982F80914403892B80934403F9
:101B700080914603813071F4109246038BEB90E024
:101B800020914403FC0120838CEB90E025ECFC01C8
:101B9000208305C08CEB90E025EEFC012083000043
:101BA00001C00000809143038130D9F390916B0311
:101BB0008D81981718F480916B038D83198213C05F
:101BC0008981882F90E02B813C81820F931F29818E
:101BD000222F30E0255B3C4FF9012081FC0120835E
:101BE00089818F5F898399818D81981748F38D81D1
:101BF00026960FB6F894DEBF0FBECDBFDF91CF9112
:101C000008950F93CF93DF93CDB7DEB727970FB625
:101C1000F894DEBF0FBECDBF8A837C836B834D8378
:101C20002E830F838D81813210F081E06EC0000021
:101C300001C00000809143038823D9F782E080939C
:101C400043038F81809345038FEF8093B0031092FD
:101C50006B038D8180936C03198213C08981882F57
:101C600090E02981222F30E04B815C81240F351FC9
:101C7000F9012081855B9C4FFC01208389818F5F66
:101C8000898399818D81981748F3109244038A8142
:101C9000882F90E0880F991F982F80914403892BFB
:101CA0008093440380914603813071F4109246037F
:101CB0008BEB90E020914403FC0120838CEB90E0BF
:101CC00025ECFC01208307C08CEB90E025EEFC01A5
:101CD000208301C000008E81882321F0809143037E
:101CE0008230C1F38091B0038F3F11F480E00DC0CA
:101CF0008091B003803211F482E007C08091B0037C
:101D0000803311F483E001C084E027960FB6F89485
:101D1000DEBF0FBECDBFDF91CF910F910895CF935E
:101D2000DF9300D00F92CDB7DEB79B838A836C839D
:101D30008C81813210F081E023C080914303843094
:101D400011F082E01DC08C8180938E03198213C034
:101D50008981882F90E02981222F30E04A815B81A0
:101D6000240F351FF901208183599C4FFC012083EA
:101D700089818F5F898399818C81981748F380E0EE
:101D80000F900F900F900F90DF91CF910895CF9308
:101D9000DF930F920F92CDB7DEB79A838983898143
:101DA0009A8190934A03809349030F900F90DF919B
:101DB000CF910895CF93DF930F920F92CDB7DEB7F7
:101DC0009A83898389819A819093480380934703FA
:101DD0000F900F90DF91CF910895CF93DF930F92E3
:101DE000CDB7DEB789838981882331F08CEB90E011
:101DF00025ECFC01208305C08CEB90E025E8FC017C
:101E000020830F90DF91CF910895CF93DF93CDB7CB
:101E1000DEB78CEB90E025EDFC012083000001C0D3
:101E200000008CEB90E0FC018081882F90E08071B5
:101E300090700097A9F710924303DF91CF91089516
:101E4000CF93DF93CDB7DEB78CEB90E025ECFC01B0
:101E5000208310924303DF91CF9108951F920F9238
:101E60000FB60F9200905B000F9211242F933F93B7
:101E70004F935F936F937F938F939F93AF93BF9392
:101E8000EF93FF93CF93DF93CDB7DEB789EB90E06D
:101E9000FC018081882F90E0887F9070AA2797FDB1
:101EA000A095BA2F40E050E028EF30E0841B950B5E
:101EB0002817390708F41CC18E589F4FFC01EE0FFC
:101EC000FF1F0590F491E02D19948BEB90E0209189
:101ED0004403FC01208381E00E94ED0E09C1909132
:101EE0006B0380916C039817A0F48BEB90E040910A
:101EF0006B03242F30E0255B3C4FF9012081FC016E
:101F00002083842F8F5F80936B0381E00E94ED0E0E
:101F1000EFC080914503882319F00E94050FE8C0A7
:101F200081E0809346038CEB90E024EAFC0120835F
:101F300010924303DDC080E28093B0030E94050F3E
:101F4000D7C080E38093B0030E94050FD1C088E31F
:101F50008093B0030E94200FCBC040916B03842F6D
:101F600090E02BEB30E0F9012081855B9C4FFC0178
:101F70002083842F8F5F80936B0390916B038091FC
:101F80006C03981720F481E00E94ED0EB1C080E050
:101F90000E94ED0EADC040916B03842F90E02BEBBF
:101FA00030E0F9012081855B9C4FFC012083842F68
:101FB0008F5F80936B0380914503882319F00E9403
:101FC000050F96C081E0809346038CEB90E024EAF5
:101FD000FC012083109243038BC00E94050F88C030
:101FE00083E0809343031092AF0381E00E94ED0EE3
:101FF0007FC08091AF038032A0F44091AF03842F63
:1020000090E02BEB30E0F901208181579C4FFC01DF
:102010002083842F8F5F8093AF0381E00E94ED0EB9
:1020200067C080E00E94ED0E63C08091AF038032F4
:1020300040F48091AF03882F90E081579C4FFC01C2
:1020400010820E94050F2091490330914A0380912C
:10205000AF03482F50E08FE893E0BA01F9011995DA
:102060001092AF030E94200F43C080E00E94ED0E4B
:102070003FC084E08093430310928D0310928E033F
:102080008091470390914803FC01199580918E033C
:10209000882329F481E080938E0310926D038BEBEB
:1020A00090E040918D03242F30E023593C4FF901FB
:1020B0002081FC012083842F8F5F80938D0390917A
:1020C0008D0380918E03981720F481E00E94ED0E1D
:1020D0000FC080E00E94ED0E0BC081E00E94ED0E6B
:1020E0001092430305C01092B0030E94050F000038
:1020F000DF91CF91FF91EF91BF91AF919F918F9120
:102100007F916F915F914F913F912F910F9000922E
:102110005B000F900FBE0F901F901895CF93DF9329
:10212000CDB7DEB70E94572D0E9499100E945E1213
:10213000FDCFCF93DF93CDB7DEB783E061E00E94A0
:10214000362E85E061E00E94362E86E061E00E9436
:10215000362E87E061E00E94362E8AE394E063E049
:1021600070E048EE53E02CE637E00E9419098DE359
:1021700094E065E070E048EE53E02CE637E00E9422
:10218000190980E494E066E070E048EE53E02CE644
:1021900037E00E94190983E494E067E070E048EEBC
:1021A00053E02CE637E00E9419098AE394E068EED8
:1021B00073E00E94B0098DE394E068EE73E00E9442
:1021C000B00980E494E068EE73E00E94B00983E413
:1021D00094E068EE73E00E94B00927EB37E180E0FD
:1021E000B90142E050E00E9422298AE696E040E0F0
:1021F00052EC61E070E00E9415258CE896E040E02A
:1022000052EC61E070E00E94152587E393E060E006
:1022100070E00E94020B8091190290911A0261E015
:102220000E94362E81EB93E060E00E94A20581EBD4
:1022300093E063E00E94B00461E070E080E090E031
:102240000E94152D81EB93E061E00E94CA0461E0D9
:1022500070E080E090E00E94152D81EB93E063E058
:102260000E94BA0561E070E080E090E00E94152DC8
:1022700081EB93E061E00E94800461E070E080E027
:1022800090E00E94152D81EB93E064E00E9496049B
:1022900061E070E080E090E00E94152D0E94371907
:1022A0000E948A418AE999E9A9E1BEE38093160870
:1022B00090931708A0931808B093190880E090E055
:1022C000DC0180933E0890933F08A0934008B093B0
:1022D00041088FE692E1A3E8BBE380934208909324
:1022E0004308A0934408B09345088AE999E9A9E115
:1022F000BEE38093520890935308A0935408B09380
:10230000550880E090E0DC018093560890935708D0
:10231000A0935808B09359088FE692E1A3E8BBE375
:1023200080935A0890935B08A0935C08B0935D0873
:102330008AE999E9A9E9BFE380931A0890931B08F9
:10234000A0931C08B0931D088DEC9CECACE4BEE39C
:1023500080934A0890934B08A0934C08B0934D0883
:1023600080E090E0A0E8BFEB809346089093470898
:10237000A0934808B093490880E090E0A0E8BFE34C
:1023800080934E0890934F08A0935008B093510843
:1023900080E090E0A4E3B2E480932E0890932F08AD
:1023A000A0933008B093310880E090E0A4E3B3E458
:1023B00080931E0890931F08A0932008B0932108D3
:1023C00080E090E0A6E1B3E4809322089093230894
:1023D000A0932408B093250880E090E0A0EDB0E43D
:1023E0008093260890932708A0932808B093290883
:1023F00080E090E0A0E8BFE380932A0890932B0848
:10240000A0932C08B0932D0880E090E0A0E8BFE3F3
:102410008093E4039093E503A093E603B093E7036E
:1024200080E090E0DC018093E8039093E903A093BF
:10243000EA03B093EB0380E090E0DC018093EC03CF
:102440009093ED03A093EE03B093EF0380E090E050
:10245000DC018093F0039093F103A093F203B09317
:10246000F3038FE692E1A3E8BAE38093F403909339
:10247000F503A093F603B093F70380E090E0A0EC9F
:10248000BFE38093F8039093F903A093FA03B0930A
:10249000FB030E94B72CDC01CB01809332049093A4
:1024A0003304A0933404B093350464E170E080E019
:1024B00090E00E94152DDF91CF910895EF92FF9249
:1024C0000F931F93CF93DF93CDB7DEB70E94B72C46
:1024D0009B01AC018091320490913304A0913404AB
:1024E000B091350479018A01E81AF90A0A0B1B0B2D
:1024F000D801C70121E0883803E1900700E0A00778
:1025000000E0B00708F420E0222309F44EC08091D7
:10251000320490913304A0913404B0913504809337
:10252000360490933704A0933804B09339040E9482
:10253000B72CDC01CB018093320490933304A09339
:102540003404B09335042091320430913304409127
:102550003404509135048091360490913704A09151
:102560003804B091390479018A01E81AF90A0A0B92
:102570001B0BD801C701BC01CD010E946A44DC01DC
:10258000CB01BC01CD0120E034E244E759E40E94D4
:10259000CF43DC01CB018093150290931602A093E8
:1025A0001702B09318020E94DC12DF91CF911F91A5
:1025B0000F91FF90EF9008952F923F924F925F926C
:1025C0006F927F928F929F92AF92BF92CF92DF9243
:1025D000EF92FF920F931F93CF93DF93CDB7DEB7A8
:1025E00028970FB6F894DEBF0FBECDBF0E94041827
:1025F0006090CC037090CD038090CE039090CF0379
:102600006D827E828F8298862091D0033091D10393
:102610004091D2035091D303E090D403F090D503BE
:102620000091D6031091D703A090D803B090D9039E
:10263000C090DA03D090DB036091DC037091DD037E
:102640008091DE039091DF0369837A838B839C837F
:102650002090E0033090E1034090E2035090E303C8
:1026600060901502709016028090170290901802E8
:102670008DB79EB70C970FB6F8949EBF0FBE8DBF57
:102680006DB77EB76F5F7F4F89819A81AB81BC81C7
:10269000FB0180839183A283B383DB0114962D9287
:1026A0003D924D925C921797FB01608671868286FF
:1026B00093866D817E818F8198850E94331A6DB7D4
:1026C0007EB7645F7F4F0FB6F8947EBF0FBE6DBFBD
:1026D0008091E4039091E503A091E603B091E703B4
:1026E0002091E8033091E9034091EA035091EB0314
:1026F000BC01CD010E947645DC01CB017C018D013E
:102700008091EC039091ED03A091EE03B091EF0363
:102710002091F0033091F1034091F2035091F303C3
:10272000BC01CD010E947645DC01CB019C01AD01CD
:10273000C801B7010E94EE42DC01CB019C01AD0152
:10274000CA01B9010E94EE42DC01CB017C018D017E
:102750008091E8039091E903A091EA03B091EB0323
:102760002091E8033091E9034091EA035091EB0393
:10277000BC01CD010E947645DC01CB015C016D01FD
:102780008091EC039091ED03A091EE03B091EF03E3
:102790002091EC033091ED034091EE035091EF0353
:1027A000BC01CD010E947645DC01CB019C01AD014D
:1027B000C601B5010E94EE42DC01CB019C01AD01D6
:1027C000CA01B9010E94EE42DC01CB019C01AD01BE
:1027D00060E070E080E89FE30E94ED42DC01CB0105
:1027E0009C01AD01C801B7010E947843DC01CB0117
:1027F0008093080490930904A0930A04B0930B04F7
:102800008091E4039091E503A091E603B091E70382
:102810002091EC033091ED034091EE035091EF03D2
:10282000BC01CD010E947645DC01CB017C018D010C
:102830008091F0039091F103A091F203B091F30322
:102840002091E8033091E9034091EA035091EB03B2
:10285000BC01CD010E947645DC01CB019C01AD019C
:10286000C801B7010E94ED42DC01CB019C01AD0122
:10287000CA01B9010E94EE42DC01CB01BC01CD01CD
:102880000E945243DC01CB01B05880930C0490931A
:102890000D04A0930E04B0930F048091E403909173
:1028A000E503A091E603B091E7032091F003309196
:1028B000F1034091F2035091F303BC01CD010E945A
:1028C0007645DC01CB017C018D018091E80390917C
:1028D000E903A091EA03B091EB032091EC0330915E
:1028E000ED034091EE035091EF03BC01CD010E9436
:1028F0007645DC01CB019C01AD01C801B7010E9406
:10290000EE42DC01CB019C01AD01CA01B9010E947C
:10291000EE42DC01CB017C018D018091EC039091B2
:10292000ED03A091EE03B091EF032091EC03309101
:10293000ED034091EE035091EF03BC01CD010E94E5
:102940007645DC01CB015C016D018091F003909133
:10295000F103A091F203B091F3032091F0033091C1
:10296000F1034091F2035091F303BC01CD010E94A9
:102970007645DC01CB019C01AD01C601B5010E9489
:10298000EE42DC01CB019C01AD01CA01B9010E94FC
:10299000EE42DC01CB019C01AD0160E070E080E81B
:1029A0009FE30E94ED42DC01CB019C01AD01C80117
:1029B000B7010E947843DC01CB01B058809310042A
:1029C00090931104A0931204B093130480912804EF
:1029D00090912904880F991F9C01220F331F220F09
:1029E000331F820F931FAA2797FDA095BA2FBC0112
:1029F000CD010E946A44DC01CB018093EA079093E9
:102A0000EB07A093EC07B093ED078091240490911D
:102A10002504880F991F9C01220F331F220F331F9B
:102A2000820F931FAA2797FDA095BA2FBC01CD0155
:102A30000E946A44DC01CB018093F2079093F30774
:102A4000A093F407B093F507809126049091270492
:102A5000880F991F9C01220F331F220F331F820FF3
:102A6000931FAA2797FDA095BA2FBC01CD010E9404
:102A70006A44DC01CB018093F6079093F707A0939B
:102A8000F807B093F90780912A0490912B04880FDE
:102A9000991F9C01220F331F220F331F820F931F98
:102AA000AA2797FDA095BA2FBC01CD010E946A44C8
:102AB000DC01CB018093FA079093FB07A093FC07FE
:102AC000B093FD0780912C0490912D04880F991FDD
:102AD0009C01220F331F220F331F820F931FAA273F
:102AE00097FDA095BA2FBC01CD010E946A44DC017C
:102AF000CB018093FE079093FF07A0930008B0934B
:102B000001088091DC039091DD03A091DE03B09178
:102B1000DF03209118043091190440911A04509158
:102B20001B04BC01CD010E94ED42DC01CB01B05879
:102B30008093DE079093DF07A093E007B093E1074F
:102B40008091D8039091D903A091DA03B091DB036F
:102B500020911404309115044091160450911704EB
:102B6000BC01CD010E94ED42DC01CB018093E20764
:102B70009093E307A093E407B093E5078091E00307
:102B80009091E103A091E203B091E30320911C0432
:102B900030911D0440911E0450911F04BC01CD01D1
:102BA0000E94ED42DC01CB018093E6079093E7079A
:102BB000A093E807B093E90780910C0490910D046D
:102BC000A0910E04B0910F0480930A0890930B0813
:102BD000A0930C08B0930D0880910804909109040B
:102BE000A0910A04B0910B0480930E0890930F08F3
:102BF000A0931008B09311088091100490911104D3
:102C0000A0911204B09113048093120890931308BA
:102C1000A0931408B09315080E9484308091370760
:102C200090913807A0913907B0913A07BC01CD01C6
:102C300020E030E040E251E40E94CF43DC01CB01D0
:102C400011E0BC01CD0120E030E04AE754E40E94ED
:102C5000CB4388230CF010E0112319F028EE33E069
:102C60003CC08091370790913807A0913907B09107
:102C70003A07BC01CD0120E030E040E251E40E947F
:102C8000CF43DC01CB0111E0BC01CD0120E030E8F5
:102C90004DEE54E40E946B4518160CF010E0112321
:102CA00019F08CE697E018C08091370790913807AB
:102CB000A0913907B0913A07BC01CD0120E030E086
:102CC00040E251E40E94CF43DC01CB01BC01CD01C5
:102CD0000E943744DC01CB019C018DE394E0B901F3
:102CE0000E94B00980912F0790913007A091310781
:102CF000B0913207BC01CD0120E030E040E251E468
:102D00000E94CF43DC01CB0111E0BC01CD0120E0EA
:102D100030E04AE754E40E94CB4388230CF010E0F3
:102D2000112319F028EE33E03CC080912F079091D9
:102D30003007A0913107B0913207BC01CD0120E0EE
:102D400030E040E251E40E94CF43DC01CB0111E0CE
:102D5000BC01CD0120E030E84DEE54E40E946B450B
:102D600018160CF010E0112319F08CE697E018C04B
:102D700080912F0790913007A0913107B0913207D1
:102D8000BC01CD0120E030E040E251E40E94CF439D
:102D9000DC01CB01BC01CD010E943744DC01CB0139
:102DA0009C018AE394E0B9010E94B00980913B073D
:102DB00090913C07A0913D07B0913E07BC01CD0129
:102DC00020E030E040E251E40E94CF43DC01CB013F
:102DD00011E0BC01CD0120E030E04AE754E40E945C
:102DE000CB4388230CF010E0112319F028EE33E0D8
:102DF0003CC080913B0790913C07A0913D07B0916A
:102E00003E07BC01CD0120E030E040E251E40E94E9
:102E1000CF43DC01CB0111E0BC01CD0120E030E863
:102E20004DEE54E40E946B4518160CF010E011238F
:102E300019F08CE697E018C080913B0790913C0711
:102E4000A0913D07B0913E07BC01CD0120E030E0EC
:102E500040E251E40E94CF43DC01CB01BC01CD0133
:102E60000E943744DC01CB019C0180E494E0B9016D
:102E70000E94B0098091330790913407A0913507E3
:102E8000B0913607BC01CD0120E030E040E251E4D2
:102E90000E94CF43DC01CB0111E0BC01CD0120E059
:102EA00030E04AE754E40E94CB4388230CF010E062
:102EB000112319F028EE33E03CC080913307909144
:102EC0003407A0913507B0913607BC01CD0120E051
:102ED00030E040E251E40E94CF43DC01CB0111E03D
:102EE000BC01CD0120E030E84DEE54E40E946B457A
:102EF00018160CF010E0112319F08CE697E018C0BA
:102F00008091330790913407A0913507B09136072F
:102F1000BC01CD0120E030E040E251E40E94CF430B
:102F2000DC01CB01BC01CD010E943744DC01CB01A7
:102F30009C0183E494E0B9010E94B00928960FB681
:102F4000F894DEBF0FBECDBFDF91CF911F910F91DF
:102F5000FF90EF90DF90CF90BF90AF909F908F90B9
:102F60007F906F905F904F903F902F900895CF93F8
:102F7000DF93CDB7DEB70E94B72CDC01CB019C01FB
:102F80008091200490912104A0912204B091230407
:102F9000A901481B590BCA0190934704809346042A
:102FA0000E94B72CDC01CB01809320049093210474
:102FB000A0932204B0932304809146049091470487
:102FC00057E0813D950728F010924904109248047B
:102FD00018C0809148049091490420914604309192
:102FE0004704880F991F8C5D9B4FFC013183208320
:102FF00080914804909149040196909349048093EC
:103000004804DF91CF910895CF92DF92EF92FF9223
:103010000F931F93CF93DF93CDB7DEB781EB93E090
:1030200060EC73E042EC53E024EC33E006EC13E098
:10303000A8ECB3E0EAECF3E07D016F010E94E40448
:103040008091C0039091C103AA2797FDA095BA2F44
:10305000BC01CD010E946A44DC01CB018093CC030A
:103060009093CD03A093CE03B093CF038091C2037E
:103070009091C303AA2797FDA095BA2FBC01CD015B
:103080000E946A44DC01CB018093D0039093D1036A
:10309000A093D203B093D3038091C4039091C5034E
:1030A000AA2797FDA095BA2FBC01CD010E946A44C2
:1030B000DC01CB018093D4039093D503A093D60376
:1030C000B093D7038091C6039091C703AA2797FDB9
:1030D000A095BA2FBC01CD010E946A44DC01CB014E
:1030E0008093D8039093D903A093DA03B093DB03C2
:1030F0008091C8039091C903AA2797FDA095BA2F84
:10310000BC01CD010E946A44DC01CB018093DC0349
:103110009093DD03A093DE03B093DF038091CA0395
:103120009091CB03AA2797FDA095BA2FBC01CD01A2
:103130000E946A44DC01CB018093E0039093E10399
:10314000A093E203B093E3038091D8039091D90355
:10315000A091DA03B091DB03BC01CD0120E030E0A7
:103160004AEF54E40E947645DC01CB01BC01CD015D
:1031700020E030E040E057E40E94CF43DC01CB0187
:10318000BC01CD0129E23CE54FE85CE30E947645B5
:10319000DC01CB018093D8039093D903A093DA0389
:1031A000B093DB038091DC039091DD03A091DE03FB
:1031B000B091DF03BC01CD0120E030E04AEF54E4E0
:1031C0000E947645DC01CB01BC01CD0120E030E05E
:1031D00040E057E40E94CF43DC01CB01BC01CD01AC
:1031E00029E23CE54FE85CE30E947645DC01CB0137
:1031F0008093DC039093DD03A093DE03B093DF03A1
:103200008091E0039091E103A091E203B091E30388
:10321000BC01CD0120E030E04AEF54E40E94764545
:10322000DC01CB01BC01CD0120E030E040E057E4FF
:103230000E94CF43DC01CB01BC01CD0129E23CE57A
:103240004FE85CE30E947645DC01CB018093E0030C
:103250009093E103A093E203B093E303DF91CF9156
:103260001F910F91FF90EF90DF90CF900895CF9333
:10327000DF9300D00F92CDB7DEB71A82198221C03A
:103280008091190290911A0261E00E94F22F68EC7D
:1032900070E080E090E00E94152D0E94041880915B
:1032A000190290911A0260E00E94F22F68EC70E01F
:1032B00080E090E00E94152D89819A8101969A8381
:1032C000898321E089819A818A3091050CF020E080
:1032D0002223B1F61C821B8267C00E9404188091D1
:1032E000140490911504A0911604B0911704209134
:1032F000D8033091D9034091DA035091DB03BC012C
:10330000CD010E94EE42DC01CB0180931404909326
:103310001504A0931604B09317048091180490919B
:103320001904A0911A04B0911B042091DC03309180
:10333000DD034091DE035091DF03BC01CD010E940B
:10334000EE42DC01CB018093180490931904A09302
:103350001A04B0931B0480911C0490911D04A09149
:103360001E04B0911F042091E0033091E1034091CD
:10337000E2035091E303BC01CD010E94EE42DC0167
:10338000CB0180931C0490931D04A0931E04B09362
:103390001F046AE070E080E090E00E94152D8B81B0
:1033A0009C8101969C838B8321E08B819C81843658
:1033B00091050CF020E0222309F08FCF80911404B6
:1033C00090911504A0911604B0911704BC01CD0191
:1033D00020E030E048EC52E40E94CF43DC01CB0116
:1033E0008093140490931504A0931604B0931704CB
:1033F0008091180490911904A0911A04B0911B04B3
:10340000BC01CD0120E030E048EC52E40E94CF4303
:10341000DC01CB018093180490931904A0931A0443
:10342000B0931B0480911C0490911D04A0911E0474
:10343000B0911F04BC01CD0120E030E048EC52E423
:103440000E94CF43DC01CB0180931C0490931D04A8
:10345000A0931E04B0931F040F900F900F900F9035
:10346000DF91CF910895AF92BF92CF92DF92EF920A
:10347000FF920F931F93CF93DF93CDB7DEB7E897FB
:103480000FB6F894DEBF0FBECDBF69A77AA78BA792
:103490009CA72DA73EA74FA758ABE9AAFAAA0BAB4A
:1034A0001CABADAABEAACFAAD8AE2091140430910D
:1034B000150440911604509117046DA97EA98FA997
:1034C00098AD0E94ED42DC01CB018DAB9EABAFAB62
:1034D000B8AF209118043091190440911A0450910A
:1034E0001B042A966CAD7DAD8EAD9FAD2A970E94D0
:1034F000ED42DC01CB012A968CAF9DAFAEAFBFAFE2
:103500002A9720911C0430911D0440911E04509173
:103510001F042E966CAD7DAD8EAD9FAD2E970E9493
:10352000ED42DC01CB012E968CAF9DAFAEAFBFAFAD
:103530002E9711E069A57AA58BA59CA520E030E027
:10354000A9010E94CB43882309F010E081E0812784
:10355000882319F511E06DA57EA58FA598A920E017
:1035600030E0A9010E94CB43882309F010E081E0FC
:103570008127882391F411E069A97AA98BA99CA9D4
:1035800020E030E0A9010E94CB43882309F010E03D
:1035900081E08127882309F41CC369A57AA58BA53E
:1035A0009CA529A53AA54BA55CA50E947645DC0102
:1035B000CB017C018D016DA57EA58FA598A92DA5B8
:1035C0003EA54FA558A90E947645DC01CB019C0180
:1035D000AD01C801B7010E94EE42DC01CB017C01C4
:1035E0008D0169A97AA98BA99CA929A93AA94BA9F6
:1035F0005CA90E947645DC01CB019C01AD01C801AC
:10360000B7010E94EE42DC01CB01BC01CD010E945A
:10361000BF20DC01CB0189839A83AB83BC8369A57E
:103620007AA58BA59CA529813A814B815C810E945A
:103630007645DC01CB0189A79AA7ABA7BCA76DA5EE
:103640007EA58FA598A929813A814B815C810E9432
:103650007645DC01CB018DA79EA7AFA7B8AB69A9C2
:103660007AA98BA99CA929813A814B815C810E940E
:103670007645DC01CB0189AB9AABABABBCAB80919F
:10368000E8039091E903A091EA03B091EB03209144
:10369000F0033091F1034091F2035091F303BC0128
:1036A000CD010E947645DC01CB017C018D0180912A
:1036B000E4039091E503A091E603B091E703209124
:1036C000EC033091ED034091EE035091EF03BC0108
:1036D000CD010E947645DC01CB019C01AD01C80102
:1036E000B7010E94ED42DC01CB018D839E83AF8345
:1036F000B8878091E4039091E503A091E603B0912F
:10370000E7032091E8033091E9034091EA035091E7
:10371000EB03BC01CD010E947645DC01CB017C01AD
:103720008D018091EC039091ED03A091EE03B09197
:10373000EF032091F0033091F1034091F203509197
:10374000F303BC01CD010E947645DC01CB019C0155
:10375000AD01C801B7010E94EE42DC01CB018987AF
:103760009A87AB87BC878091E4039091E503A09191
:10377000E603B091E7032091E4033091E503409123
:10378000E6035091E703BC01CD010E947645DC01C0
:10379000CB01BC01CD0120E030E040E05FE30E94BE
:1037A000ED42DC01CB017C018D018091F003909111
:1037B000F103A091F203B091F3032091F003309153
:1037C000F1034091F2035091F303BC01CD010E943B
:1037D0007645DC01CB019C01AD01C801B7010E9417
:1037E000EE42DC01CB018D879E87AF87B88B6DA53C
:1037F0007EA58FA598A92D853E854F8558890E9465
:103800007645DC01CB017C018D0169A97AA98BA9E0
:103810009CA929853A854B855C850E947645DC010B
:10382000CB019C01AD01C801B7010E94ED42DC0152
:10383000CB01898B9A8BAB8BBC8B69A97AA98BA99D
:103840009CA92D813E814F8158850E947645DC01DF
:10385000CB017C018D0169A57AA58BA59CA52D8541
:103860003E854F8558890E947645DC01CB019C013D
:10387000AD01C801B7010E94ED42DC01CB018D8B87
:103880009E8BAF8BB88F69A57AA58BA59CA5298542
:103890003A854B855C850E947645DC01CB017C0135
:1038A0008D016DA57EA58FA598A92D813E814F81A3
:1038B00058850E947645DC01CB019C01AD01C80111
:1038C000B7010E94ED42DC01CB01898F9A8FAB8F4B
:1038D000BC8F8091F4039091F503A091F603B09111
:1038E000F70311E0BC01CD0120E030E0A9010E9406
:1038F0006B4518160CF010E0112309F4E1C080911B
:10390000F4039091F503A091F603B091F703BC0185
:10391000CD0129893A894B895C890E947645DC0171
:10392000CB01BC01CD0162962CAD3DAD4EAD5FAD7E
:1039300062970E947645DC01CB012091FC03309117
:10394000FD034091FE035091FF03BC01CD010E9495
:10395000EE42DC01CB018093FC039093FD03A09326
:10396000FE03B093FF038091F4039091F503A091BF
:10397000F603B091F703BC01CD012D893E894F8933
:10398000588D0E947645DC01CB01BC01CD016296C9
:103990002CAD3DAD4EAD5FAD62970E947645DC012A
:1039A000CB01209100043091010440910204509118
:1039B0000304BC01CD010E94EE42DC01CB018093E7
:1039C000000490930104A0930204B0930304809137
:1039D000F4039091F503A091F603B091F703BC01B5
:1039E000CD01298D3A8D4B8D5C8D0E947645DC0191
:1039F000CB01BC01CD0162962CAD3DAD4EAD5FADAE
:103A000062970E947645DC01CB012091040430913D
:103A100005044091060450910704BC01CD010E94A9
:103A2000EE42DC01CB018093040490930504A09343
:103A30000604B09307042091FC033091FD034091EC
:103A4000FE035091FF036DA97EA98FA998AD0E9436
:103A5000EE42DC01CB018DAB9EABAFABB8AF20919A
:103A600000043091010440910204509103042A960D
:103A70006CAD7DAD8EAD9FAD2A970E94EE42DC010C
:103A8000CB012A968CAF9DAFAEAFBFAF2A972091E6
:103A900004043091050440910604509107042E96C9
:103AA0006CAD7DAD8EAD9FAD2E970E94EE42DC01D8
:103AB000CB012E968CAF9DAFAEAFBFAF2E9721C07E
:103AC00080E090E0DC018093FC039093FD03A093E1
:103AD000FE03B093FF0380E090E0DC0180930004DC
:103AE00090930104A0930204B093030480E090E05B
:103AF000DC018093040490930504A0930604B09322
:103B000007048091F8039091F903A091FA03B09112
:103B1000FB03BC01CD0129893A894B895C890E944C
:103B20007645DC01CB019C01AD016DA97EA98FA971
:103B300098AD0E94EE42DC01CB018DAB9EABAFABEA
:103B4000B8AF8091F8039091F903A091FA03B09176
:103B5000FB03BC01CD012D893E894F89588D0E9400
:103B60007645DC01CB019C01AD012A966CAD7DADA3
:103B70008EAD9FAD2A970E94EE42DC01CB012A96C2
:103B80008CAF9DAFAEAFBFAF2A978091F8039091F5
:103B9000F903A091FA03B091FB03BC01CD01298D7B
:103BA0003A8D4B8D5C8D0E947645DC01CB019C01EA
:103BB000AD012E966CAD7DAD8EAD9FAD2E970E9462
:103BC000EE42DC01CB012E968CAF9DAFAEAFBFAF06
:103BD0002E9762966CAD7DAD8EAD9FAD629720E065
:103BE00030E040E05FE30E947645DC01CB019C01C0
:103BF000AD016DA97EA98FA998AD0E947645DC0123
:103C0000CB018DAB9EABAFABB8AF62966CAD7DAD6B
:103C10008EAD9FAD629720E030E040E05FE30E9410
:103C20007645DC01CB019C01AD012A966CAD7DADE2
:103C30008EAD9FAD2A970E947645DC01CB012A9676
:103C40008CAF9DAFAEAFBFAF2A9762966CAD7DAD26
:103C50008EAD9FAD629720E030E040E05FE30E94D0
:103C60007645DC01CB019C01AD012E966CAD7DAD9E
:103C70008EAD9FAD2E970E947645DC01CB012E962E
:103C80008CAF9DAFAEAFBFAF2E978091E403909104
:103C9000E503A091E603B091E7038D8F9E8FAF8F70
:103CA000B8A38091E8039091E903A091EA03B09151
:103CB000EB0389A39AA3ABA3BCA38091EC039091DF
:103CC000ED03A091EE03B091EF038DA39EA3AFA3EC
:103CD000B8A789A19AA1ABA1BCA1B058BC01CD01E4
:103CE0002DA93EA94FA958AD0E947645DC01CB0114
:103CF0007C018D016DA17EA18FA198A52A962CAD86
:103D00003DAD4EAD5FAD2A970E947645DC01CB01FB
:103D10009C01AD01C801B7010E94ED42DC01CB015D
:103D20007C018D018091F0039091F103A091F20349
:103D3000B091F303BC01CD012E962CAD3DAD4EAD3F
:103D40005FAD2E970E947645DC01CB019C01AD0151
:103D5000C801B7010E94ED42DC01CB012091E403D0
:103D60003091E5034091E6035091E703BC01CD019A
:103D70000E94EE42DC01CB018093E4039093E503C3
:103D8000A093E603B093E7036D8D7E8D8F8D98A190
:103D90002DA93EA94FA958AD0E947645DC01CB0163
:103DA0007C018D016DA17EA18FA198A52E962CADD1
:103DB0003DAD4EAD5FAD2E970E947645DC01CB0147
:103DC0009C01AD01C801B7010E94EE42DC01CB01AC
:103DD0007C018D018091F0039091F103A091F20399
:103DE000B091F303BC01CD012A962CAD3DAD4EAD93
:103DF0005FAD2A970E947645DC01CB019C01AD01A5
:103E0000C801B7010E94ED42DC01CB012091E8031B
:103E10003091E9034091EA035091EB03BC01CD01DD
:103E20000E94EE42DC01CB018093E8039093E9030A
:103E3000A093EA03B093EB036D8D7E8D8F8D98A1D7
:103E40002A962CAD3DAD4EAD5FAD2A970E947645CA
:103E5000DC01CB017C018D0169A17AA18BA19CA120
:103E60002E962CAD3DAD4EAD5FAD2E970E947645A2
:103E7000DC01CB019C01AD01C801B7010E94ED42FC
:103E8000DC01CB017C018D018091F0039091F10365
:103E9000A091F203B091F303BC01CD012DA93EA97D
:103EA0004FA958AD0E947645DC01CB019C01AD01C4
:103EB000C801B7010E94EE42DC01CB012091EC0366
:103EC0003091ED034091EE035091EF03BC01CD0121
:103ED0000E94EE42DC01CB018093EC039093ED0352
:103EE000A093EE03B093EF036D8D7E8D8F8D98A11F
:103EF0002E962CAD3DAD4EAD5FAD2E970E94764512
:103F0000DC01CB017C018D0169A17AA18BA19CA16F
:103F10002A962CAD3DAD4EAD5FAD2A970E947645F9
:103F2000DC01CB019C01AD01C801B7010E94EE424A
:103F3000DC01CB017C018D016DA17EA18FA198A533
:103F40002DA93EA94FA958AD0E947645DC01CB01B1
:103F50009C01AD01C801B7010E94ED42DC01CB011B
:103F60002091F0033091F1034091F2035091F3035B
:103F7000BC01CD010E94EE42DC01CB018093F00335
:103F80009093F103A093F203B093F3038091E403C1
:103F90009091E503A091E603B091E7032091E4033B
:103FA0003091E5034091E6035091E703BC01CD0158
:103FB0000E947645DC01CB017C018D018091E803F4
:103FC0009091E903A091EA03B091EB032091E803FB
:103FD0003091E9034091EA035091EB03BC01CD011C
:103FE0000E947645DC01CB019C01AD01C801B701FF
:103FF0000E94EE42DC01CB017C018D018091EC033B
:104000009091ED03A091EE03B091EF032091EC03AA
:104010003091ED034091EE035091EF03BC01CD01CF
:104020000E947645DC01CB019C01AD01C801B701BE
:104030000E94EE42DC01CB017C018D018091F003F6
:104040009091F103A091F203B091F3032091F0035A
:104050003091F1034091F2035091F303BC01CD0183
:104060000E947645DC01CB019C01AD01C801B7017E
:104070000E94EE42DC01CB01BC01CD010E94BF20B9
:10408000DC01CB0189839A83AB83BC838091E403F9
:104090009091E503A091E603B091E703BC01CD0147
:1040A00029813A814B815C810E947645DC01CB01FC
:1040B0008093E4039093E503A093E603B093E703B2
:1040C0008091E8039091E903A091EA03B091EB039A
:1040D000BC01CD0129813A814B815C810E947645EA
:1040E000DC01CB018093E8039093E903A093EA03FA
:1040F000B093EB038091EC039091ED03A091EE035C
:10410000B091EF03BC01CD0129813A814B815C81E3
:104110000E947645DC01CB018093EC039093ED0384
:10412000A093EE03B093EF038091F0039091F1031D
:10413000A091F203B091F303BC01CD0129813A8132
:104140004B815C810E947645DC01CB018093F003BA
:104150009093F103A093F203B093F303E8960FB6A4
:10416000F894DEBF0FBECDBFDF91CF911F910F91AD
:10417000FF90EF90DF90CF90BF90AF900895EF92B7
:10418000FF920F931F93CF93DF93CDB7DEB7609766
:104190000FB6F894DEBF0FBECDBF6D877E878F87C9
:1041A000988B6D857E858F85988920E030E040E092
:1041B0005FE30E947645DC01CB0189839A83AB8360
:1041C000BC838D859E85AF85B8898D839E83AF83A3
:1041D000B887CE010596FC0180819181A281B381CF
:1041E00089879A87AB87BC8789859A85AB85BC858B
:1041F000B595A795979587952FED39E547E35FE549
:1042000079018A01E81AF90A0A0B1B0BD801C701C8
:1042100089879A87AB87BC87CE010996FC0180818C
:104220009181A281B3818D839E83AF83B8878D8175
:104230009E81AF81B885BC01CD0129813A814B8136
:104240005C810E947645DC01CB012D813E814F814E
:104250005885BC01CD010E947645DC01CB019C0153
:10426000AD0160E070E080EC9FE30E94ED42DC0174
:10427000CB012D813E814F815885BC01CD010E942B
:104280007645DC01CB018D839E83AF83B8878D811A
:104290009E81AF81B885BC01CD0160960FB6F894C0
:1042A000DEBF0FBECDBFDF91CF911F910F91FF9069
:1042B000EF900895CF93DF9300D00F92CDB7DEB784
:1042C0009A8389837C836B8389819A81813091056C
:1042D000D1F48B819C812FEF8F3F9207A1F481EB6A
:1042E00093E00E946E048AE394E00E94E6088DE366
:1042F00094E00E94E60880E494E00E94E60883E4EB
:1043000094E00E94E6080F900F900F900F90DF91BD
:10431000CF910895CF93DF93CDB7DEB781E090E0E2
:104320006FEF7FEF0E945A21DF91CF910895CF93D5
:10433000DF9300D00F920F92CDB7DEB78B837D83D2
:104340006C838C819D81805C9F4FFC018081918179
:1043500001968F7390709A83898329813A818C8129
:104360009D818E5B9F4FFC018081918141E02817E8
:10437000390709F440E04423B9F08C819D81805CC9
:104380009F4FFC01808191812C813D81820F931F81
:104390002B81FC01208329813A818C819D81805C65
:1043A0009F4FFC01318320830F900F900F900F904F
:1043B0000F90DF91CF9108951F920F920FB60F9239
:1043C00000905B000F9211242F933F934F935F93C4
:1043D0006F937F938F939F93AF93BF93EF93FF93CD
:1043E000CF93DF930F920F92CDB7DEB780EC90E0C2
:1043F000FC018081882F90E08470907021E000970C
:1044000009F020E0222361F086EC90E0FC0180813D
:1044100089832AE434E08981B9010E94972105C08B
:1044200086EC90E0FC0180818A830F900F90DF91F1
:10443000CF91FF91EF91BF91AF919F918F917F911C
:104440006F915F914F913F912F910F9000925B0080
:104450000F900FBE0F901F9018951F920F920FB6DE
:104460000F9200905B000F9211242F933F934F9374
:104470005F936F937F938F939F93AF93BF93EF93CC
:10448000FF93CF93DF930F920F92CDB7DEB788ECF7
:1044900090E0FC018081882F90E08470907021E092
:1044A000009709F020E0222361F08EEC90E0FC01FF
:1044B0008081898322ED34E08981B9010E949721AE
:1044C00005C08EEC90E0FC0180818A830F900F90F4
:1044D000DF91CF91FF91EF91BF91AF919F918F911C
:1044E0007F916F915F914F913F912F910F9000922B
:1044F0005B000F900FBE0F901F9018951F920F92A8
:104500000FB60F9200905B000F9211242F933F93F0
:104510004F935F936F937F938F939F93AF93BF93CB
:10452000EF93FF93CF93DF930F920F92CDB7DEB748
:1045300080ED90E0FC018081882F90E08470907085
:1045400021E0009709F020E0222361F086ED90E061
:10455000FC01808189832AE535E08981B9010E94C7
:10456000972105C086ED90E0FC0180818A830F9041
:104570000F90DF91CF91FF91EF91BF91AF919F91FC
:104580008F917F916F915F914F913F912F910F90FC
:1045900000925B000F900FBE0F901F9018951F9216
:1045A0000F920FB60F9200905B000F9211242F9381
:1045B0003F934F935F936F937F938F939F93AF93AB
:1045C000BF93EF93FF93CF93DF930F920F92CDB7EB
:1045D000DEB780E391E0FC018081882F90E0847059
:1045E000907021E0009709F020E0222361F086E33B
:1045F00091E0FC018081898322EE35E08981B90157
:104600000E94972105C086E391E0FC0180818A83A6
:104610000F900F90DF91CF91FF91EF91BF91AF91EC
:104620009F918F917F916F915F914F913F912F91CA
:104630000F9000925B000F900FBE0F901F90189587
:104640001F920F920FB60F9200905B000F921124F1
:104650002F933F934F938F939F93EF93FF93CF931A
:10466000DF930F92CDB7DEB72091CE043091CF0407
:104670008091D0049091D10441E02817390709F0C6
:1046800040E0442351F081EC90E021EC30E0F9016E
:1046900020812F7DFC01208319C08091D00490914E
:1046A000D10482579B4FFC01808189838091D00483
:1046B0009091D10401968F7390709093D104809360
:1046C000D00486EC90E02981FC0120830F90DF91DB
:1046D000CF91FF91EF919F918F914F913F912F91AA
:1046E0000F9000925B000F900FBE0F901F901895D7
:1046F0001F920F920FB60F9200905B000F92112441
:104700002F933F934F938F939F93EF93FF93CF9369
:10471000DF930F92CDB7DEB7209156053091570544
:10472000809158059091590541E02817390709F003
:1047300040E0442351F089EC90E029EC30E0F901AD
:1047400020812F7DFC01208319C080915805909114
:1047500059058A5E9A4FFC018081898380915805B2
:104760009091590501968F7390709093590580939D
:1047700058058EEC90E02981FC0120830F90DF9199
:10478000CF91FF91EF919F918F914F913F912F91F9
:104790000F9000925B000F900FBE0F901F90189526
:1047A0001F920F920FB60F9200905B000F92112490
:1047B0002F933F934F938F939F93EF93FF93CF93B9
:1047C000DF930F92CDB7DEB72091DE053091DF0584
:1047D0008091E0059091E10541E02817390709F043
:1047E00040E0442351F081ED90E021ED30E0F9010B
:1047F00020812F7DFC01208319C08091E0059091DC
:10480000E10582569A4FFC01808189838091E00501
:104810009091E10501968F7390709093E1058093DC
:10482000E00586ED90E02981FC0120830F90DF9167
:10483000CF91FF91EF919F918F914F913F912F9148
:104840000F9000925B000F900FBE0F901F90189575
:104850001F920F920FB60F9200905B000F921124DF
:104860002F933F934F938F939F93EF93FF93CF9308
:10487000DF930F92CDB7DEB72091660630916706C1
:10488000809168069091690641E02817390709F080
:1048900040E0442351F081E391E021E331E0F9016C
:1048A00020812F7DFC01208319C0809168069091A2
:1048B00069068A5D994FFC01808189838091680631
:1048C0009091690601968F7390709093690680931A
:1048D000680686E391E02981FC0120830F90DF9137
:1048E000CF91FF91EF919F918F914F913F912F9198
:1048F0000F9000925B000F900FBE0F901F901895C5
:104900008F929F92AF92BF92CF92DF92EF92FF92DF
:104910000F931F93CF93DF93CDB7DEB762970FB698
:10492000F894DEBF0FBECDBF9A8389837C836B83EF
:104930005E834D8338872F831A870987FC86EB8631
:10494000DE86CD86B88AAF869A8A898A89819A81DD
:104950000E94930A89819A8121E432E0FC0131832B
:10496000208389819A812B813C81FC0135872487B2
:1049700089819A812D813E81FC0137872687898133
:104980009A812F813885FC01318B208B89819A8116
:1049900029853A85FC01338B228B89819A812B856D
:1049A0003C85FC01358B248B89819A812D853E8540
:1049B000FC01378B268B89819A812F853889FC01F0
:1049C000318F208F89819A8129893A89FC01338F1F
:1049D000228F89819A812AA1FC01248F89819A8161
:1049E0002BA1FC01258F89819A812CA1FC01268FA6
:1049F00089819A812DA1FC01278F89819A812EA11D
:104A0000FC0120A362960FB6F894DEBF0FBECDBFA7
:104A1000DF91CF911F910F91FF90EF90DF90CF909A
:104A2000BF90AF909F908F900895CF93DF93CDB7B5
:104A3000DEB729970FB6F894DEBF0FBECDBF9D83BA
:104A40008C834E835F836887798781E08B838E8137
:104A50009F81A885B985803021EE920720E0A207CA
:104A600020E0B20709F41B828B81882361F18C81DD
:104A70009D81FC01848995892C813D81F90120A1CA
:104A8000422F50E021E030E002C0220F331F4A9550
:104A9000E2F7FC01208380E099E0ADE3B0E02E81F5
:104AA0003F8148855985BC01CD010E943F46DA010E
:104AB000C9010197A109B109B695A7959795879561
:104AC0009A8389831EC08C819D81FC01848995898C
:104AD000FC01108280E894E8AEE1B0E02E813F81D5
:104AE00048855985BC01CD010E943F46DA01C901C4
:104AF0000197A109B109B695A795979587959A83CE
:104B0000898389819A81F0E180309F0728F08B8129
:104B1000882311F01B82A8CF8C819D81FC018089A4
:104B2000918929813A81232F3327FC0120838C81AD
:104B30009D81FC01828993892981FC0120838C81DC
:104B40009D81FC0111A28C819D81FC018689978940
:104B50002C813D81F90126893789F9012081622F55
:104B60002C813D81F901248D422F50E021E030E07D
:104B700002C0220F331F4A95E2F7262BFC01208347
:104B80008C819D81FC01868997892C813D81F90169
:104B900026893789F9012081622F2C813D81F90115
:104BA000258D422F50E021E030E002C0220F331F5C
:104BB0004A95E2F7262BFC0120838C819D81FC0124
:104BC000868997892C813D81F90126893789F901E8
:104BD0002081622F2C813D81F901268D422F50E0EA
:104BE00021E030E002C0220F331F4A95E2F7262B66
:104BF000FC0120838C819D81FC01868997892C8111
:104C00003D81F90126893789F9012081622F2C81A4
:104C10003D81F901278D422F50E021E030E0042E44
:104C200002C0220F331F0A94E2F720952623FC01CD
:104C3000208329960FB6F894DEBF0FBECDBFDF915B
:104C4000CF910895CF93DF930F920F92CDB7DEB738
:104C50009A83898389819A81FC0184859585805C0A
:104C60009F4FFC012081318189819A81FC018485DB
:104C700095858E5B9F4FFC0180819181A901481B26
:104C8000590BCA018F7390700F900F90DF91CF91E5
:104C90000895CF93DF930F920F92CDB7DEB79A832B
:104CA000898389819A81FC0184859585805C9F4FE9
:104CB000FC012081318189819A81FC01848595855F
:104CC0008E5B9F4FFC018081918141E0281739075D
:104CD00009F040E0442319F08FEF9FEF15C0898160
:104CE0009A81FC012485358589819A81FC0184851E
:104CF00095858E5B9F4FFC0180819181820F931F70
:104D0000FC018081882F90E00F900F90DF91CF9170
:104D10000895CF93DF9300D0CDB7DEB79B838A830E
:104D20008A819B81FC0184859585805C9F4FFC0175
:104D3000208131818A819B81FC01848595858E5BF0
:104D40009F4FFC018081918141E02817390709F0CC
:104D500040E0442319F08FEF9FEF2FC08A819B81A1
:104D6000FC01248535858A819B81FC01848595859C
:104D70008E5B9F4FFC0180819181820F931FFC010C
:104D8000808189838A819B81FC01848595852A8124
:104D90003B81F901248535852E5B3F4FF901208148
:104DA00031812F5F3F4F2F7330708E5B9F4FFC011F
:104DB000318320838981882F90E00F900F900F908E
:104DC000DF91CF910895CF93DF930F920F92CDB7DC
:104DD000DEB79A83898389819A81FC0181A1882326
:104DE00079F089819A81FC0184899589FC0180810F
:104DF000882F90E080749070009711F481E001C0DA
:104E000080E0882341F789819A81FC0111A20F90EB
:104E10000F90DF91CF910895CF93DF9300D00F9241
:104E20000F92CDB7DEB79C838B836D838B819C8182
:104E3000FC0186859785805C9F4FFC018081918174
:104E400001968F7390709A83898329813A818B812F
:104E50009C81FC01868597858E5B9F4FFC0180813C
:104E6000918141E02817390709F040E0442369F7B0
:104E70008B819C81FC01268537858B819C81FC017F
:104E800086859785805C9F4FFC0180819181820F90
:104E9000931F2D81FC0120838B819C81FC018685E1
:104EA000978529813A81805C9F4FFC013183208363
:104EB0008B819C81FC01868997892B813C81F9013A
:104EC00026893789F9012081622F2B813C81F901E4
:104ED000278D422F50E021E030E0042E02C0220F47
:104EE000331F0A94E2F7262BFC0120838B819C81DF
:104EF00021E0FC0121A38B819C81FC01848995899F
:104F00002B813C81F90124893589F90120812064B4
:104F1000FC01208381E090E00F900F900F900F90A4
:104F20000F90DF91CF9108958F929F92AF92BF9291
:104F3000CF92DF92EF92FF920F931F93CF93DF9365
:104F400000D00F92CDB7DEB79A8389837C836B83C1
:104F500089819A818130910509F00FC18B819C81F3
:104F60002FEF8F3F920709F008C100D00F920F92E8
:104F70008DB79EB701966AE676E04AE454E02EE8E3
:104F800034E0E4E0DC01EC93E3E0DC011196EC9327
:104F9000E7E0DC011296EC93E5E0DC011396EC937C
:104FA000E1E0DC011496EC93CB01BA01A90125ECF8
:104FB00030E004EC10E00F2EF0ECEF2EFF24F02D8B
:104FC0000F2EF1ECCF2EDD24F02D0F2EF2ECAF2EB4
:104FD000BB24F02D0F2EF6EC8F2E9924F02D0E947D
:104FE00080240F900F900F900F900F9000D00F9291
:104FF0000F928DB79EB701966CE876E042ED54E0D3
:1050000026E135E0E4E0DC01EC93E3E0DC0111961D
:10501000EC93E7E0DC011296EC93E5E0DC011396FB
:10502000EC93E1E0DC011496EC93CB01BA01A90109
:105030002DEC30E00CEC10E00F2EF8ECEF2EFF24FE
:10504000F02D0F2EF9ECCF2EDD24F02D0F2EFAECE3
:10505000AF2EBB24F02D0F2EFEEC8F2E9924F02DB9
:105060000E9480240F900F900F900F900F9000D00F
:105070000F920F928DB79EB701966EEA76E04AE5E1
:1050800055E02EE935E0E4E0DC01EC93E3E0DC01FF
:105090001196EC93E7E0DC011296EC93E5E0DC017D
:1050A0001396EC93E1E0DC011496EC93CB01BA018A
:1050B000A90125ED30E004ED10E00F2EF0EDEF2E0C
:1050C000FF24F02D0F2EF1EDCF2EDD24F02D0F2E2D
:1050D000F2EDAF2EBB24F02D0F2EF6ED8F2E99247E
:1050E000F02D0E9480240F900F900F900F900F9042
:1050F00000D00F920F928DB79EB7019660ED76E0CB
:1051000042EE55E026E236E0E4E0DC01EC93E3E039
:10511000DC011196EC93E7E0DC011296EC93E5E0FC
:10512000DC011396EC93E1E0DC011496EC93CB01E7
:10513000BA01A90125E331E004E311E00F2EF0E309
:10514000EF2EF1E0FF2EF02D0F2EF1E3CF2EF1E048
:10515000DF2EF02D0F2EF2E3AF2EF1E0BF2EF02D5B
:105160000F2EF6E38F2EF1E09F2EF02D0E9480246B
:105170000F900F900F900F900F900F900F900F9037
:105180000F90DF91CF911F910F91FF90EF90DF90E3
:10519000CF90BF90AF909F908F900895CF93DF9363
:1051A000CDB7DEB781E090E06FEF7FEF0E949427EC
:1051B000DF91CF910895CF93DF93CDB7DEB72897D6
:1051C0000FB6F894DEBF0FBECDBF9C838B837E836A
:1051D0006D8358874F831A8219821CC08B819C81F2
:1051E000FC0180819181FC01208131818D819E8132
:1051F000FC0140818D819E8101969E838D838B81F0
:105200009C81642FF901199529813A81820F931F9E
:105210009A83898321E08F819885009709F420E0A3
:105220008F819885019798878F832223B9F689818A
:105230009A8128960FB6F894DEBF0FBECDBFDF91DE
:10524000CF910895CF93DF9300D00F920F92CDB7F7
:10525000DEB789837B836A835D834C838981883051
:1052600008F00CC18981882F90E0880F991F8E501B
:10527000994F2A813B81FC01318320838981882FCA
:1052800090E083309105A1F1843091055CF4813088
:10529000910509F49BC082309105A4F4009709F4AC
:1052A0007FC0ECC08530910509F45AC08530910566
:1052B000D4F18630910509F4A4C08730910509F432
:1052C000BDC0DCC089E690E029E630E0F90120812C
:1052D000322F3C7F2C81232BFC0120838DE390E037
:1052E0002DE330E0F90120812160FC012083C6C05C
:1052F00089E690E029E630E0F9012081422F437FE2
:105300002C813D81220F331F220F331F242BFC01E0
:1053100020838DE390E02DE330E0F90120812260CD
:10532000FC012083ABC089E690E029E630E0F9017A
:105330002081422F4F7C2C813D8122953295307FF8
:105340003227207F3227242BFC0120838DE390E03D
:105350002DE330E0F90120812460FC0120838EC020
:1053600089E690E029E630E0F9012081422F4F7371
:105370002C813D81002436952795079436952795F5
:105380000794322F202D242BFC0120838DE390E005
:105390002DE330E0F90120812860FC0120836EC0FC
:1053A0008AE690E02AE630E0F9012081322F3C7F46
:1053B0002C81232BFC0120838DE390E02DE330E052
:1053C000F90120812061FC01208358C08AE690E029
:1053D0002AE630E0F9012081422F437F2C813D8174
:1053E000220F331F220F331F242BFC0120838DE358
:1053F00090E02DE330E0F90120812062FC01208360
:105400003DC08AE690E02AE630E0F9012081422F93
:105410004F7C2C813D8122953295307F3227207F31
:105420003227242BFC0120838DE390E02DE330E034
:10543000F90120812064FC01208320C08AE690E0ED
:105440002AE630E0F9012081422F4F732C813D8103
:105450000024369527950794369527950794322F83
:10546000202D242BFC0120838DE390E02DE330E000
:10547000F90120812068FC01208300000F900F902B
:105480000F900F900F90DF91CF9108951F920F9280
:105490000FB60F9200905B000F9211242F933F9351
:1054A0004F935F936F937F938F939F93AF93BF932C
:1054B000EF93FF93CF93DF93CDB7DEB78091F606DE
:1054C0009091F706009731F08091F6069091F706DB
:1054D000FC011995DF91CF91FF91EF91BF91AF91B1
:1054E0009F918F917F916F915F914F913F912F91FC
:1054F0000F9000925B000F900FBE0F901F901895B9
:105500001F920F920FB60F9200905B000F92112422
:105510002F933F934F935F936F937F938F939F93BB
:10552000AF93BF93EF93FF93CF93DF93CDB7DEB7E6
:105530008091F8069091F906009731F08091F80675
:105540009091F906FC011995DF91CF91FF91EF91B0
:10555000BF91AF919F918F917F916F915F914F918B
:105560003F912F910F9000925B000F900FBE0F9014
:105570001F9018951F920F920FB60F9200905B002C
:105580000F9211242F933F934F935F936F937F93C9
:105590008F939F93AF93BF93EF93FF93CF93DF933B
:1055A000CDB7DEB78091FA069091FB06009731F0F7
:1055B0008091FA069091FB06FC011995DF91CF913D
:1055C000FF91EF91BF91AF919F918F917F916F91DB
:1055D0005F914F913F912F910F9000925B000F9040
:1055E0000FBE0F901F9018951F920F920FB60F923B
:1055F00000905B000F9211242F933F934F935F9382
:105600006F937F938F939F93AF93BF93EF93FF938A
:10561000CF93DF93CDB7DEB78091FC069091FD0666
:10562000009731F08091FC069091FD06FC011995E0
:10563000DF91CF91FF91EF91BF91AF919F918F91AA
:105640007F916F915F914F913F912F910F900092B9
:105650005B000F900FBE0F901F9018951F920F9236
:105660000FB60F9200905B000F9211242F933F937F
:105670004F935F936F937F938F939F93AF93BF935A
:10568000EF93FF93CF93DF93CDB7DEB78091F20610
:105690009091F306009731F08091F2069091F30615
:1056A000FC011995DF91CF91FF91EF91BF91AF91DF
:1056B0009F918F917F916F915F914F913F912F912A
:1056C0000F9000925B000F900FBE0F901F901895E7
:1056D0001F920F920FB60F9200905B000F92112451
:1056E0002F933F934F935F936F937F938F939F93EA
:1056F000AF93BF93EF93FF93CF93DF93CDB7DEB715
:105700008091F4069091F506009731F08091F406AF
:105710009091F506FC011995DF91CF91FF91EF91E2
:10572000BF91AF919F918F917F916F915F914F91B9
:105730003F912F910F9000925B000F900FBE0F9042
:105740001F9018951F920F920FB60F9200905B005A
:105750000F9211242F933F934F935F936F937F93F7
:105760008F939F93AF93BF93EF93FF93CF93DF9369
:10577000CDB7DEB78091FE069091FF06009731F01D
:105780008091FE069091FF06FC011995DF91CF9163
:10579000FF91EF91BF91AF919F918F917F916F9109
:1057A0005F914F913F912F910F9000925B000F906E
:1057B0000FBE0F901F9018951F920F920FB60F9269
:1057C00000905B000F9211242F933F934F935F93B0
:1057D0006F937F938F939F93AF93BF93EF93FF93B9
:1057E000CF93DF93CDB7DEB780910007909101078B
:1057F000009731F08091000790910107FC01199505
:10580000DF91CF91FF91EF91BF91AF919F918F91D8
:105810007F916F915F914F913F912F910F900092E7
:105820005B000F900FBE0F901F901895CF93DF93E2
:10583000CDB7DEB7DF91CF9108951F920F920FB6CB
:105840000F9211248F939F93AF93BF93CF93DF93C6
:10585000CDB7DEB72597DEBFCDBF8091060790910B
:105860000707A0910807B091090789839A83AB8342
:10587000BC8380910A078D8389819A81AB81BC8129
:105880000196A11DB11D89839A83AB83BC838D8151
:105890008D5F8D838D818D3770F08D818D578D83D8
:1058A00089819A81AB81BC810196A11DB11D89833B
:1058B0009A83AB83BC838D8180930A0789819A8107
:1058C000AB81BC818093060790930707A0930807DC
:1058D000B09309078091020790910307A0910407F4
:1058E000B09105070196A11DB11D80930207909309
:1058F0000307A0930407B09305072596DEBFCDBF2D
:10590000DF91CF91BF91AF919F918F910F900FBE7B
:105910000F901F901895CF93DF9300D00F920F92A6
:10592000CDB7DEB78FE590E0FC0180818983F894E4
:105930008091060790910707A0910807B091090789
:105940008A839B83AC83BD838FE590E02981FC0132
:1059500020838A819B81AC81BD81BC01CD010F90E8
:105960000F900F900F900F90DF91CF910895CF93EC
:10597000DF9300D000D0CDB7DEB78FE590E0FC011B
:1059800080818D83F8948091020790910307A09104
:105990000407B091050789839A83AB83BC8386E4AF
:1059A00090E0FC0180818E8385E390E0FC018081A2
:1059B000882F90E081709070882371F08E818F3FE6
:1059C00059F089819A81AB81BC810196A11DB11DDD
:1059D00089839A83AB83BC838FE590E02D81FC01A2
:1059E000208389819A81AB81BC812227382F492F5E
:1059F0005A2F8E81882F90E0A0E0B0E0820F931F95
:105A0000A41FB51F880F991FAA1FBB1F880F991FBE
:105A1000AA1FBB1FBC01CD0126960FB6F894DEBFAE
:105A20000FBECDBFDF91CF910895CF93DF9300D00C
:105A300000D0CDB7DEB76B837C838D839E830E94BD
:105A4000B72CDC01CB019A83898320C00E94B72C3C
:105A5000DC01CB019C0189819A81A901481B590B6A
:105A6000CA0153E0883E950788F08B819C81AD8107
:105A7000BE810197A109B1098B839C83AD83BE834D
:105A800089819A8188519C4F9A8389838B819C81DB
:105A9000AD81BE810097A105B105C1F626960FB66E
:105AA000F894DEBF0FBECDBFDF91CF910895CF93A5
:105AB000DF93CDB7DEB7789484E490E024E430E05F
:105AC000F90120812260FC01208384E490E024E439
:105AD00030E0F90120812160FC01208385E490E021
